{
	"contracts/Token.sol": {
		"TestTokenF": {
			"abi": [
				{
					"inputs": [
						{
							"internalType": "uint256",
							"name": "cap",
							"type": "uint256"
						},
						{
							"internalType": "uint256",
							"name": "reward",
							"type": "uint256"
						}
					],
					"stateMutability": "nonpayable",
					"type": "constructor"
				},
				{
					"inputs": [
						{
							"internalType": "uint256",
							"name": "increasedSupply",
							"type": "uint256"
						},
						{
							"internalType": "uint256",
							"name": "cap",
							"type": "uint256"
						}
					],
					"name": "ERC20ExceededCap",
					"type": "error"
				},
				{
					"inputs": [
						{
							"internalType": "address",
							"name": "spender",
							"type": "address"
						},
						{
							"internalType": "uint256",
							"name": "allowance",
							"type": "uint256"
						},
						{
							"internalType": "uint256",
							"name": "needed",
							"type": "uint256"
						}
					],
					"name": "ERC20InsufficientAllowance",
					"type": "error"
				},
				{
					"inputs": [
						{
							"internalType": "address",
							"name": "sender",
							"type": "address"
						},
						{
							"internalType": "uint256",
							"name": "balance",
							"type": "uint256"
						},
						{
							"internalType": "uint256",
							"name": "needed",
							"type": "uint256"
						}
					],
					"name": "ERC20InsufficientBalance",
					"type": "error"
				},
				{
					"inputs": [
						{
							"internalType": "address",
							"name": "approver",
							"type": "address"
						}
					],
					"name": "ERC20InvalidApprover",
					"type": "error"
				},
				{
					"inputs": [
						{
							"internalType": "uint256",
							"name": "cap",
							"type": "uint256"
						}
					],
					"name": "ERC20InvalidCap",
					"type": "error"
				},
				{
					"inputs": [
						{
							"internalType": "address",
							"name": "receiver",
							"type": "address"
						}
					],
					"name": "ERC20InvalidReceiver",
					"type": "error"
				},
				{
					"inputs": [
						{
							"internalType": "address",
							"name": "sender",
							"type": "address"
						}
					],
					"name": "ERC20InvalidSender",
					"type": "error"
				},
				{
					"inputs": [
						{
							"internalType": "address",
							"name": "spender",
							"type": "address"
						}
					],
					"name": "ERC20InvalidSpender",
					"type": "error"
				},
				{
					"anonymous": false,
					"inputs": [
						{
							"indexed": true,
							"internalType": "address",
							"name": "owner",
							"type": "address"
						},
						{
							"indexed": true,
							"internalType": "address",
							"name": "spender",
							"type": "address"
						},
						{
							"indexed": false,
							"internalType": "uint256",
							"name": "value",
							"type": "uint256"
						}
					],
					"name": "Approval",
					"type": "event"
				},
				{
					"anonymous": false,
					"inputs": [
						{
							"indexed": true,
							"internalType": "address",
							"name": "from",
							"type": "address"
						},
						{
							"indexed": true,
							"internalType": "address",
							"name": "to",
							"type": "address"
						},
						{
							"indexed": false,
							"internalType": "uint256",
							"name": "value",
							"type": "uint256"
						}
					],
					"name": "Transfer",
					"type": "event"
				},
				{
					"inputs": [
						{
							"internalType": "address",
							"name": "owner",
							"type": "address"
						},
						{
							"internalType": "address",
							"name": "spender",
							"type": "address"
						}
					],
					"name": "allowance",
					"outputs": [
						{
							"internalType": "uint256",
							"name": "",
							"type": "uint256"
						}
					],
					"stateMutability": "view",
					"type": "function"
				},
				{
					"inputs": [
						{
							"internalType": "address",
							"name": "spender",
							"type": "address"
						},
						{
							"internalType": "uint256",
							"name": "value",
							"type": "uint256"
						}
					],
					"name": "approve",
					"outputs": [
						{
							"internalType": "bool",
							"name": "",
							"type": "bool"
						}
					],
					"stateMutability": "nonpayable",
					"type": "function"
				},
				{
					"inputs": [
						{
							"internalType": "address",
							"name": "account",
							"type": "address"
						}
					],
					"name": "balanceOf",
					"outputs": [
						{
							"internalType": "uint256",
							"name": "",
							"type": "uint256"
						}
					],
					"stateMutability": "view",
					"type": "function"
				},
				{
					"inputs": [],
					"name": "blockReward",
					"outputs": [
						{
							"internalType": "uint256",
							"name": "",
							"type": "uint256"
						}
					],
					"stateMutability": "view",
					"type": "function"
				},
				{
					"inputs": [
						{
							"internalType": "uint256",
							"name": "value",
							"type": "uint256"
						}
					],
					"name": "burn",
					"outputs": [],
					"stateMutability": "nonpayable",
					"type": "function"
				},
				{
					"inputs": [
						{
							"internalType": "address",
							"name": "account",
							"type": "address"
						},
						{
							"internalType": "uint256",
							"name": "value",
							"type": "uint256"
						}
					],
					"name": "burnFrom",
					"outputs": [],
					"stateMutability": "nonpayable",
					"type": "function"
				},
				{
					"inputs": [],
					"name": "cap",
					"outputs": [
						{
							"internalType": "uint256",
							"name": "",
							"type": "uint256"
						}
					],
					"stateMutability": "view",
					"type": "function"
				},
				{
					"inputs": [],
					"name": "decimals",
					"outputs": [
						{
							"internalType": "uint8",
							"name": "",
							"type": "uint8"
						}
					],
					"stateMutability": "view",
					"type": "function"
				},
				{
					"inputs": [],
					"name": "destroy",
					"outputs": [],
					"stateMutability": "nonpayable",
					"type": "function"
				},
				{
					"inputs": [],
					"name": "name",
					"outputs": [
						{
							"internalType": "string",
							"name": "",
							"type": "string"
						}
					],
					"stateMutability": "view",
					"type": "function"
				},
				{
					"inputs": [],
					"name": "owner",
					"outputs": [
						{
							"internalType": "address payable",
							"name": "",
							"type": "address"
						}
					],
					"stateMutability": "view",
					"type": "function"
				},
				{
					"inputs": [
						{
							"internalType": "uint256",
							"name": "reward",
							"type": "uint256"
						}
					],
					"name": "setBlockReward",
					"outputs": [],
					"stateMutability": "nonpayable",
					"type": "function"
				},
				{
					"inputs": [],
					"name": "symbol",
					"outputs": [
						{
							"internalType": "string",
							"name": "",
							"type": "string"
						}
					],
					"stateMutability": "view",
					"type": "function"
				},
				{
					"inputs": [],
					"name": "totalSupply",
					"outputs": [
						{
							"internalType": "uint256",
							"name": "",
							"type": "uint256"
						}
					],
					"stateMutability": "view",
					"type": "function"
				},
				{
					"inputs": [
						{
							"internalType": "address",
							"name": "to",
							"type": "address"
						},
						{
							"internalType": "uint256",
							"name": "value",
							"type": "uint256"
						}
					],
					"name": "transfer",
					"outputs": [
						{
							"internalType": "bool",
							"name": "",
							"type": "bool"
						}
					],
					"stateMutability": "nonpayable",
					"type": "function"
				},
				{
					"inputs": [
						{
							"internalType": "address",
							"name": "from",
							"type": "address"
						},
						{
							"internalType": "address",
							"name": "to",
							"type": "address"
						},
						{
							"internalType": "uint256",
							"name": "value",
							"type": "uint256"
						}
					],
					"name": "transferFrom",
					"outputs": [
						{
							"internalType": "bool",
							"name": "",
							"type": "bool"
						}
					],
					"stateMutability": "nonpayable",
					"type": "function"
				}
			],
			"devdoc": {
				"errors": {
					"ERC20ExceededCap(uint256,uint256)": [
						{
							"details": "Total supply cap has been exceeded."
						}
					],
					"ERC20InsufficientAllowance(address,uint256,uint256)": [
						{
							"details": "Indicates a failure with the `spender`’s `allowance`. Used in transfers.",
							"params": {
								"allowance": "Amount of tokens a `spender` is allowed to operate with.",
								"needed": "Minimum amount required to perform a transfer.",
								"spender": "Address that may be allowed to operate on tokens without being their owner."
							}
						}
					],
					"ERC20InsufficientBalance(address,uint256,uint256)": [
						{
							"details": "Indicates an error related to the current `balance` of a `sender`. Used in transfers.",
							"params": {
								"balance": "Current balance for the interacting account.",
								"needed": "Minimum amount required to perform a transfer.",
								"sender": "Address whose tokens are being transferred."
							}
						}
					],
					"ERC20InvalidApprover(address)": [
						{
							"details": "Indicates a failure with the `approver` of a token to be approved. Used in approvals.",
							"params": {
								"approver": "Address initiating an approval operation."
							}
						}
					],
					"ERC20InvalidCap(uint256)": [
						{
							"details": "The supplied cap is not a valid cap."
						}
					],
					"ERC20InvalidReceiver(address)": [
						{
							"details": "Indicates a failure with the token `receiver`. Used in transfers.",
							"params": {
								"receiver": "Address to which tokens are being transferred."
							}
						}
					],
					"ERC20InvalidSender(address)": [
						{
							"details": "Indicates a failure with the token `sender`. Used in transfers.",
							"params": {
								"sender": "Address whose tokens are being transferred."
							}
						}
					],
					"ERC20InvalidSpender(address)": [
						{
							"details": "Indicates a failure with the `spender` to be approved. Used in approvals.",
							"params": {
								"spender": "Address that may be allowed to operate on tokens without being their owner."
							}
						}
					]
				},
				"events": {
					"Approval(address,address,uint256)": {
						"details": "Emitted when the allowance of a `spender` for an `owner` is set by a call to {approve}. `value` is the new allowance."
					},
					"Transfer(address,address,uint256)": {
						"details": "Emitted when `value` tokens are moved from one account (`from`) to another (`to`). Note that `value` may be zero."
					}
				},
				"kind": "dev",
				"methods": {
					"allowance(address,address)": {
						"details": "See {IERC20-allowance}."
					},
					"approve(address,uint256)": {
						"details": "See {IERC20-approve}. NOTE: If `value` is the maximum `uint256`, the allowance is not updated on `transferFrom`. This is semantically equivalent to an infinite approval. Requirements: - `spender` cannot be the zero address."
					},
					"balanceOf(address)": {
						"details": "See {IERC20-balanceOf}."
					},
					"burn(uint256)": {
						"details": "Destroys a `value` amount of tokens from the caller. See {ERC20-_burn}."
					},
					"burnFrom(address,uint256)": {
						"details": "Destroys a `value` amount of tokens from `account`, deducting from the caller's allowance. See {ERC20-_burn} and {ERC20-allowance}. Requirements: - the caller must have allowance for ``accounts``'s tokens of at least `value`."
					},
					"cap()": {
						"details": "Returns the cap on the token's total supply."
					},
					"decimals()": {
						"details": "Returns the number of decimals used to get its user representation. For example, if `decimals` equals `2`, a balance of `505` tokens should be displayed to a user as `5.05` (`505 / 10 ** 2`). Tokens usually opt for a value of 18, imitating the relationship between Ether and Wei. This is the default value returned by this function, unless it's overridden. NOTE: This information is only used for _display_ purposes: it in no way affects any of the arithmetic of the contract, including {IERC20-balanceOf} and {IERC20-transfer}."
					},
					"name()": {
						"details": "Returns the name of the token."
					},
					"symbol()": {
						"details": "Returns the symbol of the token, usually a shorter version of the name."
					},
					"totalSupply()": {
						"details": "See {IERC20-totalSupply}."
					},
					"transfer(address,uint256)": {
						"details": "See {IERC20-transfer}. Requirements: - `to` cannot be the zero address. - the caller must have a balance of at least `value`."
					},
					"transferFrom(address,address,uint256)": {
						"details": "See {IERC20-transferFrom}. Emits an {Approval} event indicating the updated allowance. This is not required by the EIP. See the note at the beginning of {ERC20}. NOTE: Does not update the allowance if the current allowance is the maximum `uint256`. Requirements: - `from` and `to` cannot be the zero address. - `from` must have a balance of at least `value`. - the caller must have allowance for ``from``'s tokens of at least `value`."
					}
				},
				"version": 1
			},
			"evm": {
				"assembly": "    /* \"contracts/Token.sol\":266:1908  contract TestTokenF is ERC20Capped,ERC20Burnable {... */\n  mstore(0x40, 0xa0)\n    /* \"contracts/Token.sol\":390:632  constructor(uint256 cap, uint256 reward) ERC20(\"TokenF\",\"TKF\") ERC20Capped(cap*(10**decimals())){... */\n  callvalue\n  dup1\n  iszero\n  tag_1\n  jumpi\n  0x00\n  dup1\n  revert\ntag_1:\n  pop\n  mload(0x40)\n  sub(codesize, bytecodeSize)\n  dup1\n  bytecodeSize\n  dup4\n  codecopy\n  dup2\n  dup2\n  add\n  0x40\n  mstore\n  dup2\n  add\n  swap1\n  tag_2\n  swap2\n  swap1\n  tag_3\n  jump\t// in\ntag_2:\n    /* \"contracts/Token.sol\":474:484  decimals() */\n  tag_5\n    /* \"contracts/Token.sol\":474:482  decimals */\n  shl(0x20, tag_6)\n    /* \"contracts/Token.sol\":474:484  decimals() */\n  0x20\n  shr\n  jump\t// in\ntag_5:\n    /* \"contracts/Token.sol\":470:472  10 */\n  0x0a\n    /* \"contracts/Token.sol\":470:484  10**decimals() */\n  tag_7\n  swap2\n  swap1\n  tag_8\n  jump\t// in\ntag_7:\n    /* \"contracts/Token.sol\":465:468  cap */\n  dup3\n    /* \"contracts/Token.sol\":465:485  cap*(10**decimals()) */\n  tag_9\n  swap2\n  swap1\n  tag_10\n  jump\t// in\ntag_9:\n    /* \"@openzeppelin/contracts/token/ERC20/ERC20.sol\":1896:2009  constructor(string memory name_, string memory symbol_) {... */\n  mload(0x40)\n  dup1\n  0x40\n  add\n  0x40\n  mstore\n  dup1\n  0x06\n  dup2\n  mstore\n  0x20\n  add\n  0x546f6b656e460000000000000000000000000000000000000000000000000000\n  dup2\n  mstore\n  pop\n  mload(0x40)\n  dup1\n  0x40\n  add\n  0x40\n  mstore\n  dup1\n  0x03\n  dup2\n  mstore\n  0x20\n  add\n  0x544b460000000000000000000000000000000000000000000000000000000000\n  dup2\n  mstore\n  pop\n    /* \"@openzeppelin/contracts/token/ERC20/ERC20.sol\":1970:1975  name_ */\n  dup2\n    /* \"@openzeppelin/contracts/token/ERC20/ERC20.sol\":1962:1967  _name */\n  0x03\n    /* \"@openzeppelin/contracts/token/ERC20/ERC20.sol\":1962:1975  _name = name_ */\n  swap1\n  dup2\n  tag_14\n  swap2\n  swap1\n  tag_15\n  jump\t// in\ntag_14:\n  pop\n    /* \"@openzeppelin/contracts/token/ERC20/ERC20.sol\":1995:2002  symbol_ */\n  dup1\n    /* \"@openzeppelin/contracts/token/ERC20/ERC20.sol\":1985:1992  _symbol */\n  0x04\n    /* \"@openzeppelin/contracts/token/ERC20/ERC20.sol\":1985:2002  _symbol = symbol_ */\n  swap1\n  dup2\n  tag_16\n  swap2\n  swap1\n  tag_15\n  jump\t// in\ntag_16:\n  pop\n    /* \"@openzeppelin/contracts/token/ERC20/ERC20.sol\":1896:2009  constructor(string memory name_, string memory symbol_) {... */\n  pop\n  pop\n    /* \"@openzeppelin/contracts/token/ERC20/extensions/ERC20Capped.sol\":764:765  0 */\n  0x00\n    /* \"@openzeppelin/contracts/token/ERC20/extensions/ERC20Capped.sol\":756:760  cap_ */\n  dup2\n    /* \"@openzeppelin/contracts/token/ERC20/extensions/ERC20Capped.sol\":756:765  cap_ == 0 */\n  sub\n    /* \"@openzeppelin/contracts/token/ERC20/extensions/ERC20Capped.sol\":752:817  if (cap_ == 0) {... */\n  tag_18\n  jumpi\n    /* \"@openzeppelin/contracts/token/ERC20/extensions/ERC20Capped.sol\":804:805  0 */\n  0x00\n    /* \"@openzeppelin/contracts/token/ERC20/extensions/ERC20Capped.sol\":788:806  ERC20InvalidCap(0) */\n  mload(0x40)\n  0x392e1e2700000000000000000000000000000000000000000000000000000000\n  dup2\n  mstore\n  0x04\n  add\n  tag_19\n  swap2\n  swap1\n  tag_20\n  jump\t// in\ntag_19:\n  mload(0x40)\n  dup1\n  swap2\n  sub\n  swap1\n  revert\n    /* \"@openzeppelin/contracts/token/ERC20/extensions/ERC20Capped.sol\":752:817  if (cap_ == 0) {... */\ntag_18:\n    /* \"@openzeppelin/contracts/token/ERC20/extensions/ERC20Capped.sol\":833:837  cap_ */\n  dup1\n    /* \"@openzeppelin/contracts/token/ERC20/extensions/ERC20Capped.sol\":826:837  _cap = cap_ */\n  0x80\n  dup2\n  dup2\n  mstore\n  pop\n  pop\n    /* \"@openzeppelin/contracts/token/ERC20/extensions/ERC20Capped.sol\":716:844  constructor(uint256 cap_) {... */\n  pop\n    /* \"contracts/Token.sol\":511:521  msg.sender */\n  caller\n    /* \"contracts/Token.sol\":497:502  owner */\n  0x05\n  0x00\n    /* \"contracts/Token.sol\":497:522  owner=payable(msg.sender) */\n  0x0100\n  exp\n  dup2\n  sload\n  dup2\n  0xffffffffffffffffffffffffffffffffffffffff\n  mul\n  not\n  and\n  swap1\n  dup4\n  0xffffffffffffffffffffffffffffffffffffffff\n  and\n  mul\n  or\n  swap1\n  sstore\n  pop\n    /* \"contracts/Token.sol\":535:578  _mint(msg.sender,70000000*(10**decimals())) */\n  tag_22\n    /* \"contracts/Token.sol\":541:551  msg.sender */\n  caller\n    /* \"contracts/Token.sol\":566:576  decimals() */\n  tag_23\n    /* \"contracts/Token.sol\":566:574  decimals */\n  shl(0x20, tag_6)\n    /* \"contracts/Token.sol\":566:576  decimals() */\n  0x20\n  shr\n  jump\t// in\ntag_23:\n    /* \"contracts/Token.sol\":562:564  10 */\n  0x0a\n    /* \"contracts/Token.sol\":562:576  10**decimals() */\n  tag_24\n  swap2\n  swap1\n  tag_8\n  jump\t// in\ntag_24:\n    /* \"contracts/Token.sol\":552:560  70000000 */\n  0x042c1d80\n    /* \"contracts/Token.sol\":552:577  70000000*(10**decimals()) */\n  tag_25\n  swap2\n  swap1\n  tag_10\n  jump\t// in\ntag_25:\n    /* \"contracts/Token.sol\":535:540  _mint */\n  shl(0x20, tag_26)\n    /* \"contracts/Token.sol\":535:578  _mint(msg.sender,70000000*(10**decimals())) */\n  0x20\n  shr\n  jump\t// in\ntag_22:\n    /* \"contracts/Token.sol\":613:623  decimals() */\n  tag_27\n    /* \"contracts/Token.sol\":613:621  decimals */\n  shl(0x20, tag_6)\n    /* \"contracts/Token.sol\":613:623  decimals() */\n  0x20\n  shr\n  jump\t// in\ntag_27:\n    /* \"contracts/Token.sol\":609:611  10 */\n  0x0a\n    /* \"contracts/Token.sol\":609:623  10**decimals() */\n  tag_28\n  swap2\n  swap1\n  tag_8\n  jump\t// in\ntag_28:\n    /* \"contracts/Token.sol\":601:607  reward */\n  dup2\n    /* \"contracts/Token.sol\":601:624  reward*(10**decimals()) */\n  tag_29\n  swap2\n  swap1\n  tag_10\n  jump\t// in\ntag_29:\n    /* \"contracts/Token.sol\":589:600  blockReward */\n  0x06\n    /* \"contracts/Token.sol\":589:624  blockReward=reward*(10**decimals()) */\n  dup2\n  swap1\n  sstore\n  pop\n    /* \"contracts/Token.sol\":390:632  constructor(uint256 cap, uint256 reward) ERC20(\"TokenF\",\"TKF\") ERC20Capped(cap*(10**decimals())){... */\n  pop\n  pop\n    /* \"contracts/Token.sol\":266:1908  contract TestTokenF is ERC20Capped,ERC20Burnable {... */\n  jump(tag_30)\n    /* \"@openzeppelin/contracts/token/ERC20/ERC20.sol\":3002:3084  function decimals() public view virtual returns (uint8) {... */\ntag_6:\n    /* \"@openzeppelin/contracts/token/ERC20/ERC20.sol\":3051:3056  uint8 */\n  0x00\n    /* \"@openzeppelin/contracts/token/ERC20/ERC20.sol\":3075:3077  18 */\n  0x12\n    /* \"@openzeppelin/contracts/token/ERC20/ERC20.sol\":3068:3077  return 18 */\n  swap1\n  pop\n    /* \"@openzeppelin/contracts/token/ERC20/ERC20.sol\":3002:3084  function decimals() public view virtual returns (uint8) {... */\n  swap1\n  jump\t// out\n    /* \"@openzeppelin/contracts/token/ERC20/ERC20.sol\":7721:7929  function _mint(address account, uint256 value) internal {... */\ntag_26:\n    /* \"@openzeppelin/contracts/token/ERC20/ERC20.sol\":7810:7811  0 */\n  0x00\n    /* \"@openzeppelin/contracts/token/ERC20/ERC20.sol\":7791:7812  account == address(0) */\n  0xffffffffffffffffffffffffffffffffffffffff\n  and\n    /* \"@openzeppelin/contracts/token/ERC20/ERC20.sol\":7791:7798  account */\n  dup3\n    /* \"@openzeppelin/contracts/token/ERC20/ERC20.sol\":7791:7812  account == address(0) */\n  0xffffffffffffffffffffffffffffffffffffffff\n  and\n  sub\n    /* \"@openzeppelin/contracts/token/ERC20/ERC20.sol\":7787:7878  if (account == address(0)) {... */\n  tag_33\n  jumpi\n    /* \"@openzeppelin/contracts/token/ERC20/ERC20.sol\":7864:7865  0 */\n  0x00\n    /* \"@openzeppelin/contracts/token/ERC20/ERC20.sol\":7835:7867  ERC20InvalidReceiver(address(0)) */\n  mload(0x40)\n  0xec442f0500000000000000000000000000000000000000000000000000000000\n  dup2\n  mstore\n  0x04\n  add\n  tag_34\n  swap2\n  swap1\n  tag_35\n  jump\t// in\ntag_34:\n  mload(0x40)\n  dup1\n  swap2\n  sub\n  swap1\n  revert\n    /* \"@openzeppelin/contracts/token/ERC20/ERC20.sol\":7787:7878  if (account == address(0)) {... */\ntag_33:\n    /* \"@openzeppelin/contracts/token/ERC20/ERC20.sol\":7887:7922  _update(address(0), account, value) */\n  tag_36\n    /* \"@openzeppelin/contracts/token/ERC20/ERC20.sol\":7903:7904  0 */\n  0x00\n    /* \"@openzeppelin/contracts/token/ERC20/ERC20.sol\":7907:7914  account */\n  dup4\n    /* \"@openzeppelin/contracts/token/ERC20/ERC20.sol\":7916:7921  value */\n  dup4\n    /* \"@openzeppelin/contracts/token/ERC20/ERC20.sol\":7887:7894  _update */\n  shl(0x20, tag_37)\n    /* \"@openzeppelin/contracts/token/ERC20/ERC20.sol\":7887:7922  _update(address(0), account, value) */\n  0x20\n  shr\n  jump\t// in\ntag_36:\n    /* \"@openzeppelin/contracts/token/ERC20/ERC20.sol\":7721:7929  function _mint(address account, uint256 value) internal {... */\n  pop\n  pop\n  jump\t// out\n    /* \"contracts/Token.sol\":644:1097  function _update(address from, address to, uint256 value) internal virtual override(ERC20Capped,ERC20) {... */\ntag_37:\n    /* \"contracts/Token.sol\":758:788  super._update(from, to, value) */\n  tag_39\n    /* \"contracts/Token.sol\":772:776  from */\n  dup4\n    /* \"contracts/Token.sol\":778:780  to */\n  dup4\n    /* \"contracts/Token.sol\":782:787  value */\n  dup4\n    /* \"contracts/Token.sol\":758:771  super._update */\n  shl(0x20, tag_40)\n    /* \"contracts/Token.sol\":758:788  super._update(from, to, value) */\n  0x20\n  shr\n  jump\t// in\ntag_39:\n    /* \"contracts/Token.sol\":821:822  0 */\n  0x00\n    /* \"contracts/Token.sol\":805:823  from == address(0) */\n  0xffffffffffffffffffffffffffffffffffffffff\n  and\n    /* \"contracts/Token.sol\":805:809  from */\n  dup4\n    /* \"contracts/Token.sol\":805:823  from == address(0) */\n  0xffffffffffffffffffffffffffffffffffffffff\n  and\n  eq\n    /* \"contracts/Token.sol\":805:846  from == address(0) && to !=block.coinbase */\n  dup1\n  iszero\n  tag_41\n  jumpi\n  pop\n    /* \"contracts/Token.sol\":832:846  block.coinbase */\n  coinbase\n    /* \"contracts/Token.sol\":827:846  to !=block.coinbase */\n  0xffffffffffffffffffffffffffffffffffffffff\n  and\n    /* \"contracts/Token.sol\":827:829  to */\n  dup3\n    /* \"contracts/Token.sol\":827:846  to !=block.coinbase */\n  0xffffffffffffffffffffffffffffffffffffffff\n  and\n  eq\n  iszero\n    /* \"contracts/Token.sol\":805:846  from == address(0) && to !=block.coinbase */\ntag_41:\n    /* \"contracts/Token.sol\":805:876  from == address(0) && to !=block.coinbase && block.coinbase!=address(0) */\n  dup1\n  iszero\n  tag_42\n  jumpi\n  pop\n    /* \"contracts/Token.sol\":874:875  0 */\n  0x00\n    /* \"contracts/Token.sol\":850:876  block.coinbase!=address(0) */\n  0xffffffffffffffffffffffffffffffffffffffff\n  and\n    /* \"contracts/Token.sol\":850:864  block.coinbase */\n  coinbase\n    /* \"contracts/Token.sol\":850:876  block.coinbase!=address(0) */\n  0xffffffffffffffffffffffffffffffffffffffff\n  and\n  eq\n  iszero\n    /* \"contracts/Token.sol\":805:876  from == address(0) && to !=block.coinbase && block.coinbase!=address(0) */\ntag_42:\n    /* \"contracts/Token.sol\":801:1090  if (from == address(0) && to !=block.coinbase && block.coinbase!=address(0)) {... */\n  iszero\n  tag_43\n  jumpi\n    /* \"contracts/Token.sol\":893:910  uint256 maxSupply */\n  0x00\n    /* \"contracts/Token.sol\":913:918  cap() */\n  tag_44\n    /* \"contracts/Token.sol\":913:916  cap */\n  shl(0x20, tag_45)\n    /* \"contracts/Token.sol\":913:918  cap() */\n  0x20\n  shr\n  jump\t// in\ntag_44:\n    /* \"contracts/Token.sol\":893:918  uint256 maxSupply = cap() */\n  swap1\n  pop\n    /* \"contracts/Token.sol\":933:947  uint256 supply */\n  0x00\n    /* \"contracts/Token.sol\":950:963  totalSupply() */\n  tag_46\n    /* \"contracts/Token.sol\":950:961  totalSupply */\n  shl(0x20, tag_47)\n    /* \"contracts/Token.sol\":950:963  totalSupply() */\n  0x20\n  shr\n  jump\t// in\ntag_46:\n    /* \"contracts/Token.sol\":933:963  uint256 supply = totalSupply() */\n  swap1\n  pop\n    /* \"contracts/Token.sol\":991:1000  maxSupply */\n  dup2\n    /* \"contracts/Token.sol\":982:988  supply */\n  dup2\n    /* \"contracts/Token.sol\":982:1000  supply > maxSupply */\n  gt\n    /* \"contracts/Token.sol\":978:1079  if (supply > maxSupply) {... */\n  iszero\n  tag_48\n  jumpi\n    /* \"contracts/Token.sol\":1045:1051  supply */\n  dup1\n    /* \"contracts/Token.sol\":1053:1062  maxSupply */\n  dup3\n    /* \"contracts/Token.sol\":1028:1063  ERC20ExceededCap(supply, maxSupply) */\n  mload(0x40)\n  0x9e79f85400000000000000000000000000000000000000000000000000000000\n  dup2\n  mstore\n  0x04\n  add\n  tag_49\n  swap3\n  swap2\n  swap1\n  tag_50\n  jump\t// in\ntag_49:\n  mload(0x40)\n  dup1\n  swap2\n  sub\n  swap1\n  revert\n    /* \"contracts/Token.sol\":978:1079  if (supply > maxSupply) {... */\ntag_48:\n    /* \"contracts/Token.sol\":878:1090  {... */\n  pop\n  pop\n    /* \"contracts/Token.sol\":801:1090  if (from == address(0) && to !=block.coinbase && block.coinbase!=address(0)) {... */\ntag_43:\n    /* \"contracts/Token.sol\":644:1097  function _update(address from, address to, uint256 value) internal virtual override(ERC20Capped,ERC20) {... */\n  pop\n  pop\n  pop\n  jump\t// out\n    /* \"@openzeppelin/contracts/token/ERC20/extensions/ERC20Capped.sol\":1059:1430  function _update(address from, address to, uint256 value) internal virtual override {... */\ntag_40:\n    /* \"@openzeppelin/contracts/token/ERC20/extensions/ERC20Capped.sol\":1153:1183  super._update(from, to, value) */\n  tag_52\n    /* \"@openzeppelin/contracts/token/ERC20/extensions/ERC20Capped.sol\":1167:1171  from */\n  dup4\n    /* \"@openzeppelin/contracts/token/ERC20/extensions/ERC20Capped.sol\":1173:1175  to */\n  dup4\n    /* \"@openzeppelin/contracts/token/ERC20/extensions/ERC20Capped.sol\":1177:1182  value */\n  dup4\n    /* \"@openzeppelin/contracts/token/ERC20/extensions/ERC20Capped.sol\":1153:1166  super._update */\n  shl(0x20, tag_53)\n    /* \"@openzeppelin/contracts/token/ERC20/extensions/ERC20Capped.sol\":1153:1183  super._update(from, to, value) */\n  0x20\n  shr\n  jump\t// in\ntag_52:\n    /* \"@openzeppelin/contracts/token/ERC20/extensions/ERC20Capped.sol\":1214:1215  0 */\n  0x00\n    /* \"@openzeppelin/contracts/token/ERC20/extensions/ERC20Capped.sol\":1198:1216  from == address(0) */\n  0xffffffffffffffffffffffffffffffffffffffff\n  and\n    /* \"@openzeppelin/contracts/token/ERC20/extensions/ERC20Capped.sol\":1198:1202  from */\n  dup4\n    /* \"@openzeppelin/contracts/token/ERC20/extensions/ERC20Capped.sol\":1198:1216  from == address(0) */\n  0xffffffffffffffffffffffffffffffffffffffff\n  and\n  sub\n    /* \"@openzeppelin/contracts/token/ERC20/extensions/ERC20Capped.sol\":1194:1424  if (from == address(0)) {... */\n  tag_54\n  jumpi\n    /* \"@openzeppelin/contracts/token/ERC20/extensions/ERC20Capped.sol\":1232:1249  uint256 maxSupply */\n  0x00\n    /* \"@openzeppelin/contracts/token/ERC20/extensions/ERC20Capped.sol\":1252:1257  cap() */\n  tag_55\n    /* \"@openzeppelin/contracts/token/ERC20/extensions/ERC20Capped.sol\":1252:1255  cap */\n  shl(0x20, tag_45)\n    /* \"@openzeppelin/contracts/token/ERC20/extensions/ERC20Capped.sol\":1252:1257  cap() */\n  0x20\n  shr\n  jump\t// in\ntag_55:\n    /* \"@openzeppelin/contracts/token/ERC20/extensions/ERC20Capped.sol\":1232:1257  uint256 maxSupply = cap() */\n  swap1\n  pop\n    /* \"@openzeppelin/contracts/token/ERC20/extensions/ERC20Capped.sol\":1271:1285  uint256 supply */\n  0x00\n    /* \"@openzeppelin/contracts/token/ERC20/extensions/ERC20Capped.sol\":1288:1301  totalSupply() */\n  tag_56\n    /* \"@openzeppelin/contracts/token/ERC20/extensions/ERC20Capped.sol\":1288:1299  totalSupply */\n  shl(0x20, tag_47)\n    /* \"@openzeppelin/contracts/token/ERC20/extensions/ERC20Capped.sol\":1288:1301  totalSupply() */\n  0x20\n  shr\n  jump\t// in\ntag_56:\n    /* \"@openzeppelin/contracts/token/ERC20/extensions/ERC20Capped.sol\":1271:1301  uint256 supply = totalSupply() */\n  swap1\n  pop\n    /* \"@openzeppelin/contracts/token/ERC20/extensions/ERC20Capped.sol\":1328:1337  maxSupply */\n  dup2\n    /* \"@openzeppelin/contracts/token/ERC20/extensions/ERC20Capped.sol\":1319:1325  supply */\n  dup2\n    /* \"@openzeppelin/contracts/token/ERC20/extensions/ERC20Capped.sol\":1319:1337  supply > maxSupply */\n  gt\n    /* \"@openzeppelin/contracts/token/ERC20/extensions/ERC20Capped.sol\":1315:1414  if (supply > maxSupply) {... */\n  iszero\n  tag_57\n  jumpi\n    /* \"@openzeppelin/contracts/token/ERC20/extensions/ERC20Capped.sol\":1381:1387  supply */\n  dup1\n    /* \"@openzeppelin/contracts/token/ERC20/extensions/ERC20Capped.sol\":1389:1398  maxSupply */\n  dup3\n    /* \"@openzeppelin/contracts/token/ERC20/extensions/ERC20Capped.sol\":1364:1399  ERC20ExceededCap(supply, maxSupply) */\n  mload(0x40)\n  0x9e79f85400000000000000000000000000000000000000000000000000000000\n  dup2\n  mstore\n  0x04\n  add\n  tag_58\n  swap3\n  swap2\n  swap1\n  tag_50\n  jump\t// in\ntag_58:\n  mload(0x40)\n  dup1\n  swap2\n  sub\n  swap1\n  revert\n    /* \"@openzeppelin/contracts/token/ERC20/extensions/ERC20Capped.sol\":1315:1414  if (supply > maxSupply) {... */\ntag_57:\n    /* \"@openzeppelin/contracts/token/ERC20/extensions/ERC20Capped.sol\":1218:1424  {... */\n  pop\n  pop\n    /* \"@openzeppelin/contracts/token/ERC20/extensions/ERC20Capped.sol\":1194:1424  if (from == address(0)) {... */\ntag_54:\n    /* \"@openzeppelin/contracts/token/ERC20/extensions/ERC20Capped.sol\":1059:1430  function _update(address from, address to, uint256 value) internal virtual override {... */\n  pop\n  pop\n  pop\n  jump\t// out\n    /* \"@openzeppelin/contracts/token/ERC20/extensions/ERC20Capped.sol\":923:1004  function cap() public view virtual returns (uint256) {... */\ntag_45:\n    /* \"@openzeppelin/contracts/token/ERC20/extensions/ERC20Capped.sol\":967:974  uint256 */\n  0x00\n    /* \"@openzeppelin/contracts/token/ERC20/extensions/ERC20Capped.sol\":993:997  _cap */\n  mload(0x80)\n    /* \"@openzeppelin/contracts/token/ERC20/extensions/ERC20Capped.sol\":986:997  return _cap */\n  swap1\n  pop\n    /* \"@openzeppelin/contracts/token/ERC20/extensions/ERC20Capped.sol\":923:1004  function cap() public view virtual returns (uint256) {... */\n  swap1\n  jump\t// out\n    /* \"@openzeppelin/contracts/token/ERC20/ERC20.sol\":3144:3241  function totalSupply() public view virtual returns (uint256) {... */\ntag_47:\n    /* \"@openzeppelin/contracts/token/ERC20/ERC20.sol\":3196:3203  uint256 */\n  0x00\n    /* \"@openzeppelin/contracts/token/ERC20/ERC20.sol\":3222:3234  _totalSupply */\n  sload(0x02)\n    /* \"@openzeppelin/contracts/token/ERC20/ERC20.sol\":3215:3234  return _totalSupply */\n  swap1\n  pop\n    /* \"@openzeppelin/contracts/token/ERC20/ERC20.sol\":3144:3241  function totalSupply() public view virtual returns (uint256) {... */\n  swap1\n  jump\t// out\n    /* \"@openzeppelin/contracts/token/ERC20/ERC20.sol\":6271:7378  function _update(address from, address to, uint256 value) internal virtual {... */\ntag_53:\n    /* \"@openzeppelin/contracts/token/ERC20/ERC20.sol\":6376:6377  0 */\n  0x00\n    /* \"@openzeppelin/contracts/token/ERC20/ERC20.sol\":6360:6378  from == address(0) */\n  0xffffffffffffffffffffffffffffffffffffffff\n  and\n    /* \"@openzeppelin/contracts/token/ERC20/ERC20.sol\":6360:6364  from */\n  dup4\n    /* \"@openzeppelin/contracts/token/ERC20/ERC20.sol\":6360:6378  from == address(0) */\n  0xffffffffffffffffffffffffffffffffffffffff\n  and\n  sub\n    /* \"@openzeppelin/contracts/token/ERC20/ERC20.sol\":6356:6896  if (from == address(0)) {... */\n  tag_62\n  jumpi\n    /* \"@openzeppelin/contracts/token/ERC20/ERC20.sol\":6512:6517  value */\n  dup1\n    /* \"@openzeppelin/contracts/token/ERC20/ERC20.sol\":6496:6508  _totalSupply */\n  0x02\n  0x00\n    /* \"@openzeppelin/contracts/token/ERC20/ERC20.sol\":6496:6517  _totalSupply += value */\n  dup3\n  dup3\n  sload\n  tag_63\n  swap2\n  swap1\n  tag_64\n  jump\t// in\ntag_63:\n  swap3\n  pop\n  pop\n  dup2\n  swap1\n  sstore\n  pop\n    /* \"@openzeppelin/contracts/token/ERC20/ERC20.sol\":6356:6896  if (from == address(0)) {... */\n  jump(tag_65)\ntag_62:\n    /* \"@openzeppelin/contracts/token/ERC20/ERC20.sol\":6548:6567  uint256 fromBalance */\n  0x00\n    /* \"@openzeppelin/contracts/token/ERC20/ERC20.sol\":6570:6579  _balances */\n  dup1\n    /* \"@openzeppelin/contracts/token/ERC20/ERC20.sol\":6570:6585  _balances[from] */\n  0x00\n    /* \"@openzeppelin/contracts/token/ERC20/ERC20.sol\":6580:6584  from */\n  dup6\n    /* \"@openzeppelin/contracts/token/ERC20/ERC20.sol\":6570:6585  _balances[from] */\n  0xffffffffffffffffffffffffffffffffffffffff\n  and\n  0xffffffffffffffffffffffffffffffffffffffff\n  and\n  dup2\n  mstore\n  0x20\n  add\n  swap1\n  dup2\n  mstore\n  0x20\n  add\n  0x00\n  keccak256\n  sload\n    /* \"@openzeppelin/contracts/token/ERC20/ERC20.sol\":6548:6585  uint256 fromBalance = _balances[from] */\n  swap1\n  pop\n    /* \"@openzeppelin/contracts/token/ERC20/ERC20.sol\":6617:6622  value */\n  dup2\n    /* \"@openzeppelin/contracts/token/ERC20/ERC20.sol\":6603:6614  fromBalance */\n  dup2\n    /* \"@openzeppelin/contracts/token/ERC20/ERC20.sol\":6603:6622  fromBalance < value */\n  lt\n    /* \"@openzeppelin/contracts/token/ERC20/ERC20.sol\":6599:6714  if (fromBalance < value) {... */\n  iszero\n  tag_66\n  jumpi\n    /* \"@openzeppelin/contracts/token/ERC20/ERC20.sol\":6674:6678  from */\n  dup4\n    /* \"@openzeppelin/contracts/token/ERC20/ERC20.sol\":6680:6691  fromBalance */\n  dup2\n    /* \"@openzeppelin/contracts/token/ERC20/ERC20.sol\":6693:6698  value */\n  dup4\n    /* \"@openzeppelin/contracts/token/ERC20/ERC20.sol\":6649:6699  ERC20InsufficientBalance(from, fromBalance, value) */\n  mload(0x40)\n  0xe450d38c00000000000000000000000000000000000000000000000000000000\n  dup2\n  mstore\n  0x04\n  add\n  tag_67\n  swap4\n  swap3\n  swap2\n  swap1\n  tag_68\n  jump\t// in\ntag_67:\n  mload(0x40)\n  dup1\n  swap2\n  sub\n  swap1\n  revert\n    /* \"@openzeppelin/contracts/token/ERC20/ERC20.sol\":6599:6714  if (fromBalance < value) {... */\ntag_66:\n    /* \"@openzeppelin/contracts/token/ERC20/ERC20.sol\":6866:6871  value */\n  dup2\n    /* \"@openzeppelin/contracts/token/ERC20/ERC20.sol\":6852:6863  fromBalance */\n  dup2\n    /* \"@openzeppelin/contracts/token/ERC20/ERC20.sol\":6852:6871  fromBalance - value */\n  sub\n    /* \"@openzeppelin/contracts/token/ERC20/ERC20.sol\":6834:6843  _balances */\n  0x00\n    /* \"@openzeppelin/contracts/token/ERC20/ERC20.sol\":6834:6849  _balances[from] */\n  dup1\n    /* \"@openzeppelin/contracts/token/ERC20/ERC20.sol\":6844:6848  from */\n  dup7\n    /* \"@openzeppelin/contracts/token/ERC20/ERC20.sol\":6834:6849  _balances[from] */\n  0xffffffffffffffffffffffffffffffffffffffff\n  and\n  0xffffffffffffffffffffffffffffffffffffffff\n  and\n  dup2\n  mstore\n  0x20\n  add\n  swap1\n  dup2\n  mstore\n  0x20\n  add\n  0x00\n  keccak256\n    /* \"@openzeppelin/contracts/token/ERC20/ERC20.sol\":6834:6871  _balances[from] = fromBalance - value */\n  dup2\n  swap1\n  sstore\n  pop\n    /* \"@openzeppelin/contracts/token/ERC20/ERC20.sol\":6534:6896  {... */\n  pop\n    /* \"@openzeppelin/contracts/token/ERC20/ERC20.sol\":6356:6896  if (from == address(0)) {... */\ntag_65:\n    /* \"@openzeppelin/contracts/token/ERC20/ERC20.sol\":6924:6925  0 */\n  0x00\n    /* \"@openzeppelin/contracts/token/ERC20/ERC20.sol\":6910:6926  to == address(0) */\n  0xffffffffffffffffffffffffffffffffffffffff\n  and\n    /* \"@openzeppelin/contracts/token/ERC20/ERC20.sol\":6910:6912  to */\n  dup3\n    /* \"@openzeppelin/contracts/token/ERC20/ERC20.sol\":6910:6926  to == address(0) */\n  0xffffffffffffffffffffffffffffffffffffffff\n  and\n  sub\n    /* \"@openzeppelin/contracts/token/ERC20/ERC20.sol\":6906:7331  if (to == address(0)) {... */\n  tag_69\n  jumpi\n    /* \"@openzeppelin/contracts/token/ERC20/ERC20.sol\":7089:7094  value */\n  dup1\n    /* \"@openzeppelin/contracts/token/ERC20/ERC20.sol\":7073:7085  _totalSupply */\n  0x02\n  0x00\n    /* \"@openzeppelin/contracts/token/ERC20/ERC20.sol\":7073:7094  _totalSupply -= value */\n  dup3\n  dup3\n  sload\n  sub\n  swap3\n  pop\n  pop\n  dup2\n  swap1\n  sstore\n  pop\n    /* \"@openzeppelin/contracts/token/ERC20/ERC20.sol\":6906:7331  if (to == address(0)) {... */\n  jump(tag_70)\ntag_69:\n    /* \"@openzeppelin/contracts/token/ERC20/ERC20.sol\":7301:7306  value */\n  dup1\n    /* \"@openzeppelin/contracts/token/ERC20/ERC20.sol\":7284:7293  _balances */\n  0x00\n    /* \"@openzeppelin/contracts/token/ERC20/ERC20.sol\":7284:7297  _balances[to] */\n  dup1\n    /* \"@openzeppelin/contracts/token/ERC20/ERC20.sol\":7294:7296  to */\n  dup5\n    /* \"@openzeppelin/contracts/token/ERC20/ERC20.sol\":7284:7297  _balances[to] */\n  0xffffffffffffffffffffffffffffffffffffffff\n  and\n  0xffffffffffffffffffffffffffffffffffffffff\n  and\n  dup2\n  mstore\n  0x20\n  add\n  swap1\n  dup2\n  mstore\n  0x20\n  add\n  0x00\n  keccak256\n  0x00\n    /* \"@openzeppelin/contracts/token/ERC20/ERC20.sol\":7284:7306  _balances[to] += value */\n  dup3\n  dup3\n  sload\n  add\n  swap3\n  pop\n  pop\n  dup2\n  swap1\n  sstore\n  pop\n    /* \"@openzeppelin/contracts/token/ERC20/ERC20.sol\":6906:7331  if (to == address(0)) {... */\ntag_70:\n    /* \"@openzeppelin/contracts/token/ERC20/ERC20.sol\":7361:7363  to */\n  dup2\n    /* \"@openzeppelin/contracts/token/ERC20/ERC20.sol\":7346:7371  Transfer(from, to, value) */\n  0xffffffffffffffffffffffffffffffffffffffff\n  and\n    /* \"@openzeppelin/contracts/token/ERC20/ERC20.sol\":7355:7359  from */\n  dup4\n    /* \"@openzeppelin/contracts/token/ERC20/ERC20.sol\":7346:7371  Transfer(from, to, value) */\n  0xffffffffffffffffffffffffffffffffffffffff\n  and\n  0xddf252ad1be2c89b69c2b068fc378daa952ba7f163c4a11628f55a4df523b3ef\n    /* \"@openzeppelin/contracts/token/ERC20/ERC20.sol\":7365:7370  value */\n  dup4\n    /* \"@openzeppelin/contracts/token/ERC20/ERC20.sol\":7346:7371  Transfer(from, to, value) */\n  mload(0x40)\n  tag_71\n  swap2\n  swap1\n  tag_72\n  jump\t// in\ntag_71:\n  mload(0x40)\n  dup1\n  swap2\n  sub\n  swap1\n  log3\n    /* \"@openzeppelin/contracts/token/ERC20/ERC20.sol\":6271:7378  function _update(address from, address to, uint256 value) internal virtual {... */\n  pop\n  pop\n  pop\n  jump\t// out\n    /* \"#utility.yul\":88:205   */\ntag_74:\n    /* \"#utility.yul\":197:198   */\n  0x00\n    /* \"#utility.yul\":194:195   */\n  dup1\n    /* \"#utility.yul\":187:199   */\n  revert\n    /* \"#utility.yul\":334:411   */\ntag_76:\n    /* \"#utility.yul\":371:378   */\n  0x00\n    /* \"#utility.yul\":400:405   */\n  dup2\n    /* \"#utility.yul\":389:405   */\n  swap1\n  pop\n    /* \"#utility.yul\":334:411   */\n  swap2\n  swap1\n  pop\n  jump\t// out\n    /* \"#utility.yul\":417:539   */\ntag_77:\n    /* \"#utility.yul\":490:514   */\n  tag_116\n    /* \"#utility.yul\":508:513   */\n  dup2\n    /* \"#utility.yul\":490:514   */\n  tag_76\n  jump\t// in\ntag_116:\n    /* \"#utility.yul\":483:488   */\n  dup2\n    /* \"#utility.yul\":480:515   */\n  eq\n    /* \"#utility.yul\":470:533   */\n  tag_117\n  jumpi\n    /* \"#utility.yul\":529:530   */\n  0x00\n    /* \"#utility.yul\":526:527   */\n  dup1\n    /* \"#utility.yul\":519:531   */\n  revert\n    /* \"#utility.yul\":470:533   */\ntag_117:\n    /* \"#utility.yul\":417:539   */\n  pop\n  jump\t// out\n    /* \"#utility.yul\":545:688   */\ntag_78:\n    /* \"#utility.yul\":602:607   */\n  0x00\n    /* \"#utility.yul\":633:639   */\n  dup2\n    /* \"#utility.yul\":627:640   */\n  mload\n    /* \"#utility.yul\":618:640   */\n  swap1\n  pop\n    /* \"#utility.yul\":649:682   */\n  tag_119\n    /* \"#utility.yul\":676:681   */\n  dup2\n    /* \"#utility.yul\":649:682   */\n  tag_77\n  jump\t// in\ntag_119:\n    /* \"#utility.yul\":545:688   */\n  swap3\n  swap2\n  pop\n  pop\n  jump\t// out\n    /* \"#utility.yul\":694:1201   */\ntag_3:\n    /* \"#utility.yul\":773:779   */\n  0x00\n    /* \"#utility.yul\":781:787   */\n  dup1\n    /* \"#utility.yul\":830:832   */\n  0x40\n    /* \"#utility.yul\":818:827   */\n  dup4\n    /* \"#utility.yul\":809:816   */\n  dup6\n    /* \"#utility.yul\":805:828   */\n  sub\n    /* \"#utility.yul\":801:833   */\n  slt\n    /* \"#utility.yul\":798:917   */\n  iszero\n  tag_121\n  jumpi\n    /* \"#utility.yul\":836:915   */\n  tag_122\n  tag_74\n  jump\t// in\ntag_122:\n    /* \"#utility.yul\":798:917   */\ntag_121:\n    /* \"#utility.yul\":956:957   */\n  0x00\n    /* \"#utility.yul\":981:1045   */\n  tag_123\n    /* \"#utility.yul\":1037:1044   */\n  dup6\n    /* \"#utility.yul\":1028:1034   */\n  dup3\n    /* \"#utility.yul\":1017:1026   */\n  dup7\n    /* \"#utility.yul\":1013:1035   */\n  add\n    /* \"#utility.yul\":981:1045   */\n  tag_78\n  jump\t// in\ntag_123:\n    /* \"#utility.yul\":971:1045   */\n  swap3\n  pop\n    /* \"#utility.yul\":927:1055   */\n  pop\n    /* \"#utility.yul\":1094:1096   */\n  0x20\n    /* \"#utility.yul\":1120:1184   */\n  tag_124\n    /* \"#utility.yul\":1176:1183   */\n  dup6\n    /* \"#utility.yul\":1167:1173   */\n  dup3\n    /* \"#utility.yul\":1156:1165   */\n  dup7\n    /* \"#utility.yul\":1152:1174   */\n  add\n    /* \"#utility.yul\":1120:1184   */\n  tag_78\n  jump\t// in\ntag_124:\n    /* \"#utility.yul\":1110:1184   */\n  swap2\n  pop\n    /* \"#utility.yul\":1065:1194   */\n  pop\n    /* \"#utility.yul\":694:1201   */\n  swap3\n  pop\n  swap3\n  swap1\n  pop\n  jump\t// out\n    /* \"#utility.yul\":1207:1387   */\ntag_79:\n    /* \"#utility.yul\":1255:1332   */\n  0x4e487b7100000000000000000000000000000000000000000000000000000000\n    /* \"#utility.yul\":1252:1253   */\n  0x00\n    /* \"#utility.yul\":1245:1333   */\n  mstore\n    /* \"#utility.yul\":1352:1356   */\n  0x11\n    /* \"#utility.yul\":1349:1350   */\n  0x04\n    /* \"#utility.yul\":1342:1357   */\n  mstore\n    /* \"#utility.yul\":1376:1380   */\n  0x24\n    /* \"#utility.yul\":1373:1374   */\n  0x00\n    /* \"#utility.yul\":1366:1381   */\n  revert\n    /* \"#utility.yul\":1393:1495   */\ntag_80:\n    /* \"#utility.yul\":1435:1443   */\n  0x00\n    /* \"#utility.yul\":1482:1487   */\n  dup2\n    /* \"#utility.yul\":1479:1480   */\n  0x01\n    /* \"#utility.yul\":1475:1488   */\n  shr\n    /* \"#utility.yul\":1454:1488   */\n  swap1\n  pop\n    /* \"#utility.yul\":1393:1495   */\n  swap2\n  swap1\n  pop\n  jump\t// out\n    /* \"#utility.yul\":1501:2349   */\ntag_81:\n    /* \"#utility.yul\":1562:1567   */\n  0x00\n    /* \"#utility.yul\":1569:1573   */\n  dup1\n    /* \"#utility.yul\":1593:1599   */\n  dup3\n    /* \"#utility.yul\":1584:1599   */\n  swap2\n  pop\n    /* \"#utility.yul\":1617:1622   */\n  dup4\n    /* \"#utility.yul\":1608:1622   */\n  swap1\n  pop\n    /* \"#utility.yul\":1631:2343   */\ntag_128:\n    /* \"#utility.yul\":1652:1653   */\n  0x01\n    /* \"#utility.yul\":1642:1650   */\n  dup6\n    /* \"#utility.yul\":1639:1654   */\n  gt\n    /* \"#utility.yul\":1631:2343   */\n  iszero\n  tag_130\n  jumpi\n    /* \"#utility.yul\":1747:1751   */\n  dup1\n    /* \"#utility.yul\":1742:1745   */\n  dup7\n    /* \"#utility.yul\":1738:1752   */\n  div\n    /* \"#utility.yul\":1732:1736   */\n  dup2\n    /* \"#utility.yul\":1729:1753   */\n  gt\n    /* \"#utility.yul\":1726:1776   */\n  iszero\n  tag_131\n  jumpi\n    /* \"#utility.yul\":1756:1774   */\n  tag_132\n  tag_79\n  jump\t// in\ntag_132:\n    /* \"#utility.yul\":1726:1776   */\ntag_131:\n    /* \"#utility.yul\":1806:1807   */\n  0x01\n    /* \"#utility.yul\":1796:1804   */\n  dup6\n    /* \"#utility.yul\":1792:1808   */\n  and\n    /* \"#utility.yul\":1789:2240   */\n  iszero\n  tag_133\n  jumpi\n    /* \"#utility.yul\":2221:2225   */\n  dup1\n    /* \"#utility.yul\":2214:2219   */\n  dup3\n    /* \"#utility.yul\":2210:2226   */\n  mul\n    /* \"#utility.yul\":2201:2226   */\n  swap2\n  pop\n    /* \"#utility.yul\":1789:2240   */\ntag_133:\n    /* \"#utility.yul\":2271:2275   */\n  dup1\n    /* \"#utility.yul\":2265:2269   */\n  dup2\n    /* \"#utility.yul\":2261:2276   */\n  mul\n    /* \"#utility.yul\":2253:2276   */\n  swap1\n  pop\n    /* \"#utility.yul\":2301:2333   */\n  tag_134\n    /* \"#utility.yul\":2324:2332   */\n  dup6\n    /* \"#utility.yul\":2301:2333   */\n  tag_80\n  jump\t// in\ntag_134:\n    /* \"#utility.yul\":2289:2333   */\n  swap5\n  pop\n    /* \"#utility.yul\":1631:2343   */\n  jump(tag_128)\ntag_130:\n    /* \"#utility.yul\":1501:2349   */\n  swap5\n  pop\n  swap5\n  swap3\n  pop\n  pop\n  pop\n  jump\t// out\n    /* \"#utility.yul\":2355:3428   */\ntag_82:\n    /* \"#utility.yul\":2409:2414   */\n  0x00\n    /* \"#utility.yul\":2600:2608   */\n  dup3\n    /* \"#utility.yul\":2590:2630   */\n  tag_136\n  jumpi\n    /* \"#utility.yul\":2621:2622   */\n  0x01\n    /* \"#utility.yul\":2612:2622   */\n  swap1\n  pop\n    /* \"#utility.yul\":2623:2628   */\n  jump(tag_135)\n    /* \"#utility.yul\":2590:2630   */\ntag_136:\n    /* \"#utility.yul\":2649:2653   */\n  dup2\n    /* \"#utility.yul\":2639:2675   */\n  tag_137\n  jumpi\n    /* \"#utility.yul\":2666:2667   */\n  0x00\n    /* \"#utility.yul\":2657:2667   */\n  swap1\n  pop\n    /* \"#utility.yul\":2668:2673   */\n  jump(tag_135)\n    /* \"#utility.yul\":2639:2675   */\ntag_137:\n    /* \"#utility.yul\":2735:2739   */\n  dup2\n    /* \"#utility.yul\":2783:2784   */\n  0x01\n    /* \"#utility.yul\":2778:2805   */\n  dup2\n  eq\n  tag_139\n  jumpi\n    /* \"#utility.yul\":2819:2820   */\n  0x02\n    /* \"#utility.yul\":2814:3005   */\n  dup2\n  eq\n  tag_140\n  jumpi\n    /* \"#utility.yul\":2728:3005   */\n  jump(tag_138)\n    /* \"#utility.yul\":2778:2805   */\ntag_139:\n    /* \"#utility.yul\":2796:2797   */\n  0x01\n    /* \"#utility.yul\":2787:2797   */\n  swap2\n  pop\n    /* \"#utility.yul\":2798:2803   */\n  pop\n  jump(tag_135)\n    /* \"#utility.yul\":2814:3005   */\ntag_140:\n    /* \"#utility.yul\":2859:2862   */\n  0xff\n    /* \"#utility.yul\":2849:2857   */\n  dup5\n    /* \"#utility.yul\":2846:2863   */\n  gt\n    /* \"#utility.yul\":2843:2886   */\n  iszero\n  tag_141\n  jumpi\n    /* \"#utility.yul\":2866:2884   */\n  tag_142\n  tag_79\n  jump\t// in\ntag_142:\n    /* \"#utility.yul\":2843:2886   */\ntag_141:\n    /* \"#utility.yul\":2915:2923   */\n  dup4\n    /* \"#utility.yul\":2912:2913   */\n  0x02\n    /* \"#utility.yul\":2908:2924   */\n  exp\n    /* \"#utility.yul\":2899:2924   */\n  swap2\n  pop\n    /* \"#utility.yul\":2950:2953   */\n  dup5\n    /* \"#utility.yul\":2943:2948   */\n  dup3\n    /* \"#utility.yul\":2940:2954   */\n  gt\n    /* \"#utility.yul\":2937:2977   */\n  iszero\n  tag_143\n  jumpi\n    /* \"#utility.yul\":2957:2975   */\n  tag_144\n  tag_79\n  jump\t// in\ntag_144:\n    /* \"#utility.yul\":2937:2977   */\ntag_143:\n    /* \"#utility.yul\":2990:2995   */\n  pop\n  jump(tag_135)\n    /* \"#utility.yul\":2728:3005   */\ntag_138:\n  pop\n    /* \"#utility.yul\":3114:3116   */\n  0x20\n    /* \"#utility.yul\":3104:3112   */\n  dup4\n    /* \"#utility.yul\":3101:3117   */\n  lt\n    /* \"#utility.yul\":3095:3098   */\n  0x0133\n    /* \"#utility.yul\":3089:3093   */\n  dup4\n    /* \"#utility.yul\":3086:3099   */\n  lt\n    /* \"#utility.yul\":3082:3118   */\n  and\n    /* \"#utility.yul\":3064:3066   */\n  0x4e\n    /* \"#utility.yul\":3054:3062   */\n  dup5\n    /* \"#utility.yul\":3051:3067   */\n  lt\n    /* \"#utility.yul\":3046:3048   */\n  0x0b\n    /* \"#utility.yul\":3040:3044   */\n  dup5\n    /* \"#utility.yul\":3037:3049   */\n  lt\n    /* \"#utility.yul\":3033:3068   */\n  and\n    /* \"#utility.yul\":3017:3128   */\n  or\n    /* \"#utility.yul\":3014:3260   */\n  iszero\n  tag_145\n  jumpi\n    /* \"#utility.yul\":3170:3178   */\n  dup3\n    /* \"#utility.yul\":3164:3168   */\n  dup3\n    /* \"#utility.yul\":3160:3179   */\n  exp\n    /* \"#utility.yul\":3151:3179   */\n  swap1\n  pop\n    /* \"#utility.yul\":3205:3208   */\n  dup4\n    /* \"#utility.yul\":3198:3203   */\n  dup2\n    /* \"#utility.yul\":3195:3209   */\n  gt\n    /* \"#utility.yul\":3192:3232   */\n  iszero\n  tag_146\n  jumpi\n    /* \"#utility.yul\":3212:3230   */\n  tag_147\n  tag_79\n  jump\t// in\ntag_147:\n    /* \"#utility.yul\":3192:3232   */\ntag_146:\n    /* \"#utility.yul\":3245:3250   */\n  jump(tag_135)\n    /* \"#utility.yul\":3014:3260   */\ntag_145:\n    /* \"#utility.yul\":3285:3327   */\n  tag_148\n    /* \"#utility.yul\":3323:3326   */\n  dup5\n    /* \"#utility.yul\":3313:3321   */\n  dup5\n    /* \"#utility.yul\":3307:3311   */\n  dup5\n    /* \"#utility.yul\":3304:3305   */\n  0x01\n    /* \"#utility.yul\":3285:3327   */\n  tag_81\n  jump\t// in\ntag_148:\n    /* \"#utility.yul\":3270:3327   */\n  swap3\n  pop\n  swap1\n  pop\n    /* \"#utility.yul\":3359:3363   */\n  dup2\n    /* \"#utility.yul\":3354:3357   */\n  dup5\n    /* \"#utility.yul\":3350:3364   */\n  div\n    /* \"#utility.yul\":3343:3348   */\n  dup2\n    /* \"#utility.yul\":3340:3365   */\n  gt\n    /* \"#utility.yul\":3337:3388   */\n  iszero\n  tag_149\n  jumpi\n    /* \"#utility.yul\":3368:3386   */\n  tag_150\n  tag_79\n  jump\t// in\ntag_150:\n    /* \"#utility.yul\":3337:3388   */\ntag_149:\n    /* \"#utility.yul\":3417:3421   */\n  dup2\n    /* \"#utility.yul\":3410:3415   */\n  dup2\n    /* \"#utility.yul\":3406:3422   */\n  mul\n    /* \"#utility.yul\":3397:3422   */\n  swap1\n  pop\n    /* \"#utility.yul\":2355:3428   */\ntag_135:\n  swap4\n  swap3\n  pop\n  pop\n  pop\n  jump\t// out\n    /* \"#utility.yul\":3434:3520   */\ntag_83:\n    /* \"#utility.yul\":3469:3476   */\n  0x00\n    /* \"#utility.yul\":3509:3513   */\n  0xff\n    /* \"#utility.yul\":3502:3507   */\n  dup3\n    /* \"#utility.yul\":3498:3514   */\n  and\n    /* \"#utility.yul\":3487:3514   */\n  swap1\n  pop\n    /* \"#utility.yul\":3434:3520   */\n  swap2\n  swap1\n  pop\n  jump\t// out\n    /* \"#utility.yul\":3526:3807   */\ntag_8:\n    /* \"#utility.yul\":3584:3589   */\n  0x00\n    /* \"#utility.yul\":3608:3631   */\n  tag_153\n    /* \"#utility.yul\":3626:3630   */\n  dup3\n    /* \"#utility.yul\":3608:3631   */\n  tag_76\n  jump\t// in\ntag_153:\n    /* \"#utility.yul\":3600:3631   */\n  swap2\n  pop\n    /* \"#utility.yul\":3652:3677   */\n  tag_154\n    /* \"#utility.yul\":3668:3676   */\n  dup4\n    /* \"#utility.yul\":3652:3677   */\n  tag_83\n  jump\t// in\ntag_154:\n    /* \"#utility.yul\":3640:3677   */\n  swap3\n  pop\n    /* \"#utility.yul\":3696:3800   */\n  tag_155\n    /* \"#utility.yul\":3733:3799   */\n  0xffffffffffffffffffffffffffffffffffffffffffffffffffffffffffffffff\n    /* \"#utility.yul\":3723:3731   */\n  dup5\n    /* \"#utility.yul\":3717:3721   */\n  dup5\n    /* \"#utility.yul\":3696:3800   */\n  tag_82\n  jump\t// in\ntag_155:\n    /* \"#utility.yul\":3687:3800   */\n  swap1\n  pop\n    /* \"#utility.yul\":3526:3807   */\n  swap3\n  swap2\n  pop\n  pop\n  jump\t// out\n    /* \"#utility.yul\":3813:4223   */\ntag_10:\n    /* \"#utility.yul\":3853:3860   */\n  0x00\n    /* \"#utility.yul\":3876:3896   */\n  tag_157\n    /* \"#utility.yul\":3894:3895   */\n  dup3\n    /* \"#utility.yul\":3876:3896   */\n  tag_76\n  jump\t// in\ntag_157:\n    /* \"#utility.yul\":3871:3896   */\n  swap2\n  pop\n    /* \"#utility.yul\":3910:3930   */\n  tag_158\n    /* \"#utility.yul\":3928:3929   */\n  dup4\n    /* \"#utility.yul\":3910:3930   */\n  tag_76\n  jump\t// in\ntag_158:\n    /* \"#utility.yul\":3905:3930   */\n  swap3\n  pop\n    /* \"#utility.yul\":3965:3966   */\n  dup3\n    /* \"#utility.yul\":3962:3963   */\n  dup3\n    /* \"#utility.yul\":3958:3967   */\n  mul\n    /* \"#utility.yul\":3987:4017   */\n  tag_159\n    /* \"#utility.yul\":4005:4016   */\n  dup2\n    /* \"#utility.yul\":3987:4017   */\n  tag_76\n  jump\t// in\ntag_159:\n    /* \"#utility.yul\":3976:4017   */\n  swap2\n  pop\n    /* \"#utility.yul\":4166:4167   */\n  dup3\n    /* \"#utility.yul\":4157:4164   */\n  dup3\n    /* \"#utility.yul\":4153:4168   */\n  div\n    /* \"#utility.yul\":4150:4151   */\n  dup5\n    /* \"#utility.yul\":4147:4169   */\n  eq\n    /* \"#utility.yul\":4127:4128   */\n  dup4\n    /* \"#utility.yul\":4120:4129   */\n  iszero\n    /* \"#utility.yul\":4100:4183   */\n  or\n    /* \"#utility.yul\":4077:4216   */\n  tag_160\n  jumpi\n    /* \"#utility.yul\":4196:4214   */\n  tag_161\n  tag_79\n  jump\t// in\ntag_161:\n    /* \"#utility.yul\":4077:4216   */\ntag_160:\n    /* \"#utility.yul\":3861:4223   */\n  pop\n    /* \"#utility.yul\":3813:4223   */\n  swap3\n  swap2\n  pop\n  pop\n  jump\t// out\n    /* \"#utility.yul\":4229:4328   */\ntag_84:\n    /* \"#utility.yul\":4281:4287   */\n  0x00\n    /* \"#utility.yul\":4315:4320   */\n  dup2\n    /* \"#utility.yul\":4309:4321   */\n  mload\n    /* \"#utility.yul\":4299:4321   */\n  swap1\n  pop\n    /* \"#utility.yul\":4229:4328   */\n  swap2\n  swap1\n  pop\n  jump\t// out\n    /* \"#utility.yul\":4334:4514   */\ntag_85:\n    /* \"#utility.yul\":4382:4459   */\n  0x4e487b7100000000000000000000000000000000000000000000000000000000\n    /* \"#utility.yul\":4379:4380   */\n  0x00\n    /* \"#utility.yul\":4372:4460   */\n  mstore\n    /* \"#utility.yul\":4479:4483   */\n  0x41\n    /* \"#utility.yul\":4476:4477   */\n  0x04\n    /* \"#utility.yul\":4469:4484   */\n  mstore\n    /* \"#utility.yul\":4503:4507   */\n  0x24\n    /* \"#utility.yul\":4500:4501   */\n  0x00\n    /* \"#utility.yul\":4493:4508   */\n  revert\n    /* \"#utility.yul\":4520:4700   */\ntag_86:\n    /* \"#utility.yul\":4568:4645   */\n  0x4e487b7100000000000000000000000000000000000000000000000000000000\n    /* \"#utility.yul\":4565:4566   */\n  0x00\n    /* \"#utility.yul\":4558:4646   */\n  mstore\n    /* \"#utility.yul\":4665:4669   */\n  0x22\n    /* \"#utility.yul\":4662:4663   */\n  0x04\n    /* \"#utility.yul\":4655:4670   */\n  mstore\n    /* \"#utility.yul\":4689:4693   */\n  0x24\n    /* \"#utility.yul\":4686:4687   */\n  0x00\n    /* \"#utility.yul\":4679:4694   */\n  revert\n    /* \"#utility.yul\":4706:5026   */\ntag_87:\n    /* \"#utility.yul\":4750:4756   */\n  0x00\n    /* \"#utility.yul\":4787:4788   */\n  0x02\n    /* \"#utility.yul\":4781:4785   */\n  dup3\n    /* \"#utility.yul\":4777:4789   */\n  div\n    /* \"#utility.yul\":4767:4789   */\n  swap1\n  pop\n    /* \"#utility.yul\":4834:4835   */\n  0x01\n    /* \"#utility.yul\":4828:4832   */\n  dup3\n    /* \"#utility.yul\":4824:4836   */\n  and\n    /* \"#utility.yul\":4855:4873   */\n  dup1\n    /* \"#utility.yul\":4845:4926   */\n  tag_166\n  jumpi\n    /* \"#utility.yul\":4911:4915   */\n  0x7f\n    /* \"#utility.yul\":4903:4909   */\n  dup3\n    /* \"#utility.yul\":4899:4916   */\n  and\n    /* \"#utility.yul\":4889:4916   */\n  swap2\n  pop\n    /* \"#utility.yul\":4845:4926   */\ntag_166:\n    /* \"#utility.yul\":4973:4975   */\n  0x20\n    /* \"#utility.yul\":4965:4971   */\n  dup3\n    /* \"#utility.yul\":4962:4976   */\n  lt\n    /* \"#utility.yul\":4942:4960   */\n  dup2\n    /* \"#utility.yul\":4939:4977   */\n  sub\n    /* \"#utility.yul\":4936:5020   */\n  tag_167\n  jumpi\n    /* \"#utility.yul\":4992:5010   */\n  tag_168\n  tag_86\n  jump\t// in\ntag_168:\n    /* \"#utility.yul\":4936:5020   */\ntag_167:\n    /* \"#utility.yul\":4757:5026   */\n  pop\n    /* \"#utility.yul\":4706:5026   */\n  swap2\n  swap1\n  pop\n  jump\t// out\n    /* \"#utility.yul\":5032:5173   */\ntag_88:\n    /* \"#utility.yul\":5081:5085   */\n  0x00\n    /* \"#utility.yul\":5104:5107   */\n  dup2\n    /* \"#utility.yul\":5096:5107   */\n  swap1\n  pop\n    /* \"#utility.yul\":5127:5130   */\n  dup2\n    /* \"#utility.yul\":5124:5125   */\n  0x00\n    /* \"#utility.yul\":5117:5131   */\n  mstore\n    /* \"#utility.yul\":5161:5165   */\n  0x20\n    /* \"#utility.yul\":5158:5159   */\n  0x00\n    /* \"#utility.yul\":5148:5166   */\n  keccak256\n    /* \"#utility.yul\":5140:5166   */\n  swap1\n  pop\n    /* \"#utility.yul\":5032:5173   */\n  swap2\n  swap1\n  pop\n  jump\t// out\n    /* \"#utility.yul\":5179:5272   */\ntag_89:\n    /* \"#utility.yul\":5216:5222   */\n  0x00\n    /* \"#utility.yul\":5263:5265   */\n  0x20\n    /* \"#utility.yul\":5258:5260   */\n  0x1f\n    /* \"#utility.yul\":5251:5256   */\n  dup4\n    /* \"#utility.yul\":5247:5261   */\n  add\n    /* \"#utility.yul\":5243:5266   */\n  div\n    /* \"#utility.yul\":5233:5266   */\n  swap1\n  pop\n    /* \"#utility.yul\":5179:5272   */\n  swap2\n  swap1\n  pop\n  jump\t// out\n    /* \"#utility.yul\":5278:5385   */\ntag_90:\n    /* \"#utility.yul\":5322:5330   */\n  0x00\n    /* \"#utility.yul\":5372:5377   */\n  dup3\n    /* \"#utility.yul\":5366:5370   */\n  dup3\n    /* \"#utility.yul\":5362:5378   */\n  shl\n    /* \"#utility.yul\":5341:5378   */\n  swap1\n  pop\n    /* \"#utility.yul\":5278:5385   */\n  swap3\n  swap2\n  pop\n  pop\n  jump\t// out\n    /* \"#utility.yul\":5391:5784   */\ntag_91:\n    /* \"#utility.yul\":5460:5466   */\n  0x00\n    /* \"#utility.yul\":5510:5511   */\n  0x08\n    /* \"#utility.yul\":5498:5508   */\n  dup4\n    /* \"#utility.yul\":5494:5512   */\n  mul\n    /* \"#utility.yul\":5533:5630   */\n  tag_173\n    /* \"#utility.yul\":5563:5629   */\n  0xffffffffffffffffffffffffffffffffffffffffffffffffffffffffffffffff\n    /* \"#utility.yul\":5552:5561   */\n  dup3\n    /* \"#utility.yul\":5533:5630   */\n  tag_90\n  jump\t// in\ntag_173:\n    /* \"#utility.yul\":5651:5690   */\n  tag_174\n    /* \"#utility.yul\":5681:5689   */\n  dup7\n    /* \"#utility.yul\":5670:5679   */\n  dup4\n    /* \"#utility.yul\":5651:5690   */\n  tag_90\n  jump\t// in\ntag_174:\n    /* \"#utility.yul\":5639:5690   */\n  swap6\n  pop\n    /* \"#utility.yul\":5723:5727   */\n  dup1\n    /* \"#utility.yul\":5719:5728   */\n  not\n    /* \"#utility.yul\":5712:5717   */\n  dup5\n    /* \"#utility.yul\":5708:5729   */\n  and\n    /* \"#utility.yul\":5699:5729   */\n  swap4\n  pop\n    /* \"#utility.yul\":5772:5776   */\n  dup1\n    /* \"#utility.yul\":5762:5770   */\n  dup7\n    /* \"#utility.yul\":5758:5777   */\n  and\n    /* \"#utility.yul\":5751:5756   */\n  dup5\n    /* \"#utility.yul\":5748:5778   */\n  or\n    /* \"#utility.yul\":5738:5778   */\n  swap3\n  pop\n    /* \"#utility.yul\":5467:5784   */\n  pop\n  pop\n    /* \"#utility.yul\":5391:5784   */\n  swap4\n  swap3\n  pop\n  pop\n  pop\n  jump\t// out\n    /* \"#utility.yul\":5790:5850   */\ntag_92:\n    /* \"#utility.yul\":5818:5821   */\n  0x00\n    /* \"#utility.yul\":5839:5844   */\n  dup2\n    /* \"#utility.yul\":5832:5844   */\n  swap1\n  pop\n    /* \"#utility.yul\":5790:5850   */\n  swap2\n  swap1\n  pop\n  jump\t// out\n    /* \"#utility.yul\":5856:5998   */\ntag_93:\n    /* \"#utility.yul\":5906:5915   */\n  0x00\n    /* \"#utility.yul\":5939:5992   */\n  tag_177\n    /* \"#utility.yul\":5957:5991   */\n  tag_178\n    /* \"#utility.yul\":5966:5990   */\n  tag_179\n    /* \"#utility.yul\":5984:5989   */\n  dup5\n    /* \"#utility.yul\":5966:5990   */\n  tag_76\n  jump\t// in\ntag_179:\n    /* \"#utility.yul\":5957:5991   */\n  tag_92\n  jump\t// in\ntag_178:\n    /* \"#utility.yul\":5939:5992   */\n  tag_76\n  jump\t// in\ntag_177:\n    /* \"#utility.yul\":5926:5992   */\n  swap1\n  pop\n    /* \"#utility.yul\":5856:5998   */\n  swap2\n  swap1\n  pop\n  jump\t// out\n    /* \"#utility.yul\":6004:6079   */\ntag_94:\n    /* \"#utility.yul\":6047:6050   */\n  0x00\n    /* \"#utility.yul\":6068:6073   */\n  dup2\n    /* \"#utility.yul\":6061:6073   */\n  swap1\n  pop\n    /* \"#utility.yul\":6004:6079   */\n  swap2\n  swap1\n  pop\n  jump\t// out\n    /* \"#utility.yul\":6085:6354   */\ntag_95:\n    /* \"#utility.yul\":6195:6234   */\n  tag_182\n    /* \"#utility.yul\":6226:6233   */\n  dup4\n    /* \"#utility.yul\":6195:6234   */\n  tag_93\n  jump\t// in\ntag_182:\n    /* \"#utility.yul\":6256:6347   */\n  tag_183\n    /* \"#utility.yul\":6305:6346   */\n  tag_184\n    /* \"#utility.yul\":6329:6345   */\n  dup3\n    /* \"#utility.yul\":6305:6346   */\n  tag_94\n  jump\t// in\ntag_184:\n    /* \"#utility.yul\":6297:6303   */\n  dup5\n    /* \"#utility.yul\":6290:6294   */\n  dup5\n    /* \"#utility.yul\":6284:6295   */\n  sload\n    /* \"#utility.yul\":6256:6347   */\n  tag_91\n  jump\t// in\ntag_183:\n    /* \"#utility.yul\":6250:6254   */\n  dup3\n    /* \"#utility.yul\":6243:6348   */\n  sstore\n    /* \"#utility.yul\":6161:6354   */\n  pop\n    /* \"#utility.yul\":6085:6354   */\n  pop\n  pop\n  pop\n  jump\t// out\n    /* \"#utility.yul\":6360:6433   */\ntag_96:\n    /* \"#utility.yul\":6405:6408   */\n  0x00\n    /* \"#utility.yul\":6360:6433   */\n  swap1\n  jump\t// out\n    /* \"#utility.yul\":6439:6628   */\ntag_97:\n    /* \"#utility.yul\":6516:6548   */\n  tag_187\n  tag_96\n  jump\t// in\ntag_187:\n    /* \"#utility.yul\":6557:6622   */\n  tag_188\n    /* \"#utility.yul\":6615:6621   */\n  dup2\n    /* \"#utility.yul\":6607:6613   */\n  dup5\n    /* \"#utility.yul\":6601:6605   */\n  dup5\n    /* \"#utility.yul\":6557:6622   */\n  tag_95\n  jump\t// in\ntag_188:\n    /* \"#utility.yul\":6492:6628   */\n  pop\n    /* \"#utility.yul\":6439:6628   */\n  pop\n  pop\n  jump\t// out\n    /* \"#utility.yul\":6634:6820   */\ntag_98:\n    /* \"#utility.yul\":6694:6814   */\ntag_190:\n    /* \"#utility.yul\":6711:6714   */\n  dup2\n    /* \"#utility.yul\":6704:6709   */\n  dup2\n    /* \"#utility.yul\":6701:6715   */\n  lt\n    /* \"#utility.yul\":6694:6814   */\n  iszero\n  tag_192\n  jumpi\n    /* \"#utility.yul\":6765:6804   */\n  tag_193\n    /* \"#utility.yul\":6802:6803   */\n  0x00\n    /* \"#utility.yul\":6795:6800   */\n  dup3\n    /* \"#utility.yul\":6765:6804   */\n  tag_97\n  jump\t// in\ntag_193:\n    /* \"#utility.yul\":6738:6739   */\n  0x01\n    /* \"#utility.yul\":6731:6736   */\n  dup2\n    /* \"#utility.yul\":6727:6740   */\n  add\n    /* \"#utility.yul\":6718:6740   */\n  swap1\n  pop\n    /* \"#utility.yul\":6694:6814   */\n  jump(tag_190)\ntag_192:\n    /* \"#utility.yul\":6634:6820   */\n  pop\n  pop\n  jump\t// out\n    /* \"#utility.yul\":6826:7369   */\ntag_99:\n    /* \"#utility.yul\":6927:6929   */\n  0x1f\n    /* \"#utility.yul\":6922:6925   */\n  dup3\n    /* \"#utility.yul\":6919:6930   */\n  gt\n    /* \"#utility.yul\":6916:7362   */\n  iszero\n  tag_195\n  jumpi\n    /* \"#utility.yul\":6961:6999   */\n  tag_196\n    /* \"#utility.yul\":6993:6998   */\n  dup2\n    /* \"#utility.yul\":6961:6999   */\n  tag_88\n  jump\t// in\ntag_196:\n    /* \"#utility.yul\":7045:7074   */\n  tag_197\n    /* \"#utility.yul\":7063:7073   */\n  dup5\n    /* \"#utility.yul\":7045:7074   */\n  tag_89\n  jump\t// in\ntag_197:\n    /* \"#utility.yul\":7035:7043   */\n  dup2\n    /* \"#utility.yul\":7031:7075   */\n  add\n    /* \"#utility.yul\":7228:7230   */\n  0x20\n    /* \"#utility.yul\":7216:7226   */\n  dup6\n    /* \"#utility.yul\":7213:7231   */\n  lt\n    /* \"#utility.yul\":7210:7259   */\n  iszero\n  tag_198\n  jumpi\n    /* \"#utility.yul\":7249:7257   */\n  dup2\n    /* \"#utility.yul\":7234:7257   */\n  swap1\n  pop\n    /* \"#utility.yul\":7210:7259   */\ntag_198:\n    /* \"#utility.yul\":7272:7352   */\n  tag_199\n    /* \"#utility.yul\":7328:7350   */\n  tag_200\n    /* \"#utility.yul\":7346:7349   */\n  dup6\n    /* \"#utility.yul\":7328:7350   */\n  tag_89\n  jump\t// in\ntag_200:\n    /* \"#utility.yul\":7318:7326   */\n  dup4\n    /* \"#utility.yul\":7314:7351   */\n  add\n    /* \"#utility.yul\":7301:7312   */\n  dup3\n    /* \"#utility.yul\":7272:7352   */\n  tag_98\n  jump\t// in\ntag_199:\n    /* \"#utility.yul\":6931:7362   */\n  pop\n  pop\n    /* \"#utility.yul\":6916:7362   */\ntag_195:\n    /* \"#utility.yul\":6826:7369   */\n  pop\n  pop\n  pop\n  jump\t// out\n    /* \"#utility.yul\":7375:7492   */\ntag_100:\n    /* \"#utility.yul\":7429:7437   */\n  0x00\n    /* \"#utility.yul\":7479:7484   */\n  dup3\n    /* \"#utility.yul\":7473:7477   */\n  dup3\n    /* \"#utility.yul\":7469:7485   */\n  shr\n    /* \"#utility.yul\":7448:7485   */\n  swap1\n  pop\n    /* \"#utility.yul\":7375:7492   */\n  swap3\n  swap2\n  pop\n  pop\n  jump\t// out\n    /* \"#utility.yul\":7498:7667   */\ntag_101:\n    /* \"#utility.yul\":7542:7548   */\n  0x00\n    /* \"#utility.yul\":7575:7626   */\n  tag_203\n    /* \"#utility.yul\":7623:7624   */\n  0x00\n    /* \"#utility.yul\":7619:7625   */\n  not\n    /* \"#utility.yul\":7611:7616   */\n  dup5\n    /* \"#utility.yul\":7608:7609   */\n  0x08\n    /* \"#utility.yul\":7604:7617   */\n  mul\n    /* \"#utility.yul\":7575:7626   */\n  tag_100\n  jump\t// in\ntag_203:\n    /* \"#utility.yul\":7571:7627   */\n  not\n    /* \"#utility.yul\":7656:7660   */\n  dup1\n    /* \"#utility.yul\":7650:7654   */\n  dup4\n    /* \"#utility.yul\":7646:7661   */\n  and\n    /* \"#utility.yul\":7636:7661   */\n  swap2\n  pop\n    /* \"#utility.yul\":7549:7667   */\n  pop\n    /* \"#utility.yul\":7498:7667   */\n  swap3\n  swap2\n  pop\n  pop\n  jump\t// out\n    /* \"#utility.yul\":7672:7967   */\ntag_102:\n    /* \"#utility.yul\":7748:7752   */\n  0x00\n    /* \"#utility.yul\":7894:7923   */\n  tag_205\n    /* \"#utility.yul\":7919:7922   */\n  dup4\n    /* \"#utility.yul\":7913:7917   */\n  dup4\n    /* \"#utility.yul\":7894:7923   */\n  tag_101\n  jump\t// in\ntag_205:\n    /* \"#utility.yul\":7886:7923   */\n  swap2\n  pop\n    /* \"#utility.yul\":7956:7959   */\n  dup3\n    /* \"#utility.yul\":7953:7954   */\n  0x02\n    /* \"#utility.yul\":7949:7960   */\n  mul\n    /* \"#utility.yul\":7943:7947   */\n  dup3\n    /* \"#utility.yul\":7940:7961   */\n  or\n    /* \"#utility.yul\":7932:7961   */\n  swap1\n  pop\n    /* \"#utility.yul\":7672:7967   */\n  swap3\n  swap2\n  pop\n  pop\n  jump\t// out\n    /* \"#utility.yul\":7972:9367   */\ntag_15:\n    /* \"#utility.yul\":8089:8126   */\n  tag_207\n    /* \"#utility.yul\":8122:8125   */\n  dup3\n    /* \"#utility.yul\":8089:8126   */\n  tag_84\n  jump\t// in\ntag_207:\n    /* \"#utility.yul\":8191:8209   */\n  0xffffffffffffffff\n    /* \"#utility.yul\":8183:8189   */\n  dup2\n    /* \"#utility.yul\":8180:8210   */\n  gt\n    /* \"#utility.yul\":8177:8233   */\n  iszero\n  tag_208\n  jumpi\n    /* \"#utility.yul\":8213:8231   */\n  tag_209\n  tag_85\n  jump\t// in\ntag_209:\n    /* \"#utility.yul\":8177:8233   */\ntag_208:\n    /* \"#utility.yul\":8257:8295   */\n  tag_210\n    /* \"#utility.yul\":8289:8293   */\n  dup3\n    /* \"#utility.yul\":8283:8294   */\n  sload\n    /* \"#utility.yul\":8257:8295   */\n  tag_87\n  jump\t// in\ntag_210:\n    /* \"#utility.yul\":8342:8409   */\n  tag_211\n    /* \"#utility.yul\":8402:8408   */\n  dup3\n    /* \"#utility.yul\":8394:8400   */\n  dup3\n    /* \"#utility.yul\":8388:8392   */\n  dup6\n    /* \"#utility.yul\":8342:8409   */\n  tag_99\n  jump\t// in\ntag_211:\n    /* \"#utility.yul\":8436:8437   */\n  0x00\n    /* \"#utility.yul\":8460:8464   */\n  0x20\n    /* \"#utility.yul\":8447:8464   */\n  swap1\n  pop\n    /* \"#utility.yul\":8492:8494   */\n  0x1f\n    /* \"#utility.yul\":8484:8490   */\n  dup4\n    /* \"#utility.yul\":8481:8495   */\n  gt\n    /* \"#utility.yul\":8509:8510   */\n  0x01\n    /* \"#utility.yul\":8504:9122   */\n  dup2\n  eq\n  tag_213\n  jumpi\n    /* \"#utility.yul\":9166:9167   */\n  0x00\n    /* \"#utility.yul\":9183:9189   */\n  dup5\n    /* \"#utility.yul\":9180:9257   */\n  iszero\n  tag_214\n  jumpi\n    /* \"#utility.yul\":9232:9241   */\n  dup3\n    /* \"#utility.yul\":9227:9230   */\n  dup8\n    /* \"#utility.yul\":9223:9242   */\n  add\n    /* \"#utility.yul\":9217:9243   */\n  mload\n    /* \"#utility.yul\":9208:9243   */\n  swap1\n  pop\n    /* \"#utility.yul\":9180:9257   */\ntag_214:\n    /* \"#utility.yul\":9283:9350   */\n  tag_215\n    /* \"#utility.yul\":9343:9349   */\n  dup6\n    /* \"#utility.yul\":9336:9341   */\n  dup3\n    /* \"#utility.yul\":9283:9350   */\n  tag_102\n  jump\t// in\ntag_215:\n    /* \"#utility.yul\":9277:9281   */\n  dup7\n    /* \"#utility.yul\":9270:9351   */\n  sstore\n    /* \"#utility.yul\":9139:9361   */\n  pop\n    /* \"#utility.yul\":8474:9361   */\n  jump(tag_212)\n    /* \"#utility.yul\":8504:9122   */\ntag_213:\n    /* \"#utility.yul\":8556:8560   */\n  0x1f\n    /* \"#utility.yul\":8552:8561   */\n  not\n    /* \"#utility.yul\":8544:8550   */\n  dup5\n    /* \"#utility.yul\":8540:8562   */\n  and\n    /* \"#utility.yul\":8590:8627   */\n  tag_216\n    /* \"#utility.yul\":8622:8626   */\n  dup7\n    /* \"#utility.yul\":8590:8627   */\n  tag_88\n  jump\t// in\ntag_216:\n    /* \"#utility.yul\":8649:8650   */\n  0x00\n    /* \"#utility.yul\":8663:8871   */\ntag_217:\n    /* \"#utility.yul\":8677:8684   */\n  dup3\n    /* \"#utility.yul\":8674:8675   */\n  dup2\n    /* \"#utility.yul\":8671:8685   */\n  lt\n    /* \"#utility.yul\":8663:8871   */\n  iszero\n  tag_219\n  jumpi\n    /* \"#utility.yul\":8756:8765   */\n  dup5\n    /* \"#utility.yul\":8751:8754   */\n  dup10\n    /* \"#utility.yul\":8747:8766   */\n  add\n    /* \"#utility.yul\":8741:8767   */\n  mload\n    /* \"#utility.yul\":8733:8739   */\n  dup3\n    /* \"#utility.yul\":8726:8768   */\n  sstore\n    /* \"#utility.yul\":8807:8808   */\n  0x01\n    /* \"#utility.yul\":8799:8805   */\n  dup3\n    /* \"#utility.yul\":8795:8809   */\n  add\n    /* \"#utility.yul\":8785:8809   */\n  swap2\n  pop\n    /* \"#utility.yul\":8854:8856   */\n  0x20\n    /* \"#utility.yul\":8843:8852   */\n  dup6\n    /* \"#utility.yul\":8839:8857   */\n  add\n    /* \"#utility.yul\":8826:8857   */\n  swap5\n  pop\n    /* \"#utility.yul\":8700:8704   */\n  0x20\n    /* \"#utility.yul\":8697:8698   */\n  dup2\n    /* \"#utility.yul\":8693:8705   */\n  add\n    /* \"#utility.yul\":8688:8705   */\n  swap1\n  pop\n    /* \"#utility.yul\":8663:8871   */\n  jump(tag_217)\ntag_219:\n    /* \"#utility.yul\":8899:8905   */\n  dup7\n    /* \"#utility.yul\":8890:8897   */\n  dup4\n    /* \"#utility.yul\":8887:8906   */\n  lt\n    /* \"#utility.yul\":8884:9063   */\n  iszero\n  tag_220\n  jumpi\n    /* \"#utility.yul\":8957:8966   */\n  dup5\n    /* \"#utility.yul\":8952:8955   */\n  dup10\n    /* \"#utility.yul\":8948:8967   */\n  add\n    /* \"#utility.yul\":8942:8968   */\n  mload\n    /* \"#utility.yul\":9000:9048   */\n  tag_221\n    /* \"#utility.yul\":9042:9046   */\n  0x1f\n    /* \"#utility.yul\":9034:9040   */\n  dup10\n    /* \"#utility.yul\":9030:9047   */\n  and\n    /* \"#utility.yul\":9019:9028   */\n  dup3\n    /* \"#utility.yul\":9000:9048   */\n  tag_101\n  jump\t// in\ntag_221:\n    /* \"#utility.yul\":8992:8998   */\n  dup4\n    /* \"#utility.yul\":8985:9049   */\n  sstore\n    /* \"#utility.yul\":8907:9063   */\n  pop\n    /* \"#utility.yul\":8884:9063   */\ntag_220:\n    /* \"#utility.yul\":9109:9110   */\n  0x01\n    /* \"#utility.yul\":9105:9106   */\n  0x02\n    /* \"#utility.yul\":9097:9103   */\n  dup9\n    /* \"#utility.yul\":9093:9107   */\n  mul\n    /* \"#utility.yul\":9089:9111   */\n  add\n    /* \"#utility.yul\":9083:9087   */\n  dup9\n    /* \"#utility.yul\":9076:9112   */\n  sstore\n    /* \"#utility.yul\":8511:9122   */\n  pop\n  pop\n  pop\n    /* \"#utility.yul\":8474:9361   */\ntag_212:\n  pop\n    /* \"#utility.yul\":8064:9367   */\n  pop\n  pop\n  pop\n    /* \"#utility.yul\":7972:9367   */\n  pop\n  pop\n  jump\t// out\n    /* \"#utility.yul\":9373:9458   */\ntag_103:\n    /* \"#utility.yul\":9418:9425   */\n  0x00\n    /* \"#utility.yul\":9447:9452   */\n  dup2\n    /* \"#utility.yul\":9436:9452   */\n  swap1\n  pop\n    /* \"#utility.yul\":9373:9458   */\n  swap2\n  swap1\n  pop\n  jump\t// out\n    /* \"#utility.yul\":9464:9622   */\ntag_104:\n    /* \"#utility.yul\":9522:9531   */\n  0x00\n    /* \"#utility.yul\":9555:9616   */\n  tag_224\n    /* \"#utility.yul\":9573:9615   */\n  tag_225\n    /* \"#utility.yul\":9582:9614   */\n  tag_226\n    /* \"#utility.yul\":9608:9613   */\n  dup5\n    /* \"#utility.yul\":9582:9614   */\n  tag_103\n  jump\t// in\ntag_226:\n    /* \"#utility.yul\":9573:9615   */\n  tag_92\n  jump\t// in\ntag_225:\n    /* \"#utility.yul\":9555:9616   */\n  tag_76\n  jump\t// in\ntag_224:\n    /* \"#utility.yul\":9542:9616   */\n  swap1\n  pop\n    /* \"#utility.yul\":9464:9622   */\n  swap2\n  swap1\n  pop\n  jump\t// out\n    /* \"#utility.yul\":9628:9775   */\ntag_105:\n    /* \"#utility.yul\":9723:9768   */\n  tag_228\n    /* \"#utility.yul\":9762:9767   */\n  dup2\n    /* \"#utility.yul\":9723:9768   */\n  tag_104\n  jump\t// in\ntag_228:\n    /* \"#utility.yul\":9718:9721   */\n  dup3\n    /* \"#utility.yul\":9711:9769   */\n  mstore\n    /* \"#utility.yul\":9628:9775   */\n  pop\n  pop\n  jump\t// out\n    /* \"#utility.yul\":9781:10019   */\ntag_20:\n    /* \"#utility.yul\":9882:9886   */\n  0x00\n    /* \"#utility.yul\":9920:9922   */\n  0x20\n    /* \"#utility.yul\":9909:9918   */\n  dup3\n    /* \"#utility.yul\":9905:9923   */\n  add\n    /* \"#utility.yul\":9897:9923   */\n  swap1\n  pop\n    /* \"#utility.yul\":9933:10012   */\n  tag_230\n    /* \"#utility.yul\":10009:10010   */\n  0x00\n    /* \"#utility.yul\":9998:10007   */\n  dup4\n    /* \"#utility.yul\":9994:10011   */\n  add\n    /* \"#utility.yul\":9985:9991   */\n  dup5\n    /* \"#utility.yul\":9933:10012   */\n  tag_105\n  jump\t// in\ntag_230:\n    /* \"#utility.yul\":9781:10019   */\n  swap3\n  swap2\n  pop\n  pop\n  jump\t// out\n    /* \"#utility.yul\":10025:10151   */\ntag_106:\n    /* \"#utility.yul\":10062:10069   */\n  0x00\n    /* \"#utility.yul\":10102:10144   */\n  0xffffffffffffffffffffffffffffffffffffffff\n    /* \"#utility.yul\":10095:10100   */\n  dup3\n    /* \"#utility.yul\":10091:10145   */\n  and\n    /* \"#utility.yul\":10080:10145   */\n  swap1\n  pop\n    /* \"#utility.yul\":10025:10151   */\n  swap2\n  swap1\n  pop\n  jump\t// out\n    /* \"#utility.yul\":10157:10253   */\ntag_107:\n    /* \"#utility.yul\":10194:10201   */\n  0x00\n    /* \"#utility.yul\":10223:10247   */\n  tag_233\n    /* \"#utility.yul\":10241:10246   */\n  dup3\n    /* \"#utility.yul\":10223:10247   */\n  tag_106\n  jump\t// in\ntag_233:\n    /* \"#utility.yul\":10212:10247   */\n  swap1\n  pop\n    /* \"#utility.yul\":10157:10253   */\n  swap2\n  swap1\n  pop\n  jump\t// out\n    /* \"#utility.yul\":10259:10377   */\ntag_108:\n    /* \"#utility.yul\":10346:10370   */\n  tag_235\n    /* \"#utility.yul\":10364:10369   */\n  dup2\n    /* \"#utility.yul\":10346:10370   */\n  tag_107\n  jump\t// in\ntag_235:\n    /* \"#utility.yul\":10341:10344   */\n  dup3\n    /* \"#utility.yul\":10334:10371   */\n  mstore\n    /* \"#utility.yul\":10259:10377   */\n  pop\n  pop\n  jump\t// out\n    /* \"#utility.yul\":10383:10605   */\ntag_35:\n    /* \"#utility.yul\":10476:10480   */\n  0x00\n    /* \"#utility.yul\":10514:10516   */\n  0x20\n    /* \"#utility.yul\":10503:10512   */\n  dup3\n    /* \"#utility.yul\":10499:10517   */\n  add\n    /* \"#utility.yul\":10491:10517   */\n  swap1\n  pop\n    /* \"#utility.yul\":10527:10598   */\n  tag_237\n    /* \"#utility.yul\":10595:10596   */\n  0x00\n    /* \"#utility.yul\":10584:10593   */\n  dup4\n    /* \"#utility.yul\":10580:10597   */\n  add\n    /* \"#utility.yul\":10571:10577   */\n  dup5\n    /* \"#utility.yul\":10527:10598   */\n  tag_108\n  jump\t// in\ntag_237:\n    /* \"#utility.yul\":10383:10605   */\n  swap3\n  swap2\n  pop\n  pop\n  jump\t// out\n    /* \"#utility.yul\":10611:10729   */\ntag_109:\n    /* \"#utility.yul\":10698:10722   */\n  tag_239\n    /* \"#utility.yul\":10716:10721   */\n  dup2\n    /* \"#utility.yul\":10698:10722   */\n  tag_76\n  jump\t// in\ntag_239:\n    /* \"#utility.yul\":10693:10696   */\n  dup3\n    /* \"#utility.yul\":10686:10723   */\n  mstore\n    /* \"#utility.yul\":10611:10729   */\n  pop\n  pop\n  jump\t// out\n    /* \"#utility.yul\":10735:11067   */\ntag_50:\n    /* \"#utility.yul\":10856:10860   */\n  0x00\n    /* \"#utility.yul\":10894:10896   */\n  0x40\n    /* \"#utility.yul\":10883:10892   */\n  dup3\n    /* \"#utility.yul\":10879:10897   */\n  add\n    /* \"#utility.yul\":10871:10897   */\n  swap1\n  pop\n    /* \"#utility.yul\":10907:10978   */\n  tag_241\n    /* \"#utility.yul\":10975:10976   */\n  0x00\n    /* \"#utility.yul\":10964:10973   */\n  dup4\n    /* \"#utility.yul\":10960:10977   */\n  add\n    /* \"#utility.yul\":10951:10957   */\n  dup6\n    /* \"#utility.yul\":10907:10978   */\n  tag_109\n  jump\t// in\ntag_241:\n    /* \"#utility.yul\":10988:11060   */\n  tag_242\n    /* \"#utility.yul\":11056:11058   */\n  0x20\n    /* \"#utility.yul\":11045:11054   */\n  dup4\n    /* \"#utility.yul\":11041:11059   */\n  add\n    /* \"#utility.yul\":11032:11038   */\n  dup5\n    /* \"#utility.yul\":10988:11060   */\n  tag_109\n  jump\t// in\ntag_242:\n    /* \"#utility.yul\":10735:11067   */\n  swap4\n  swap3\n  pop\n  pop\n  pop\n  jump\t// out\n    /* \"#utility.yul\":11073:11264   */\ntag_64:\n    /* \"#utility.yul\":11113:11116   */\n  0x00\n    /* \"#utility.yul\":11132:11152   */\n  tag_244\n    /* \"#utility.yul\":11150:11151   */\n  dup3\n    /* \"#utility.yul\":11132:11152   */\n  tag_76\n  jump\t// in\ntag_244:\n    /* \"#utility.yul\":11127:11152   */\n  swap2\n  pop\n    /* \"#utility.yul\":11166:11186   */\n  tag_245\n    /* \"#utility.yul\":11184:11185   */\n  dup4\n    /* \"#utility.yul\":11166:11186   */\n  tag_76\n  jump\t// in\ntag_245:\n    /* \"#utility.yul\":11161:11186   */\n  swap3\n  pop\n    /* \"#utility.yul\":11209:11210   */\n  dup3\n    /* \"#utility.yul\":11206:11207   */\n  dup3\n    /* \"#utility.yul\":11202:11211   */\n  add\n    /* \"#utility.yul\":11195:11211   */\n  swap1\n  pop\n    /* \"#utility.yul\":11230:11233   */\n  dup1\n    /* \"#utility.yul\":11227:11228   */\n  dup3\n    /* \"#utility.yul\":11224:11234   */\n  gt\n    /* \"#utility.yul\":11221:11257   */\n  iszero\n  tag_246\n  jumpi\n    /* \"#utility.yul\":11237:11255   */\n  tag_247\n  tag_79\n  jump\t// in\ntag_247:\n    /* \"#utility.yul\":11221:11257   */\ntag_246:\n    /* \"#utility.yul\":11073:11264   */\n  swap3\n  swap2\n  pop\n  pop\n  jump\t// out\n    /* \"#utility.yul\":11270:11712   */\ntag_68:\n    /* \"#utility.yul\":11419:11423   */\n  0x00\n    /* \"#utility.yul\":11457:11459   */\n  0x60\n    /* \"#utility.yul\":11446:11455   */\n  dup3\n    /* \"#utility.yul\":11442:11460   */\n  add\n    /* \"#utility.yul\":11434:11460   */\n  swap1\n  pop\n    /* \"#utility.yul\":11470:11541   */\n  tag_249\n    /* \"#utility.yul\":11538:11539   */\n  0x00\n    /* \"#utility.yul\":11527:11536   */\n  dup4\n    /* \"#utility.yul\":11523:11540   */\n  add\n    /* \"#utility.yul\":11514:11520   */\n  dup7\n    /* \"#utility.yul\":11470:11541   */\n  tag_108\n  jump\t// in\ntag_249:\n    /* \"#utility.yul\":11551:11623   */\n  tag_250\n    /* \"#utility.yul\":11619:11621   */\n  0x20\n    /* \"#utility.yul\":11608:11617   */\n  dup4\n    /* \"#utility.yul\":11604:11622   */\n  add\n    /* \"#utility.yul\":11595:11601   */\n  dup6\n    /* \"#utility.yul\":11551:11623   */\n  tag_109\n  jump\t// in\ntag_250:\n    /* \"#utility.yul\":11633:11705   */\n  tag_251\n    /* \"#utility.yul\":11701:11703   */\n  0x40\n    /* \"#utility.yul\":11690:11699   */\n  dup4\n    /* \"#utility.yul\":11686:11704   */\n  add\n    /* \"#utility.yul\":11677:11683   */\n  dup5\n    /* \"#utility.yul\":11633:11705   */\n  tag_109\n  jump\t// in\ntag_251:\n    /* \"#utility.yul\":11270:11712   */\n  swap5\n  swap4\n  pop\n  pop\n  pop\n  pop\n  jump\t// out\n    /* \"#utility.yul\":11718:11940   */\ntag_72:\n    /* \"#utility.yul\":11811:11815   */\n  0x00\n    /* \"#utility.yul\":11849:11851   */\n  0x20\n    /* \"#utility.yul\":11838:11847   */\n  dup3\n    /* \"#utility.yul\":11834:11852   */\n  add\n    /* \"#utility.yul\":11826:11852   */\n  swap1\n  pop\n    /* \"#utility.yul\":11862:11933   */\n  tag_253\n    /* \"#utility.yul\":11930:11931   */\n  0x00\n    /* \"#utility.yul\":11919:11928   */\n  dup4\n    /* \"#utility.yul\":11915:11932   */\n  add\n    /* \"#utility.yul\":11906:11912   */\n  dup5\n    /* \"#utility.yul\":11862:11933   */\n  tag_109\n  jump\t// in\ntag_253:\n    /* \"#utility.yul\":11718:11940   */\n  swap3\n  swap2\n  pop\n  pop\n  jump\t// out\n    /* \"contracts/Token.sol\":266:1908  contract TestTokenF is ERC20Capped,ERC20Burnable {... */\ntag_30:\n  mload(0x80)\n  codecopy(0x00, dataOffset(sub_0), dataSize(sub_0))\n  0x00\n  assignImmutable(\"0x3ef4406067f3f2b83779fd8c58e51154fe5e1675c0d17583dd1aac1409fbf9d7\")\n  return(0x00, dataSize(sub_0))\nstop\n\nsub_0: assembly {\n        /* \"contracts/Token.sol\":266:1908  contract TestTokenF is ERC20Capped,ERC20Burnable {... */\n      mstore(0x40, 0x80)\n      callvalue\n      dup1\n      iszero\n      tag_1\n      jumpi\n      0x00\n      dup1\n      revert\n    tag_1:\n      pop\n      jumpi(tag_2, lt(calldatasize, 0x04))\n      shr(0xe0, calldataload(0x00))\n      dup1\n      0x42966c68\n      gt\n      tag_19\n      jumpi\n      dup1\n      0x8da5cb5b\n      gt\n      tag_20\n      jumpi\n      dup1\n      0x8da5cb5b\n      eq\n      tag_15\n      jumpi\n      dup1\n      0x95d89b41\n      eq\n      tag_16\n      jumpi\n      dup1\n      0xa9059cbb\n      eq\n      tag_17\n      jumpi\n      dup1\n      0xdd62ed3e\n      eq\n      tag_18\n      jumpi\n      jump(tag_2)\n    tag_20:\n      dup1\n      0x42966c68\n      eq\n      tag_11\n      jumpi\n      dup1\n      0x70a08231\n      eq\n      tag_12\n      jumpi\n      dup1\n      0x79cc6790\n      eq\n      tag_13\n      jumpi\n      dup1\n      0x83197ef0\n      eq\n      tag_14\n      jumpi\n      jump(tag_2)\n    tag_19:\n      dup1\n      0x1a18e707\n      gt\n      tag_21\n      jumpi\n      dup1\n      0x1a18e707\n      eq\n      tag_7\n      jumpi\n      dup1\n      0x23b872dd\n      eq\n      tag_8\n      jumpi\n      dup1\n      0x313ce567\n      eq\n      tag_9\n      jumpi\n      dup1\n      0x355274ea\n      eq\n      tag_10\n      jumpi\n      jump(tag_2)\n    tag_21:\n      dup1\n      0x06fdde03\n      eq\n      tag_3\n      jumpi\n      dup1\n      0x095ea7b3\n      eq\n      tag_4\n      jumpi\n      dup1\n      0x0ac168a1\n      eq\n      tag_5\n      jumpi\n      dup1\n      0x18160ddd\n      eq\n      tag_6\n      jumpi\n    tag_2:\n      0x00\n      dup1\n      revert\n        /* \"@openzeppelin/contracts/token/ERC20/ERC20.sol\":2074:2163  function name() public view virtual returns (string memory) {... */\n    tag_3:\n      tag_22\n      tag_23\n      jump\t// in\n    tag_22:\n      mload(0x40)\n      tag_24\n      swap2\n      swap1\n      tag_25\n      jump\t// in\n    tag_24:\n      mload(0x40)\n      dup1\n      swap2\n      sub\n      swap1\n      return\n        /* \"@openzeppelin/contracts/token/ERC20/ERC20.sol\":4293:4479  function approve(address spender, uint256 value) public virtual returns (bool) {... */\n    tag_4:\n      tag_26\n      0x04\n      dup1\n      calldatasize\n      sub\n      dup2\n      add\n      swap1\n      tag_27\n      swap2\n      swap1\n      tag_28\n      jump\t// in\n    tag_27:\n      tag_29\n      jump\t// in\n    tag_26:\n      mload(0x40)\n      tag_30\n      swap2\n      swap1\n      tag_31\n      jump\t// in\n    tag_30:\n      mload(0x40)\n      dup1\n      swap2\n      sub\n      swap1\n      return\n        /* \"contracts/Token.sol\":357:383  uint256 public blockReward */\n    tag_5:\n      tag_32\n      tag_33\n      jump\t// in\n    tag_32:\n      mload(0x40)\n      tag_34\n      swap2\n      swap1\n      tag_35\n      jump\t// in\n    tag_34:\n      mload(0x40)\n      dup1\n      swap2\n      sub\n      swap1\n      return\n        /* \"@openzeppelin/contracts/token/ERC20/ERC20.sol\":3144:3241  function totalSupply() public view virtual returns (uint256) {... */\n    tag_6:\n      tag_36\n      tag_37\n      jump\t// in\n    tag_36:\n      mload(0x40)\n      tag_38\n      swap2\n      swap1\n      tag_35\n      jump\t// in\n    tag_38:\n      mload(0x40)\n      dup1\n      swap2\n      sub\n      swap1\n      return\n        /* \"contracts/Token.sol\":1778:1899  function setBlockReward(uint256 reward) public onlyOwner {... */\n    tag_7:\n      tag_39\n      0x04\n      dup1\n      calldatasize\n      sub\n      dup2\n      add\n      swap1\n      tag_40\n      swap2\n      swap1\n      tag_41\n      jump\t// in\n    tag_40:\n      tag_42\n      jump\t// in\n    tag_39:\n      stop\n        /* \"@openzeppelin/contracts/token/ERC20/ERC20.sol\":5039:5283  function transferFrom(address from, address to, uint256 value) public virtual returns (bool) {... */\n    tag_8:\n      tag_43\n      0x04\n      dup1\n      calldatasize\n      sub\n      dup2\n      add\n      swap1\n      tag_44\n      swap2\n      swap1\n      tag_45\n      jump\t// in\n    tag_44:\n      tag_46\n      jump\t// in\n    tag_43:\n      mload(0x40)\n      tag_47\n      swap2\n      swap1\n      tag_31\n      jump\t// in\n    tag_47:\n      mload(0x40)\n      dup1\n      swap2\n      sub\n      swap1\n      return\n        /* \"@openzeppelin/contracts/token/ERC20/ERC20.sol\":3002:3084  function decimals() public view virtual returns (uint8) {... */\n    tag_9:\n      tag_48\n      tag_49\n      jump\t// in\n    tag_48:\n      mload(0x40)\n      tag_50\n      swap2\n      swap1\n      tag_51\n      jump\t// in\n    tag_50:\n      mload(0x40)\n      dup1\n      swap2\n      sub\n      swap1\n      return\n        /* \"@openzeppelin/contracts/token/ERC20/extensions/ERC20Capped.sol\":923:1004  function cap() public view virtual returns (uint256) {... */\n    tag_10:\n      tag_52\n      tag_53\n      jump\t// in\n    tag_52:\n      mload(0x40)\n      tag_54\n      swap2\n      swap1\n      tag_35\n      jump\t// in\n    tag_54:\n      mload(0x40)\n      dup1\n      swap2\n      sub\n      swap1\n      return\n        /* \"@openzeppelin/contracts/token/ERC20/extensions/ERC20Burnable.sol\":618:705  function burn(uint256 value) public virtual {... */\n    tag_11:\n      tag_55\n      0x04\n      dup1\n      calldatasize\n      sub\n      dup2\n      add\n      swap1\n      tag_56\n      swap2\n      swap1\n      tag_41\n      jump\t// in\n    tag_56:\n      tag_57\n      jump\t// in\n    tag_55:\n      stop\n        /* \"@openzeppelin/contracts/token/ERC20/ERC20.sol\":3299:3415  function balanceOf(address account) public view virtual returns (uint256) {... */\n    tag_12:\n      tag_58\n      0x04\n      dup1\n      calldatasize\n      sub\n      dup2\n      add\n      swap1\n      tag_59\n      swap2\n      swap1\n      tag_60\n      jump\t// in\n    tag_59:\n      tag_61\n      jump\t// in\n    tag_58:\n      mload(0x40)\n      tag_62\n      swap2\n      swap1\n      tag_35\n      jump\t// in\n    tag_62:\n      mload(0x40)\n      dup1\n      swap2\n      sub\n      swap1\n      return\n        /* \"@openzeppelin/contracts/token/ERC20/extensions/ERC20Burnable.sol\":1021:1179  function burnFrom(address account, uint256 value) public virtual {... */\n    tag_13:\n      tag_63\n      0x04\n      dup1\n      calldatasize\n      sub\n      dup2\n      add\n      swap1\n      tag_64\n      swap2\n      swap1\n      tag_28\n      jump\t// in\n    tag_64:\n      tag_65\n      jump\t// in\n    tag_63:\n      stop\n        /* \"contracts/Token.sol\":1678:1772  function destroy() public onlyOwner {... */\n    tag_14:\n      tag_66\n      tag_67\n      jump\t// in\n    tag_66:\n      stop\n        /* \"contracts/Token.sol\":322:350  address payable public owner */\n    tag_15:\n      tag_68\n      tag_69\n      jump\t// in\n    tag_68:\n      mload(0x40)\n      tag_70\n      swap2\n      swap1\n      tag_71\n      jump\t// in\n    tag_70:\n      mload(0x40)\n      dup1\n      swap2\n      sub\n      swap1\n      return\n        /* \"@openzeppelin/contracts/token/ERC20/ERC20.sol\":2276:2369  function symbol() public view virtual returns (string memory) {... */\n    tag_16:\n      tag_72\n      tag_73\n      jump\t// in\n    tag_72:\n      mload(0x40)\n      tag_74\n      swap2\n      swap1\n      tag_25\n      jump\t// in\n    tag_74:\n      mload(0x40)\n      dup1\n      swap2\n      sub\n      swap1\n      return\n        /* \"@openzeppelin/contracts/token/ERC20/ERC20.sol\":3610:3788  function transfer(address to, uint256 value) public virtual returns (bool) {... */\n    tag_17:\n      tag_75\n      0x04\n      dup1\n      calldatasize\n      sub\n      dup2\n      add\n      swap1\n      tag_76\n      swap2\n      swap1\n      tag_28\n      jump\t// in\n    tag_76:\n      tag_77\n      jump\t// in\n    tag_75:\n      mload(0x40)\n      tag_78\n      swap2\n      swap1\n      tag_31\n      jump\t// in\n    tag_78:\n      mload(0x40)\n      dup1\n      swap2\n      sub\n      swap1\n      return\n        /* \"@openzeppelin/contracts/token/ERC20/ERC20.sol\":3846:3986  function allowance(address owner, address spender) public view virtual returns (uint256) {... */\n    tag_18:\n      tag_79\n      0x04\n      dup1\n      calldatasize\n      sub\n      dup2\n      add\n      swap1\n      tag_80\n      swap2\n      swap1\n      tag_81\n      jump\t// in\n    tag_80:\n      tag_82\n      jump\t// in\n    tag_79:\n      mload(0x40)\n      tag_83\n      swap2\n      swap1\n      tag_35\n      jump\t// in\n    tag_83:\n      mload(0x40)\n      dup1\n      swap2\n      sub\n      swap1\n      return\n        /* \"@openzeppelin/contracts/token/ERC20/ERC20.sol\":2074:2163  function name() public view virtual returns (string memory) {... */\n    tag_23:\n        /* \"@openzeppelin/contracts/token/ERC20/ERC20.sol\":2119:2132  string memory */\n      0x60\n        /* \"@openzeppelin/contracts/token/ERC20/ERC20.sol\":2151:2156  _name */\n      0x03\n        /* \"@openzeppelin/contracts/token/ERC20/ERC20.sol\":2144:2156  return _name */\n      dup1\n      sload\n      tag_85\n      swap1\n      tag_86\n      jump\t// in\n    tag_85:\n      dup1\n      0x1f\n      add\n      0x20\n      dup1\n      swap2\n      div\n      mul\n      0x20\n      add\n      mload(0x40)\n      swap1\n      dup2\n      add\n      0x40\n      mstore\n      dup1\n      swap3\n      swap2\n      swap1\n      dup2\n      dup2\n      mstore\n      0x20\n      add\n      dup3\n      dup1\n      sload\n      tag_87\n      swap1\n      tag_86\n      jump\t// in\n    tag_87:\n      dup1\n      iszero\n      tag_88\n      jumpi\n      dup1\n      0x1f\n      lt\n      tag_89\n      jumpi\n      0x0100\n      dup1\n      dup4\n      sload\n      div\n      mul\n      dup4\n      mstore\n      swap2\n      0x20\n      add\n      swap2\n      jump(tag_88)\n    tag_89:\n      dup3\n      add\n      swap2\n      swap1\n      0x00\n      mstore\n      keccak256(0x00, 0x20)\n      swap1\n    tag_90:\n      dup2\n      sload\n      dup2\n      mstore\n      swap1\n      0x01\n      add\n      swap1\n      0x20\n      add\n      dup1\n      dup4\n      gt\n      tag_90\n      jumpi\n      dup3\n      swap1\n      sub\n      0x1f\n      and\n      dup3\n      add\n      swap2\n    tag_88:\n      pop\n      pop\n      pop\n      pop\n      pop\n      swap1\n      pop\n        /* \"@openzeppelin/contracts/token/ERC20/ERC20.sol\":2074:2163  function name() public view virtual returns (string memory) {... */\n      swap1\n      jump\t// out\n        /* \"@openzeppelin/contracts/token/ERC20/ERC20.sol\":4293:4479  function approve(address spender, uint256 value) public virtual returns (bool) {... */\n    tag_29:\n        /* \"@openzeppelin/contracts/token/ERC20/ERC20.sol\":4366:4370  bool */\n      0x00\n        /* \"@openzeppelin/contracts/token/ERC20/ERC20.sol\":4382:4395  address owner */\n      dup1\n        /* \"@openzeppelin/contracts/token/ERC20/ERC20.sol\":4398:4410  _msgSender() */\n      tag_92\n        /* \"@openzeppelin/contracts/token/ERC20/ERC20.sol\":4398:4408  _msgSender */\n      tag_93\n        /* \"@openzeppelin/contracts/token/ERC20/ERC20.sol\":4398:4410  _msgSender() */\n      jump\t// in\n    tag_92:\n        /* \"@openzeppelin/contracts/token/ERC20/ERC20.sol\":4382:4410  address owner = _msgSender() */\n      swap1\n      pop\n        /* \"@openzeppelin/contracts/token/ERC20/ERC20.sol\":4420:4451  _approve(owner, spender, value) */\n      tag_94\n        /* \"@openzeppelin/contracts/token/ERC20/ERC20.sol\":4429:4434  owner */\n      dup2\n        /* \"@openzeppelin/contracts/token/ERC20/ERC20.sol\":4436:4443  spender */\n      dup6\n        /* \"@openzeppelin/contracts/token/ERC20/ERC20.sol\":4445:4450  value */\n      dup6\n        /* \"@openzeppelin/contracts/token/ERC20/ERC20.sol\":4420:4428  _approve */\n      tag_95\n        /* \"@openzeppelin/contracts/token/ERC20/ERC20.sol\":4420:4451  _approve(owner, spender, value) */\n      jump\t// in\n    tag_94:\n        /* \"@openzeppelin/contracts/token/ERC20/ERC20.sol\":4468:4472  true */\n      0x01\n        /* \"@openzeppelin/contracts/token/ERC20/ERC20.sol\":4461:4472  return true */\n      swap2\n      pop\n      pop\n        /* \"@openzeppelin/contracts/token/ERC20/ERC20.sol\":4293:4479  function approve(address spender, uint256 value) public virtual returns (bool) {... */\n      swap3\n      swap2\n      pop\n      pop\n      jump\t// out\n        /* \"contracts/Token.sol\":357:383  uint256 public blockReward */\n    tag_33:\n      sload(0x06)\n      dup2\n      jump\t// out\n        /* \"@openzeppelin/contracts/token/ERC20/ERC20.sol\":3144:3241  function totalSupply() public view virtual returns (uint256) {... */\n    tag_37:\n        /* \"@openzeppelin/contracts/token/ERC20/ERC20.sol\":3196:3203  uint256 */\n      0x00\n        /* \"@openzeppelin/contracts/token/ERC20/ERC20.sol\":3222:3234  _totalSupply */\n      sload(0x02)\n        /* \"@openzeppelin/contracts/token/ERC20/ERC20.sol\":3215:3234  return _totalSupply */\n      swap1\n      pop\n        /* \"@openzeppelin/contracts/token/ERC20/ERC20.sol\":3144:3241  function totalSupply() public view virtual returns (uint256) {... */\n      swap1\n      jump\t// out\n        /* \"contracts/Token.sol\":1778:1899  function setBlockReward(uint256 reward) public onlyOwner {... */\n    tag_42:\n        /* \"contracts/Token.sol\":1610:1615  owner */\n      0x05\n      0x00\n      swap1\n      sload\n      swap1\n      0x0100\n      exp\n      swap1\n      div\n      0xffffffffffffffffffffffffffffffffffffffff\n      and\n        /* \"contracts/Token.sol\":1598:1615  msg.sender==owner */\n      0xffffffffffffffffffffffffffffffffffffffff\n      and\n        /* \"contracts/Token.sol\":1598:1608  msg.sender */\n      caller\n        /* \"contracts/Token.sol\":1598:1615  msg.sender==owner */\n      0xffffffffffffffffffffffffffffffffffffffff\n      and\n      eq\n        /* \"contracts/Token.sol\":1590:1652  require(msg.sender==owner,\"Only owner can call this function\") */\n      tag_98\n      jumpi\n      mload(0x40)\n      0x08c379a000000000000000000000000000000000000000000000000000000000\n      dup2\n      mstore\n      0x04\n      add\n      tag_99\n      swap1\n      tag_100\n      jump\t// in\n    tag_99:\n      mload(0x40)\n      dup1\n      swap2\n      sub\n      swap1\n      revert\n    tag_98:\n        /* \"contracts/Token.sol\":1880:1890  decimals() */\n      tag_102\n        /* \"contracts/Token.sol\":1880:1888  decimals */\n      tag_49\n        /* \"contracts/Token.sol\":1880:1890  decimals() */\n      jump\t// in\n    tag_102:\n        /* \"contracts/Token.sol\":1876:1878  10 */\n      0x0a\n        /* \"contracts/Token.sol\":1876:1890  10**decimals() */\n      tag_103\n      swap2\n      swap1\n      tag_104\n      jump\t// in\n    tag_103:\n        /* \"contracts/Token.sol\":1868:1874  reward */\n      dup2\n        /* \"contracts/Token.sol\":1868:1891  reward*(10**decimals()) */\n      tag_105\n      swap2\n      swap1\n      tag_106\n      jump\t// in\n    tag_105:\n        /* \"contracts/Token.sol\":1856:1867  blockReward */\n      0x06\n        /* \"contracts/Token.sol\":1856:1891  blockReward=reward*(10**decimals()) */\n      dup2\n      swap1\n      sstore\n      pop\n        /* \"contracts/Token.sol\":1778:1899  function setBlockReward(uint256 reward) public onlyOwner {... */\n      pop\n      jump\t// out\n        /* \"@openzeppelin/contracts/token/ERC20/ERC20.sol\":5039:5283  function transferFrom(address from, address to, uint256 value) public virtual returns (bool) {... */\n    tag_46:\n        /* \"@openzeppelin/contracts/token/ERC20/ERC20.sol\":5126:5130  bool */\n      0x00\n        /* \"@openzeppelin/contracts/token/ERC20/ERC20.sol\":5142:5157  address spender */\n      dup1\n        /* \"@openzeppelin/contracts/token/ERC20/ERC20.sol\":5160:5172  _msgSender() */\n      tag_108\n        /* \"@openzeppelin/contracts/token/ERC20/ERC20.sol\":5160:5170  _msgSender */\n      tag_93\n        /* \"@openzeppelin/contracts/token/ERC20/ERC20.sol\":5160:5172  _msgSender() */\n      jump\t// in\n    tag_108:\n        /* \"@openzeppelin/contracts/token/ERC20/ERC20.sol\":5142:5172  address spender = _msgSender() */\n      swap1\n      pop\n        /* \"@openzeppelin/contracts/token/ERC20/ERC20.sol\":5182:5219  _spendAllowance(from, spender, value) */\n      tag_109\n        /* \"@openzeppelin/contracts/token/ERC20/ERC20.sol\":5198:5202  from */\n      dup6\n        /* \"@openzeppelin/contracts/token/ERC20/ERC20.sol\":5204:5211  spender */\n      dup3\n        /* \"@openzeppelin/contracts/token/ERC20/ERC20.sol\":5213:5218  value */\n      dup6\n        /* \"@openzeppelin/contracts/token/ERC20/ERC20.sol\":5182:5197  _spendAllowance */\n      tag_110\n        /* \"@openzeppelin/contracts/token/ERC20/ERC20.sol\":5182:5219  _spendAllowance(from, spender, value) */\n      jump\t// in\n    tag_109:\n        /* \"@openzeppelin/contracts/token/ERC20/ERC20.sol\":5229:5255  _transfer(from, to, value) */\n      tag_111\n        /* \"@openzeppelin/contracts/token/ERC20/ERC20.sol\":5239:5243  from */\n      dup6\n        /* \"@openzeppelin/contracts/token/ERC20/ERC20.sol\":5245:5247  to */\n      dup6\n        /* \"@openzeppelin/contracts/token/ERC20/ERC20.sol\":5249:5254  value */\n      dup6\n        /* \"@openzeppelin/contracts/token/ERC20/ERC20.sol\":5229:5238  _transfer */\n      tag_112\n        /* \"@openzeppelin/contracts/token/ERC20/ERC20.sol\":5229:5255  _transfer(from, to, value) */\n      jump\t// in\n    tag_111:\n        /* \"@openzeppelin/contracts/token/ERC20/ERC20.sol\":5272:5276  true */\n      0x01\n        /* \"@openzeppelin/contracts/token/ERC20/ERC20.sol\":5265:5276  return true */\n      swap2\n      pop\n      pop\n        /* \"@openzeppelin/contracts/token/ERC20/ERC20.sol\":5039:5283  function transferFrom(address from, address to, uint256 value) public virtual returns (bool) {... */\n      swap4\n      swap3\n      pop\n      pop\n      pop\n      jump\t// out\n        /* \"@openzeppelin/contracts/token/ERC20/ERC20.sol\":3002:3084  function decimals() public view virtual returns (uint8) {... */\n    tag_49:\n        /* \"@openzeppelin/contracts/token/ERC20/ERC20.sol\":3051:3056  uint8 */\n      0x00\n        /* \"@openzeppelin/contracts/token/ERC20/ERC20.sol\":3075:3077  18 */\n      0x12\n        /* \"@openzeppelin/contracts/token/ERC20/ERC20.sol\":3068:3077  return 18 */\n      swap1\n      pop\n        /* \"@openzeppelin/contracts/token/ERC20/ERC20.sol\":3002:3084  function decimals() public view virtual returns (uint8) {... */\n      swap1\n      jump\t// out\n        /* \"@openzeppelin/contracts/token/ERC20/extensions/ERC20Capped.sol\":923:1004  function cap() public view virtual returns (uint256) {... */\n    tag_53:\n        /* \"@openzeppelin/contracts/token/ERC20/extensions/ERC20Capped.sol\":967:974  uint256 */\n      0x00\n        /* \"@openzeppelin/contracts/token/ERC20/extensions/ERC20Capped.sol\":993:997  _cap */\n      immutable(\"0x3ef4406067f3f2b83779fd8c58e51154fe5e1675c0d17583dd1aac1409fbf9d7\")\n        /* \"@openzeppelin/contracts/token/ERC20/extensions/ERC20Capped.sol\":986:997  return _cap */\n      swap1\n      pop\n        /* \"@openzeppelin/contracts/token/ERC20/extensions/ERC20Capped.sol\":923:1004  function cap() public view virtual returns (uint256) {... */\n      swap1\n      jump\t// out\n        /* \"@openzeppelin/contracts/token/ERC20/extensions/ERC20Burnable.sol\":618:705  function burn(uint256 value) public virtual {... */\n    tag_57:\n        /* \"@openzeppelin/contracts/token/ERC20/extensions/ERC20Burnable.sol\":672:698  _burn(_msgSender(), value) */\n      tag_116\n        /* \"@openzeppelin/contracts/token/ERC20/extensions/ERC20Burnable.sol\":678:690  _msgSender() */\n      tag_117\n        /* \"@openzeppelin/contracts/token/ERC20/extensions/ERC20Burnable.sol\":678:688  _msgSender */\n      tag_93\n        /* \"@openzeppelin/contracts/token/ERC20/extensions/ERC20Burnable.sol\":678:690  _msgSender() */\n      jump\t// in\n    tag_117:\n        /* \"@openzeppelin/contracts/token/ERC20/extensions/ERC20Burnable.sol\":692:697  value */\n      dup3\n        /* \"@openzeppelin/contracts/token/ERC20/extensions/ERC20Burnable.sol\":672:677  _burn */\n      tag_118\n        /* \"@openzeppelin/contracts/token/ERC20/extensions/ERC20Burnable.sol\":672:698  _burn(_msgSender(), value) */\n      jump\t// in\n    tag_116:\n        /* \"@openzeppelin/contracts/token/ERC20/extensions/ERC20Burnable.sol\":618:705  function burn(uint256 value) public virtual {... */\n      pop\n      jump\t// out\n        /* \"@openzeppelin/contracts/token/ERC20/ERC20.sol\":3299:3415  function balanceOf(address account) public view virtual returns (uint256) {... */\n    tag_61:\n        /* \"@openzeppelin/contracts/token/ERC20/ERC20.sol\":3364:3371  uint256 */\n      0x00\n        /* \"@openzeppelin/contracts/token/ERC20/ERC20.sol\":3390:3399  _balances */\n      dup1\n        /* \"@openzeppelin/contracts/token/ERC20/ERC20.sol\":3390:3408  _balances[account] */\n      0x00\n        /* \"@openzeppelin/contracts/token/ERC20/ERC20.sol\":3400:3407  account */\n      dup4\n        /* \"@openzeppelin/contracts/token/ERC20/ERC20.sol\":3390:3408  _balances[account] */\n      0xffffffffffffffffffffffffffffffffffffffff\n      and\n      0xffffffffffffffffffffffffffffffffffffffff\n      and\n      dup2\n      mstore\n      0x20\n      add\n      swap1\n      dup2\n      mstore\n      0x20\n      add\n      0x00\n      keccak256\n      sload\n        /* \"@openzeppelin/contracts/token/ERC20/ERC20.sol\":3383:3408  return _balances[account] */\n      swap1\n      pop\n        /* \"@openzeppelin/contracts/token/ERC20/ERC20.sol\":3299:3415  function balanceOf(address account) public view virtual returns (uint256) {... */\n      swap2\n      swap1\n      pop\n      jump\t// out\n        /* \"@openzeppelin/contracts/token/ERC20/extensions/ERC20Burnable.sol\":1021:1179  function burnFrom(address account, uint256 value) public virtual {... */\n    tag_65:\n        /* \"@openzeppelin/contracts/token/ERC20/extensions/ERC20Burnable.sol\":1096:1141  _spendAllowance(account, _msgSender(), value) */\n      tag_121\n        /* \"@openzeppelin/contracts/token/ERC20/extensions/ERC20Burnable.sol\":1112:1119  account */\n      dup3\n        /* \"@openzeppelin/contracts/token/ERC20/extensions/ERC20Burnable.sol\":1121:1133  _msgSender() */\n      tag_122\n        /* \"@openzeppelin/contracts/token/ERC20/extensions/ERC20Burnable.sol\":1121:1131  _msgSender */\n      tag_93\n        /* \"@openzeppelin/contracts/token/ERC20/extensions/ERC20Burnable.sol\":1121:1133  _msgSender() */\n      jump\t// in\n    tag_122:\n        /* \"@openzeppelin/contracts/token/ERC20/extensions/ERC20Burnable.sol\":1135:1140  value */\n      dup4\n        /* \"@openzeppelin/contracts/token/ERC20/extensions/ERC20Burnable.sol\":1096:1111  _spendAllowance */\n      tag_110\n        /* \"@openzeppelin/contracts/token/ERC20/extensions/ERC20Burnable.sol\":1096:1141  _spendAllowance(account, _msgSender(), value) */\n      jump\t// in\n    tag_121:\n        /* \"@openzeppelin/contracts/token/ERC20/extensions/ERC20Burnable.sol\":1151:1172  _burn(account, value) */\n      tag_123\n        /* \"@openzeppelin/contracts/token/ERC20/extensions/ERC20Burnable.sol\":1157:1164  account */\n      dup3\n        /* \"@openzeppelin/contracts/token/ERC20/extensions/ERC20Burnable.sol\":1166:1171  value */\n      dup3\n        /* \"@openzeppelin/contracts/token/ERC20/extensions/ERC20Burnable.sol\":1151:1156  _burn */\n      tag_118\n        /* \"@openzeppelin/contracts/token/ERC20/extensions/ERC20Burnable.sol\":1151:1172  _burn(account, value) */\n      jump\t// in\n    tag_123:\n        /* \"@openzeppelin/contracts/token/ERC20/extensions/ERC20Burnable.sol\":1021:1179  function burnFrom(address account, uint256 value) public virtual {... */\n      pop\n      pop\n      jump\t// out\n        /* \"contracts/Token.sol\":1678:1772  function destroy() public onlyOwner {... */\n    tag_67:\n        /* \"contracts/Token.sol\":1610:1615  owner */\n      0x05\n      0x00\n      swap1\n      sload\n      swap1\n      0x0100\n      exp\n      swap1\n      div\n      0xffffffffffffffffffffffffffffffffffffffff\n      and\n        /* \"contracts/Token.sol\":1598:1615  msg.sender==owner */\n      0xffffffffffffffffffffffffffffffffffffffff\n      and\n        /* \"contracts/Token.sol\":1598:1608  msg.sender */\n      caller\n        /* \"contracts/Token.sol\":1598:1615  msg.sender==owner */\n      0xffffffffffffffffffffffffffffffffffffffff\n      and\n      eq\n        /* \"contracts/Token.sol\":1590:1652  require(msg.sender==owner,\"Only owner can call this function\") */\n      tag_125\n      jumpi\n      mload(0x40)\n      0x08c379a000000000000000000000000000000000000000000000000000000000\n      dup2\n      mstore\n      0x04\n      add\n      tag_126\n      swap1\n      tag_100\n      jump\t// in\n    tag_126:\n      mload(0x40)\n      dup1\n      swap2\n      sub\n      swap1\n      revert\n    tag_125:\n        /* \"contracts/Token.sol\":1727:1732  owner */\n      0x05\n      0x00\n      swap1\n      sload\n      swap1\n      0x0100\n      exp\n      swap1\n      div\n      0xffffffffffffffffffffffffffffffffffffffff\n      and\n        /* \"contracts/Token.sol\":1727:1741  owner.transfer */\n      0xffffffffffffffffffffffffffffffffffffffff\n      and\n        /* \"contracts/Token.sol\":1727:1764  owner.transfer(address(this).balance) */\n      0x08fc\n        /* \"contracts/Token.sol\":1742:1763  address(this).balance */\n      selfbalance\n        /* \"contracts/Token.sol\":1727:1764  owner.transfer(address(this).balance) */\n      swap1\n      dup2\n      iszero\n      mul\n      swap1\n      mload(0x40)\n      0x00\n      mload(0x40)\n      dup1\n      dup4\n      sub\n      dup2\n      dup6\n      dup9\n      dup9\n      call\n      swap4\n      pop\n      pop\n      pop\n      pop\n      iszero\n      dup1\n      iszero\n      tag_129\n      jumpi\n      returndatasize\n      0x00\n      dup1\n      returndatacopy\n      revert(0x00, returndatasize)\n    tag_129:\n      pop\n        /* \"contracts/Token.sol\":1678:1772  function destroy() public onlyOwner {... */\n      jump\t// out\n        /* \"contracts/Token.sol\":322:350  address payable public owner */\n    tag_69:\n      0x05\n      0x00\n      swap1\n      sload\n      swap1\n      0x0100\n      exp\n      swap1\n      div\n      0xffffffffffffffffffffffffffffffffffffffff\n      and\n      dup2\n      jump\t// out\n        /* \"@openzeppelin/contracts/token/ERC20/ERC20.sol\":2276:2369  function symbol() public view virtual returns (string memory) {... */\n    tag_73:\n        /* \"@openzeppelin/contracts/token/ERC20/ERC20.sol\":2323:2336  string memory */\n      0x60\n        /* \"@openzeppelin/contracts/token/ERC20/ERC20.sol\":2355:2362  _symbol */\n      0x04\n        /* \"@openzeppelin/contracts/token/ERC20/ERC20.sol\":2348:2362  return _symbol */\n      dup1\n      sload\n      tag_131\n      swap1\n      tag_86\n      jump\t// in\n    tag_131:\n      dup1\n      0x1f\n      add\n      0x20\n      dup1\n      swap2\n      div\n      mul\n      0x20\n      add\n      mload(0x40)\n      swap1\n      dup2\n      add\n      0x40\n      mstore\n      dup1\n      swap3\n      swap2\n      swap1\n      dup2\n      dup2\n      mstore\n      0x20\n      add\n      dup3\n      dup1\n      sload\n      tag_132\n      swap1\n      tag_86\n      jump\t// in\n    tag_132:\n      dup1\n      iszero\n      tag_133\n      jumpi\n      dup1\n      0x1f\n      lt\n      tag_134\n      jumpi\n      0x0100\n      dup1\n      dup4\n      sload\n      div\n      mul\n      dup4\n      mstore\n      swap2\n      0x20\n      add\n      swap2\n      jump(tag_133)\n    tag_134:\n      dup3\n      add\n      swap2\n      swap1\n      0x00\n      mstore\n      keccak256(0x00, 0x20)\n      swap1\n    tag_135:\n      dup2\n      sload\n      dup2\n      mstore\n      swap1\n      0x01\n      add\n      swap1\n      0x20\n      add\n      dup1\n      dup4\n      gt\n      tag_135\n      jumpi\n      dup3\n      swap1\n      sub\n      0x1f\n      and\n      dup3\n      add\n      swap2\n    tag_133:\n      pop\n      pop\n      pop\n      pop\n      pop\n      swap1\n      pop\n        /* \"@openzeppelin/contracts/token/ERC20/ERC20.sol\":2276:2369  function symbol() public view virtual returns (string memory) {... */\n      swap1\n      jump\t// out\n        /* \"@openzeppelin/contracts/token/ERC20/ERC20.sol\":3610:3788  function transfer(address to, uint256 value) public virtual returns (bool) {... */\n    tag_77:\n        /* \"@openzeppelin/contracts/token/ERC20/ERC20.sol\":3679:3683  bool */\n      0x00\n        /* \"@openzeppelin/contracts/token/ERC20/ERC20.sol\":3695:3708  address owner */\n      dup1\n        /* \"@openzeppelin/contracts/token/ERC20/ERC20.sol\":3711:3723  _msgSender() */\n      tag_137\n        /* \"@openzeppelin/contracts/token/ERC20/ERC20.sol\":3711:3721  _msgSender */\n      tag_93\n        /* \"@openzeppelin/contracts/token/ERC20/ERC20.sol\":3711:3723  _msgSender() */\n      jump\t// in\n    tag_137:\n        /* \"@openzeppelin/contracts/token/ERC20/ERC20.sol\":3695:3723  address owner = _msgSender() */\n      swap1\n      pop\n        /* \"@openzeppelin/contracts/token/ERC20/ERC20.sol\":3733:3760  _transfer(owner, to, value) */\n      tag_138\n        /* \"@openzeppelin/contracts/token/ERC20/ERC20.sol\":3743:3748  owner */\n      dup2\n        /* \"@openzeppelin/contracts/token/ERC20/ERC20.sol\":3750:3752  to */\n      dup6\n        /* \"@openzeppelin/contracts/token/ERC20/ERC20.sol\":3754:3759  value */\n      dup6\n        /* \"@openzeppelin/contracts/token/ERC20/ERC20.sol\":3733:3742  _transfer */\n      tag_112\n        /* \"@openzeppelin/contracts/token/ERC20/ERC20.sol\":3733:3760  _transfer(owner, to, value) */\n      jump\t// in\n    tag_138:\n        /* \"@openzeppelin/contracts/token/ERC20/ERC20.sol\":3777:3781  true */\n      0x01\n        /* \"@openzeppelin/contracts/token/ERC20/ERC20.sol\":3770:3781  return true */\n      swap2\n      pop\n      pop\n        /* \"@openzeppelin/contracts/token/ERC20/ERC20.sol\":3610:3788  function transfer(address to, uint256 value) public virtual returns (bool) {... */\n      swap3\n      swap2\n      pop\n      pop\n      jump\t// out\n        /* \"@openzeppelin/contracts/token/ERC20/ERC20.sol\":3846:3986  function allowance(address owner, address spender) public view virtual returns (uint256) {... */\n    tag_82:\n        /* \"@openzeppelin/contracts/token/ERC20/ERC20.sol\":3926:3933  uint256 */\n      0x00\n        /* \"@openzeppelin/contracts/token/ERC20/ERC20.sol\":3952:3963  _allowances */\n      0x01\n        /* \"@openzeppelin/contracts/token/ERC20/ERC20.sol\":3952:3970  _allowances[owner] */\n      0x00\n        /* \"@openzeppelin/contracts/token/ERC20/ERC20.sol\":3964:3969  owner */\n      dup5\n        /* \"@openzeppelin/contracts/token/ERC20/ERC20.sol\":3952:3970  _allowances[owner] */\n      0xffffffffffffffffffffffffffffffffffffffff\n      and\n      0xffffffffffffffffffffffffffffffffffffffff\n      and\n      dup2\n      mstore\n      0x20\n      add\n      swap1\n      dup2\n      mstore\n      0x20\n      add\n      0x00\n      keccak256\n        /* \"@openzeppelin/contracts/token/ERC20/ERC20.sol\":3952:3979  _allowances[owner][spender] */\n      0x00\n        /* \"@openzeppelin/contracts/token/ERC20/ERC20.sol\":3971:3978  spender */\n      dup4\n        /* \"@openzeppelin/contracts/token/ERC20/ERC20.sol\":3952:3979  _allowances[owner][spender] */\n      0xffffffffffffffffffffffffffffffffffffffff\n      and\n      0xffffffffffffffffffffffffffffffffffffffff\n      and\n      dup2\n      mstore\n      0x20\n      add\n      swap1\n      dup2\n      mstore\n      0x20\n      add\n      0x00\n      keccak256\n      sload\n        /* \"@openzeppelin/contracts/token/ERC20/ERC20.sol\":3945:3979  return _allowances[owner][spender] */\n      swap1\n      pop\n        /* \"@openzeppelin/contracts/token/ERC20/ERC20.sol\":3846:3986  function allowance(address owner, address spender) public view virtual returns (uint256) {... */\n      swap3\n      swap2\n      pop\n      pop\n      jump\t// out\n        /* \"@openzeppelin/contracts/utils/Context.sol\":656:752  function _msgSender() internal view virtual returns (address) {... */\n    tag_93:\n        /* \"@openzeppelin/contracts/utils/Context.sol\":709:716  address */\n      0x00\n        /* \"@openzeppelin/contracts/utils/Context.sol\":735:745  msg.sender */\n      caller\n        /* \"@openzeppelin/contracts/utils/Context.sol\":728:745  return msg.sender */\n      swap1\n      pop\n        /* \"@openzeppelin/contracts/utils/Context.sol\":656:752  function _msgSender() internal view virtual returns (address) {... */\n      swap1\n      jump\t// out\n        /* \"@openzeppelin/contracts/token/ERC20/ERC20.sol\":8989:9117  function _approve(address owner, address spender, uint256 value) internal {... */\n    tag_95:\n        /* \"@openzeppelin/contracts/token/ERC20/ERC20.sol\":9073:9110  _approve(owner, spender, value, true) */\n      tag_142\n        /* \"@openzeppelin/contracts/token/ERC20/ERC20.sol\":9082:9087  owner */\n      dup4\n        /* \"@openzeppelin/contracts/token/ERC20/ERC20.sol\":9089:9096  spender */\n      dup4\n        /* \"@openzeppelin/contracts/token/ERC20/ERC20.sol\":9098:9103  value */\n      dup4\n        /* \"@openzeppelin/contracts/token/ERC20/ERC20.sol\":9105:9109  true */\n      0x01\n        /* \"@openzeppelin/contracts/token/ERC20/ERC20.sol\":9073:9081  _approve */\n      tag_143\n        /* \"@openzeppelin/contracts/token/ERC20/ERC20.sol\":9073:9110  _approve(owner, spender, value, true) */\n      jump\t// in\n    tag_142:\n        /* \"@openzeppelin/contracts/token/ERC20/ERC20.sol\":8989:9117  function _approve(address owner, address spender, uint256 value) internal {... */\n      pop\n      pop\n      pop\n      jump\t// out\n        /* \"@openzeppelin/contracts/token/ERC20/ERC20.sol\":10663:11140  function _spendAllowance(address owner, address spender, uint256 value) internal virtual {... */\n    tag_110:\n        /* \"@openzeppelin/contracts/token/ERC20/ERC20.sol\":10762:10786  uint256 currentAllowance */\n      0x00\n        /* \"@openzeppelin/contracts/token/ERC20/ERC20.sol\":10789:10814  allowance(owner, spender) */\n      tag_145\n        /* \"@openzeppelin/contracts/token/ERC20/ERC20.sol\":10799:10804  owner */\n      dup5\n        /* \"@openzeppelin/contracts/token/ERC20/ERC20.sol\":10806:10813  spender */\n      dup5\n        /* \"@openzeppelin/contracts/token/ERC20/ERC20.sol\":10789:10798  allowance */\n      tag_82\n        /* \"@openzeppelin/contracts/token/ERC20/ERC20.sol\":10789:10814  allowance(owner, spender) */\n      jump\t// in\n    tag_145:\n        /* \"@openzeppelin/contracts/token/ERC20/ERC20.sol\":10762:10814  uint256 currentAllowance = allowance(owner, spender) */\n      swap1\n      pop\n        /* \"@openzeppelin/contracts/token/ERC20/ERC20.sol\":10848:10865  type(uint256).max */\n      0xffffffffffffffffffffffffffffffffffffffffffffffffffffffffffffffff\n        /* \"@openzeppelin/contracts/token/ERC20/ERC20.sol\":10828:10844  currentAllowance */\n      dup2\n        /* \"@openzeppelin/contracts/token/ERC20/ERC20.sol\":10828:10865  currentAllowance != type(uint256).max */\n      eq\n        /* \"@openzeppelin/contracts/token/ERC20/ERC20.sol\":10824:11134  if (currentAllowance != type(uint256).max) {... */\n      tag_146\n      jumpi\n        /* \"@openzeppelin/contracts/token/ERC20/ERC20.sol\":10904:10909  value */\n      dup2\n        /* \"@openzeppelin/contracts/token/ERC20/ERC20.sol\":10885:10901  currentAllowance */\n      dup2\n        /* \"@openzeppelin/contracts/token/ERC20/ERC20.sol\":10885:10909  currentAllowance < value */\n      lt\n        /* \"@openzeppelin/contracts/token/ERC20/ERC20.sol\":10881:11011  if (currentAllowance < value) {... */\n      iszero\n      tag_147\n      jumpi\n        /* \"@openzeppelin/contracts/token/ERC20/ERC20.sol\":10963:10970  spender */\n      dup3\n        /* \"@openzeppelin/contracts/token/ERC20/ERC20.sol\":10972:10988  currentAllowance */\n      dup2\n        /* \"@openzeppelin/contracts/token/ERC20/ERC20.sol\":10990:10995  value */\n      dup4\n        /* \"@openzeppelin/contracts/token/ERC20/ERC20.sol\":10936:10996  ERC20InsufficientAllowance(spender, currentAllowance, value) */\n      mload(0x40)\n      0xfb8f41b200000000000000000000000000000000000000000000000000000000\n      dup2\n      mstore\n      0x04\n      add\n      tag_148\n      swap4\n      swap3\n      swap2\n      swap1\n      tag_149\n      jump\t// in\n    tag_148:\n      mload(0x40)\n      dup1\n      swap2\n      sub\n      swap1\n      revert\n        /* \"@openzeppelin/contracts/token/ERC20/ERC20.sol\":10881:11011  if (currentAllowance < value) {... */\n    tag_147:\n        /* \"@openzeppelin/contracts/token/ERC20/ERC20.sol\":11052:11109  _approve(owner, spender, currentAllowance - value, false) */\n      tag_150\n        /* \"@openzeppelin/contracts/token/ERC20/ERC20.sol\":11061:11066  owner */\n      dup5\n        /* \"@openzeppelin/contracts/token/ERC20/ERC20.sol\":11068:11075  spender */\n      dup5\n        /* \"@openzeppelin/contracts/token/ERC20/ERC20.sol\":11096:11101  value */\n      dup5\n        /* \"@openzeppelin/contracts/token/ERC20/ERC20.sol\":11077:11093  currentAllowance */\n      dup5\n        /* \"@openzeppelin/contracts/token/ERC20/ERC20.sol\":11077:11101  currentAllowance - value */\n      sub\n        /* \"@openzeppelin/contracts/token/ERC20/ERC20.sol\":11103:11108  false */\n      0x00\n        /* \"@openzeppelin/contracts/token/ERC20/ERC20.sol\":11052:11060  _approve */\n      tag_143\n        /* \"@openzeppelin/contracts/token/ERC20/ERC20.sol\":11052:11109  _approve(owner, spender, currentAllowance - value, false) */\n      jump\t// in\n    tag_150:\n        /* \"@openzeppelin/contracts/token/ERC20/ERC20.sol\":10824:11134  if (currentAllowance != type(uint256).max) {... */\n    tag_146:\n        /* \"@openzeppelin/contracts/token/ERC20/ERC20.sol\":10752:11140  {... */\n      pop\n        /* \"@openzeppelin/contracts/token/ERC20/ERC20.sol\":10663:11140  function _spendAllowance(address owner, address spender, uint256 value) internal virtual {... */\n      pop\n      pop\n      pop\n      jump\t// out\n        /* \"@openzeppelin/contracts/token/ERC20/ERC20.sol\":5656:5956  function _transfer(address from, address to, uint256 value) internal {... */\n    tag_112:\n        /* \"@openzeppelin/contracts/token/ERC20/ERC20.sol\":5755:5756  0 */\n      0x00\n        /* \"@openzeppelin/contracts/token/ERC20/ERC20.sol\":5739:5757  from == address(0) */\n      0xffffffffffffffffffffffffffffffffffffffff\n      and\n        /* \"@openzeppelin/contracts/token/ERC20/ERC20.sol\":5739:5743  from */\n      dup4\n        /* \"@openzeppelin/contracts/token/ERC20/ERC20.sol\":5739:5757  from == address(0) */\n      0xffffffffffffffffffffffffffffffffffffffff\n      and\n      sub\n        /* \"@openzeppelin/contracts/token/ERC20/ERC20.sol\":5735:5821  if (from == address(0)) {... */\n      tag_152\n      jumpi\n        /* \"@openzeppelin/contracts/token/ERC20/ERC20.sol\":5807:5808  0 */\n      0x00\n        /* \"@openzeppelin/contracts/token/ERC20/ERC20.sol\":5780:5810  ERC20InvalidSender(address(0)) */\n      mload(0x40)\n      0x96c6fd1e00000000000000000000000000000000000000000000000000000000\n      dup2\n      mstore\n      0x04\n      add\n      tag_153\n      swap2\n      swap1\n      tag_154\n      jump\t// in\n    tag_153:\n      mload(0x40)\n      dup1\n      swap2\n      sub\n      swap1\n      revert\n        /* \"@openzeppelin/contracts/token/ERC20/ERC20.sol\":5735:5821  if (from == address(0)) {... */\n    tag_152:\n        /* \"@openzeppelin/contracts/token/ERC20/ERC20.sol\":5848:5849  0 */\n      0x00\n        /* \"@openzeppelin/contracts/token/ERC20/ERC20.sol\":5834:5850  to == address(0) */\n      0xffffffffffffffffffffffffffffffffffffffff\n      and\n        /* \"@openzeppelin/contracts/token/ERC20/ERC20.sol\":5834:5836  to */\n      dup3\n        /* \"@openzeppelin/contracts/token/ERC20/ERC20.sol\":5834:5850  to == address(0) */\n      0xffffffffffffffffffffffffffffffffffffffff\n      and\n      sub\n        /* \"@openzeppelin/contracts/token/ERC20/ERC20.sol\":5830:5916  if (to == address(0)) {... */\n      tag_155\n      jumpi\n        /* \"@openzeppelin/contracts/token/ERC20/ERC20.sol\":5902:5903  0 */\n      0x00\n        /* \"@openzeppelin/contracts/token/ERC20/ERC20.sol\":5873:5905  ERC20InvalidReceiver(address(0)) */\n      mload(0x40)\n      0xec442f0500000000000000000000000000000000000000000000000000000000\n      dup2\n      mstore\n      0x04\n      add\n      tag_156\n      swap2\n      swap1\n      tag_154\n      jump\t// in\n    tag_156:\n      mload(0x40)\n      dup1\n      swap2\n      sub\n      swap1\n      revert\n        /* \"@openzeppelin/contracts/token/ERC20/ERC20.sol\":5830:5916  if (to == address(0)) {... */\n    tag_155:\n        /* \"@openzeppelin/contracts/token/ERC20/ERC20.sol\":5925:5949  _update(from, to, value) */\n      tag_157\n        /* \"@openzeppelin/contracts/token/ERC20/ERC20.sol\":5933:5937  from */\n      dup4\n        /* \"@openzeppelin/contracts/token/ERC20/ERC20.sol\":5939:5941  to */\n      dup4\n        /* \"@openzeppelin/contracts/token/ERC20/ERC20.sol\":5943:5948  value */\n      dup4\n        /* \"@openzeppelin/contracts/token/ERC20/ERC20.sol\":5925:5932  _update */\n      tag_158\n        /* \"@openzeppelin/contracts/token/ERC20/ERC20.sol\":5925:5949  _update(from, to, value) */\n      jump\t// in\n    tag_157:\n        /* \"@openzeppelin/contracts/token/ERC20/ERC20.sol\":5656:5956  function _transfer(address from, address to, uint256 value) internal {... */\n      pop\n      pop\n      pop\n      jump\t// out\n        /* \"@openzeppelin/contracts/token/ERC20/ERC20.sol\":8247:8453  function _burn(address account, uint256 value) internal {... */\n    tag_118:\n        /* \"@openzeppelin/contracts/token/ERC20/ERC20.sol\":8336:8337  0 */\n      0x00\n        /* \"@openzeppelin/contracts/token/ERC20/ERC20.sol\":8317:8338  account == address(0) */\n      0xffffffffffffffffffffffffffffffffffffffff\n      and\n        /* \"@openzeppelin/contracts/token/ERC20/ERC20.sol\":8317:8324  account */\n      dup3\n        /* \"@openzeppelin/contracts/token/ERC20/ERC20.sol\":8317:8338  account == address(0) */\n      0xffffffffffffffffffffffffffffffffffffffff\n      and\n      sub\n        /* \"@openzeppelin/contracts/token/ERC20/ERC20.sol\":8313:8402  if (account == address(0)) {... */\n      tag_160\n      jumpi\n        /* \"@openzeppelin/contracts/token/ERC20/ERC20.sol\":8388:8389  0 */\n      0x00\n        /* \"@openzeppelin/contracts/token/ERC20/ERC20.sol\":8361:8391  ERC20InvalidSender(address(0)) */\n      mload(0x40)\n      0x96c6fd1e00000000000000000000000000000000000000000000000000000000\n      dup2\n      mstore\n      0x04\n      add\n      tag_161\n      swap2\n      swap1\n      tag_154\n      jump\t// in\n    tag_161:\n      mload(0x40)\n      dup1\n      swap2\n      sub\n      swap1\n      revert\n        /* \"@openzeppelin/contracts/token/ERC20/ERC20.sol\":8313:8402  if (account == address(0)) {... */\n    tag_160:\n        /* \"@openzeppelin/contracts/token/ERC20/ERC20.sol\":8411:8446  _update(account, address(0), value) */\n      tag_162\n        /* \"@openzeppelin/contracts/token/ERC20/ERC20.sol\":8419:8426  account */\n      dup3\n        /* \"@openzeppelin/contracts/token/ERC20/ERC20.sol\":8436:8437  0 */\n      0x00\n        /* \"@openzeppelin/contracts/token/ERC20/ERC20.sol\":8440:8445  value */\n      dup4\n        /* \"@openzeppelin/contracts/token/ERC20/ERC20.sol\":8411:8418  _update */\n      tag_158\n        /* \"@openzeppelin/contracts/token/ERC20/ERC20.sol\":8411:8446  _update(account, address(0), value) */\n      jump\t// in\n    tag_162:\n        /* \"@openzeppelin/contracts/token/ERC20/ERC20.sol\":8247:8453  function _burn(address account, uint256 value) internal {... */\n      pop\n      pop\n      jump\t// out\n        /* \"@openzeppelin/contracts/token/ERC20/ERC20.sol\":9949:10381  function _approve(address owner, address spender, uint256 value, bool emitEvent) internal virtual {... */\n    tag_143:\n        /* \"@openzeppelin/contracts/token/ERC20/ERC20.sol\":10078:10079  0 */\n      0x00\n        /* \"@openzeppelin/contracts/token/ERC20/ERC20.sol\":10061:10080  owner == address(0) */\n      0xffffffffffffffffffffffffffffffffffffffff\n      and\n        /* \"@openzeppelin/contracts/token/ERC20/ERC20.sol\":10061:10066  owner */\n      dup5\n        /* \"@openzeppelin/contracts/token/ERC20/ERC20.sol\":10061:10080  owner == address(0) */\n      0xffffffffffffffffffffffffffffffffffffffff\n      and\n      sub\n        /* \"@openzeppelin/contracts/token/ERC20/ERC20.sol\":10057:10146  if (owner == address(0)) {... */\n      tag_164\n      jumpi\n        /* \"@openzeppelin/contracts/token/ERC20/ERC20.sol\":10132:10133  0 */\n      0x00\n        /* \"@openzeppelin/contracts/token/ERC20/ERC20.sol\":10103:10135  ERC20InvalidApprover(address(0)) */\n      mload(0x40)\n      0xe602df0500000000000000000000000000000000000000000000000000000000\n      dup2\n      mstore\n      0x04\n      add\n      tag_165\n      swap2\n      swap1\n      tag_154\n      jump\t// in\n    tag_165:\n      mload(0x40)\n      dup1\n      swap2\n      sub\n      swap1\n      revert\n        /* \"@openzeppelin/contracts/token/ERC20/ERC20.sol\":10057:10146  if (owner == address(0)) {... */\n    tag_164:\n        /* \"@openzeppelin/contracts/token/ERC20/ERC20.sol\":10178:10179  0 */\n      0x00\n        /* \"@openzeppelin/contracts/token/ERC20/ERC20.sol\":10159:10180  spender == address(0) */\n      0xffffffffffffffffffffffffffffffffffffffff\n      and\n        /* \"@openzeppelin/contracts/token/ERC20/ERC20.sol\":10159:10166  spender */\n      dup4\n        /* \"@openzeppelin/contracts/token/ERC20/ERC20.sol\":10159:10180  spender == address(0) */\n      0xffffffffffffffffffffffffffffffffffffffff\n      and\n      sub\n        /* \"@openzeppelin/contracts/token/ERC20/ERC20.sol\":10155:10245  if (spender == address(0)) {... */\n      tag_166\n      jumpi\n        /* \"@openzeppelin/contracts/token/ERC20/ERC20.sol\":10231:10232  0 */\n      0x00\n        /* \"@openzeppelin/contracts/token/ERC20/ERC20.sol\":10203:10234  ERC20InvalidSpender(address(0)) */\n      mload(0x40)\n      0x94280d6200000000000000000000000000000000000000000000000000000000\n      dup2\n      mstore\n      0x04\n      add\n      tag_167\n      swap2\n      swap1\n      tag_154\n      jump\t// in\n    tag_167:\n      mload(0x40)\n      dup1\n      swap2\n      sub\n      swap1\n      revert\n        /* \"@openzeppelin/contracts/token/ERC20/ERC20.sol\":10155:10245  if (spender == address(0)) {... */\n    tag_166:\n        /* \"@openzeppelin/contracts/token/ERC20/ERC20.sol\":10284:10289  value */\n      dup2\n        /* \"@openzeppelin/contracts/token/ERC20/ERC20.sol\":10254:10265  _allowances */\n      0x01\n        /* \"@openzeppelin/contracts/token/ERC20/ERC20.sol\":10254:10272  _allowances[owner] */\n      0x00\n        /* \"@openzeppelin/contracts/token/ERC20/ERC20.sol\":10266:10271  owner */\n      dup7\n        /* \"@openzeppelin/contracts/token/ERC20/ERC20.sol\":10254:10272  _allowances[owner] */\n      0xffffffffffffffffffffffffffffffffffffffff\n      and\n      0xffffffffffffffffffffffffffffffffffffffff\n      and\n      dup2\n      mstore\n      0x20\n      add\n      swap1\n      dup2\n      mstore\n      0x20\n      add\n      0x00\n      keccak256\n        /* \"@openzeppelin/contracts/token/ERC20/ERC20.sol\":10254:10281  _allowances[owner][spender] */\n      0x00\n        /* \"@openzeppelin/contracts/token/ERC20/ERC20.sol\":10273:10280  spender */\n      dup6\n        /* \"@openzeppelin/contracts/token/ERC20/ERC20.sol\":10254:10281  _allowances[owner][spender] */\n      0xffffffffffffffffffffffffffffffffffffffff\n      and\n      0xffffffffffffffffffffffffffffffffffffffff\n      and\n      dup2\n      mstore\n      0x20\n      add\n      swap1\n      dup2\n      mstore\n      0x20\n      add\n      0x00\n      keccak256\n        /* \"@openzeppelin/contracts/token/ERC20/ERC20.sol\":10254:10289  _allowances[owner][spender] = value */\n      dup2\n      swap1\n      sstore\n      pop\n        /* \"@openzeppelin/contracts/token/ERC20/ERC20.sol\":10303:10312  emitEvent */\n      dup1\n        /* \"@openzeppelin/contracts/token/ERC20/ERC20.sol\":10299:10375  if (emitEvent) {... */\n      iszero\n      tag_168\n      jumpi\n        /* \"@openzeppelin/contracts/token/ERC20/ERC20.sol\":10349:10356  spender */\n      dup3\n        /* \"@openzeppelin/contracts/token/ERC20/ERC20.sol\":10333:10364  Approval(owner, spender, value) */\n      0xffffffffffffffffffffffffffffffffffffffff\n      and\n        /* \"@openzeppelin/contracts/token/ERC20/ERC20.sol\":10342:10347  owner */\n      dup5\n        /* \"@openzeppelin/contracts/token/ERC20/ERC20.sol\":10333:10364  Approval(owner, spender, value) */\n      0xffffffffffffffffffffffffffffffffffffffff\n      and\n      0x8c5be1e5ebec7d5bd14f71427d1e84f3dd0314c0f7b2291e5b200ac8c7c3b925\n        /* \"@openzeppelin/contracts/token/ERC20/ERC20.sol\":10358:10363  value */\n      dup5\n        /* \"@openzeppelin/contracts/token/ERC20/ERC20.sol\":10333:10364  Approval(owner, spender, value) */\n      mload(0x40)\n      tag_169\n      swap2\n      swap1\n      tag_35\n      jump\t// in\n    tag_169:\n      mload(0x40)\n      dup1\n      swap2\n      sub\n      swap1\n      log3\n        /* \"@openzeppelin/contracts/token/ERC20/ERC20.sol\":10299:10375  if (emitEvent) {... */\n    tag_168:\n        /* \"@openzeppelin/contracts/token/ERC20/ERC20.sol\":9949:10381  function _approve(address owner, address spender, uint256 value, bool emitEvent) internal virtual {... */\n      pop\n      pop\n      pop\n      pop\n      jump\t// out\n        /* \"contracts/Token.sol\":644:1097  function _update(address from, address to, uint256 value) internal virtual override(ERC20Capped,ERC20) {... */\n    tag_158:\n        /* \"contracts/Token.sol\":758:788  super._update(from, to, value) */\n      tag_171\n        /* \"contracts/Token.sol\":772:776  from */\n      dup4\n        /* \"contracts/Token.sol\":778:780  to */\n      dup4\n        /* \"contracts/Token.sol\":782:787  value */\n      dup4\n        /* \"contracts/Token.sol\":758:771  super._update */\n      tag_172\n        /* \"contracts/Token.sol\":758:788  super._update(from, to, value) */\n      jump\t// in\n    tag_171:\n        /* \"contracts/Token.sol\":821:822  0 */\n      0x00\n        /* \"contracts/Token.sol\":805:823  from == address(0) */\n      0xffffffffffffffffffffffffffffffffffffffff\n      and\n        /* \"contracts/Token.sol\":805:809  from */\n      dup4\n        /* \"contracts/Token.sol\":805:823  from == address(0) */\n      0xffffffffffffffffffffffffffffffffffffffff\n      and\n      eq\n        /* \"contracts/Token.sol\":805:846  from == address(0) && to !=block.coinbase */\n      dup1\n      iszero\n      tag_173\n      jumpi\n      pop\n        /* \"contracts/Token.sol\":832:846  block.coinbase */\n      coinbase\n        /* \"contracts/Token.sol\":827:846  to !=block.coinbase */\n      0xffffffffffffffffffffffffffffffffffffffff\n      and\n        /* \"contracts/Token.sol\":827:829  to */\n      dup3\n        /* \"contracts/Token.sol\":827:846  to !=block.coinbase */\n      0xffffffffffffffffffffffffffffffffffffffff\n      and\n      eq\n      iszero\n        /* \"contracts/Token.sol\":805:846  from == address(0) && to !=block.coinbase */\n    tag_173:\n        /* \"contracts/Token.sol\":805:876  from == address(0) && to !=block.coinbase && block.coinbase!=address(0) */\n      dup1\n      iszero\n      tag_174\n      jumpi\n      pop\n        /* \"contracts/Token.sol\":874:875  0 */\n      0x00\n        /* \"contracts/Token.sol\":850:876  block.coinbase!=address(0) */\n      0xffffffffffffffffffffffffffffffffffffffff\n      and\n        /* \"contracts/Token.sol\":850:864  block.coinbase */\n      coinbase\n        /* \"contracts/Token.sol\":850:876  block.coinbase!=address(0) */\n      0xffffffffffffffffffffffffffffffffffffffff\n      and\n      eq\n      iszero\n        /* \"contracts/Token.sol\":805:876  from == address(0) && to !=block.coinbase && block.coinbase!=address(0) */\n    tag_174:\n        /* \"contracts/Token.sol\":801:1090  if (from == address(0) && to !=block.coinbase && block.coinbase!=address(0)) {... */\n      iszero\n      tag_175\n      jumpi\n        /* \"contracts/Token.sol\":893:910  uint256 maxSupply */\n      0x00\n        /* \"contracts/Token.sol\":913:918  cap() */\n      tag_176\n        /* \"contracts/Token.sol\":913:916  cap */\n      tag_53\n        /* \"contracts/Token.sol\":913:918  cap() */\n      jump\t// in\n    tag_176:\n        /* \"contracts/Token.sol\":893:918  uint256 maxSupply = cap() */\n      swap1\n      pop\n        /* \"contracts/Token.sol\":933:947  uint256 supply */\n      0x00\n        /* \"contracts/Token.sol\":950:963  totalSupply() */\n      tag_177\n        /* \"contracts/Token.sol\":950:961  totalSupply */\n      tag_37\n        /* \"contracts/Token.sol\":950:963  totalSupply() */\n      jump\t// in\n    tag_177:\n        /* \"contracts/Token.sol\":933:963  uint256 supply = totalSupply() */\n      swap1\n      pop\n        /* \"contracts/Token.sol\":991:1000  maxSupply */\n      dup2\n        /* \"contracts/Token.sol\":982:988  supply */\n      dup2\n        /* \"contracts/Token.sol\":982:1000  supply > maxSupply */\n      gt\n        /* \"contracts/Token.sol\":978:1079  if (supply > maxSupply) {... */\n      iszero\n      tag_178\n      jumpi\n        /* \"contracts/Token.sol\":1045:1051  supply */\n      dup1\n        /* \"contracts/Token.sol\":1053:1062  maxSupply */\n      dup3\n        /* \"contracts/Token.sol\":1028:1063  ERC20ExceededCap(supply, maxSupply) */\n      mload(0x40)\n      0x9e79f85400000000000000000000000000000000000000000000000000000000\n      dup2\n      mstore\n      0x04\n      add\n      tag_179\n      swap3\n      swap2\n      swap1\n      tag_180\n      jump\t// in\n    tag_179:\n      mload(0x40)\n      dup1\n      swap2\n      sub\n      swap1\n      revert\n        /* \"contracts/Token.sol\":978:1079  if (supply > maxSupply) {... */\n    tag_178:\n        /* \"contracts/Token.sol\":878:1090  {... */\n      pop\n      pop\n        /* \"contracts/Token.sol\":801:1090  if (from == address(0) && to !=block.coinbase && block.coinbase!=address(0)) {... */\n    tag_175:\n        /* \"contracts/Token.sol\":644:1097  function _update(address from, address to, uint256 value) internal virtual override(ERC20Capped,ERC20) {... */\n      pop\n      pop\n      pop\n      jump\t// out\n        /* \"@openzeppelin/contracts/token/ERC20/extensions/ERC20Capped.sol\":1059:1430  function _update(address from, address to, uint256 value) internal virtual override {... */\n    tag_172:\n        /* \"@openzeppelin/contracts/token/ERC20/extensions/ERC20Capped.sol\":1153:1183  super._update(from, to, value) */\n      tag_182\n        /* \"@openzeppelin/contracts/token/ERC20/extensions/ERC20Capped.sol\":1167:1171  from */\n      dup4\n        /* \"@openzeppelin/contracts/token/ERC20/extensions/ERC20Capped.sol\":1173:1175  to */\n      dup4\n        /* \"@openzeppelin/contracts/token/ERC20/extensions/ERC20Capped.sol\":1177:1182  value */\n      dup4\n        /* \"@openzeppelin/contracts/token/ERC20/extensions/ERC20Capped.sol\":1153:1166  super._update */\n      tag_183\n        /* \"@openzeppelin/contracts/token/ERC20/extensions/ERC20Capped.sol\":1153:1183  super._update(from, to, value) */\n      jump\t// in\n    tag_182:\n        /* \"@openzeppelin/contracts/token/ERC20/extensions/ERC20Capped.sol\":1214:1215  0 */\n      0x00\n        /* \"@openzeppelin/contracts/token/ERC20/extensions/ERC20Capped.sol\":1198:1216  from == address(0) */\n      0xffffffffffffffffffffffffffffffffffffffff\n      and\n        /* \"@openzeppelin/contracts/token/ERC20/extensions/ERC20Capped.sol\":1198:1202  from */\n      dup4\n        /* \"@openzeppelin/contracts/token/ERC20/extensions/ERC20Capped.sol\":1198:1216  from == address(0) */\n      0xffffffffffffffffffffffffffffffffffffffff\n      and\n      sub\n        /* \"@openzeppelin/contracts/token/ERC20/extensions/ERC20Capped.sol\":1194:1424  if (from == address(0)) {... */\n      tag_184\n      jumpi\n        /* \"@openzeppelin/contracts/token/ERC20/extensions/ERC20Capped.sol\":1232:1249  uint256 maxSupply */\n      0x00\n        /* \"@openzeppelin/contracts/token/ERC20/extensions/ERC20Capped.sol\":1252:1257  cap() */\n      tag_185\n        /* \"@openzeppelin/contracts/token/ERC20/extensions/ERC20Capped.sol\":1252:1255  cap */\n      tag_53\n        /* \"@openzeppelin/contracts/token/ERC20/extensions/ERC20Capped.sol\":1252:1257  cap() */\n      jump\t// in\n    tag_185:\n        /* \"@openzeppelin/contracts/token/ERC20/extensions/ERC20Capped.sol\":1232:1257  uint256 maxSupply = cap() */\n      swap1\n      pop\n        /* \"@openzeppelin/contracts/token/ERC20/extensions/ERC20Capped.sol\":1271:1285  uint256 supply */\n      0x00\n        /* \"@openzeppelin/contracts/token/ERC20/extensions/ERC20Capped.sol\":1288:1301  totalSupply() */\n      tag_186\n        /* \"@openzeppelin/contracts/token/ERC20/extensions/ERC20Capped.sol\":1288:1299  totalSupply */\n      tag_37\n        /* \"@openzeppelin/contracts/token/ERC20/extensions/ERC20Capped.sol\":1288:1301  totalSupply() */\n      jump\t// in\n    tag_186:\n        /* \"@openzeppelin/contracts/token/ERC20/extensions/ERC20Capped.sol\":1271:1301  uint256 supply = totalSupply() */\n      swap1\n      pop\n        /* \"@openzeppelin/contracts/token/ERC20/extensions/ERC20Capped.sol\":1328:1337  maxSupply */\n      dup2\n        /* \"@openzeppelin/contracts/token/ERC20/extensions/ERC20Capped.sol\":1319:1325  supply */\n      dup2\n        /* \"@openzeppelin/contracts/token/ERC20/extensions/ERC20Capped.sol\":1319:1337  supply > maxSupply */\n      gt\n        /* \"@openzeppelin/contracts/token/ERC20/extensions/ERC20Capped.sol\":1315:1414  if (supply > maxSupply) {... */\n      iszero\n      tag_187\n      jumpi\n        /* \"@openzeppelin/contracts/token/ERC20/extensions/ERC20Capped.sol\":1381:1387  supply */\n      dup1\n        /* \"@openzeppelin/contracts/token/ERC20/extensions/ERC20Capped.sol\":1389:1398  maxSupply */\n      dup3\n        /* \"@openzeppelin/contracts/token/ERC20/extensions/ERC20Capped.sol\":1364:1399  ERC20ExceededCap(supply, maxSupply) */\n      mload(0x40)\n      0x9e79f85400000000000000000000000000000000000000000000000000000000\n      dup2\n      mstore\n      0x04\n      add\n      tag_188\n      swap3\n      swap2\n      swap1\n      tag_180\n      jump\t// in\n    tag_188:\n      mload(0x40)\n      dup1\n      swap2\n      sub\n      swap1\n      revert\n        /* \"@openzeppelin/contracts/token/ERC20/extensions/ERC20Capped.sol\":1315:1414  if (supply > maxSupply) {... */\n    tag_187:\n        /* \"@openzeppelin/contracts/token/ERC20/extensions/ERC20Capped.sol\":1218:1424  {... */\n      pop\n      pop\n        /* \"@openzeppelin/contracts/token/ERC20/extensions/ERC20Capped.sol\":1194:1424  if (from == address(0)) {... */\n    tag_184:\n        /* \"@openzeppelin/contracts/token/ERC20/extensions/ERC20Capped.sol\":1059:1430  function _update(address from, address to, uint256 value) internal virtual override {... */\n      pop\n      pop\n      pop\n      jump\t// out\n        /* \"@openzeppelin/contracts/token/ERC20/ERC20.sol\":6271:7378  function _update(address from, address to, uint256 value) internal virtual {... */\n    tag_183:\n        /* \"@openzeppelin/contracts/token/ERC20/ERC20.sol\":6376:6377  0 */\n      0x00\n        /* \"@openzeppelin/contracts/token/ERC20/ERC20.sol\":6360:6378  from == address(0) */\n      0xffffffffffffffffffffffffffffffffffffffff\n      and\n        /* \"@openzeppelin/contracts/token/ERC20/ERC20.sol\":6360:6364  from */\n      dup4\n        /* \"@openzeppelin/contracts/token/ERC20/ERC20.sol\":6360:6378  from == address(0) */\n      0xffffffffffffffffffffffffffffffffffffffff\n      and\n      sub\n        /* \"@openzeppelin/contracts/token/ERC20/ERC20.sol\":6356:6896  if (from == address(0)) {... */\n      tag_190\n      jumpi\n        /* \"@openzeppelin/contracts/token/ERC20/ERC20.sol\":6512:6517  value */\n      dup1\n        /* \"@openzeppelin/contracts/token/ERC20/ERC20.sol\":6496:6508  _totalSupply */\n      0x02\n      0x00\n        /* \"@openzeppelin/contracts/token/ERC20/ERC20.sol\":6496:6517  _totalSupply += value */\n      dup3\n      dup3\n      sload\n      tag_191\n      swap2\n      swap1\n      tag_192\n      jump\t// in\n    tag_191:\n      swap3\n      pop\n      pop\n      dup2\n      swap1\n      sstore\n      pop\n        /* \"@openzeppelin/contracts/token/ERC20/ERC20.sol\":6356:6896  if (from == address(0)) {... */\n      jump(tag_193)\n    tag_190:\n        /* \"@openzeppelin/contracts/token/ERC20/ERC20.sol\":6548:6567  uint256 fromBalance */\n      0x00\n        /* \"@openzeppelin/contracts/token/ERC20/ERC20.sol\":6570:6579  _balances */\n      dup1\n        /* \"@openzeppelin/contracts/token/ERC20/ERC20.sol\":6570:6585  _balances[from] */\n      0x00\n        /* \"@openzeppelin/contracts/token/ERC20/ERC20.sol\":6580:6584  from */\n      dup6\n        /* \"@openzeppelin/contracts/token/ERC20/ERC20.sol\":6570:6585  _balances[from] */\n      0xffffffffffffffffffffffffffffffffffffffff\n      and\n      0xffffffffffffffffffffffffffffffffffffffff\n      and\n      dup2\n      mstore\n      0x20\n      add\n      swap1\n      dup2\n      mstore\n      0x20\n      add\n      0x00\n      keccak256\n      sload\n        /* \"@openzeppelin/contracts/token/ERC20/ERC20.sol\":6548:6585  uint256 fromBalance = _balances[from] */\n      swap1\n      pop\n        /* \"@openzeppelin/contracts/token/ERC20/ERC20.sol\":6617:6622  value */\n      dup2\n        /* \"@openzeppelin/contracts/token/ERC20/ERC20.sol\":6603:6614  fromBalance */\n      dup2\n        /* \"@openzeppelin/contracts/token/ERC20/ERC20.sol\":6603:6622  fromBalance < value */\n      lt\n        /* \"@openzeppelin/contracts/token/ERC20/ERC20.sol\":6599:6714  if (fromBalance < value) {... */\n      iszero\n      tag_194\n      jumpi\n        /* \"@openzeppelin/contracts/token/ERC20/ERC20.sol\":6674:6678  from */\n      dup4\n        /* \"@openzeppelin/contracts/token/ERC20/ERC20.sol\":6680:6691  fromBalance */\n      dup2\n        /* \"@openzeppelin/contracts/token/ERC20/ERC20.sol\":6693:6698  value */\n      dup4\n        /* \"@openzeppelin/contracts/token/ERC20/ERC20.sol\":6649:6699  ERC20InsufficientBalance(from, fromBalance, value) */\n      mload(0x40)\n      0xe450d38c00000000000000000000000000000000000000000000000000000000\n      dup2\n      mstore\n      0x04\n      add\n      tag_195\n      swap4\n      swap3\n      swap2\n      swap1\n      tag_149\n      jump\t// in\n    tag_195:\n      mload(0x40)\n      dup1\n      swap2\n      sub\n      swap1\n      revert\n        /* \"@openzeppelin/contracts/token/ERC20/ERC20.sol\":6599:6714  if (fromBalance < value) {... */\n    tag_194:\n        /* \"@openzeppelin/contracts/token/ERC20/ERC20.sol\":6866:6871  value */\n      dup2\n        /* \"@openzeppelin/contracts/token/ERC20/ERC20.sol\":6852:6863  fromBalance */\n      dup2\n        /* \"@openzeppelin/contracts/token/ERC20/ERC20.sol\":6852:6871  fromBalance - value */\n      sub\n        /* \"@openzeppelin/contracts/token/ERC20/ERC20.sol\":6834:6843  _balances */\n      0x00\n        /* \"@openzeppelin/contracts/token/ERC20/ERC20.sol\":6834:6849  _balances[from] */\n      dup1\n        /* \"@openzeppelin/contracts/token/ERC20/ERC20.sol\":6844:6848  from */\n      dup7\n        /* \"@openzeppelin/contracts/token/ERC20/ERC20.sol\":6834:6849  _balances[from] */\n      0xffffffffffffffffffffffffffffffffffffffff\n      and\n      0xffffffffffffffffffffffffffffffffffffffff\n      and\n      dup2\n      mstore\n      0x20\n      add\n      swap1\n      dup2\n      mstore\n      0x20\n      add\n      0x00\n      keccak256\n        /* \"@openzeppelin/contracts/token/ERC20/ERC20.sol\":6834:6871  _balances[from] = fromBalance - value */\n      dup2\n      swap1\n      sstore\n      pop\n        /* \"@openzeppelin/contracts/token/ERC20/ERC20.sol\":6534:6896  {... */\n      pop\n        /* \"@openzeppelin/contracts/token/ERC20/ERC20.sol\":6356:6896  if (from == address(0)) {... */\n    tag_193:\n        /* \"@openzeppelin/contracts/token/ERC20/ERC20.sol\":6924:6925  0 */\n      0x00\n        /* \"@openzeppelin/contracts/token/ERC20/ERC20.sol\":6910:6926  to == address(0) */\n      0xffffffffffffffffffffffffffffffffffffffff\n      and\n        /* \"@openzeppelin/contracts/token/ERC20/ERC20.sol\":6910:6912  to */\n      dup3\n        /* \"@openzeppelin/contracts/token/ERC20/ERC20.sol\":6910:6926  to == address(0) */\n      0xffffffffffffffffffffffffffffffffffffffff\n      and\n      sub\n        /* \"@openzeppelin/contracts/token/ERC20/ERC20.sol\":6906:7331  if (to == address(0)) {... */\n      tag_196\n      jumpi\n        /* \"@openzeppelin/contracts/token/ERC20/ERC20.sol\":7089:7094  value */\n      dup1\n        /* \"@openzeppelin/contracts/token/ERC20/ERC20.sol\":7073:7085  _totalSupply */\n      0x02\n      0x00\n        /* \"@openzeppelin/contracts/token/ERC20/ERC20.sol\":7073:7094  _totalSupply -= value */\n      dup3\n      dup3\n      sload\n      sub\n      swap3\n      pop\n      pop\n      dup2\n      swap1\n      sstore\n      pop\n        /* \"@openzeppelin/contracts/token/ERC20/ERC20.sol\":6906:7331  if (to == address(0)) {... */\n      jump(tag_197)\n    tag_196:\n        /* \"@openzeppelin/contracts/token/ERC20/ERC20.sol\":7301:7306  value */\n      dup1\n        /* \"@openzeppelin/contracts/token/ERC20/ERC20.sol\":7284:7293  _balances */\n      0x00\n        /* \"@openzeppelin/contracts/token/ERC20/ERC20.sol\":7284:7297  _balances[to] */\n      dup1\n        /* \"@openzeppelin/contracts/token/ERC20/ERC20.sol\":7294:7296  to */\n      dup5\n        /* \"@openzeppelin/contracts/token/ERC20/ERC20.sol\":7284:7297  _balances[to] */\n      0xffffffffffffffffffffffffffffffffffffffff\n      and\n      0xffffffffffffffffffffffffffffffffffffffff\n      and\n      dup2\n      mstore\n      0x20\n      add\n      swap1\n      dup2\n      mstore\n      0x20\n      add\n      0x00\n      keccak256\n      0x00\n        /* \"@openzeppelin/contracts/token/ERC20/ERC20.sol\":7284:7306  _balances[to] += value */\n      dup3\n      dup3\n      sload\n      add\n      swap3\n      pop\n      pop\n      dup2\n      swap1\n      sstore\n      pop\n        /* \"@openzeppelin/contracts/token/ERC20/ERC20.sol\":6906:7331  if (to == address(0)) {... */\n    tag_197:\n        /* \"@openzeppelin/contracts/token/ERC20/ERC20.sol\":7361:7363  to */\n      dup2\n        /* \"@openzeppelin/contracts/token/ERC20/ERC20.sol\":7346:7371  Transfer(from, to, value) */\n      0xffffffffffffffffffffffffffffffffffffffff\n      and\n        /* \"@openzeppelin/contracts/token/ERC20/ERC20.sol\":7355:7359  from */\n      dup4\n        /* \"@openzeppelin/contracts/token/ERC20/ERC20.sol\":7346:7371  Transfer(from, to, value) */\n      0xffffffffffffffffffffffffffffffffffffffff\n      and\n      0xddf252ad1be2c89b69c2b068fc378daa952ba7f163c4a11628f55a4df523b3ef\n        /* \"@openzeppelin/contracts/token/ERC20/ERC20.sol\":7365:7370  value */\n      dup4\n        /* \"@openzeppelin/contracts/token/ERC20/ERC20.sol\":7346:7371  Transfer(from, to, value) */\n      mload(0x40)\n      tag_198\n      swap2\n      swap1\n      tag_35\n      jump\t// in\n    tag_198:\n      mload(0x40)\n      dup1\n      swap2\n      sub\n      swap1\n      log3\n        /* \"@openzeppelin/contracts/token/ERC20/ERC20.sol\":6271:7378  function _update(address from, address to, uint256 value) internal virtual {... */\n      pop\n      pop\n      pop\n      jump\t// out\n        /* \"#utility.yul\":7:106   */\n    tag_199:\n        /* \"#utility.yul\":59:65   */\n      0x00\n        /* \"#utility.yul\":93:98   */\n      dup2\n        /* \"#utility.yul\":87:99   */\n      mload\n        /* \"#utility.yul\":77:99   */\n      swap1\n      pop\n        /* \"#utility.yul\":7:106   */\n      swap2\n      swap1\n      pop\n      jump\t// out\n        /* \"#utility.yul\":112:281   */\n    tag_200:\n        /* \"#utility.yul\":196:207   */\n      0x00\n        /* \"#utility.yul\":230:236   */\n      dup3\n        /* \"#utility.yul\":225:228   */\n      dup3\n        /* \"#utility.yul\":218:237   */\n      mstore\n        /* \"#utility.yul\":270:274   */\n      0x20\n        /* \"#utility.yul\":265:268   */\n      dup3\n        /* \"#utility.yul\":261:275   */\n      add\n        /* \"#utility.yul\":246:275   */\n      swap1\n      pop\n        /* \"#utility.yul\":112:281   */\n      swap3\n      swap2\n      pop\n      pop\n      jump\t// out\n        /* \"#utility.yul\":287:533   */\n    tag_201:\n        /* \"#utility.yul\":368:369   */\n      0x00\n        /* \"#utility.yul\":378:491   */\n    tag_233:\n        /* \"#utility.yul\":392:398   */\n      dup4\n        /* \"#utility.yul\":389:390   */\n      dup2\n        /* \"#utility.yul\":386:399   */\n      lt\n        /* \"#utility.yul\":378:491   */\n      iszero\n      tag_235\n      jumpi\n        /* \"#utility.yul\":477:478   */\n      dup1\n        /* \"#utility.yul\":472:475   */\n      dup3\n        /* \"#utility.yul\":468:479   */\n      add\n        /* \"#utility.yul\":462:480   */\n      mload\n        /* \"#utility.yul\":458:459   */\n      dup2\n        /* \"#utility.yul\":453:456   */\n      dup5\n        /* \"#utility.yul\":449:460   */\n      add\n        /* \"#utility.yul\":442:481   */\n      mstore\n        /* \"#utility.yul\":414:416   */\n      0x20\n        /* \"#utility.yul\":411:412   */\n      dup2\n        /* \"#utility.yul\":407:417   */\n      add\n        /* \"#utility.yul\":402:417   */\n      swap1\n      pop\n        /* \"#utility.yul\":378:491   */\n      jump(tag_233)\n    tag_235:\n        /* \"#utility.yul\":525:526   */\n      0x00\n        /* \"#utility.yul\":516:522   */\n      dup5\n        /* \"#utility.yul\":511:514   */\n      dup5\n        /* \"#utility.yul\":507:523   */\n      add\n        /* \"#utility.yul\":500:527   */\n      mstore\n        /* \"#utility.yul\":349:533   */\n      pop\n        /* \"#utility.yul\":287:533   */\n      pop\n      pop\n      pop\n      jump\t// out\n        /* \"#utility.yul\":539:641   */\n    tag_202:\n        /* \"#utility.yul\":580:586   */\n      0x00\n        /* \"#utility.yul\":631:633   */\n      0x1f\n        /* \"#utility.yul\":627:634   */\n      not\n        /* \"#utility.yul\":622:624   */\n      0x1f\n        /* \"#utility.yul\":615:620   */\n      dup4\n        /* \"#utility.yul\":611:625   */\n      add\n        /* \"#utility.yul\":607:635   */\n      and\n        /* \"#utility.yul\":597:635   */\n      swap1\n      pop\n        /* \"#utility.yul\":539:641   */\n      swap2\n      swap1\n      pop\n      jump\t// out\n        /* \"#utility.yul\":647:1024   */\n    tag_203:\n        /* \"#utility.yul\":735:738   */\n      0x00\n        /* \"#utility.yul\":763:802   */\n      tag_238\n        /* \"#utility.yul\":796:801   */\n      dup3\n        /* \"#utility.yul\":763:802   */\n      tag_199\n      jump\t// in\n    tag_238:\n        /* \"#utility.yul\":818:889   */\n      tag_239\n        /* \"#utility.yul\":882:888   */\n      dup2\n        /* \"#utility.yul\":877:880   */\n      dup6\n        /* \"#utility.yul\":818:889   */\n      tag_200\n      jump\t// in\n    tag_239:\n        /* \"#utility.yul\":811:889   */\n      swap4\n      pop\n        /* \"#utility.yul\":898:963   */\n      tag_240\n        /* \"#utility.yul\":956:962   */\n      dup2\n        /* \"#utility.yul\":951:954   */\n      dup6\n        /* \"#utility.yul\":944:948   */\n      0x20\n        /* \"#utility.yul\":937:942   */\n      dup7\n        /* \"#utility.yul\":933:949   */\n      add\n        /* \"#utility.yul\":898:963   */\n      tag_201\n      jump\t// in\n    tag_240:\n        /* \"#utility.yul\":988:1017   */\n      tag_241\n        /* \"#utility.yul\":1010:1016   */\n      dup2\n        /* \"#utility.yul\":988:1017   */\n      tag_202\n      jump\t// in\n    tag_241:\n        /* \"#utility.yul\":983:986   */\n      dup5\n        /* \"#utility.yul\":979:1018   */\n      add\n        /* \"#utility.yul\":972:1018   */\n      swap2\n      pop\n        /* \"#utility.yul\":739:1024   */\n      pop\n        /* \"#utility.yul\":647:1024   */\n      swap3\n      swap2\n      pop\n      pop\n      jump\t// out\n        /* \"#utility.yul\":1030:1343   */\n    tag_25:\n        /* \"#utility.yul\":1143:1147   */\n      0x00\n        /* \"#utility.yul\":1181:1183   */\n      0x20\n        /* \"#utility.yul\":1170:1179   */\n      dup3\n        /* \"#utility.yul\":1166:1184   */\n      add\n        /* \"#utility.yul\":1158:1184   */\n      swap1\n      pop\n        /* \"#utility.yul\":1230:1239   */\n      dup2\n        /* \"#utility.yul\":1224:1228   */\n      dup2\n        /* \"#utility.yul\":1220:1240   */\n      sub\n        /* \"#utility.yul\":1216:1217   */\n      0x00\n        /* \"#utility.yul\":1205:1214   */\n      dup4\n        /* \"#utility.yul\":1201:1218   */\n      add\n        /* \"#utility.yul\":1194:1241   */\n      mstore\n        /* \"#utility.yul\":1258:1336   */\n      tag_243\n        /* \"#utility.yul\":1331:1335   */\n      dup2\n        /* \"#utility.yul\":1322:1328   */\n      dup5\n        /* \"#utility.yul\":1258:1336   */\n      tag_203\n      jump\t// in\n    tag_243:\n        /* \"#utility.yul\":1250:1336   */\n      swap1\n      pop\n        /* \"#utility.yul\":1030:1343   */\n      swap3\n      swap2\n      pop\n      pop\n      jump\t// out\n        /* \"#utility.yul\":1430:1547   */\n    tag_205:\n        /* \"#utility.yul\":1539:1540   */\n      0x00\n        /* \"#utility.yul\":1536:1537   */\n      dup1\n        /* \"#utility.yul\":1529:1541   */\n      revert\n        /* \"#utility.yul\":1676:1802   */\n    tag_207:\n        /* \"#utility.yul\":1713:1720   */\n      0x00\n        /* \"#utility.yul\":1753:1795   */\n      0xffffffffffffffffffffffffffffffffffffffff\n        /* \"#utility.yul\":1746:1751   */\n      dup3\n        /* \"#utility.yul\":1742:1796   */\n      and\n        /* \"#utility.yul\":1731:1796   */\n      swap1\n      pop\n        /* \"#utility.yul\":1676:1802   */\n      swap2\n      swap1\n      pop\n      jump\t// out\n        /* \"#utility.yul\":1808:1904   */\n    tag_208:\n        /* \"#utility.yul\":1845:1852   */\n      0x00\n        /* \"#utility.yul\":1874:1898   */\n      tag_249\n        /* \"#utility.yul\":1892:1897   */\n      dup3\n        /* \"#utility.yul\":1874:1898   */\n      tag_207\n      jump\t// in\n    tag_249:\n        /* \"#utility.yul\":1863:1898   */\n      swap1\n      pop\n        /* \"#utility.yul\":1808:1904   */\n      swap2\n      swap1\n      pop\n      jump\t// out\n        /* \"#utility.yul\":1910:2032   */\n    tag_209:\n        /* \"#utility.yul\":1983:2007   */\n      tag_251\n        /* \"#utility.yul\":2001:2006   */\n      dup2\n        /* \"#utility.yul\":1983:2007   */\n      tag_208\n      jump\t// in\n    tag_251:\n        /* \"#utility.yul\":1976:1981   */\n      dup2\n        /* \"#utility.yul\":1973:2008   */\n      eq\n        /* \"#utility.yul\":1963:2026   */\n      tag_252\n      jumpi\n        /* \"#utility.yul\":2022:2023   */\n      0x00\n        /* \"#utility.yul\":2019:2020   */\n      dup1\n        /* \"#utility.yul\":2012:2024   */\n      revert\n        /* \"#utility.yul\":1963:2026   */\n    tag_252:\n        /* \"#utility.yul\":1910:2032   */\n      pop\n      jump\t// out\n        /* \"#utility.yul\":2038:2177   */\n    tag_210:\n        /* \"#utility.yul\":2084:2089   */\n      0x00\n        /* \"#utility.yul\":2122:2128   */\n      dup2\n        /* \"#utility.yul\":2109:2129   */\n      calldataload\n        /* \"#utility.yul\":2100:2129   */\n      swap1\n      pop\n        /* \"#utility.yul\":2138:2171   */\n      tag_254\n        /* \"#utility.yul\":2165:2170   */\n      dup2\n        /* \"#utility.yul\":2138:2171   */\n      tag_209\n      jump\t// in\n    tag_254:\n        /* \"#utility.yul\":2038:2177   */\n      swap3\n      swap2\n      pop\n      pop\n      jump\t// out\n        /* \"#utility.yul\":2183:2260   */\n    tag_211:\n        /* \"#utility.yul\":2220:2227   */\n      0x00\n        /* \"#utility.yul\":2249:2254   */\n      dup2\n        /* \"#utility.yul\":2238:2254   */\n      swap1\n      pop\n        /* \"#utility.yul\":2183:2260   */\n      swap2\n      swap1\n      pop\n      jump\t// out\n        /* \"#utility.yul\":2266:2388   */\n    tag_212:\n        /* \"#utility.yul\":2339:2363   */\n      tag_257\n        /* \"#utility.yul\":2357:2362   */\n      dup2\n        /* \"#utility.yul\":2339:2363   */\n      tag_211\n      jump\t// in\n    tag_257:\n        /* \"#utility.yul\":2332:2337   */\n      dup2\n        /* \"#utility.yul\":2329:2364   */\n      eq\n        /* \"#utility.yul\":2319:2382   */\n      tag_258\n      jumpi\n        /* \"#utility.yul\":2378:2379   */\n      0x00\n        /* \"#utility.yul\":2375:2376   */\n      dup1\n        /* \"#utility.yul\":2368:2380   */\n      revert\n        /* \"#utility.yul\":2319:2382   */\n    tag_258:\n        /* \"#utility.yul\":2266:2388   */\n      pop\n      jump\t// out\n        /* \"#utility.yul\":2394:2533   */\n    tag_213:\n        /* \"#utility.yul\":2440:2445   */\n      0x00\n        /* \"#utility.yul\":2478:2484   */\n      dup2\n        /* \"#utility.yul\":2465:2485   */\n      calldataload\n        /* \"#utility.yul\":2456:2485   */\n      swap1\n      pop\n        /* \"#utility.yul\":2494:2527   */\n      tag_260\n        /* \"#utility.yul\":2521:2526   */\n      dup2\n        /* \"#utility.yul\":2494:2527   */\n      tag_212\n      jump\t// in\n    tag_260:\n        /* \"#utility.yul\":2394:2533   */\n      swap3\n      swap2\n      pop\n      pop\n      jump\t// out\n        /* \"#utility.yul\":2539:3013   */\n    tag_28:\n        /* \"#utility.yul\":2607:2613   */\n      0x00\n        /* \"#utility.yul\":2615:2621   */\n      dup1\n        /* \"#utility.yul\":2664:2666   */\n      0x40\n        /* \"#utility.yul\":2652:2661   */\n      dup4\n        /* \"#utility.yul\":2643:2650   */\n      dup6\n        /* \"#utility.yul\":2639:2662   */\n      sub\n        /* \"#utility.yul\":2635:2667   */\n      slt\n        /* \"#utility.yul\":2632:2751   */\n      iszero\n      tag_262\n      jumpi\n        /* \"#utility.yul\":2670:2749   */\n      tag_263\n      tag_205\n      jump\t// in\n    tag_263:\n        /* \"#utility.yul\":2632:2751   */\n    tag_262:\n        /* \"#utility.yul\":2790:2791   */\n      0x00\n        /* \"#utility.yul\":2815:2868   */\n      tag_264\n        /* \"#utility.yul\":2860:2867   */\n      dup6\n        /* \"#utility.yul\":2851:2857   */\n      dup3\n        /* \"#utility.yul\":2840:2849   */\n      dup7\n        /* \"#utility.yul\":2836:2858   */\n      add\n        /* \"#utility.yul\":2815:2868   */\n      tag_210\n      jump\t// in\n    tag_264:\n        /* \"#utility.yul\":2805:2868   */\n      swap3\n      pop\n        /* \"#utility.yul\":2761:2878   */\n      pop\n        /* \"#utility.yul\":2917:2919   */\n      0x20\n        /* \"#utility.yul\":2943:2996   */\n      tag_265\n        /* \"#utility.yul\":2988:2995   */\n      dup6\n        /* \"#utility.yul\":2979:2985   */\n      dup3\n        /* \"#utility.yul\":2968:2977   */\n      dup7\n        /* \"#utility.yul\":2964:2986   */\n      add\n        /* \"#utility.yul\":2943:2996   */\n      tag_213\n      jump\t// in\n    tag_265:\n        /* \"#utility.yul\":2933:2996   */\n      swap2\n      pop\n        /* \"#utility.yul\":2888:3006   */\n      pop\n        /* \"#utility.yul\":2539:3013   */\n      swap3\n      pop\n      swap3\n      swap1\n      pop\n      jump\t// out\n        /* \"#utility.yul\":3019:3109   */\n    tag_214:\n        /* \"#utility.yul\":3053:3060   */\n      0x00\n        /* \"#utility.yul\":3096:3101   */\n      dup2\n        /* \"#utility.yul\":3089:3102   */\n      iszero\n        /* \"#utility.yul\":3082:3103   */\n      iszero\n        /* \"#utility.yul\":3071:3103   */\n      swap1\n      pop\n        /* \"#utility.yul\":3019:3109   */\n      swap2\n      swap1\n      pop\n      jump\t// out\n        /* \"#utility.yul\":3115:3224   */\n    tag_215:\n        /* \"#utility.yul\":3196:3217   */\n      tag_268\n        /* \"#utility.yul\":3211:3216   */\n      dup2\n        /* \"#utility.yul\":3196:3217   */\n      tag_214\n      jump\t// in\n    tag_268:\n        /* \"#utility.yul\":3191:3194   */\n      dup3\n        /* \"#utility.yul\":3184:3218   */\n      mstore\n        /* \"#utility.yul\":3115:3224   */\n      pop\n      pop\n      jump\t// out\n        /* \"#utility.yul\":3230:3440   */\n    tag_31:\n        /* \"#utility.yul\":3317:3321   */\n      0x00\n        /* \"#utility.yul\":3355:3357   */\n      0x20\n        /* \"#utility.yul\":3344:3353   */\n      dup3\n        /* \"#utility.yul\":3340:3358   */\n      add\n        /* \"#utility.yul\":3332:3358   */\n      swap1\n      pop\n        /* \"#utility.yul\":3368:3433   */\n      tag_270\n        /* \"#utility.yul\":3430:3431   */\n      0x00\n        /* \"#utility.yul\":3419:3428   */\n      dup4\n        /* \"#utility.yul\":3415:3432   */\n      add\n        /* \"#utility.yul\":3406:3412   */\n      dup5\n        /* \"#utility.yul\":3368:3433   */\n      tag_215\n      jump\t// in\n    tag_270:\n        /* \"#utility.yul\":3230:3440   */\n      swap3\n      swap2\n      pop\n      pop\n      jump\t// out\n        /* \"#utility.yul\":3446:3564   */\n    tag_216:\n        /* \"#utility.yul\":3533:3557   */\n      tag_272\n        /* \"#utility.yul\":3551:3556   */\n      dup2\n        /* \"#utility.yul\":3533:3557   */\n      tag_211\n      jump\t// in\n    tag_272:\n        /* \"#utility.yul\":3528:3531   */\n      dup3\n        /* \"#utility.yul\":3521:3558   */\n      mstore\n        /* \"#utility.yul\":3446:3564   */\n      pop\n      pop\n      jump\t// out\n        /* \"#utility.yul\":3570:3792   */\n    tag_35:\n        /* \"#utility.yul\":3663:3667   */\n      0x00\n        /* \"#utility.yul\":3701:3703   */\n      0x20\n        /* \"#utility.yul\":3690:3699   */\n      dup3\n        /* \"#utility.yul\":3686:3704   */\n      add\n        /* \"#utility.yul\":3678:3704   */\n      swap1\n      pop\n        /* \"#utility.yul\":3714:3785   */\n      tag_274\n        /* \"#utility.yul\":3782:3783   */\n      0x00\n        /* \"#utility.yul\":3771:3780   */\n      dup4\n        /* \"#utility.yul\":3767:3784   */\n      add\n        /* \"#utility.yul\":3758:3764   */\n      dup5\n        /* \"#utility.yul\":3714:3785   */\n      tag_216\n      jump\t// in\n    tag_274:\n        /* \"#utility.yul\":3570:3792   */\n      swap3\n      swap2\n      pop\n      pop\n      jump\t// out\n        /* \"#utility.yul\":3798:4127   */\n    tag_41:\n        /* \"#utility.yul\":3857:3863   */\n      0x00\n        /* \"#utility.yul\":3906:3908   */\n      0x20\n        /* \"#utility.yul\":3894:3903   */\n      dup3\n        /* \"#utility.yul\":3885:3892   */\n      dup5\n        /* \"#utility.yul\":3881:3904   */\n      sub\n        /* \"#utility.yul\":3877:3909   */\n      slt\n        /* \"#utility.yul\":3874:3993   */\n      iszero\n      tag_276\n      jumpi\n        /* \"#utility.yul\":3912:3991   */\n      tag_277\n      tag_205\n      jump\t// in\n    tag_277:\n        /* \"#utility.yul\":3874:3993   */\n    tag_276:\n        /* \"#utility.yul\":4032:4033   */\n      0x00\n        /* \"#utility.yul\":4057:4110   */\n      tag_278\n        /* \"#utility.yul\":4102:4109   */\n      dup5\n        /* \"#utility.yul\":4093:4099   */\n      dup3\n        /* \"#utility.yul\":4082:4091   */\n      dup6\n        /* \"#utility.yul\":4078:4100   */\n      add\n        /* \"#utility.yul\":4057:4110   */\n      tag_213\n      jump\t// in\n    tag_278:\n        /* \"#utility.yul\":4047:4110   */\n      swap2\n      pop\n        /* \"#utility.yul\":4003:4120   */\n      pop\n        /* \"#utility.yul\":3798:4127   */\n      swap3\n      swap2\n      pop\n      pop\n      jump\t// out\n        /* \"#utility.yul\":4133:4752   */\n    tag_45:\n        /* \"#utility.yul\":4210:4216   */\n      0x00\n        /* \"#utility.yul\":4218:4224   */\n      dup1\n        /* \"#utility.yul\":4226:4232   */\n      0x00\n        /* \"#utility.yul\":4275:4277   */\n      0x60\n        /* \"#utility.yul\":4263:4272   */\n      dup5\n        /* \"#utility.yul\":4254:4261   */\n      dup7\n        /* \"#utility.yul\":4250:4273   */\n      sub\n        /* \"#utility.yul\":4246:4278   */\n      slt\n        /* \"#utility.yul\":4243:4362   */\n      iszero\n      tag_280\n      jumpi\n        /* \"#utility.yul\":4281:4360   */\n      tag_281\n      tag_205\n      jump\t// in\n    tag_281:\n        /* \"#utility.yul\":4243:4362   */\n    tag_280:\n        /* \"#utility.yul\":4401:4402   */\n      0x00\n        /* \"#utility.yul\":4426:4479   */\n      tag_282\n        /* \"#utility.yul\":4471:4478   */\n      dup7\n        /* \"#utility.yul\":4462:4468   */\n      dup3\n        /* \"#utility.yul\":4451:4460   */\n      dup8\n        /* \"#utility.yul\":4447:4469   */\n      add\n        /* \"#utility.yul\":4426:4479   */\n      tag_210\n      jump\t// in\n    tag_282:\n        /* \"#utility.yul\":4416:4479   */\n      swap4\n      pop\n        /* \"#utility.yul\":4372:4489   */\n      pop\n        /* \"#utility.yul\":4528:4530   */\n      0x20\n        /* \"#utility.yul\":4554:4607   */\n      tag_283\n        /* \"#utility.yul\":4599:4606   */\n      dup7\n        /* \"#utility.yul\":4590:4596   */\n      dup3\n        /* \"#utility.yul\":4579:4588   */\n      dup8\n        /* \"#utility.yul\":4575:4597   */\n      add\n        /* \"#utility.yul\":4554:4607   */\n      tag_210\n      jump\t// in\n    tag_283:\n        /* \"#utility.yul\":4544:4607   */\n      swap3\n      pop\n        /* \"#utility.yul\":4499:4617   */\n      pop\n        /* \"#utility.yul\":4656:4658   */\n      0x40\n        /* \"#utility.yul\":4682:4735   */\n      tag_284\n        /* \"#utility.yul\":4727:4734   */\n      dup7\n        /* \"#utility.yul\":4718:4724   */\n      dup3\n        /* \"#utility.yul\":4707:4716   */\n      dup8\n        /* \"#utility.yul\":4703:4725   */\n      add\n        /* \"#utility.yul\":4682:4735   */\n      tag_213\n      jump\t// in\n    tag_284:\n        /* \"#utility.yul\":4672:4735   */\n      swap2\n      pop\n        /* \"#utility.yul\":4627:4745   */\n      pop\n        /* \"#utility.yul\":4133:4752   */\n      swap3\n      pop\n      swap3\n      pop\n      swap3\n      jump\t// out\n        /* \"#utility.yul\":4758:4844   */\n    tag_217:\n        /* \"#utility.yul\":4793:4800   */\n      0x00\n        /* \"#utility.yul\":4833:4837   */\n      0xff\n        /* \"#utility.yul\":4826:4831   */\n      dup3\n        /* \"#utility.yul\":4822:4838   */\n      and\n        /* \"#utility.yul\":4811:4838   */\n      swap1\n      pop\n        /* \"#utility.yul\":4758:4844   */\n      swap2\n      swap1\n      pop\n      jump\t// out\n        /* \"#utility.yul\":4850:4962   */\n    tag_218:\n        /* \"#utility.yul\":4933:4955   */\n      tag_287\n        /* \"#utility.yul\":4949:4954   */\n      dup2\n        /* \"#utility.yul\":4933:4955   */\n      tag_217\n      jump\t// in\n    tag_287:\n        /* \"#utility.yul\":4928:4931   */\n      dup3\n        /* \"#utility.yul\":4921:4956   */\n      mstore\n        /* \"#utility.yul\":4850:4962   */\n      pop\n      pop\n      jump\t// out\n        /* \"#utility.yul\":4968:5182   */\n    tag_51:\n        /* \"#utility.yul\":5057:5061   */\n      0x00\n        /* \"#utility.yul\":5095:5097   */\n      0x20\n        /* \"#utility.yul\":5084:5093   */\n      dup3\n        /* \"#utility.yul\":5080:5098   */\n      add\n        /* \"#utility.yul\":5072:5098   */\n      swap1\n      pop\n        /* \"#utility.yul\":5108:5175   */\n      tag_289\n        /* \"#utility.yul\":5172:5173   */\n      0x00\n        /* \"#utility.yul\":5161:5170   */\n      dup4\n        /* \"#utility.yul\":5157:5174   */\n      add\n        /* \"#utility.yul\":5148:5154   */\n      dup5\n        /* \"#utility.yul\":5108:5175   */\n      tag_218\n      jump\t// in\n    tag_289:\n        /* \"#utility.yul\":4968:5182   */\n      swap3\n      swap2\n      pop\n      pop\n      jump\t// out\n        /* \"#utility.yul\":5188:5517   */\n    tag_60:\n        /* \"#utility.yul\":5247:5253   */\n      0x00\n        /* \"#utility.yul\":5296:5298   */\n      0x20\n        /* \"#utility.yul\":5284:5293   */\n      dup3\n        /* \"#utility.yul\":5275:5282   */\n      dup5\n        /* \"#utility.yul\":5271:5294   */\n      sub\n        /* \"#utility.yul\":5267:5299   */\n      slt\n        /* \"#utility.yul\":5264:5383   */\n      iszero\n      tag_291\n      jumpi\n        /* \"#utility.yul\":5302:5381   */\n      tag_292\n      tag_205\n      jump\t// in\n    tag_292:\n        /* \"#utility.yul\":5264:5383   */\n    tag_291:\n        /* \"#utility.yul\":5422:5423   */\n      0x00\n        /* \"#utility.yul\":5447:5500   */\n      tag_293\n        /* \"#utility.yul\":5492:5499   */\n      dup5\n        /* \"#utility.yul\":5483:5489   */\n      dup3\n        /* \"#utility.yul\":5472:5481   */\n      dup6\n        /* \"#utility.yul\":5468:5490   */\n      add\n        /* \"#utility.yul\":5447:5500   */\n      tag_210\n      jump\t// in\n    tag_293:\n        /* \"#utility.yul\":5437:5500   */\n      swap2\n      pop\n        /* \"#utility.yul\":5393:5510   */\n      pop\n        /* \"#utility.yul\":5188:5517   */\n      swap3\n      swap2\n      pop\n      pop\n      jump\t// out\n        /* \"#utility.yul\":5523:5627   */\n    tag_219:\n        /* \"#utility.yul\":5568:5575   */\n      0x00\n        /* \"#utility.yul\":5597:5621   */\n      tag_295\n        /* \"#utility.yul\":5615:5620   */\n      dup3\n        /* \"#utility.yul\":5597:5621   */\n      tag_207\n      jump\t// in\n    tag_295:\n        /* \"#utility.yul\":5586:5621   */\n      swap1\n      pop\n        /* \"#utility.yul\":5523:5627   */\n      swap2\n      swap1\n      pop\n      jump\t// out\n        /* \"#utility.yul\":5633:5775   */\n    tag_220:\n        /* \"#utility.yul\":5736:5768   */\n      tag_297\n        /* \"#utility.yul\":5762:5767   */\n      dup2\n        /* \"#utility.yul\":5736:5768   */\n      tag_219\n      jump\t// in\n    tag_297:\n        /* \"#utility.yul\":5731:5734   */\n      dup3\n        /* \"#utility.yul\":5724:5769   */\n      mstore\n        /* \"#utility.yul\":5633:5775   */\n      pop\n      pop\n      jump\t// out\n        /* \"#utility.yul\":5781:6035   */\n    tag_71:\n        /* \"#utility.yul\":5890:5894   */\n      0x00\n        /* \"#utility.yul\":5928:5930   */\n      0x20\n        /* \"#utility.yul\":5917:5926   */\n      dup3\n        /* \"#utility.yul\":5913:5931   */\n      add\n        /* \"#utility.yul\":5905:5931   */\n      swap1\n      pop\n        /* \"#utility.yul\":5941:6028   */\n      tag_299\n        /* \"#utility.yul\":6025:6026   */\n      0x00\n        /* \"#utility.yul\":6014:6023   */\n      dup4\n        /* \"#utility.yul\":6010:6027   */\n      add\n        /* \"#utility.yul\":6001:6007   */\n      dup5\n        /* \"#utility.yul\":5941:6028   */\n      tag_220\n      jump\t// in\n    tag_299:\n        /* \"#utility.yul\":5781:6035   */\n      swap3\n      swap2\n      pop\n      pop\n      jump\t// out\n        /* \"#utility.yul\":6041:6515   */\n    tag_81:\n        /* \"#utility.yul\":6109:6115   */\n      0x00\n        /* \"#utility.yul\":6117:6123   */\n      dup1\n        /* \"#utility.yul\":6166:6168   */\n      0x40\n        /* \"#utility.yul\":6154:6163   */\n      dup4\n        /* \"#utility.yul\":6145:6152   */\n      dup6\n        /* \"#utility.yul\":6141:6164   */\n      sub\n        /* \"#utility.yul\":6137:6169   */\n      slt\n        /* \"#utility.yul\":6134:6253   */\n      iszero\n      tag_301\n      jumpi\n        /* \"#utility.yul\":6172:6251   */\n      tag_302\n      tag_205\n      jump\t// in\n    tag_302:\n        /* \"#utility.yul\":6134:6253   */\n    tag_301:\n        /* \"#utility.yul\":6292:6293   */\n      0x00\n        /* \"#utility.yul\":6317:6370   */\n      tag_303\n        /* \"#utility.yul\":6362:6369   */\n      dup6\n        /* \"#utility.yul\":6353:6359   */\n      dup3\n        /* \"#utility.yul\":6342:6351   */\n      dup7\n        /* \"#utility.yul\":6338:6360   */\n      add\n        /* \"#utility.yul\":6317:6370   */\n      tag_210\n      jump\t// in\n    tag_303:\n        /* \"#utility.yul\":6307:6370   */\n      swap3\n      pop\n        /* \"#utility.yul\":6263:6380   */\n      pop\n        /* \"#utility.yul\":6419:6421   */\n      0x20\n        /* \"#utility.yul\":6445:6498   */\n      tag_304\n        /* \"#utility.yul\":6490:6497   */\n      dup6\n        /* \"#utility.yul\":6481:6487   */\n      dup3\n        /* \"#utility.yul\":6470:6479   */\n      dup7\n        /* \"#utility.yul\":6466:6488   */\n      add\n        /* \"#utility.yul\":6445:6498   */\n      tag_210\n      jump\t// in\n    tag_304:\n        /* \"#utility.yul\":6435:6498   */\n      swap2\n      pop\n        /* \"#utility.yul\":6390:6508   */\n      pop\n        /* \"#utility.yul\":6041:6515   */\n      swap3\n      pop\n      swap3\n      swap1\n      pop\n      jump\t// out\n        /* \"#utility.yul\":6521:6701   */\n    tag_221:\n        /* \"#utility.yul\":6569:6646   */\n      0x4e487b7100000000000000000000000000000000000000000000000000000000\n        /* \"#utility.yul\":6566:6567   */\n      0x00\n        /* \"#utility.yul\":6559:6647   */\n      mstore\n        /* \"#utility.yul\":6666:6670   */\n      0x22\n        /* \"#utility.yul\":6663:6664   */\n      0x04\n        /* \"#utility.yul\":6656:6671   */\n      mstore\n        /* \"#utility.yul\":6690:6694   */\n      0x24\n        /* \"#utility.yul\":6687:6688   */\n      0x00\n        /* \"#utility.yul\":6680:6695   */\n      revert\n        /* \"#utility.yul\":6707:7027   */\n    tag_86:\n        /* \"#utility.yul\":6751:6757   */\n      0x00\n        /* \"#utility.yul\":6788:6789   */\n      0x02\n        /* \"#utility.yul\":6782:6786   */\n      dup3\n        /* \"#utility.yul\":6778:6790   */\n      div\n        /* \"#utility.yul\":6768:6790   */\n      swap1\n      pop\n        /* \"#utility.yul\":6835:6836   */\n      0x01\n        /* \"#utility.yul\":6829:6833   */\n      dup3\n        /* \"#utility.yul\":6825:6837   */\n      and\n        /* \"#utility.yul\":6856:6874   */\n      dup1\n        /* \"#utility.yul\":6846:6927   */\n      tag_307\n      jumpi\n        /* \"#utility.yul\":6912:6916   */\n      0x7f\n        /* \"#utility.yul\":6904:6910   */\n      dup3\n        /* \"#utility.yul\":6900:6917   */\n      and\n        /* \"#utility.yul\":6890:6917   */\n      swap2\n      pop\n        /* \"#utility.yul\":6846:6927   */\n    tag_307:\n        /* \"#utility.yul\":6974:6976   */\n      0x20\n        /* \"#utility.yul\":6966:6972   */\n      dup3\n        /* \"#utility.yul\":6963:6977   */\n      lt\n        /* \"#utility.yul\":6943:6961   */\n      dup2\n        /* \"#utility.yul\":6940:6978   */\n      sub\n        /* \"#utility.yul\":6937:7021   */\n      tag_308\n      jumpi\n        /* \"#utility.yul\":6993:7011   */\n      tag_309\n      tag_221\n      jump\t// in\n    tag_309:\n        /* \"#utility.yul\":6937:7021   */\n    tag_308:\n        /* \"#utility.yul\":6758:7027   */\n      pop\n        /* \"#utility.yul\":6707:7027   */\n      swap2\n      swap1\n      pop\n      jump\t// out\n        /* \"#utility.yul\":7033:7253   */\n    tag_222:\n        /* \"#utility.yul\":7173:7207   */\n      0x4f6e6c79206f776e65722063616e2063616c6c20746869732066756e6374696f\n        /* \"#utility.yul\":7169:7170   */\n      0x00\n        /* \"#utility.yul\":7161:7167   */\n      dup3\n        /* \"#utility.yul\":7157:7171   */\n      add\n        /* \"#utility.yul\":7150:7208   */\n      mstore\n        /* \"#utility.yul\":7242:7245   */\n      0x6e00000000000000000000000000000000000000000000000000000000000000\n        /* \"#utility.yul\":7237:7239   */\n      0x20\n        /* \"#utility.yul\":7229:7235   */\n      dup3\n        /* \"#utility.yul\":7225:7240   */\n      add\n        /* \"#utility.yul\":7218:7246   */\n      mstore\n        /* \"#utility.yul\":7033:7253   */\n      pop\n      jump\t// out\n        /* \"#utility.yul\":7259:7625   */\n    tag_223:\n        /* \"#utility.yul\":7401:7404   */\n      0x00\n        /* \"#utility.yul\":7422:7489   */\n      tag_312\n        /* \"#utility.yul\":7486:7488   */\n      0x21\n        /* \"#utility.yul\":7481:7484   */\n      dup4\n        /* \"#utility.yul\":7422:7489   */\n      tag_200\n      jump\t// in\n    tag_312:\n        /* \"#utility.yul\":7415:7489   */\n      swap2\n      pop\n        /* \"#utility.yul\":7498:7591   */\n      tag_313\n        /* \"#utility.yul\":7587:7590   */\n      dup3\n        /* \"#utility.yul\":7498:7591   */\n      tag_222\n      jump\t// in\n    tag_313:\n        /* \"#utility.yul\":7616:7618   */\n      0x40\n        /* \"#utility.yul\":7611:7614   */\n      dup3\n        /* \"#utility.yul\":7607:7619   */\n      add\n        /* \"#utility.yul\":7600:7619   */\n      swap1\n      pop\n        /* \"#utility.yul\":7259:7625   */\n      swap2\n      swap1\n      pop\n      jump\t// out\n        /* \"#utility.yul\":7631:8050   */\n    tag_100:\n        /* \"#utility.yul\":7797:7801   */\n      0x00\n        /* \"#utility.yul\":7835:7837   */\n      0x20\n        /* \"#utility.yul\":7824:7833   */\n      dup3\n        /* \"#utility.yul\":7820:7838   */\n      add\n        /* \"#utility.yul\":7812:7838   */\n      swap1\n      pop\n        /* \"#utility.yul\":7884:7893   */\n      dup2\n        /* \"#utility.yul\":7878:7882   */\n      dup2\n        /* \"#utility.yul\":7874:7894   */\n      sub\n        /* \"#utility.yul\":7870:7871   */\n      0x00\n        /* \"#utility.yul\":7859:7868   */\n      dup4\n        /* \"#utility.yul\":7855:7872   */\n      add\n        /* \"#utility.yul\":7848:7895   */\n      mstore\n        /* \"#utility.yul\":7912:8043   */\n      tag_315\n        /* \"#utility.yul\":8038:8042   */\n      dup2\n        /* \"#utility.yul\":7912:8043   */\n      tag_223\n      jump\t// in\n    tag_315:\n        /* \"#utility.yul\":7904:8043   */\n      swap1\n      pop\n        /* \"#utility.yul\":7631:8050   */\n      swap2\n      swap1\n      pop\n      jump\t// out\n        /* \"#utility.yul\":8056:8236   */\n    tag_224:\n        /* \"#utility.yul\":8104:8181   */\n      0x4e487b7100000000000000000000000000000000000000000000000000000000\n        /* \"#utility.yul\":8101:8102   */\n      0x00\n        /* \"#utility.yul\":8094:8182   */\n      mstore\n        /* \"#utility.yul\":8201:8205   */\n      0x11\n        /* \"#utility.yul\":8198:8199   */\n      0x04\n        /* \"#utility.yul\":8191:8206   */\n      mstore\n        /* \"#utility.yul\":8225:8229   */\n      0x24\n        /* \"#utility.yul\":8222:8223   */\n      0x00\n        /* \"#utility.yul\":8215:8230   */\n      revert\n        /* \"#utility.yul\":8242:8344   */\n    tag_225:\n        /* \"#utility.yul\":8284:8292   */\n      0x00\n        /* \"#utility.yul\":8331:8336   */\n      dup2\n        /* \"#utility.yul\":8328:8329   */\n      0x01\n        /* \"#utility.yul\":8324:8337   */\n      shr\n        /* \"#utility.yul\":8303:8337   */\n      swap1\n      pop\n        /* \"#utility.yul\":8242:8344   */\n      swap2\n      swap1\n      pop\n      jump\t// out\n        /* \"#utility.yul\":8350:9198   */\n    tag_226:\n        /* \"#utility.yul\":8411:8416   */\n      0x00\n        /* \"#utility.yul\":8418:8422   */\n      dup1\n        /* \"#utility.yul\":8442:8448   */\n      dup3\n        /* \"#utility.yul\":8433:8448   */\n      swap2\n      pop\n        /* \"#utility.yul\":8466:8471   */\n      dup4\n        /* \"#utility.yul\":8457:8471   */\n      swap1\n      pop\n        /* \"#utility.yul\":8480:9192   */\n    tag_319:\n        /* \"#utility.yul\":8501:8502   */\n      0x01\n        /* \"#utility.yul\":8491:8499   */\n      dup6\n        /* \"#utility.yul\":8488:8503   */\n      gt\n        /* \"#utility.yul\":8480:9192   */\n      iszero\n      tag_321\n      jumpi\n        /* \"#utility.yul\":8596:8600   */\n      dup1\n        /* \"#utility.yul\":8591:8594   */\n      dup7\n        /* \"#utility.yul\":8587:8601   */\n      div\n        /* \"#utility.yul\":8581:8585   */\n      dup2\n        /* \"#utility.yul\":8578:8602   */\n      gt\n        /* \"#utility.yul\":8575:8625   */\n      iszero\n      tag_322\n      jumpi\n        /* \"#utility.yul\":8605:8623   */\n      tag_323\n      tag_224\n      jump\t// in\n    tag_323:\n        /* \"#utility.yul\":8575:8625   */\n    tag_322:\n        /* \"#utility.yul\":8655:8656   */\n      0x01\n        /* \"#utility.yul\":8645:8653   */\n      dup6\n        /* \"#utility.yul\":8641:8657   */\n      and\n        /* \"#utility.yul\":8638:9089   */\n      iszero\n      tag_324\n      jumpi\n        /* \"#utility.yul\":9070:9074   */\n      dup1\n        /* \"#utility.yul\":9063:9068   */\n      dup3\n        /* \"#utility.yul\":9059:9075   */\n      mul\n        /* \"#utility.yul\":9050:9075   */\n      swap2\n      pop\n        /* \"#utility.yul\":8638:9089   */\n    tag_324:\n        /* \"#utility.yul\":9120:9124   */\n      dup1\n        /* \"#utility.yul\":9114:9118   */\n      dup2\n        /* \"#utility.yul\":9110:9125   */\n      mul\n        /* \"#utility.yul\":9102:9125   */\n      swap1\n      pop\n        /* \"#utility.yul\":9150:9182   */\n      tag_325\n        /* \"#utility.yul\":9173:9181   */\n      dup6\n        /* \"#utility.yul\":9150:9182   */\n      tag_225\n      jump\t// in\n    tag_325:\n        /* \"#utility.yul\":9138:9182   */\n      swap5\n      pop\n        /* \"#utility.yul\":8480:9192   */\n      jump(tag_319)\n    tag_321:\n        /* \"#utility.yul\":8350:9198   */\n      swap5\n      pop\n      swap5\n      swap3\n      pop\n      pop\n      pop\n      jump\t// out\n        /* \"#utility.yul\":9204:10277   */\n    tag_227:\n        /* \"#utility.yul\":9258:9263   */\n      0x00\n        /* \"#utility.yul\":9449:9457   */\n      dup3\n        /* \"#utility.yul\":9439:9479   */\n      tag_327\n      jumpi\n        /* \"#utility.yul\":9470:9471   */\n      0x01\n        /* \"#utility.yul\":9461:9471   */\n      swap1\n      pop\n        /* \"#utility.yul\":9472:9477   */\n      jump(tag_326)\n        /* \"#utility.yul\":9439:9479   */\n    tag_327:\n        /* \"#utility.yul\":9498:9502   */\n      dup2\n        /* \"#utility.yul\":9488:9524   */\n      tag_328\n      jumpi\n        /* \"#utility.yul\":9515:9516   */\n      0x00\n        /* \"#utility.yul\":9506:9516   */\n      swap1\n      pop\n        /* \"#utility.yul\":9517:9522   */\n      jump(tag_326)\n        /* \"#utility.yul\":9488:9524   */\n    tag_328:\n        /* \"#utility.yul\":9584:9588   */\n      dup2\n        /* \"#utility.yul\":9632:9633   */\n      0x01\n        /* \"#utility.yul\":9627:9654   */\n      dup2\n      eq\n      tag_330\n      jumpi\n        /* \"#utility.yul\":9668:9669   */\n      0x02\n        /* \"#utility.yul\":9663:9854   */\n      dup2\n      eq\n      tag_331\n      jumpi\n        /* \"#utility.yul\":9577:9854   */\n      jump(tag_329)\n        /* \"#utility.yul\":9627:9654   */\n    tag_330:\n        /* \"#utility.yul\":9645:9646   */\n      0x01\n        /* \"#utility.yul\":9636:9646   */\n      swap2\n      pop\n        /* \"#utility.yul\":9647:9652   */\n      pop\n      jump(tag_326)\n        /* \"#utility.yul\":9663:9854   */\n    tag_331:\n        /* \"#utility.yul\":9708:9711   */\n      0xff\n        /* \"#utility.yul\":9698:9706   */\n      dup5\n        /* \"#utility.yul\":9695:9712   */\n      gt\n        /* \"#utility.yul\":9692:9735   */\n      iszero\n      tag_332\n      jumpi\n        /* \"#utility.yul\":9715:9733   */\n      tag_333\n      tag_224\n      jump\t// in\n    tag_333:\n        /* \"#utility.yul\":9692:9735   */\n    tag_332:\n        /* \"#utility.yul\":9764:9772   */\n      dup4\n        /* \"#utility.yul\":9761:9762   */\n      0x02\n        /* \"#utility.yul\":9757:9773   */\n      exp\n        /* \"#utility.yul\":9748:9773   */\n      swap2\n      pop\n        /* \"#utility.yul\":9799:9802   */\n      dup5\n        /* \"#utility.yul\":9792:9797   */\n      dup3\n        /* \"#utility.yul\":9789:9803   */\n      gt\n        /* \"#utility.yul\":9786:9826   */\n      iszero\n      tag_334\n      jumpi\n        /* \"#utility.yul\":9806:9824   */\n      tag_335\n      tag_224\n      jump\t// in\n    tag_335:\n        /* \"#utility.yul\":9786:9826   */\n    tag_334:\n        /* \"#utility.yul\":9839:9844   */\n      pop\n      jump(tag_326)\n        /* \"#utility.yul\":9577:9854   */\n    tag_329:\n      pop\n        /* \"#utility.yul\":9963:9965   */\n      0x20\n        /* \"#utility.yul\":9953:9961   */\n      dup4\n        /* \"#utility.yul\":9950:9966   */\n      lt\n        /* \"#utility.yul\":9944:9947   */\n      0x0133\n        /* \"#utility.yul\":9938:9942   */\n      dup4\n        /* \"#utility.yul\":9935:9948   */\n      lt\n        /* \"#utility.yul\":9931:9967   */\n      and\n        /* \"#utility.yul\":9913:9915   */\n      0x4e\n        /* \"#utility.yul\":9903:9911   */\n      dup5\n        /* \"#utility.yul\":9900:9916   */\n      lt\n        /* \"#utility.yul\":9895:9897   */\n      0x0b\n        /* \"#utility.yul\":9889:9893   */\n      dup5\n        /* \"#utility.yul\":9886:9898   */\n      lt\n        /* \"#utility.yul\":9882:9917   */\n      and\n        /* \"#utility.yul\":9866:9977   */\n      or\n        /* \"#utility.yul\":9863:10109   */\n      iszero\n      tag_336\n      jumpi\n        /* \"#utility.yul\":10019:10027   */\n      dup3\n        /* \"#utility.yul\":10013:10017   */\n      dup3\n        /* \"#utility.yul\":10009:10028   */\n      exp\n        /* \"#utility.yul\":10000:10028   */\n      swap1\n      pop\n        /* \"#utility.yul\":10054:10057   */\n      dup4\n        /* \"#utility.yul\":10047:10052   */\n      dup2\n        /* \"#utility.yul\":10044:10058   */\n      gt\n        /* \"#utility.yul\":10041:10081   */\n      iszero\n      tag_337\n      jumpi\n        /* \"#utility.yul\":10061:10079   */\n      tag_338\n      tag_224\n      jump\t// in\n    tag_338:\n        /* \"#utility.yul\":10041:10081   */\n    tag_337:\n        /* \"#utility.yul\":10094:10099   */\n      jump(tag_326)\n        /* \"#utility.yul\":9863:10109   */\n    tag_336:\n        /* \"#utility.yul\":10134:10176   */\n      tag_339\n        /* \"#utility.yul\":10172:10175   */\n      dup5\n        /* \"#utility.yul\":10162:10170   */\n      dup5\n        /* \"#utility.yul\":10156:10160   */\n      dup5\n        /* \"#utility.yul\":10153:10154   */\n      0x01\n        /* \"#utility.yul\":10134:10176   */\n      tag_226\n      jump\t// in\n    tag_339:\n        /* \"#utility.yul\":10119:10176   */\n      swap3\n      pop\n      swap1\n      pop\n        /* \"#utility.yul\":10208:10212   */\n      dup2\n        /* \"#utility.yul\":10203:10206   */\n      dup5\n        /* \"#utility.yul\":10199:10213   */\n      div\n        /* \"#utility.yul\":10192:10197   */\n      dup2\n        /* \"#utility.yul\":10189:10214   */\n      gt\n        /* \"#utility.yul\":10186:10237   */\n      iszero\n      tag_340\n      jumpi\n        /* \"#utility.yul\":10217:10235   */\n      tag_341\n      tag_224\n      jump\t// in\n    tag_341:\n        /* \"#utility.yul\":10186:10237   */\n    tag_340:\n        /* \"#utility.yul\":10266:10270   */\n      dup2\n        /* \"#utility.yul\":10259:10264   */\n      dup2\n        /* \"#utility.yul\":10255:10271   */\n      mul\n        /* \"#utility.yul\":10246:10271   */\n      swap1\n      pop\n        /* \"#utility.yul\":9204:10277   */\n    tag_326:\n      swap4\n      swap3\n      pop\n      pop\n      pop\n      jump\t// out\n        /* \"#utility.yul\":10283:10564   */\n    tag_104:\n        /* \"#utility.yul\":10341:10346   */\n      0x00\n        /* \"#utility.yul\":10365:10388   */\n      tag_343\n        /* \"#utility.yul\":10383:10387   */\n      dup3\n        /* \"#utility.yul\":10365:10388   */\n      tag_211\n      jump\t// in\n    tag_343:\n        /* \"#utility.yul\":10357:10388   */\n      swap2\n      pop\n        /* \"#utility.yul\":10409:10434   */\n      tag_344\n        /* \"#utility.yul\":10425:10433   */\n      dup4\n        /* \"#utility.yul\":10409:10434   */\n      tag_217\n      jump\t// in\n    tag_344:\n        /* \"#utility.yul\":10397:10434   */\n      swap3\n      pop\n        /* \"#utility.yul\":10453:10557   */\n      tag_345\n        /* \"#utility.yul\":10490:10556   */\n      0xffffffffffffffffffffffffffffffffffffffffffffffffffffffffffffffff\n        /* \"#utility.yul\":10480:10488   */\n      dup5\n        /* \"#utility.yul\":10474:10478   */\n      dup5\n        /* \"#utility.yul\":10453:10557   */\n      tag_227\n      jump\t// in\n    tag_345:\n        /* \"#utility.yul\":10444:10557   */\n      swap1\n      pop\n        /* \"#utility.yul\":10283:10564   */\n      swap3\n      swap2\n      pop\n      pop\n      jump\t// out\n        /* \"#utility.yul\":10570:10980   */\n    tag_106:\n        /* \"#utility.yul\":10610:10617   */\n      0x00\n        /* \"#utility.yul\":10633:10653   */\n      tag_347\n        /* \"#utility.yul\":10651:10652   */\n      dup3\n        /* \"#utility.yul\":10633:10653   */\n      tag_211\n      jump\t// in\n    tag_347:\n        /* \"#utility.yul\":10628:10653   */\n      swap2\n      pop\n        /* \"#utility.yul\":10667:10687   */\n      tag_348\n        /* \"#utility.yul\":10685:10686   */\n      dup4\n        /* \"#utility.yul\":10667:10687   */\n      tag_211\n      jump\t// in\n    tag_348:\n        /* \"#utility.yul\":10662:10687   */\n      swap3\n      pop\n        /* \"#utility.yul\":10722:10723   */\n      dup3\n        /* \"#utility.yul\":10719:10720   */\n      dup3\n        /* \"#utility.yul\":10715:10724   */\n      mul\n        /* \"#utility.yul\":10744:10774   */\n      tag_349\n        /* \"#utility.yul\":10762:10773   */\n      dup2\n        /* \"#utility.yul\":10744:10774   */\n      tag_211\n      jump\t// in\n    tag_349:\n        /* \"#utility.yul\":10733:10774   */\n      swap2\n      pop\n        /* \"#utility.yul\":10923:10924   */\n      dup3\n        /* \"#utility.yul\":10914:10921   */\n      dup3\n        /* \"#utility.yul\":10910:10925   */\n      div\n        /* \"#utility.yul\":10907:10908   */\n      dup5\n        /* \"#utility.yul\":10904:10926   */\n      eq\n        /* \"#utility.yul\":10884:10885   */\n      dup4\n        /* \"#utility.yul\":10877:10886   */\n      iszero\n        /* \"#utility.yul\":10857:10940   */\n      or\n        /* \"#utility.yul\":10834:10973   */\n      tag_350\n      jumpi\n        /* \"#utility.yul\":10953:10971   */\n      tag_351\n      tag_224\n      jump\t// in\n    tag_351:\n        /* \"#utility.yul\":10834:10973   */\n    tag_350:\n        /* \"#utility.yul\":10618:10980   */\n      pop\n        /* \"#utility.yul\":10570:10980   */\n      swap3\n      swap2\n      pop\n      pop\n      jump\t// out\n        /* \"#utility.yul\":10986:11104   */\n    tag_228:\n        /* \"#utility.yul\":11073:11097   */\n      tag_353\n        /* \"#utility.yul\":11091:11096   */\n      dup2\n        /* \"#utility.yul\":11073:11097   */\n      tag_208\n      jump\t// in\n    tag_353:\n        /* \"#utility.yul\":11068:11071   */\n      dup3\n        /* \"#utility.yul\":11061:11098   */\n      mstore\n        /* \"#utility.yul\":10986:11104   */\n      pop\n      pop\n      jump\t// out\n        /* \"#utility.yul\":11110:11552   */\n    tag_149:\n        /* \"#utility.yul\":11259:11263   */\n      0x00\n        /* \"#utility.yul\":11297:11299   */\n      0x60\n        /* \"#utility.yul\":11286:11295   */\n      dup3\n        /* \"#utility.yul\":11282:11300   */\n      add\n        /* \"#utility.yul\":11274:11300   */\n      swap1\n      pop\n        /* \"#utility.yul\":11310:11381   */\n      tag_355\n        /* \"#utility.yul\":11378:11379   */\n      0x00\n        /* \"#utility.yul\":11367:11376   */\n      dup4\n        /* \"#utility.yul\":11363:11380   */\n      add\n        /* \"#utility.yul\":11354:11360   */\n      dup7\n        /* \"#utility.yul\":11310:11381   */\n      tag_228\n      jump\t// in\n    tag_355:\n        /* \"#utility.yul\":11391:11463   */\n      tag_356\n        /* \"#utility.yul\":11459:11461   */\n      0x20\n        /* \"#utility.yul\":11448:11457   */\n      dup4\n        /* \"#utility.yul\":11444:11462   */\n      add\n        /* \"#utility.yul\":11435:11441   */\n      dup6\n        /* \"#utility.yul\":11391:11463   */\n      tag_216\n      jump\t// in\n    tag_356:\n        /* \"#utility.yul\":11473:11545   */\n      tag_357\n        /* \"#utility.yul\":11541:11543   */\n      0x40\n        /* \"#utility.yul\":11530:11539   */\n      dup4\n        /* \"#utility.yul\":11526:11544   */\n      add\n        /* \"#utility.yul\":11517:11523   */\n      dup5\n        /* \"#utility.yul\":11473:11545   */\n      tag_216\n      jump\t// in\n    tag_357:\n        /* \"#utility.yul\":11110:11552   */\n      swap5\n      swap4\n      pop\n      pop\n      pop\n      pop\n      jump\t// out\n        /* \"#utility.yul\":11558:11780   */\n    tag_154:\n        /* \"#utility.yul\":11651:11655   */\n      0x00\n        /* \"#utility.yul\":11689:11691   */\n      0x20\n        /* \"#utility.yul\":11678:11687   */\n      dup3\n        /* \"#utility.yul\":11674:11692   */\n      add\n        /* \"#utility.yul\":11666:11692   */\n      swap1\n      pop\n        /* \"#utility.yul\":11702:11773   */\n      tag_359\n        /* \"#utility.yul\":11770:11771   */\n      0x00\n        /* \"#utility.yul\":11759:11768   */\n      dup4\n        /* \"#utility.yul\":11755:11772   */\n      add\n        /* \"#utility.yul\":11746:11752   */\n      dup5\n        /* \"#utility.yul\":11702:11773   */\n      tag_228\n      jump\t// in\n    tag_359:\n        /* \"#utility.yul\":11558:11780   */\n      swap3\n      swap2\n      pop\n      pop\n      jump\t// out\n        /* \"#utility.yul\":11786:12118   */\n    tag_180:\n        /* \"#utility.yul\":11907:11911   */\n      0x00\n        /* \"#utility.yul\":11945:11947   */\n      0x40\n        /* \"#utility.yul\":11934:11943   */\n      dup3\n        /* \"#utility.yul\":11930:11948   */\n      add\n        /* \"#utility.yul\":11922:11948   */\n      swap1\n      pop\n        /* \"#utility.yul\":11958:12029   */\n      tag_361\n        /* \"#utility.yul\":12026:12027   */\n      0x00\n        /* \"#utility.yul\":12015:12024   */\n      dup4\n        /* \"#utility.yul\":12011:12028   */\n      add\n        /* \"#utility.yul\":12002:12008   */\n      dup6\n        /* \"#utility.yul\":11958:12029   */\n      tag_216\n      jump\t// in\n    tag_361:\n        /* \"#utility.yul\":12039:12111   */\n      tag_362\n        /* \"#utility.yul\":12107:12109   */\n      0x20\n        /* \"#utility.yul\":12096:12105   */\n      dup4\n        /* \"#utility.yul\":12092:12110   */\n      add\n        /* \"#utility.yul\":12083:12089   */\n      dup5\n        /* \"#utility.yul\":12039:12111   */\n      tag_216\n      jump\t// in\n    tag_362:\n        /* \"#utility.yul\":11786:12118   */\n      swap4\n      swap3\n      pop\n      pop\n      pop\n      jump\t// out\n        /* \"#utility.yul\":12124:12315   */\n    tag_192:\n        /* \"#utility.yul\":12164:12167   */\n      0x00\n        /* \"#utility.yul\":12183:12203   */\n      tag_364\n        /* \"#utility.yul\":12201:12202   */\n      dup3\n        /* \"#utility.yul\":12183:12203   */\n      tag_211\n      jump\t// in\n    tag_364:\n        /* \"#utility.yul\":12178:12203   */\n      swap2\n      pop\n        /* \"#utility.yul\":12217:12237   */\n      tag_365\n        /* \"#utility.yul\":12235:12236   */\n      dup4\n        /* \"#utility.yul\":12217:12237   */\n      tag_211\n      jump\t// in\n    tag_365:\n        /* \"#utility.yul\":12212:12237   */\n      swap3\n      pop\n        /* \"#utility.yul\":12260:12261   */\n      dup3\n        /* \"#utility.yul\":12257:12258   */\n      dup3\n        /* \"#utility.yul\":12253:12262   */\n      add\n        /* \"#utility.yul\":12246:12262   */\n      swap1\n      pop\n        /* \"#utility.yul\":12281:12284   */\n      dup1\n        /* \"#utility.yul\":12278:12279   */\n      dup3\n        /* \"#utility.yul\":12275:12285   */\n      gt\n        /* \"#utility.yul\":12272:12308   */\n      iszero\n      tag_366\n      jumpi\n        /* \"#utility.yul\":12288:12306   */\n      tag_367\n      tag_224\n      jump\t// in\n    tag_367:\n        /* \"#utility.yul\":12272:12308   */\n    tag_366:\n        /* \"#utility.yul\":12124:12315   */\n      swap3\n      swap2\n      pop\n      pop\n      jump\t// out\n\n    auxdata: 0xa26469706673582212207cd6bb098b4f789f5d177fa5d57bfe7526e5cffd08562ebdc3c55c9af680f41864736f6c63430008140033\n}\n",
				"bytecode": {
					"linkReferences": {},
					"object": "60a060405234801562000010575f80fd5b5060405162002493380380620024938339818101604052810190620000369190620006f1565b62000046620001fc60201b60201c565b600a620000549190620008bf565b826200006191906200090f565b6040518060400160405280600681526020017f546f6b656e4600000000000000000000000000000000000000000000000000008152506040518060400160405280600381526020017f544b4600000000000000000000000000000000000000000000000000000000008152508160039081620000de919062000bb4565b508060049081620000f0919062000bb4565b5050505f81036200013a575f6040517f392e1e2700000000000000000000000000000000000000000000000000000000815260040162000131919062000cd9565b60405180910390fd5b8060808181525050503360055f6101000a81548173ffffffffffffffffffffffffffffffffffffffff021916908373ffffffffffffffffffffffffffffffffffffffff160217905550620001c33362000198620001fc60201b60201c565b600a620001a69190620008bf565b63042c1d80620001b791906200090f565b6200020460201b60201c565b620001d3620001fc60201b60201c565b600a620001e19190620008bf565b81620001ee91906200090f565b600681905550505062000e1e565b5f6012905090565b5f73ffffffffffffffffffffffffffffffffffffffff168273ffffffffffffffffffffffffffffffffffffffff160362000277575f6040517fec442f050000000000000000000000000000000000000000000000000000000081526004016200026e919062000d37565b60405180910390fd5b6200028a5f83836200028e60201b60201c565b5050565b620002a1838383620003c060201b60201c565b5f73ffffffffffffffffffffffffffffffffffffffff168373ffffffffffffffffffffffffffffffffffffffff161480156200030957504173ffffffffffffffffffffffffffffffffffffffff168273ffffffffffffffffffffffffffffffffffffffff1614155b80156200034257505f73ffffffffffffffffffffffffffffffffffffffff164173ffffffffffffffffffffffffffffffffffffffff1614155b15620003bb575f620003596200047f60201b60201c565b90505f6200036c6200048860201b60201c565b905081811115620003b85780826040517f9e79f854000000000000000000000000000000000000000000000000000000008152600401620003af92919062000d63565b60405180910390fd5b50505b505050565b620003d38383836200049160201b60201c565b5f73ffffffffffffffffffffffffffffffffffffffff168373ffffffffffffffffffffffffffffffffffffffff16036200047a575f620004186200047f60201b60201c565b90505f6200042b6200048860201b60201c565b905081811115620004775780826040517f9e79f8540000000000000000000000000000000000000000000000000000000081526004016200046e92919062000d63565b60405180910390fd5b50505b505050565b5f608051905090565b5f600254905090565b5f73ffffffffffffffffffffffffffffffffffffffff168373ffffffffffffffffffffffffffffffffffffffff1603620004e5578060025f828254620004d8919062000d8e565b92505081905550620005b6565b5f805f8573ffffffffffffffffffffffffffffffffffffffff1673ffffffffffffffffffffffffffffffffffffffff1681526020019081526020015f205490508181101562000571578381836040517fe450d38c000000000000000000000000000000000000000000000000000000008152600401620005689392919062000dc8565b60405180910390fd5b8181035f808673ffffffffffffffffffffffffffffffffffffffff1673ffffffffffffffffffffffffffffffffffffffff1681526020019081526020015f2081905550505b5f73ffffffffffffffffffffffffffffffffffffffff168273ffffffffffffffffffffffffffffffffffffffff1603620005ff578060025f828254039250508190555062000649565b805f808473ffffffffffffffffffffffffffffffffffffffff1673ffffffffffffffffffffffffffffffffffffffff1681526020019081526020015f205f82825401925050819055505b8173ffffffffffffffffffffffffffffffffffffffff168373ffffffffffffffffffffffffffffffffffffffff167fddf252ad1be2c89b69c2b068fc378daa952ba7f163c4a11628f55a4df523b3ef83604051620006a8919062000e03565b60405180910390a3505050565b5f80fd5b5f819050919050565b620006cd81620006b9565b8114620006d8575f80fd5b50565b5f81519050620006eb81620006c2565b92915050565b5f80604083850312156200070a5762000709620006b5565b5b5f6200071985828601620006db565b92505060206200072c85828601620006db565b9150509250929050565b7f4e487b71000000000000000000000000000000000000000000000000000000005f52601160045260245ffd5b5f8160011c9050919050565b5f808291508390505b6001851115620007c05780860481111562000798576200079762000736565b5b6001851615620007a85780820291505b8081029050620007b88562000763565b945062000778565b94509492505050565b5f82620007da5760019050620008ac565b81620007e9575f9050620008ac565b81600181146200080257600281146200080d5762000843565b6001915050620008ac565b60ff84111562000822576200082162000736565b5b8360020a9150848211156200083c576200083b62000736565b5b50620008ac565b5060208310610133831016604e8410600b84101617156200087d5782820a90508381111562000877576200087662000736565b5b620008ac565b6200088c84848460016200076f565b92509050818404811115620008a657620008a562000736565b5b81810290505b9392505050565b5f60ff82169050919050565b5f620008cb82620006b9565b9150620008d883620008b3565b9250620009077fffffffffffffffffffffffffffffffffffffffffffffffffffffffffffffffff8484620007c9565b905092915050565b5f6200091b82620006b9565b91506200092883620006b9565b92508282026200093881620006b9565b9150828204841483151762000952576200095162000736565b5b5092915050565b5f81519050919050565b7f4e487b71000000000000000000000000000000000000000000000000000000005f52604160045260245ffd5b7f4e487b71000000000000000000000000000000000000000000000000000000005f52602260045260245ffd5b5f6002820490506001821680620009d557607f821691505b602082108103620009eb57620009ea62000990565b5b50919050565b5f819050815f5260205f209050919050565b5f6020601f8301049050919050565b5f82821b905092915050565b5f6008830262000a4f7fffffffffffffffffffffffffffffffffffffffffffffffffffffffffffffffff8262000a12565b62000a5b868362000a12565b95508019841693508086168417925050509392505050565b5f819050919050565b5f62000a9c62000a9662000a9084620006b9565b62000a73565b620006b9565b9050919050565b5f819050919050565b62000ab78362000a7c565b62000acf62000ac68262000aa3565b84845462000a1e565b825550505050565b5f90565b62000ae562000ad7565b62000af281848462000aac565b505050565b5b8181101562000b195762000b0d5f8262000adb565b60018101905062000af8565b5050565b601f82111562000b685762000b3281620009f1565b62000b3d8462000a03565b8101602085101562000b4d578190505b62000b6562000b5c8562000a03565b83018262000af7565b50505b505050565b5f82821c905092915050565b5f62000b8a5f198460080262000b6d565b1980831691505092915050565b5f62000ba4838362000b79565b9150826002028217905092915050565b62000bbf8262000959565b67ffffffffffffffff81111562000bdb5762000bda62000963565b5b62000be78254620009bd565b62000bf482828562000b1d565b5f60209050601f83116001811462000c2a575f841562000c15578287015190505b62000c21858262000b97565b86555062000c90565b601f19841662000c3a86620009f1565b5f5b8281101562000c635784890151825560018201915060208501945060208101905062000c3c565b8683101562000c83578489015162000c7f601f89168262000b79565b8355505b6001600288020188555050505b505050505050565b5f819050919050565b5f62000cc162000cbb62000cb58462000c98565b62000a73565b620006b9565b9050919050565b62000cd38162000ca1565b82525050565b5f60208201905062000cee5f83018462000cc8565b92915050565b5f73ffffffffffffffffffffffffffffffffffffffff82169050919050565b5f62000d1f8262000cf4565b9050919050565b62000d318162000d13565b82525050565b5f60208201905062000d4c5f83018462000d26565b92915050565b62000d5d81620006b9565b82525050565b5f60408201905062000d785f83018562000d52565b62000d87602083018462000d52565b9392505050565b5f62000d9a82620006b9565b915062000da783620006b9565b925082820190508082111562000dc25762000dc162000736565b5b92915050565b5f60608201905062000ddd5f83018662000d26565b62000dec602083018562000d52565b62000dfb604083018462000d52565b949350505050565b5f60208201905062000e185f83018462000d52565b92915050565b60805161165c62000e375f395f6104d3015261165c5ff3fe608060405234801561000f575f80fd5b50600436106100fe575f3560e01c806342966c68116100955780638da5cb5b116100645780638da5cb5b1461028657806395d89b41146102a4578063a9059cbb146102c2578063dd62ed3e146102f2576100fe565b806342966c681461021457806370a082311461023057806379cc67901461026057806383197ef01461027c576100fe565b80631a18e707116100d15780631a18e7071461018c57806323b872dd146101a8578063313ce567146101d8578063355274ea146101f6576100fe565b806306fdde0314610102578063095ea7b3146101205780630ac168a11461015057806318160ddd1461016e575b5f80fd5b61010a610322565b6040516101179190611002565b60405180910390f35b61013a600480360381019061013591906110b3565b6103b2565b604051610147919061110b565b60405180910390f35b6101586103d4565b6040516101659190611133565b60405180910390f35b6101766103da565b6040516101839190611133565b60405180910390f35b6101a660048036038101906101a1919061114c565b6103e3565b005b6101c260048036038101906101bd9190611177565b61049a565b6040516101cf919061110b565b60405180910390f35b6101e06104c8565b6040516101ed91906111e2565b60405180910390f35b6101fe6104d0565b60405161020b9190611133565b60405180910390f35b61022e6004803603810190610229919061114c565b6104f7565b005b61024a600480360381019061024591906111fb565b61050b565b6040516102579190611133565b60405180910390f35b61027a600480360381019061027591906110b3565b610550565b005b610284610570565b005b61028e610666565b60405161029b9190611246565b60405180910390f35b6102ac61068b565b6040516102b99190611002565b60405180910390f35b6102dc60048036038101906102d791906110b3565b61071b565b6040516102e9919061110b565b60405180910390f35b61030c6004803603810190610307919061125f565b61073d565b6040516103199190611133565b60405180910390f35b606060038054610331906112ca565b80601f016020809104026020016040519081016040528092919081815260200182805461035d906112ca565b80156103a85780601f1061037f576101008083540402835291602001916103a8565b820191905f5260205f20905b81548152906001019060200180831161038b57829003601f168201915b5050505050905090565b5f806103bc6107bf565b90506103c98185856107c6565b600191505092915050565b60065481565b5f600254905090565b60055f9054906101000a900473ffffffffffffffffffffffffffffffffffffffff1673ffffffffffffffffffffffffffffffffffffffff163373ffffffffffffffffffffffffffffffffffffffff1614610472576040517f08c379a00000000000000000000000000000000000000000000000000000000081526004016104699061136a565b60405180910390fd5b61047a6104c8565b600a61048691906114e4565b81610491919061152e565b60068190555050565b5f806104a46107bf565b90506104b18582856107d8565b6104bc85858561086a565b60019150509392505050565b5f6012905090565b5f7f0000000000000000000000000000000000000000000000000000000000000000905090565b6105086105026107bf565b8261095a565b50565b5f805f8373ffffffffffffffffffffffffffffffffffffffff1673ffffffffffffffffffffffffffffffffffffffff1681526020019081526020015f20549050919050565b6105628261055c6107bf565b836107d8565b61056c828261095a565b5050565b60055f9054906101000a900473ffffffffffffffffffffffffffffffffffffffff1673ffffffffffffffffffffffffffffffffffffffff163373ffffffffffffffffffffffffffffffffffffffff16146105ff576040517f08c379a00000000000000000000000000000000000000000000000000000000081526004016105f69061136a565b60405180910390fd5b60055f9054906101000a900473ffffffffffffffffffffffffffffffffffffffff1673ffffffffffffffffffffffffffffffffffffffff166108fc4790811502906040515f60405180830381858888f19350505050158015610663573d5f803e3d5ffd5b50565b60055f9054906101000a900473ffffffffffffffffffffffffffffffffffffffff1681565b60606004805461069a906112ca565b80601f01602080910402602001604051908101604052809291908181526020018280546106c6906112ca565b80156107115780601f106106e857610100808354040283529160200191610711565b820191905f5260205f20905b8154815290600101906020018083116106f457829003601f168201915b5050505050905090565b5f806107256107bf565b905061073281858561086a565b600191505092915050565b5f60015f8473ffffffffffffffffffffffffffffffffffffffff1673ffffffffffffffffffffffffffffffffffffffff1681526020019081526020015f205f8373ffffffffffffffffffffffffffffffffffffffff1673ffffffffffffffffffffffffffffffffffffffff1681526020019081526020015f2054905092915050565b5f33905090565b6107d383838360016109d9565b505050565b5f6107e3848461073d565b90507fffffffffffffffffffffffffffffffffffffffffffffffffffffffffffffffff81146108645781811015610855578281836040517ffb8f41b200000000000000000000000000000000000000000000000000000000815260040161084c9392919061157e565b60405180910390fd5b61086384848484035f6109d9565b5b50505050565b5f73ffffffffffffffffffffffffffffffffffffffff168373ffffffffffffffffffffffffffffffffffffffff16036108da575f6040517f96c6fd1e0000000000000000000000000000000000000000000000000000000081526004016108d191906115b3565b60405180910390fd5b5f73ffffffffffffffffffffffffffffffffffffffff168273ffffffffffffffffffffffffffffffffffffffff160361094a575f6040517fec442f0500000000000000000000000000000000000000000000000000000000815260040161094191906115b3565b60405180910390fd5b610955838383610ba8565b505050565b5f73ffffffffffffffffffffffffffffffffffffffff168273ffffffffffffffffffffffffffffffffffffffff16036109ca575f6040517f96c6fd1e0000000000000000000000000000000000000000000000000000000081526004016109c191906115b3565b60405180910390fd5b6109d5825f83610ba8565b5050565b5f73ffffffffffffffffffffffffffffffffffffffff168473ffffffffffffffffffffffffffffffffffffffff1603610a49575f6040517fe602df05000000000000000000000000000000000000000000000000000000008152600401610a4091906115b3565b60405180910390fd5b5f73ffffffffffffffffffffffffffffffffffffffff168373ffffffffffffffffffffffffffffffffffffffff1603610ab9575f6040517f94280d62000000000000000000000000000000000000000000000000000000008152600401610ab091906115b3565b60405180910390fd5b8160015f8673ffffffffffffffffffffffffffffffffffffffff1673ffffffffffffffffffffffffffffffffffffffff1681526020019081526020015f205f8573ffffffffffffffffffffffffffffffffffffffff1673ffffffffffffffffffffffffffffffffffffffff1681526020019081526020015f20819055508015610ba2578273ffffffffffffffffffffffffffffffffffffffff168473ffffffffffffffffffffffffffffffffffffffff167f8c5be1e5ebec7d5bd14f71427d1e84f3dd0314c0f7b2291e5b200ac8c7c3b92584604051610b999190611133565b60405180910390a35b50505050565b610bb3838383610cbc565b5f73ffffffffffffffffffffffffffffffffffffffff168373ffffffffffffffffffffffffffffffffffffffff16148015610c1a57504173ffffffffffffffffffffffffffffffffffffffff168273ffffffffffffffffffffffffffffffffffffffff1614155b8015610c5257505f73ffffffffffffffffffffffffffffffffffffffff164173ffffffffffffffffffffffffffffffffffffffff1614155b15610cb7575f610c606104d0565b90505f610c6b6103da565b905081811115610cb45780826040517f9e79f854000000000000000000000000000000000000000000000000000000008152600401610cab9291906115cc565b60405180910390fd5b50505b505050565b610cc7838383610d5f565b5f73ffffffffffffffffffffffffffffffffffffffff168373ffffffffffffffffffffffffffffffffffffffff1603610d5a575f610d036104d0565b90505f610d0e6103da565b905081811115610d575780826040517f9e79f854000000000000000000000000000000000000000000000000000000008152600401610d4e9291906115cc565b60405180910390fd5b50505b505050565b5f73ffffffffffffffffffffffffffffffffffffffff168373ffffffffffffffffffffffffffffffffffffffff1603610daf578060025f828254610da391906115f3565b92505081905550610e7d565b5f805f8573ffffffffffffffffffffffffffffffffffffffff1673ffffffffffffffffffffffffffffffffffffffff1681526020019081526020015f2054905081811015610e38578381836040517fe450d38c000000000000000000000000000000000000000000000000000000008152600401610e2f9392919061157e565b60405180910390fd5b8181035f808673ffffffffffffffffffffffffffffffffffffffff1673ffffffffffffffffffffffffffffffffffffffff1681526020019081526020015f2081905550505b5f73ffffffffffffffffffffffffffffffffffffffff168273ffffffffffffffffffffffffffffffffffffffff1603610ec4578060025f8282540392505081905550610f0e565b805f808473ffffffffffffffffffffffffffffffffffffffff1673ffffffffffffffffffffffffffffffffffffffff1681526020019081526020015f205f82825401925050819055505b8173ffffffffffffffffffffffffffffffffffffffff168373ffffffffffffffffffffffffffffffffffffffff167fddf252ad1be2c89b69c2b068fc378daa952ba7f163c4a11628f55a4df523b3ef83604051610f6b9190611133565b60405180910390a3505050565b5f81519050919050565b5f82825260208201905092915050565b5f5b83811015610faf578082015181840152602081019050610f94565b5f8484015250505050565b5f601f19601f8301169050919050565b5f610fd482610f78565b610fde8185610f82565b9350610fee818560208601610f92565b610ff781610fba565b840191505092915050565b5f6020820190508181035f83015261101a8184610fca565b905092915050565b5f80fd5b5f73ffffffffffffffffffffffffffffffffffffffff82169050919050565b5f61104f82611026565b9050919050565b61105f81611045565b8114611069575f80fd5b50565b5f8135905061107a81611056565b92915050565b5f819050919050565b61109281611080565b811461109c575f80fd5b50565b5f813590506110ad81611089565b92915050565b5f80604083850312156110c9576110c8611022565b5b5f6110d68582860161106c565b92505060206110e78582860161109f565b9150509250929050565b5f8115159050919050565b611105816110f1565b82525050565b5f60208201905061111e5f8301846110fc565b92915050565b61112d81611080565b82525050565b5f6020820190506111465f830184611124565b92915050565b5f6020828403121561116157611160611022565b5b5f61116e8482850161109f565b91505092915050565b5f805f6060848603121561118e5761118d611022565b5b5f61119b8682870161106c565b93505060206111ac8682870161106c565b92505060406111bd8682870161109f565b9150509250925092565b5f60ff82169050919050565b6111dc816111c7565b82525050565b5f6020820190506111f55f8301846111d3565b92915050565b5f602082840312156112105761120f611022565b5b5f61121d8482850161106c565b91505092915050565b5f61123082611026565b9050919050565b61124081611226565b82525050565b5f6020820190506112595f830184611237565b92915050565b5f806040838503121561127557611274611022565b5b5f6112828582860161106c565b92505060206112938582860161106c565b9150509250929050565b7f4e487b71000000000000000000000000000000000000000000000000000000005f52602260045260245ffd5b5f60028204905060018216806112e157607f821691505b6020821081036112f4576112f361129d565b5b50919050565b7f4f6e6c79206f776e65722063616e2063616c6c20746869732066756e6374696f5f8201527f6e00000000000000000000000000000000000000000000000000000000000000602082015250565b5f611354602183610f82565b915061135f826112fa565b604082019050919050565b5f6020820190508181035f83015261138181611348565b9050919050565b7f4e487b71000000000000000000000000000000000000000000000000000000005f52601160045260245ffd5b5f8160011c9050919050565b5f808291508390505b600185111561140a578086048111156113e6576113e5611388565b5b60018516156113f55780820291505b8081029050611403856113b5565b94506113ca565b94509492505050565b5f8261142257600190506114dd565b8161142f575f90506114dd565b8160018114611445576002811461144f5761147e565b60019150506114dd565b60ff84111561146157611460611388565b5b8360020a91508482111561147857611477611388565b5b506114dd565b5060208310610133831016604e8410600b84101617156114b35782820a9050838111156114ae576114ad611388565b5b6114dd565b6114c084848460016113c1565b925090508184048111156114d7576114d6611388565b5b81810290505b9392505050565b5f6114ee82611080565b91506114f9836111c7565b92506115267fffffffffffffffffffffffffffffffffffffffffffffffffffffffffffffffff8484611413565b905092915050565b5f61153882611080565b915061154383611080565b925082820261155181611080565b9150828204841483151761156857611567611388565b5b5092915050565b61157881611045565b82525050565b5f6060820190506115915f83018661156f565b61159e6020830185611124565b6115ab6040830184611124565b949350505050565b5f6020820190506115c65f83018461156f565b92915050565b5f6040820190506115df5f830185611124565b6115ec6020830184611124565b9392505050565b5f6115fd82611080565b915061160883611080565b92508282019050808211156116205761161f611388565b5b9291505056fea26469706673582212207cd6bb098b4f789f5d177fa5d57bfe7526e5cffd08562ebdc3c55c9af680f41864736f6c63430008140033",
					"opcodes": "PUSH1 0xA0 PUSH1 0x40 MSTORE CALLVALUE DUP1 ISZERO PUSH3 0x10 JUMPI PUSH0 DUP1 REVERT JUMPDEST POP PUSH1 0x40 MLOAD PUSH3 0x2493 CODESIZE SUB DUP1 PUSH3 0x2493 DUP4 CODECOPY DUP2 DUP2 ADD PUSH1 0x40 MSTORE DUP2 ADD SWAP1 PUSH3 0x36 SWAP2 SWAP1 PUSH3 0x6F1 JUMP JUMPDEST PUSH3 0x46 PUSH3 0x1FC PUSH1 0x20 SHL PUSH1 0x20 SHR JUMP JUMPDEST PUSH1 0xA PUSH3 0x54 SWAP2 SWAP1 PUSH3 0x8BF JUMP JUMPDEST DUP3 PUSH3 0x61 SWAP2 SWAP1 PUSH3 0x90F JUMP JUMPDEST PUSH1 0x40 MLOAD DUP1 PUSH1 0x40 ADD PUSH1 0x40 MSTORE DUP1 PUSH1 0x6 DUP2 MSTORE PUSH1 0x20 ADD PUSH32 0x546F6B656E460000000000000000000000000000000000000000000000000000 DUP2 MSTORE POP PUSH1 0x40 MLOAD DUP1 PUSH1 0x40 ADD PUSH1 0x40 MSTORE DUP1 PUSH1 0x3 DUP2 MSTORE PUSH1 0x20 ADD PUSH32 0x544B460000000000000000000000000000000000000000000000000000000000 DUP2 MSTORE POP DUP2 PUSH1 0x3 SWAP1 DUP2 PUSH3 0xDE SWAP2 SWAP1 PUSH3 0xBB4 JUMP JUMPDEST POP DUP1 PUSH1 0x4 SWAP1 DUP2 PUSH3 0xF0 SWAP2 SWAP1 PUSH3 0xBB4 JUMP JUMPDEST POP POP POP PUSH0 DUP2 SUB PUSH3 0x13A JUMPI PUSH0 PUSH1 0x40 MLOAD PUSH32 0x392E1E2700000000000000000000000000000000000000000000000000000000 DUP2 MSTORE PUSH1 0x4 ADD PUSH3 0x131 SWAP2 SWAP1 PUSH3 0xCD9 JUMP JUMPDEST PUSH1 0x40 MLOAD DUP1 SWAP2 SUB SWAP1 REVERT JUMPDEST DUP1 PUSH1 0x80 DUP2 DUP2 MSTORE POP POP POP CALLER PUSH1 0x5 PUSH0 PUSH2 0x100 EXP DUP2 SLOAD DUP2 PUSH20 0xFFFFFFFFFFFFFFFFFFFFFFFFFFFFFFFFFFFFFFFF MUL NOT AND SWAP1 DUP4 PUSH20 0xFFFFFFFFFFFFFFFFFFFFFFFFFFFFFFFFFFFFFFFF AND MUL OR SWAP1 SSTORE POP PUSH3 0x1C3 CALLER PUSH3 0x198 PUSH3 0x1FC PUSH1 0x20 SHL PUSH1 0x20 SHR JUMP JUMPDEST PUSH1 0xA PUSH3 0x1A6 SWAP2 SWAP1 PUSH3 0x8BF JUMP JUMPDEST PUSH4 0x42C1D80 PUSH3 0x1B7 SWAP2 SWAP1 PUSH3 0x90F JUMP JUMPDEST PUSH3 0x204 PUSH1 0x20 SHL PUSH1 0x20 SHR JUMP JUMPDEST PUSH3 0x1D3 PUSH3 0x1FC PUSH1 0x20 SHL PUSH1 0x20 SHR JUMP JUMPDEST PUSH1 0xA PUSH3 0x1E1 SWAP2 SWAP1 PUSH3 0x8BF JUMP JUMPDEST DUP2 PUSH3 0x1EE SWAP2 SWAP1 PUSH3 0x90F JUMP JUMPDEST PUSH1 0x6 DUP2 SWAP1 SSTORE POP POP POP PUSH3 0xE1E JUMP JUMPDEST PUSH0 PUSH1 0x12 SWAP1 POP SWAP1 JUMP JUMPDEST PUSH0 PUSH20 0xFFFFFFFFFFFFFFFFFFFFFFFFFFFFFFFFFFFFFFFF AND DUP3 PUSH20 0xFFFFFFFFFFFFFFFFFFFFFFFFFFFFFFFFFFFFFFFF AND SUB PUSH3 0x277 JUMPI PUSH0 PUSH1 0x40 MLOAD PUSH32 0xEC442F0500000000000000000000000000000000000000000000000000000000 DUP2 MSTORE PUSH1 0x4 ADD PUSH3 0x26E SWAP2 SWAP1 PUSH3 0xD37 JUMP JUMPDEST PUSH1 0x40 MLOAD DUP1 SWAP2 SUB SWAP1 REVERT JUMPDEST PUSH3 0x28A PUSH0 DUP4 DUP4 PUSH3 0x28E PUSH1 0x20 SHL PUSH1 0x20 SHR JUMP JUMPDEST POP POP JUMP JUMPDEST PUSH3 0x2A1 DUP4 DUP4 DUP4 PUSH3 0x3C0 PUSH1 0x20 SHL PUSH1 0x20 SHR JUMP JUMPDEST PUSH0 PUSH20 0xFFFFFFFFFFFFFFFFFFFFFFFFFFFFFFFFFFFFFFFF AND DUP4 PUSH20 0xFFFFFFFFFFFFFFFFFFFFFFFFFFFFFFFFFFFFFFFF AND EQ DUP1 ISZERO PUSH3 0x309 JUMPI POP COINBASE PUSH20 0xFFFFFFFFFFFFFFFFFFFFFFFFFFFFFFFFFFFFFFFF AND DUP3 PUSH20 0xFFFFFFFFFFFFFFFFFFFFFFFFFFFFFFFFFFFFFFFF AND EQ ISZERO JUMPDEST DUP1 ISZERO PUSH3 0x342 JUMPI POP PUSH0 PUSH20 0xFFFFFFFFFFFFFFFFFFFFFFFFFFFFFFFFFFFFFFFF AND COINBASE PUSH20 0xFFFFFFFFFFFFFFFFFFFFFFFFFFFFFFFFFFFFFFFF AND EQ ISZERO JUMPDEST ISZERO PUSH3 0x3BB JUMPI PUSH0 PUSH3 0x359 PUSH3 0x47F PUSH1 0x20 SHL PUSH1 0x20 SHR JUMP JUMPDEST SWAP1 POP PUSH0 PUSH3 0x36C PUSH3 0x488 PUSH1 0x20 SHL PUSH1 0x20 SHR JUMP JUMPDEST SWAP1 POP DUP2 DUP2 GT ISZERO PUSH3 0x3B8 JUMPI DUP1 DUP3 PUSH1 0x40 MLOAD PUSH32 0x9E79F85400000000000000000000000000000000000000000000000000000000 DUP2 MSTORE PUSH1 0x4 ADD PUSH3 0x3AF SWAP3 SWAP2 SWAP1 PUSH3 0xD63 JUMP JUMPDEST PUSH1 0x40 MLOAD DUP1 SWAP2 SUB SWAP1 REVERT JUMPDEST POP POP JUMPDEST POP POP POP JUMP JUMPDEST PUSH3 0x3D3 DUP4 DUP4 DUP4 PUSH3 0x491 PUSH1 0x20 SHL PUSH1 0x20 SHR JUMP JUMPDEST PUSH0 PUSH20 0xFFFFFFFFFFFFFFFFFFFFFFFFFFFFFFFFFFFFFFFF AND DUP4 PUSH20 0xFFFFFFFFFFFFFFFFFFFFFFFFFFFFFFFFFFFFFFFF AND SUB PUSH3 0x47A JUMPI PUSH0 PUSH3 0x418 PUSH3 0x47F PUSH1 0x20 SHL PUSH1 0x20 SHR JUMP JUMPDEST SWAP1 POP PUSH0 PUSH3 0x42B PUSH3 0x488 PUSH1 0x20 SHL PUSH1 0x20 SHR JUMP JUMPDEST SWAP1 POP DUP2 DUP2 GT ISZERO PUSH3 0x477 JUMPI DUP1 DUP3 PUSH1 0x40 MLOAD PUSH32 0x9E79F85400000000000000000000000000000000000000000000000000000000 DUP2 MSTORE PUSH1 0x4 ADD PUSH3 0x46E SWAP3 SWAP2 SWAP1 PUSH3 0xD63 JUMP JUMPDEST PUSH1 0x40 MLOAD DUP1 SWAP2 SUB SWAP1 REVERT JUMPDEST POP POP JUMPDEST POP POP POP JUMP JUMPDEST PUSH0 PUSH1 0x80 MLOAD SWAP1 POP SWAP1 JUMP JUMPDEST PUSH0 PUSH1 0x2 SLOAD SWAP1 POP SWAP1 JUMP JUMPDEST PUSH0 PUSH20 0xFFFFFFFFFFFFFFFFFFFFFFFFFFFFFFFFFFFFFFFF AND DUP4 PUSH20 0xFFFFFFFFFFFFFFFFFFFFFFFFFFFFFFFFFFFFFFFF AND SUB PUSH3 0x4E5 JUMPI DUP1 PUSH1 0x2 PUSH0 DUP3 DUP3 SLOAD PUSH3 0x4D8 SWAP2 SWAP1 PUSH3 0xD8E JUMP JUMPDEST SWAP3 POP POP DUP2 SWAP1 SSTORE POP PUSH3 0x5B6 JUMP JUMPDEST PUSH0 DUP1 PUSH0 DUP6 PUSH20 0xFFFFFFFFFFFFFFFFFFFFFFFFFFFFFFFFFFFFFFFF AND PUSH20 0xFFFFFFFFFFFFFFFFFFFFFFFFFFFFFFFFFFFFFFFF AND DUP2 MSTORE PUSH1 0x20 ADD SWAP1 DUP2 MSTORE PUSH1 0x20 ADD PUSH0 KECCAK256 SLOAD SWAP1 POP DUP2 DUP2 LT ISZERO PUSH3 0x571 JUMPI DUP4 DUP2 DUP4 PUSH1 0x40 MLOAD PUSH32 0xE450D38C00000000000000000000000000000000000000000000000000000000 DUP2 MSTORE PUSH1 0x4 ADD PUSH3 0x568 SWAP4 SWAP3 SWAP2 SWAP1 PUSH3 0xDC8 JUMP JUMPDEST PUSH1 0x40 MLOAD DUP1 SWAP2 SUB SWAP1 REVERT JUMPDEST DUP2 DUP2 SUB PUSH0 DUP1 DUP7 PUSH20 0xFFFFFFFFFFFFFFFFFFFFFFFFFFFFFFFFFFFFFFFF AND PUSH20 0xFFFFFFFFFFFFFFFFFFFFFFFFFFFFFFFFFFFFFFFF AND DUP2 MSTORE PUSH1 0x20 ADD SWAP1 DUP2 MSTORE PUSH1 0x20 ADD PUSH0 KECCAK256 DUP2 SWAP1 SSTORE POP POP JUMPDEST PUSH0 PUSH20 0xFFFFFFFFFFFFFFFFFFFFFFFFFFFFFFFFFFFFFFFF AND DUP3 PUSH20 0xFFFFFFFFFFFFFFFFFFFFFFFFFFFFFFFFFFFFFFFF AND SUB PUSH3 0x5FF JUMPI DUP1 PUSH1 0x2 PUSH0 DUP3 DUP3 SLOAD SUB SWAP3 POP POP DUP2 SWAP1 SSTORE POP PUSH3 0x649 JUMP JUMPDEST DUP1 PUSH0 DUP1 DUP5 PUSH20 0xFFFFFFFFFFFFFFFFFFFFFFFFFFFFFFFFFFFFFFFF AND PUSH20 0xFFFFFFFFFFFFFFFFFFFFFFFFFFFFFFFFFFFFFFFF AND DUP2 MSTORE PUSH1 0x20 ADD SWAP1 DUP2 MSTORE PUSH1 0x20 ADD PUSH0 KECCAK256 PUSH0 DUP3 DUP3 SLOAD ADD SWAP3 POP POP DUP2 SWAP1 SSTORE POP JUMPDEST DUP2 PUSH20 0xFFFFFFFFFFFFFFFFFFFFFFFFFFFFFFFFFFFFFFFF AND DUP4 PUSH20 0xFFFFFFFFFFFFFFFFFFFFFFFFFFFFFFFFFFFFFFFF AND PUSH32 0xDDF252AD1BE2C89B69C2B068FC378DAA952BA7F163C4A11628F55A4DF523B3EF DUP4 PUSH1 0x40 MLOAD PUSH3 0x6A8 SWAP2 SWAP1 PUSH3 0xE03 JUMP JUMPDEST PUSH1 0x40 MLOAD DUP1 SWAP2 SUB SWAP1 LOG3 POP POP POP JUMP JUMPDEST PUSH0 DUP1 REVERT JUMPDEST PUSH0 DUP2 SWAP1 POP SWAP2 SWAP1 POP JUMP JUMPDEST PUSH3 0x6CD DUP2 PUSH3 0x6B9 JUMP JUMPDEST DUP2 EQ PUSH3 0x6D8 JUMPI PUSH0 DUP1 REVERT JUMPDEST POP JUMP JUMPDEST PUSH0 DUP2 MLOAD SWAP1 POP PUSH3 0x6EB DUP2 PUSH3 0x6C2 JUMP JUMPDEST SWAP3 SWAP2 POP POP JUMP JUMPDEST PUSH0 DUP1 PUSH1 0x40 DUP4 DUP6 SUB SLT ISZERO PUSH3 0x70A JUMPI PUSH3 0x709 PUSH3 0x6B5 JUMP JUMPDEST JUMPDEST PUSH0 PUSH3 0x719 DUP6 DUP3 DUP7 ADD PUSH3 0x6DB JUMP JUMPDEST SWAP3 POP POP PUSH1 0x20 PUSH3 0x72C DUP6 DUP3 DUP7 ADD PUSH3 0x6DB JUMP JUMPDEST SWAP2 POP POP SWAP3 POP SWAP3 SWAP1 POP JUMP JUMPDEST PUSH32 0x4E487B7100000000000000000000000000000000000000000000000000000000 PUSH0 MSTORE PUSH1 0x11 PUSH1 0x4 MSTORE PUSH1 0x24 PUSH0 REVERT JUMPDEST PUSH0 DUP2 PUSH1 0x1 SHR SWAP1 POP SWAP2 SWAP1 POP JUMP JUMPDEST PUSH0 DUP1 DUP3 SWAP2 POP DUP4 SWAP1 POP JUMPDEST PUSH1 0x1 DUP6 GT ISZERO PUSH3 0x7C0 JUMPI DUP1 DUP7 DIV DUP2 GT ISZERO PUSH3 0x798 JUMPI PUSH3 0x797 PUSH3 0x736 JUMP JUMPDEST JUMPDEST PUSH1 0x1 DUP6 AND ISZERO PUSH3 0x7A8 JUMPI DUP1 DUP3 MUL SWAP2 POP JUMPDEST DUP1 DUP2 MUL SWAP1 POP PUSH3 0x7B8 DUP6 PUSH3 0x763 JUMP JUMPDEST SWAP5 POP PUSH3 0x778 JUMP JUMPDEST SWAP5 POP SWAP5 SWAP3 POP POP POP JUMP JUMPDEST PUSH0 DUP3 PUSH3 0x7DA JUMPI PUSH1 0x1 SWAP1 POP PUSH3 0x8AC JUMP JUMPDEST DUP2 PUSH3 0x7E9 JUMPI PUSH0 SWAP1 POP PUSH3 0x8AC JUMP JUMPDEST DUP2 PUSH1 0x1 DUP2 EQ PUSH3 0x802 JUMPI PUSH1 0x2 DUP2 EQ PUSH3 0x80D JUMPI PUSH3 0x843 JUMP JUMPDEST PUSH1 0x1 SWAP2 POP POP PUSH3 0x8AC JUMP JUMPDEST PUSH1 0xFF DUP5 GT ISZERO PUSH3 0x822 JUMPI PUSH3 0x821 PUSH3 0x736 JUMP JUMPDEST JUMPDEST DUP4 PUSH1 0x2 EXP SWAP2 POP DUP5 DUP3 GT ISZERO PUSH3 0x83C JUMPI PUSH3 0x83B PUSH3 0x736 JUMP JUMPDEST JUMPDEST POP PUSH3 0x8AC JUMP JUMPDEST POP PUSH1 0x20 DUP4 LT PUSH2 0x133 DUP4 LT AND PUSH1 0x4E DUP5 LT PUSH1 0xB DUP5 LT AND OR ISZERO PUSH3 0x87D JUMPI DUP3 DUP3 EXP SWAP1 POP DUP4 DUP2 GT ISZERO PUSH3 0x877 JUMPI PUSH3 0x876 PUSH3 0x736 JUMP JUMPDEST JUMPDEST PUSH3 0x8AC JUMP JUMPDEST PUSH3 0x88C DUP5 DUP5 DUP5 PUSH1 0x1 PUSH3 0x76F JUMP JUMPDEST SWAP3 POP SWAP1 POP DUP2 DUP5 DIV DUP2 GT ISZERO PUSH3 0x8A6 JUMPI PUSH3 0x8A5 PUSH3 0x736 JUMP JUMPDEST JUMPDEST DUP2 DUP2 MUL SWAP1 POP JUMPDEST SWAP4 SWAP3 POP POP POP JUMP JUMPDEST PUSH0 PUSH1 0xFF DUP3 AND SWAP1 POP SWAP2 SWAP1 POP JUMP JUMPDEST PUSH0 PUSH3 0x8CB DUP3 PUSH3 0x6B9 JUMP JUMPDEST SWAP2 POP PUSH3 0x8D8 DUP4 PUSH3 0x8B3 JUMP JUMPDEST SWAP3 POP PUSH3 0x907 PUSH32 0xFFFFFFFFFFFFFFFFFFFFFFFFFFFFFFFFFFFFFFFFFFFFFFFFFFFFFFFFFFFFFFFF DUP5 DUP5 PUSH3 0x7C9 JUMP JUMPDEST SWAP1 POP SWAP3 SWAP2 POP POP JUMP JUMPDEST PUSH0 PUSH3 0x91B DUP3 PUSH3 0x6B9 JUMP JUMPDEST SWAP2 POP PUSH3 0x928 DUP4 PUSH3 0x6B9 JUMP JUMPDEST SWAP3 POP DUP3 DUP3 MUL PUSH3 0x938 DUP2 PUSH3 0x6B9 JUMP JUMPDEST SWAP2 POP DUP3 DUP3 DIV DUP5 EQ DUP4 ISZERO OR PUSH3 0x952 JUMPI PUSH3 0x951 PUSH3 0x736 JUMP JUMPDEST JUMPDEST POP SWAP3 SWAP2 POP POP JUMP JUMPDEST PUSH0 DUP2 MLOAD SWAP1 POP SWAP2 SWAP1 POP JUMP JUMPDEST PUSH32 0x4E487B7100000000000000000000000000000000000000000000000000000000 PUSH0 MSTORE PUSH1 0x41 PUSH1 0x4 MSTORE PUSH1 0x24 PUSH0 REVERT JUMPDEST PUSH32 0x4E487B7100000000000000000000000000000000000000000000000000000000 PUSH0 MSTORE PUSH1 0x22 PUSH1 0x4 MSTORE PUSH1 0x24 PUSH0 REVERT JUMPDEST PUSH0 PUSH1 0x2 DUP3 DIV SWAP1 POP PUSH1 0x1 DUP3 AND DUP1 PUSH3 0x9D5 JUMPI PUSH1 0x7F DUP3 AND SWAP2 POP JUMPDEST PUSH1 0x20 DUP3 LT DUP2 SUB PUSH3 0x9EB JUMPI PUSH3 0x9EA PUSH3 0x990 JUMP JUMPDEST JUMPDEST POP SWAP2 SWAP1 POP JUMP JUMPDEST PUSH0 DUP2 SWAP1 POP DUP2 PUSH0 MSTORE PUSH1 0x20 PUSH0 KECCAK256 SWAP1 POP SWAP2 SWAP1 POP JUMP JUMPDEST PUSH0 PUSH1 0x20 PUSH1 0x1F DUP4 ADD DIV SWAP1 POP SWAP2 SWAP1 POP JUMP JUMPDEST PUSH0 DUP3 DUP3 SHL SWAP1 POP SWAP3 SWAP2 POP POP JUMP JUMPDEST PUSH0 PUSH1 0x8 DUP4 MUL PUSH3 0xA4F PUSH32 0xFFFFFFFFFFFFFFFFFFFFFFFFFFFFFFFFFFFFFFFFFFFFFFFFFFFFFFFFFFFFFFFF DUP3 PUSH3 0xA12 JUMP JUMPDEST PUSH3 0xA5B DUP7 DUP4 PUSH3 0xA12 JUMP JUMPDEST SWAP6 POP DUP1 NOT DUP5 AND SWAP4 POP DUP1 DUP7 AND DUP5 OR SWAP3 POP POP POP SWAP4 SWAP3 POP POP POP JUMP JUMPDEST PUSH0 DUP2 SWAP1 POP SWAP2 SWAP1 POP JUMP JUMPDEST PUSH0 PUSH3 0xA9C PUSH3 0xA96 PUSH3 0xA90 DUP5 PUSH3 0x6B9 JUMP JUMPDEST PUSH3 0xA73 JUMP JUMPDEST PUSH3 0x6B9 JUMP JUMPDEST SWAP1 POP SWAP2 SWAP1 POP JUMP JUMPDEST PUSH0 DUP2 SWAP1 POP SWAP2 SWAP1 POP JUMP JUMPDEST PUSH3 0xAB7 DUP4 PUSH3 0xA7C JUMP JUMPDEST PUSH3 0xACF PUSH3 0xAC6 DUP3 PUSH3 0xAA3 JUMP JUMPDEST DUP5 DUP5 SLOAD PUSH3 0xA1E JUMP JUMPDEST DUP3 SSTORE POP POP POP POP JUMP JUMPDEST PUSH0 SWAP1 JUMP JUMPDEST PUSH3 0xAE5 PUSH3 0xAD7 JUMP JUMPDEST PUSH3 0xAF2 DUP2 DUP5 DUP5 PUSH3 0xAAC JUMP JUMPDEST POP POP POP JUMP JUMPDEST JUMPDEST DUP2 DUP2 LT ISZERO PUSH3 0xB19 JUMPI PUSH3 0xB0D PUSH0 DUP3 PUSH3 0xADB JUMP JUMPDEST PUSH1 0x1 DUP2 ADD SWAP1 POP PUSH3 0xAF8 JUMP JUMPDEST POP POP JUMP JUMPDEST PUSH1 0x1F DUP3 GT ISZERO PUSH3 0xB68 JUMPI PUSH3 0xB32 DUP2 PUSH3 0x9F1 JUMP JUMPDEST PUSH3 0xB3D DUP5 PUSH3 0xA03 JUMP JUMPDEST DUP2 ADD PUSH1 0x20 DUP6 LT ISZERO PUSH3 0xB4D JUMPI DUP2 SWAP1 POP JUMPDEST PUSH3 0xB65 PUSH3 0xB5C DUP6 PUSH3 0xA03 JUMP JUMPDEST DUP4 ADD DUP3 PUSH3 0xAF7 JUMP JUMPDEST POP POP JUMPDEST POP POP POP JUMP JUMPDEST PUSH0 DUP3 DUP3 SHR SWAP1 POP SWAP3 SWAP2 POP POP JUMP JUMPDEST PUSH0 PUSH3 0xB8A PUSH0 NOT DUP5 PUSH1 0x8 MUL PUSH3 0xB6D JUMP JUMPDEST NOT DUP1 DUP4 AND SWAP2 POP POP SWAP3 SWAP2 POP POP JUMP JUMPDEST PUSH0 PUSH3 0xBA4 DUP4 DUP4 PUSH3 0xB79 JUMP JUMPDEST SWAP2 POP DUP3 PUSH1 0x2 MUL DUP3 OR SWAP1 POP SWAP3 SWAP2 POP POP JUMP JUMPDEST PUSH3 0xBBF DUP3 PUSH3 0x959 JUMP JUMPDEST PUSH8 0xFFFFFFFFFFFFFFFF DUP2 GT ISZERO PUSH3 0xBDB JUMPI PUSH3 0xBDA PUSH3 0x963 JUMP JUMPDEST JUMPDEST PUSH3 0xBE7 DUP3 SLOAD PUSH3 0x9BD JUMP JUMPDEST PUSH3 0xBF4 DUP3 DUP3 DUP6 PUSH3 0xB1D JUMP JUMPDEST PUSH0 PUSH1 0x20 SWAP1 POP PUSH1 0x1F DUP4 GT PUSH1 0x1 DUP2 EQ PUSH3 0xC2A JUMPI PUSH0 DUP5 ISZERO PUSH3 0xC15 JUMPI DUP3 DUP8 ADD MLOAD SWAP1 POP JUMPDEST PUSH3 0xC21 DUP6 DUP3 PUSH3 0xB97 JUMP JUMPDEST DUP7 SSTORE POP PUSH3 0xC90 JUMP JUMPDEST PUSH1 0x1F NOT DUP5 AND PUSH3 0xC3A DUP7 PUSH3 0x9F1 JUMP JUMPDEST PUSH0 JUMPDEST DUP3 DUP2 LT ISZERO PUSH3 0xC63 JUMPI DUP5 DUP10 ADD MLOAD DUP3 SSTORE PUSH1 0x1 DUP3 ADD SWAP2 POP PUSH1 0x20 DUP6 ADD SWAP5 POP PUSH1 0x20 DUP2 ADD SWAP1 POP PUSH3 0xC3C JUMP JUMPDEST DUP7 DUP4 LT ISZERO PUSH3 0xC83 JUMPI DUP5 DUP10 ADD MLOAD PUSH3 0xC7F PUSH1 0x1F DUP10 AND DUP3 PUSH3 0xB79 JUMP JUMPDEST DUP4 SSTORE POP JUMPDEST PUSH1 0x1 PUSH1 0x2 DUP9 MUL ADD DUP9 SSTORE POP POP POP JUMPDEST POP POP POP POP POP POP JUMP JUMPDEST PUSH0 DUP2 SWAP1 POP SWAP2 SWAP1 POP JUMP JUMPDEST PUSH0 PUSH3 0xCC1 PUSH3 0xCBB PUSH3 0xCB5 DUP5 PUSH3 0xC98 JUMP JUMPDEST PUSH3 0xA73 JUMP JUMPDEST PUSH3 0x6B9 JUMP JUMPDEST SWAP1 POP SWAP2 SWAP1 POP JUMP JUMPDEST PUSH3 0xCD3 DUP2 PUSH3 0xCA1 JUMP JUMPDEST DUP3 MSTORE POP POP JUMP JUMPDEST PUSH0 PUSH1 0x20 DUP3 ADD SWAP1 POP PUSH3 0xCEE PUSH0 DUP4 ADD DUP5 PUSH3 0xCC8 JUMP JUMPDEST SWAP3 SWAP2 POP POP JUMP JUMPDEST PUSH0 PUSH20 0xFFFFFFFFFFFFFFFFFFFFFFFFFFFFFFFFFFFFFFFF DUP3 AND SWAP1 POP SWAP2 SWAP1 POP JUMP JUMPDEST PUSH0 PUSH3 0xD1F DUP3 PUSH3 0xCF4 JUMP JUMPDEST SWAP1 POP SWAP2 SWAP1 POP JUMP JUMPDEST PUSH3 0xD31 DUP2 PUSH3 0xD13 JUMP JUMPDEST DUP3 MSTORE POP POP JUMP JUMPDEST PUSH0 PUSH1 0x20 DUP3 ADD SWAP1 POP PUSH3 0xD4C PUSH0 DUP4 ADD DUP5 PUSH3 0xD26 JUMP JUMPDEST SWAP3 SWAP2 POP POP JUMP JUMPDEST PUSH3 0xD5D DUP2 PUSH3 0x6B9 JUMP JUMPDEST DUP3 MSTORE POP POP JUMP JUMPDEST PUSH0 PUSH1 0x40 DUP3 ADD SWAP1 POP PUSH3 0xD78 PUSH0 DUP4 ADD DUP6 PUSH3 0xD52 JUMP JUMPDEST PUSH3 0xD87 PUSH1 0x20 DUP4 ADD DUP5 PUSH3 0xD52 JUMP JUMPDEST SWAP4 SWAP3 POP POP POP JUMP JUMPDEST PUSH0 PUSH3 0xD9A DUP3 PUSH3 0x6B9 JUMP JUMPDEST SWAP2 POP PUSH3 0xDA7 DUP4 PUSH3 0x6B9 JUMP JUMPDEST SWAP3 POP DUP3 DUP3 ADD SWAP1 POP DUP1 DUP3 GT ISZERO PUSH3 0xDC2 JUMPI PUSH3 0xDC1 PUSH3 0x736 JUMP JUMPDEST JUMPDEST SWAP3 SWAP2 POP POP JUMP JUMPDEST PUSH0 PUSH1 0x60 DUP3 ADD SWAP1 POP PUSH3 0xDDD PUSH0 DUP4 ADD DUP7 PUSH3 0xD26 JUMP JUMPDEST PUSH3 0xDEC PUSH1 0x20 DUP4 ADD DUP6 PUSH3 0xD52 JUMP JUMPDEST PUSH3 0xDFB PUSH1 0x40 DUP4 ADD DUP5 PUSH3 0xD52 JUMP JUMPDEST SWAP5 SWAP4 POP POP POP POP JUMP JUMPDEST PUSH0 PUSH1 0x20 DUP3 ADD SWAP1 POP PUSH3 0xE18 PUSH0 DUP4 ADD DUP5 PUSH3 0xD52 JUMP JUMPDEST SWAP3 SWAP2 POP POP JUMP JUMPDEST PUSH1 0x80 MLOAD PUSH2 0x165C PUSH3 0xE37 PUSH0 CODECOPY PUSH0 PUSH2 0x4D3 ADD MSTORE PUSH2 0x165C PUSH0 RETURN INVALID PUSH1 0x80 PUSH1 0x40 MSTORE CALLVALUE DUP1 ISZERO PUSH2 0xF JUMPI PUSH0 DUP1 REVERT JUMPDEST POP PUSH1 0x4 CALLDATASIZE LT PUSH2 0xFE JUMPI PUSH0 CALLDATALOAD PUSH1 0xE0 SHR DUP1 PUSH4 0x42966C68 GT PUSH2 0x95 JUMPI DUP1 PUSH4 0x8DA5CB5B GT PUSH2 0x64 JUMPI DUP1 PUSH4 0x8DA5CB5B EQ PUSH2 0x286 JUMPI DUP1 PUSH4 0x95D89B41 EQ PUSH2 0x2A4 JUMPI DUP1 PUSH4 0xA9059CBB EQ PUSH2 0x2C2 JUMPI DUP1 PUSH4 0xDD62ED3E EQ PUSH2 0x2F2 JUMPI PUSH2 0xFE JUMP JUMPDEST DUP1 PUSH4 0x42966C68 EQ PUSH2 0x214 JUMPI DUP1 PUSH4 0x70A08231 EQ PUSH2 0x230 JUMPI DUP1 PUSH4 0x79CC6790 EQ PUSH2 0x260 JUMPI DUP1 PUSH4 0x83197EF0 EQ PUSH2 0x27C JUMPI PUSH2 0xFE JUMP JUMPDEST DUP1 PUSH4 0x1A18E707 GT PUSH2 0xD1 JUMPI DUP1 PUSH4 0x1A18E707 EQ PUSH2 0x18C JUMPI DUP1 PUSH4 0x23B872DD EQ PUSH2 0x1A8 JUMPI DUP1 PUSH4 0x313CE567 EQ PUSH2 0x1D8 JUMPI DUP1 PUSH4 0x355274EA EQ PUSH2 0x1F6 JUMPI PUSH2 0xFE JUMP JUMPDEST DUP1 PUSH4 0x6FDDE03 EQ PUSH2 0x102 JUMPI DUP1 PUSH4 0x95EA7B3 EQ PUSH2 0x120 JUMPI DUP1 PUSH4 0xAC168A1 EQ PUSH2 0x150 JUMPI DUP1 PUSH4 0x18160DDD EQ PUSH2 0x16E JUMPI JUMPDEST PUSH0 DUP1 REVERT JUMPDEST PUSH2 0x10A PUSH2 0x322 JUMP JUMPDEST PUSH1 0x40 MLOAD PUSH2 0x117 SWAP2 SWAP1 PUSH2 0x1002 JUMP JUMPDEST PUSH1 0x40 MLOAD DUP1 SWAP2 SUB SWAP1 RETURN JUMPDEST PUSH2 0x13A PUSH1 0x4 DUP1 CALLDATASIZE SUB DUP2 ADD SWAP1 PUSH2 0x135 SWAP2 SWAP1 PUSH2 0x10B3 JUMP JUMPDEST PUSH2 0x3B2 JUMP JUMPDEST PUSH1 0x40 MLOAD PUSH2 0x147 SWAP2 SWAP1 PUSH2 0x110B JUMP JUMPDEST PUSH1 0x40 MLOAD DUP1 SWAP2 SUB SWAP1 RETURN JUMPDEST PUSH2 0x158 PUSH2 0x3D4 JUMP JUMPDEST PUSH1 0x40 MLOAD PUSH2 0x165 SWAP2 SWAP1 PUSH2 0x1133 JUMP JUMPDEST PUSH1 0x40 MLOAD DUP1 SWAP2 SUB SWAP1 RETURN JUMPDEST PUSH2 0x176 PUSH2 0x3DA JUMP JUMPDEST PUSH1 0x40 MLOAD PUSH2 0x183 SWAP2 SWAP1 PUSH2 0x1133 JUMP JUMPDEST PUSH1 0x40 MLOAD DUP1 SWAP2 SUB SWAP1 RETURN JUMPDEST PUSH2 0x1A6 PUSH1 0x4 DUP1 CALLDATASIZE SUB DUP2 ADD SWAP1 PUSH2 0x1A1 SWAP2 SWAP1 PUSH2 0x114C JUMP JUMPDEST PUSH2 0x3E3 JUMP JUMPDEST STOP JUMPDEST PUSH2 0x1C2 PUSH1 0x4 DUP1 CALLDATASIZE SUB DUP2 ADD SWAP1 PUSH2 0x1BD SWAP2 SWAP1 PUSH2 0x1177 JUMP JUMPDEST PUSH2 0x49A JUMP JUMPDEST PUSH1 0x40 MLOAD PUSH2 0x1CF SWAP2 SWAP1 PUSH2 0x110B JUMP JUMPDEST PUSH1 0x40 MLOAD DUP1 SWAP2 SUB SWAP1 RETURN JUMPDEST PUSH2 0x1E0 PUSH2 0x4C8 JUMP JUMPDEST PUSH1 0x40 MLOAD PUSH2 0x1ED SWAP2 SWAP1 PUSH2 0x11E2 JUMP JUMPDEST PUSH1 0x40 MLOAD DUP1 SWAP2 SUB SWAP1 RETURN JUMPDEST PUSH2 0x1FE PUSH2 0x4D0 JUMP JUMPDEST PUSH1 0x40 MLOAD PUSH2 0x20B SWAP2 SWAP1 PUSH2 0x1133 JUMP JUMPDEST PUSH1 0x40 MLOAD DUP1 SWAP2 SUB SWAP1 RETURN JUMPDEST PUSH2 0x22E PUSH1 0x4 DUP1 CALLDATASIZE SUB DUP2 ADD SWAP1 PUSH2 0x229 SWAP2 SWAP1 PUSH2 0x114C JUMP JUMPDEST PUSH2 0x4F7 JUMP JUMPDEST STOP JUMPDEST PUSH2 0x24A PUSH1 0x4 DUP1 CALLDATASIZE SUB DUP2 ADD SWAP1 PUSH2 0x245 SWAP2 SWAP1 PUSH2 0x11FB JUMP JUMPDEST PUSH2 0x50B JUMP JUMPDEST PUSH1 0x40 MLOAD PUSH2 0x257 SWAP2 SWAP1 PUSH2 0x1133 JUMP JUMPDEST PUSH1 0x40 MLOAD DUP1 SWAP2 SUB SWAP1 RETURN JUMPDEST PUSH2 0x27A PUSH1 0x4 DUP1 CALLDATASIZE SUB DUP2 ADD SWAP1 PUSH2 0x275 SWAP2 SWAP1 PUSH2 0x10B3 JUMP JUMPDEST PUSH2 0x550 JUMP JUMPDEST STOP JUMPDEST PUSH2 0x284 PUSH2 0x570 JUMP JUMPDEST STOP JUMPDEST PUSH2 0x28E PUSH2 0x666 JUMP JUMPDEST PUSH1 0x40 MLOAD PUSH2 0x29B SWAP2 SWAP1 PUSH2 0x1246 JUMP JUMPDEST PUSH1 0x40 MLOAD DUP1 SWAP2 SUB SWAP1 RETURN JUMPDEST PUSH2 0x2AC PUSH2 0x68B JUMP JUMPDEST PUSH1 0x40 MLOAD PUSH2 0x2B9 SWAP2 SWAP1 PUSH2 0x1002 JUMP JUMPDEST PUSH1 0x40 MLOAD DUP1 SWAP2 SUB SWAP1 RETURN JUMPDEST PUSH2 0x2DC PUSH1 0x4 DUP1 CALLDATASIZE SUB DUP2 ADD SWAP1 PUSH2 0x2D7 SWAP2 SWAP1 PUSH2 0x10B3 JUMP JUMPDEST PUSH2 0x71B JUMP JUMPDEST PUSH1 0x40 MLOAD PUSH2 0x2E9 SWAP2 SWAP1 PUSH2 0x110B JUMP JUMPDEST PUSH1 0x40 MLOAD DUP1 SWAP2 SUB SWAP1 RETURN JUMPDEST PUSH2 0x30C PUSH1 0x4 DUP1 CALLDATASIZE SUB DUP2 ADD SWAP1 PUSH2 0x307 SWAP2 SWAP1 PUSH2 0x125F JUMP JUMPDEST PUSH2 0x73D JUMP JUMPDEST PUSH1 0x40 MLOAD PUSH2 0x319 SWAP2 SWAP1 PUSH2 0x1133 JUMP JUMPDEST PUSH1 0x40 MLOAD DUP1 SWAP2 SUB SWAP1 RETURN JUMPDEST PUSH1 0x60 PUSH1 0x3 DUP1 SLOAD PUSH2 0x331 SWAP1 PUSH2 0x12CA JUMP JUMPDEST DUP1 PUSH1 0x1F ADD PUSH1 0x20 DUP1 SWAP2 DIV MUL PUSH1 0x20 ADD PUSH1 0x40 MLOAD SWAP1 DUP2 ADD PUSH1 0x40 MSTORE DUP1 SWAP3 SWAP2 SWAP1 DUP2 DUP2 MSTORE PUSH1 0x20 ADD DUP3 DUP1 SLOAD PUSH2 0x35D SWAP1 PUSH2 0x12CA JUMP JUMPDEST DUP1 ISZERO PUSH2 0x3A8 JUMPI DUP1 PUSH1 0x1F LT PUSH2 0x37F JUMPI PUSH2 0x100 DUP1 DUP4 SLOAD DIV MUL DUP4 MSTORE SWAP2 PUSH1 0x20 ADD SWAP2 PUSH2 0x3A8 JUMP JUMPDEST DUP3 ADD SWAP2 SWAP1 PUSH0 MSTORE PUSH1 0x20 PUSH0 KECCAK256 SWAP1 JUMPDEST DUP2 SLOAD DUP2 MSTORE SWAP1 PUSH1 0x1 ADD SWAP1 PUSH1 0x20 ADD DUP1 DUP4 GT PUSH2 0x38B JUMPI DUP3 SWAP1 SUB PUSH1 0x1F AND DUP3 ADD SWAP2 JUMPDEST POP POP POP POP POP SWAP1 POP SWAP1 JUMP JUMPDEST PUSH0 DUP1 PUSH2 0x3BC PUSH2 0x7BF JUMP JUMPDEST SWAP1 POP PUSH2 0x3C9 DUP2 DUP6 DUP6 PUSH2 0x7C6 JUMP JUMPDEST PUSH1 0x1 SWAP2 POP POP SWAP3 SWAP2 POP POP JUMP JUMPDEST PUSH1 0x6 SLOAD DUP2 JUMP JUMPDEST PUSH0 PUSH1 0x2 SLOAD SWAP1 POP SWAP1 JUMP JUMPDEST PUSH1 0x5 PUSH0 SWAP1 SLOAD SWAP1 PUSH2 0x100 EXP SWAP1 DIV PUSH20 0xFFFFFFFFFFFFFFFFFFFFFFFFFFFFFFFFFFFFFFFF AND PUSH20 0xFFFFFFFFFFFFFFFFFFFFFFFFFFFFFFFFFFFFFFFF AND CALLER PUSH20 0xFFFFFFFFFFFFFFFFFFFFFFFFFFFFFFFFFFFFFFFF AND EQ PUSH2 0x472 JUMPI PUSH1 0x40 MLOAD PUSH32 0x8C379A000000000000000000000000000000000000000000000000000000000 DUP2 MSTORE PUSH1 0x4 ADD PUSH2 0x469 SWAP1 PUSH2 0x136A JUMP JUMPDEST PUSH1 0x40 MLOAD DUP1 SWAP2 SUB SWAP1 REVERT JUMPDEST PUSH2 0x47A PUSH2 0x4C8 JUMP JUMPDEST PUSH1 0xA PUSH2 0x486 SWAP2 SWAP1 PUSH2 0x14E4 JUMP JUMPDEST DUP2 PUSH2 0x491 SWAP2 SWAP1 PUSH2 0x152E JUMP JUMPDEST PUSH1 0x6 DUP2 SWAP1 SSTORE POP POP JUMP JUMPDEST PUSH0 DUP1 PUSH2 0x4A4 PUSH2 0x7BF JUMP JUMPDEST SWAP1 POP PUSH2 0x4B1 DUP6 DUP3 DUP6 PUSH2 0x7D8 JUMP JUMPDEST PUSH2 0x4BC DUP6 DUP6 DUP6 PUSH2 0x86A JUMP JUMPDEST PUSH1 0x1 SWAP2 POP POP SWAP4 SWAP3 POP POP POP JUMP JUMPDEST PUSH0 PUSH1 0x12 SWAP1 POP SWAP1 JUMP JUMPDEST PUSH0 PUSH32 0x0 SWAP1 POP SWAP1 JUMP JUMPDEST PUSH2 0x508 PUSH2 0x502 PUSH2 0x7BF JUMP JUMPDEST DUP3 PUSH2 0x95A JUMP JUMPDEST POP JUMP JUMPDEST PUSH0 DUP1 PUSH0 DUP4 PUSH20 0xFFFFFFFFFFFFFFFFFFFFFFFFFFFFFFFFFFFFFFFF AND PUSH20 0xFFFFFFFFFFFFFFFFFFFFFFFFFFFFFFFFFFFFFFFF AND DUP2 MSTORE PUSH1 0x20 ADD SWAP1 DUP2 MSTORE PUSH1 0x20 ADD PUSH0 KECCAK256 SLOAD SWAP1 POP SWAP2 SWAP1 POP JUMP JUMPDEST PUSH2 0x562 DUP3 PUSH2 0x55C PUSH2 0x7BF JUMP JUMPDEST DUP4 PUSH2 0x7D8 JUMP JUMPDEST PUSH2 0x56C DUP3 DUP3 PUSH2 0x95A JUMP JUMPDEST POP POP JUMP JUMPDEST PUSH1 0x5 PUSH0 SWAP1 SLOAD SWAP1 PUSH2 0x100 EXP SWAP1 DIV PUSH20 0xFFFFFFFFFFFFFFFFFFFFFFFFFFFFFFFFFFFFFFFF AND PUSH20 0xFFFFFFFFFFFFFFFFFFFFFFFFFFFFFFFFFFFFFFFF AND CALLER PUSH20 0xFFFFFFFFFFFFFFFFFFFFFFFFFFFFFFFFFFFFFFFF AND EQ PUSH2 0x5FF JUMPI PUSH1 0x40 MLOAD PUSH32 0x8C379A000000000000000000000000000000000000000000000000000000000 DUP2 MSTORE PUSH1 0x4 ADD PUSH2 0x5F6 SWAP1 PUSH2 0x136A JUMP JUMPDEST PUSH1 0x40 MLOAD DUP1 SWAP2 SUB SWAP1 REVERT JUMPDEST PUSH1 0x5 PUSH0 SWAP1 SLOAD SWAP1 PUSH2 0x100 EXP SWAP1 DIV PUSH20 0xFFFFFFFFFFFFFFFFFFFFFFFFFFFFFFFFFFFFFFFF AND PUSH20 0xFFFFFFFFFFFFFFFFFFFFFFFFFFFFFFFFFFFFFFFF AND PUSH2 0x8FC SELFBALANCE SWAP1 DUP2 ISZERO MUL SWAP1 PUSH1 0x40 MLOAD PUSH0 PUSH1 0x40 MLOAD DUP1 DUP4 SUB DUP2 DUP6 DUP9 DUP9 CALL SWAP4 POP POP POP POP ISZERO DUP1 ISZERO PUSH2 0x663 JUMPI RETURNDATASIZE PUSH0 DUP1 RETURNDATACOPY RETURNDATASIZE PUSH0 REVERT JUMPDEST POP JUMP JUMPDEST PUSH1 0x5 PUSH0 SWAP1 SLOAD SWAP1 PUSH2 0x100 EXP SWAP1 DIV PUSH20 0xFFFFFFFFFFFFFFFFFFFFFFFFFFFFFFFFFFFFFFFF AND DUP2 JUMP JUMPDEST PUSH1 0x60 PUSH1 0x4 DUP1 SLOAD PUSH2 0x69A SWAP1 PUSH2 0x12CA JUMP JUMPDEST DUP1 PUSH1 0x1F ADD PUSH1 0x20 DUP1 SWAP2 DIV MUL PUSH1 0x20 ADD PUSH1 0x40 MLOAD SWAP1 DUP2 ADD PUSH1 0x40 MSTORE DUP1 SWAP3 SWAP2 SWAP1 DUP2 DUP2 MSTORE PUSH1 0x20 ADD DUP3 DUP1 SLOAD PUSH2 0x6C6 SWAP1 PUSH2 0x12CA JUMP JUMPDEST DUP1 ISZERO PUSH2 0x711 JUMPI DUP1 PUSH1 0x1F LT PUSH2 0x6E8 JUMPI PUSH2 0x100 DUP1 DUP4 SLOAD DIV MUL DUP4 MSTORE SWAP2 PUSH1 0x20 ADD SWAP2 PUSH2 0x711 JUMP JUMPDEST DUP3 ADD SWAP2 SWAP1 PUSH0 MSTORE PUSH1 0x20 PUSH0 KECCAK256 SWAP1 JUMPDEST DUP2 SLOAD DUP2 MSTORE SWAP1 PUSH1 0x1 ADD SWAP1 PUSH1 0x20 ADD DUP1 DUP4 GT PUSH2 0x6F4 JUMPI DUP3 SWAP1 SUB PUSH1 0x1F AND DUP3 ADD SWAP2 JUMPDEST POP POP POP POP POP SWAP1 POP SWAP1 JUMP JUMPDEST PUSH0 DUP1 PUSH2 0x725 PUSH2 0x7BF JUMP JUMPDEST SWAP1 POP PUSH2 0x732 DUP2 DUP6 DUP6 PUSH2 0x86A JUMP JUMPDEST PUSH1 0x1 SWAP2 POP POP SWAP3 SWAP2 POP POP JUMP JUMPDEST PUSH0 PUSH1 0x1 PUSH0 DUP5 PUSH20 0xFFFFFFFFFFFFFFFFFFFFFFFFFFFFFFFFFFFFFFFF AND PUSH20 0xFFFFFFFFFFFFFFFFFFFFFFFFFFFFFFFFFFFFFFFF AND DUP2 MSTORE PUSH1 0x20 ADD SWAP1 DUP2 MSTORE PUSH1 0x20 ADD PUSH0 KECCAK256 PUSH0 DUP4 PUSH20 0xFFFFFFFFFFFFFFFFFFFFFFFFFFFFFFFFFFFFFFFF AND PUSH20 0xFFFFFFFFFFFFFFFFFFFFFFFFFFFFFFFFFFFFFFFF AND DUP2 MSTORE PUSH1 0x20 ADD SWAP1 DUP2 MSTORE PUSH1 0x20 ADD PUSH0 KECCAK256 SLOAD SWAP1 POP SWAP3 SWAP2 POP POP JUMP JUMPDEST PUSH0 CALLER SWAP1 POP SWAP1 JUMP JUMPDEST PUSH2 0x7D3 DUP4 DUP4 DUP4 PUSH1 0x1 PUSH2 0x9D9 JUMP JUMPDEST POP POP POP JUMP JUMPDEST PUSH0 PUSH2 0x7E3 DUP5 DUP5 PUSH2 0x73D JUMP JUMPDEST SWAP1 POP PUSH32 0xFFFFFFFFFFFFFFFFFFFFFFFFFFFFFFFFFFFFFFFFFFFFFFFFFFFFFFFFFFFFFFFF DUP2 EQ PUSH2 0x864 JUMPI DUP2 DUP2 LT ISZERO PUSH2 0x855 JUMPI DUP3 DUP2 DUP4 PUSH1 0x40 MLOAD PUSH32 0xFB8F41B200000000000000000000000000000000000000000000000000000000 DUP2 MSTORE PUSH1 0x4 ADD PUSH2 0x84C SWAP4 SWAP3 SWAP2 SWAP1 PUSH2 0x157E JUMP JUMPDEST PUSH1 0x40 MLOAD DUP1 SWAP2 SUB SWAP1 REVERT JUMPDEST PUSH2 0x863 DUP5 DUP5 DUP5 DUP5 SUB PUSH0 PUSH2 0x9D9 JUMP JUMPDEST JUMPDEST POP POP POP POP JUMP JUMPDEST PUSH0 PUSH20 0xFFFFFFFFFFFFFFFFFFFFFFFFFFFFFFFFFFFFFFFF AND DUP4 PUSH20 0xFFFFFFFFFFFFFFFFFFFFFFFFFFFFFFFFFFFFFFFF AND SUB PUSH2 0x8DA JUMPI PUSH0 PUSH1 0x40 MLOAD PUSH32 0x96C6FD1E00000000000000000000000000000000000000000000000000000000 DUP2 MSTORE PUSH1 0x4 ADD PUSH2 0x8D1 SWAP2 SWAP1 PUSH2 0x15B3 JUMP JUMPDEST PUSH1 0x40 MLOAD DUP1 SWAP2 SUB SWAP1 REVERT JUMPDEST PUSH0 PUSH20 0xFFFFFFFFFFFFFFFFFFFFFFFFFFFFFFFFFFFFFFFF AND DUP3 PUSH20 0xFFFFFFFFFFFFFFFFFFFFFFFFFFFFFFFFFFFFFFFF AND SUB PUSH2 0x94A JUMPI PUSH0 PUSH1 0x40 MLOAD PUSH32 0xEC442F0500000000000000000000000000000000000000000000000000000000 DUP2 MSTORE PUSH1 0x4 ADD PUSH2 0x941 SWAP2 SWAP1 PUSH2 0x15B3 JUMP JUMPDEST PUSH1 0x40 MLOAD DUP1 SWAP2 SUB SWAP1 REVERT JUMPDEST PUSH2 0x955 DUP4 DUP4 DUP4 PUSH2 0xBA8 JUMP JUMPDEST POP POP POP JUMP JUMPDEST PUSH0 PUSH20 0xFFFFFFFFFFFFFFFFFFFFFFFFFFFFFFFFFFFFFFFF AND DUP3 PUSH20 0xFFFFFFFFFFFFFFFFFFFFFFFFFFFFFFFFFFFFFFFF AND SUB PUSH2 0x9CA JUMPI PUSH0 PUSH1 0x40 MLOAD PUSH32 0x96C6FD1E00000000000000000000000000000000000000000000000000000000 DUP2 MSTORE PUSH1 0x4 ADD PUSH2 0x9C1 SWAP2 SWAP1 PUSH2 0x15B3 JUMP JUMPDEST PUSH1 0x40 MLOAD DUP1 SWAP2 SUB SWAP1 REVERT JUMPDEST PUSH2 0x9D5 DUP3 PUSH0 DUP4 PUSH2 0xBA8 JUMP JUMPDEST POP POP JUMP JUMPDEST PUSH0 PUSH20 0xFFFFFFFFFFFFFFFFFFFFFFFFFFFFFFFFFFFFFFFF AND DUP5 PUSH20 0xFFFFFFFFFFFFFFFFFFFFFFFFFFFFFFFFFFFFFFFF AND SUB PUSH2 0xA49 JUMPI PUSH0 PUSH1 0x40 MLOAD PUSH32 0xE602DF0500000000000000000000000000000000000000000000000000000000 DUP2 MSTORE PUSH1 0x4 ADD PUSH2 0xA40 SWAP2 SWAP1 PUSH2 0x15B3 JUMP JUMPDEST PUSH1 0x40 MLOAD DUP1 SWAP2 SUB SWAP1 REVERT JUMPDEST PUSH0 PUSH20 0xFFFFFFFFFFFFFFFFFFFFFFFFFFFFFFFFFFFFFFFF AND DUP4 PUSH20 0xFFFFFFFFFFFFFFFFFFFFFFFFFFFFFFFFFFFFFFFF AND SUB PUSH2 0xAB9 JUMPI PUSH0 PUSH1 0x40 MLOAD PUSH32 0x94280D6200000000000000000000000000000000000000000000000000000000 DUP2 MSTORE PUSH1 0x4 ADD PUSH2 0xAB0 SWAP2 SWAP1 PUSH2 0x15B3 JUMP JUMPDEST PUSH1 0x40 MLOAD DUP1 SWAP2 SUB SWAP1 REVERT JUMPDEST DUP2 PUSH1 0x1 PUSH0 DUP7 PUSH20 0xFFFFFFFFFFFFFFFFFFFFFFFFFFFFFFFFFFFFFFFF AND PUSH20 0xFFFFFFFFFFFFFFFFFFFFFFFFFFFFFFFFFFFFFFFF AND DUP2 MSTORE PUSH1 0x20 ADD SWAP1 DUP2 MSTORE PUSH1 0x20 ADD PUSH0 KECCAK256 PUSH0 DUP6 PUSH20 0xFFFFFFFFFFFFFFFFFFFFFFFFFFFFFFFFFFFFFFFF AND PUSH20 0xFFFFFFFFFFFFFFFFFFFFFFFFFFFFFFFFFFFFFFFF AND DUP2 MSTORE PUSH1 0x20 ADD SWAP1 DUP2 MSTORE PUSH1 0x20 ADD PUSH0 KECCAK256 DUP2 SWAP1 SSTORE POP DUP1 ISZERO PUSH2 0xBA2 JUMPI DUP3 PUSH20 0xFFFFFFFFFFFFFFFFFFFFFFFFFFFFFFFFFFFFFFFF AND DUP5 PUSH20 0xFFFFFFFFFFFFFFFFFFFFFFFFFFFFFFFFFFFFFFFF AND PUSH32 0x8C5BE1E5EBEC7D5BD14F71427D1E84F3DD0314C0F7B2291E5B200AC8C7C3B925 DUP5 PUSH1 0x40 MLOAD PUSH2 0xB99 SWAP2 SWAP1 PUSH2 0x1133 JUMP JUMPDEST PUSH1 0x40 MLOAD DUP1 SWAP2 SUB SWAP1 LOG3 JUMPDEST POP POP POP POP JUMP JUMPDEST PUSH2 0xBB3 DUP4 DUP4 DUP4 PUSH2 0xCBC JUMP JUMPDEST PUSH0 PUSH20 0xFFFFFFFFFFFFFFFFFFFFFFFFFFFFFFFFFFFFFFFF AND DUP4 PUSH20 0xFFFFFFFFFFFFFFFFFFFFFFFFFFFFFFFFFFFFFFFF AND EQ DUP1 ISZERO PUSH2 0xC1A JUMPI POP COINBASE PUSH20 0xFFFFFFFFFFFFFFFFFFFFFFFFFFFFFFFFFFFFFFFF AND DUP3 PUSH20 0xFFFFFFFFFFFFFFFFFFFFFFFFFFFFFFFFFFFFFFFF AND EQ ISZERO JUMPDEST DUP1 ISZERO PUSH2 0xC52 JUMPI POP PUSH0 PUSH20 0xFFFFFFFFFFFFFFFFFFFFFFFFFFFFFFFFFFFFFFFF AND COINBASE PUSH20 0xFFFFFFFFFFFFFFFFFFFFFFFFFFFFFFFFFFFFFFFF AND EQ ISZERO JUMPDEST ISZERO PUSH2 0xCB7 JUMPI PUSH0 PUSH2 0xC60 PUSH2 0x4D0 JUMP JUMPDEST SWAP1 POP PUSH0 PUSH2 0xC6B PUSH2 0x3DA JUMP JUMPDEST SWAP1 POP DUP2 DUP2 GT ISZERO PUSH2 0xCB4 JUMPI DUP1 DUP3 PUSH1 0x40 MLOAD PUSH32 0x9E79F85400000000000000000000000000000000000000000000000000000000 DUP2 MSTORE PUSH1 0x4 ADD PUSH2 0xCAB SWAP3 SWAP2 SWAP1 PUSH2 0x15CC JUMP JUMPDEST PUSH1 0x40 MLOAD DUP1 SWAP2 SUB SWAP1 REVERT JUMPDEST POP POP JUMPDEST POP POP POP JUMP JUMPDEST PUSH2 0xCC7 DUP4 DUP4 DUP4 PUSH2 0xD5F JUMP JUMPDEST PUSH0 PUSH20 0xFFFFFFFFFFFFFFFFFFFFFFFFFFFFFFFFFFFFFFFF AND DUP4 PUSH20 0xFFFFFFFFFFFFFFFFFFFFFFFFFFFFFFFFFFFFFFFF AND SUB PUSH2 0xD5A JUMPI PUSH0 PUSH2 0xD03 PUSH2 0x4D0 JUMP JUMPDEST SWAP1 POP PUSH0 PUSH2 0xD0E PUSH2 0x3DA JUMP JUMPDEST SWAP1 POP DUP2 DUP2 GT ISZERO PUSH2 0xD57 JUMPI DUP1 DUP3 PUSH1 0x40 MLOAD PUSH32 0x9E79F85400000000000000000000000000000000000000000000000000000000 DUP2 MSTORE PUSH1 0x4 ADD PUSH2 0xD4E SWAP3 SWAP2 SWAP1 PUSH2 0x15CC JUMP JUMPDEST PUSH1 0x40 MLOAD DUP1 SWAP2 SUB SWAP1 REVERT JUMPDEST POP POP JUMPDEST POP POP POP JUMP JUMPDEST PUSH0 PUSH20 0xFFFFFFFFFFFFFFFFFFFFFFFFFFFFFFFFFFFFFFFF AND DUP4 PUSH20 0xFFFFFFFFFFFFFFFFFFFFFFFFFFFFFFFFFFFFFFFF AND SUB PUSH2 0xDAF JUMPI DUP1 PUSH1 0x2 PUSH0 DUP3 DUP3 SLOAD PUSH2 0xDA3 SWAP2 SWAP1 PUSH2 0x15F3 JUMP JUMPDEST SWAP3 POP POP DUP2 SWAP1 SSTORE POP PUSH2 0xE7D JUMP JUMPDEST PUSH0 DUP1 PUSH0 DUP6 PUSH20 0xFFFFFFFFFFFFFFFFFFFFFFFFFFFFFFFFFFFFFFFF AND PUSH20 0xFFFFFFFFFFFFFFFFFFFFFFFFFFFFFFFFFFFFFFFF AND DUP2 MSTORE PUSH1 0x20 ADD SWAP1 DUP2 MSTORE PUSH1 0x20 ADD PUSH0 KECCAK256 SLOAD SWAP1 POP DUP2 DUP2 LT ISZERO PUSH2 0xE38 JUMPI DUP4 DUP2 DUP4 PUSH1 0x40 MLOAD PUSH32 0xE450D38C00000000000000000000000000000000000000000000000000000000 DUP2 MSTORE PUSH1 0x4 ADD PUSH2 0xE2F SWAP4 SWAP3 SWAP2 SWAP1 PUSH2 0x157E JUMP JUMPDEST PUSH1 0x40 MLOAD DUP1 SWAP2 SUB SWAP1 REVERT JUMPDEST DUP2 DUP2 SUB PUSH0 DUP1 DUP7 PUSH20 0xFFFFFFFFFFFFFFFFFFFFFFFFFFFFFFFFFFFFFFFF AND PUSH20 0xFFFFFFFFFFFFFFFFFFFFFFFFFFFFFFFFFFFFFFFF AND DUP2 MSTORE PUSH1 0x20 ADD SWAP1 DUP2 MSTORE PUSH1 0x20 ADD PUSH0 KECCAK256 DUP2 SWAP1 SSTORE POP POP JUMPDEST PUSH0 PUSH20 0xFFFFFFFFFFFFFFFFFFFFFFFFFFFFFFFFFFFFFFFF AND DUP3 PUSH20 0xFFFFFFFFFFFFFFFFFFFFFFFFFFFFFFFFFFFFFFFF AND SUB PUSH2 0xEC4 JUMPI DUP1 PUSH1 0x2 PUSH0 DUP3 DUP3 SLOAD SUB SWAP3 POP POP DUP2 SWAP1 SSTORE POP PUSH2 0xF0E JUMP JUMPDEST DUP1 PUSH0 DUP1 DUP5 PUSH20 0xFFFFFFFFFFFFFFFFFFFFFFFFFFFFFFFFFFFFFFFF AND PUSH20 0xFFFFFFFFFFFFFFFFFFFFFFFFFFFFFFFFFFFFFFFF AND DUP2 MSTORE PUSH1 0x20 ADD SWAP1 DUP2 MSTORE PUSH1 0x20 ADD PUSH0 KECCAK256 PUSH0 DUP3 DUP3 SLOAD ADD SWAP3 POP POP DUP2 SWAP1 SSTORE POP JUMPDEST DUP2 PUSH20 0xFFFFFFFFFFFFFFFFFFFFFFFFFFFFFFFFFFFFFFFF AND DUP4 PUSH20 0xFFFFFFFFFFFFFFFFFFFFFFFFFFFFFFFFFFFFFFFF AND PUSH32 0xDDF252AD1BE2C89B69C2B068FC378DAA952BA7F163C4A11628F55A4DF523B3EF DUP4 PUSH1 0x40 MLOAD PUSH2 0xF6B SWAP2 SWAP1 PUSH2 0x1133 JUMP JUMPDEST PUSH1 0x40 MLOAD DUP1 SWAP2 SUB SWAP1 LOG3 POP POP POP JUMP JUMPDEST PUSH0 DUP2 MLOAD SWAP1 POP SWAP2 SWAP1 POP JUMP JUMPDEST PUSH0 DUP3 DUP3 MSTORE PUSH1 0x20 DUP3 ADD SWAP1 POP SWAP3 SWAP2 POP POP JUMP JUMPDEST PUSH0 JUMPDEST DUP4 DUP2 LT ISZERO PUSH2 0xFAF JUMPI DUP1 DUP3 ADD MLOAD DUP2 DUP5 ADD MSTORE PUSH1 0x20 DUP2 ADD SWAP1 POP PUSH2 0xF94 JUMP JUMPDEST PUSH0 DUP5 DUP5 ADD MSTORE POP POP POP POP JUMP JUMPDEST PUSH0 PUSH1 0x1F NOT PUSH1 0x1F DUP4 ADD AND SWAP1 POP SWAP2 SWAP1 POP JUMP JUMPDEST PUSH0 PUSH2 0xFD4 DUP3 PUSH2 0xF78 JUMP JUMPDEST PUSH2 0xFDE DUP2 DUP6 PUSH2 0xF82 JUMP JUMPDEST SWAP4 POP PUSH2 0xFEE DUP2 DUP6 PUSH1 0x20 DUP7 ADD PUSH2 0xF92 JUMP JUMPDEST PUSH2 0xFF7 DUP2 PUSH2 0xFBA JUMP JUMPDEST DUP5 ADD SWAP2 POP POP SWAP3 SWAP2 POP POP JUMP JUMPDEST PUSH0 PUSH1 0x20 DUP3 ADD SWAP1 POP DUP2 DUP2 SUB PUSH0 DUP4 ADD MSTORE PUSH2 0x101A DUP2 DUP5 PUSH2 0xFCA JUMP JUMPDEST SWAP1 POP SWAP3 SWAP2 POP POP JUMP JUMPDEST PUSH0 DUP1 REVERT JUMPDEST PUSH0 PUSH20 0xFFFFFFFFFFFFFFFFFFFFFFFFFFFFFFFFFFFFFFFF DUP3 AND SWAP1 POP SWAP2 SWAP1 POP JUMP JUMPDEST PUSH0 PUSH2 0x104F DUP3 PUSH2 0x1026 JUMP JUMPDEST SWAP1 POP SWAP2 SWAP1 POP JUMP JUMPDEST PUSH2 0x105F DUP2 PUSH2 0x1045 JUMP JUMPDEST DUP2 EQ PUSH2 0x1069 JUMPI PUSH0 DUP1 REVERT JUMPDEST POP JUMP JUMPDEST PUSH0 DUP2 CALLDATALOAD SWAP1 POP PUSH2 0x107A DUP2 PUSH2 0x1056 JUMP JUMPDEST SWAP3 SWAP2 POP POP JUMP JUMPDEST PUSH0 DUP2 SWAP1 POP SWAP2 SWAP1 POP JUMP JUMPDEST PUSH2 0x1092 DUP2 PUSH2 0x1080 JUMP JUMPDEST DUP2 EQ PUSH2 0x109C JUMPI PUSH0 DUP1 REVERT JUMPDEST POP JUMP JUMPDEST PUSH0 DUP2 CALLDATALOAD SWAP1 POP PUSH2 0x10AD DUP2 PUSH2 0x1089 JUMP JUMPDEST SWAP3 SWAP2 POP POP JUMP JUMPDEST PUSH0 DUP1 PUSH1 0x40 DUP4 DUP6 SUB SLT ISZERO PUSH2 0x10C9 JUMPI PUSH2 0x10C8 PUSH2 0x1022 JUMP JUMPDEST JUMPDEST PUSH0 PUSH2 0x10D6 DUP6 DUP3 DUP7 ADD PUSH2 0x106C JUMP JUMPDEST SWAP3 POP POP PUSH1 0x20 PUSH2 0x10E7 DUP6 DUP3 DUP7 ADD PUSH2 0x109F JUMP JUMPDEST SWAP2 POP POP SWAP3 POP SWAP3 SWAP1 POP JUMP JUMPDEST PUSH0 DUP2 ISZERO ISZERO SWAP1 POP SWAP2 SWAP1 POP JUMP JUMPDEST PUSH2 0x1105 DUP2 PUSH2 0x10F1 JUMP JUMPDEST DUP3 MSTORE POP POP JUMP JUMPDEST PUSH0 PUSH1 0x20 DUP3 ADD SWAP1 POP PUSH2 0x111E PUSH0 DUP4 ADD DUP5 PUSH2 0x10FC JUMP JUMPDEST SWAP3 SWAP2 POP POP JUMP JUMPDEST PUSH2 0x112D DUP2 PUSH2 0x1080 JUMP JUMPDEST DUP3 MSTORE POP POP JUMP JUMPDEST PUSH0 PUSH1 0x20 DUP3 ADD SWAP1 POP PUSH2 0x1146 PUSH0 DUP4 ADD DUP5 PUSH2 0x1124 JUMP JUMPDEST SWAP3 SWAP2 POP POP JUMP JUMPDEST PUSH0 PUSH1 0x20 DUP3 DUP5 SUB SLT ISZERO PUSH2 0x1161 JUMPI PUSH2 0x1160 PUSH2 0x1022 JUMP JUMPDEST JUMPDEST PUSH0 PUSH2 0x116E DUP5 DUP3 DUP6 ADD PUSH2 0x109F JUMP JUMPDEST SWAP2 POP POP SWAP3 SWAP2 POP POP JUMP JUMPDEST PUSH0 DUP1 PUSH0 PUSH1 0x60 DUP5 DUP7 SUB SLT ISZERO PUSH2 0x118E JUMPI PUSH2 0x118D PUSH2 0x1022 JUMP JUMPDEST JUMPDEST PUSH0 PUSH2 0x119B DUP7 DUP3 DUP8 ADD PUSH2 0x106C JUMP JUMPDEST SWAP4 POP POP PUSH1 0x20 PUSH2 0x11AC DUP7 DUP3 DUP8 ADD PUSH2 0x106C JUMP JUMPDEST SWAP3 POP POP PUSH1 0x40 PUSH2 0x11BD DUP7 DUP3 DUP8 ADD PUSH2 0x109F JUMP JUMPDEST SWAP2 POP POP SWAP3 POP SWAP3 POP SWAP3 JUMP JUMPDEST PUSH0 PUSH1 0xFF DUP3 AND SWAP1 POP SWAP2 SWAP1 POP JUMP JUMPDEST PUSH2 0x11DC DUP2 PUSH2 0x11C7 JUMP JUMPDEST DUP3 MSTORE POP POP JUMP JUMPDEST PUSH0 PUSH1 0x20 DUP3 ADD SWAP1 POP PUSH2 0x11F5 PUSH0 DUP4 ADD DUP5 PUSH2 0x11D3 JUMP JUMPDEST SWAP3 SWAP2 POP POP JUMP JUMPDEST PUSH0 PUSH1 0x20 DUP3 DUP5 SUB SLT ISZERO PUSH2 0x1210 JUMPI PUSH2 0x120F PUSH2 0x1022 JUMP JUMPDEST JUMPDEST PUSH0 PUSH2 0x121D DUP5 DUP3 DUP6 ADD PUSH2 0x106C JUMP JUMPDEST SWAP2 POP POP SWAP3 SWAP2 POP POP JUMP JUMPDEST PUSH0 PUSH2 0x1230 DUP3 PUSH2 0x1026 JUMP JUMPDEST SWAP1 POP SWAP2 SWAP1 POP JUMP JUMPDEST PUSH2 0x1240 DUP2 PUSH2 0x1226 JUMP JUMPDEST DUP3 MSTORE POP POP JUMP JUMPDEST PUSH0 PUSH1 0x20 DUP3 ADD SWAP1 POP PUSH2 0x1259 PUSH0 DUP4 ADD DUP5 PUSH2 0x1237 JUMP JUMPDEST SWAP3 SWAP2 POP POP JUMP JUMPDEST PUSH0 DUP1 PUSH1 0x40 DUP4 DUP6 SUB SLT ISZERO PUSH2 0x1275 JUMPI PUSH2 0x1274 PUSH2 0x1022 JUMP JUMPDEST JUMPDEST PUSH0 PUSH2 0x1282 DUP6 DUP3 DUP7 ADD PUSH2 0x106C JUMP JUMPDEST SWAP3 POP POP PUSH1 0x20 PUSH2 0x1293 DUP6 DUP3 DUP7 ADD PUSH2 0x106C JUMP JUMPDEST SWAP2 POP POP SWAP3 POP SWAP3 SWAP1 POP JUMP JUMPDEST PUSH32 0x4E487B7100000000000000000000000000000000000000000000000000000000 PUSH0 MSTORE PUSH1 0x22 PUSH1 0x4 MSTORE PUSH1 0x24 PUSH0 REVERT JUMPDEST PUSH0 PUSH1 0x2 DUP3 DIV SWAP1 POP PUSH1 0x1 DUP3 AND DUP1 PUSH2 0x12E1 JUMPI PUSH1 0x7F DUP3 AND SWAP2 POP JUMPDEST PUSH1 0x20 DUP3 LT DUP2 SUB PUSH2 0x12F4 JUMPI PUSH2 0x12F3 PUSH2 0x129D JUMP JUMPDEST JUMPDEST POP SWAP2 SWAP1 POP JUMP JUMPDEST PUSH32 0x4F6E6C79206F776E65722063616E2063616C6C20746869732066756E6374696F PUSH0 DUP3 ADD MSTORE PUSH32 0x6E00000000000000000000000000000000000000000000000000000000000000 PUSH1 0x20 DUP3 ADD MSTORE POP JUMP JUMPDEST PUSH0 PUSH2 0x1354 PUSH1 0x21 DUP4 PUSH2 0xF82 JUMP JUMPDEST SWAP2 POP PUSH2 0x135F DUP3 PUSH2 0x12FA JUMP JUMPDEST PUSH1 0x40 DUP3 ADD SWAP1 POP SWAP2 SWAP1 POP JUMP JUMPDEST PUSH0 PUSH1 0x20 DUP3 ADD SWAP1 POP DUP2 DUP2 SUB PUSH0 DUP4 ADD MSTORE PUSH2 0x1381 DUP2 PUSH2 0x1348 JUMP JUMPDEST SWAP1 POP SWAP2 SWAP1 POP JUMP JUMPDEST PUSH32 0x4E487B7100000000000000000000000000000000000000000000000000000000 PUSH0 MSTORE PUSH1 0x11 PUSH1 0x4 MSTORE PUSH1 0x24 PUSH0 REVERT JUMPDEST PUSH0 DUP2 PUSH1 0x1 SHR SWAP1 POP SWAP2 SWAP1 POP JUMP JUMPDEST PUSH0 DUP1 DUP3 SWAP2 POP DUP4 SWAP1 POP JUMPDEST PUSH1 0x1 DUP6 GT ISZERO PUSH2 0x140A JUMPI DUP1 DUP7 DIV DUP2 GT ISZERO PUSH2 0x13E6 JUMPI PUSH2 0x13E5 PUSH2 0x1388 JUMP JUMPDEST JUMPDEST PUSH1 0x1 DUP6 AND ISZERO PUSH2 0x13F5 JUMPI DUP1 DUP3 MUL SWAP2 POP JUMPDEST DUP1 DUP2 MUL SWAP1 POP PUSH2 0x1403 DUP6 PUSH2 0x13B5 JUMP JUMPDEST SWAP5 POP PUSH2 0x13CA JUMP JUMPDEST SWAP5 POP SWAP5 SWAP3 POP POP POP JUMP JUMPDEST PUSH0 DUP3 PUSH2 0x1422 JUMPI PUSH1 0x1 SWAP1 POP PUSH2 0x14DD JUMP JUMPDEST DUP2 PUSH2 0x142F JUMPI PUSH0 SWAP1 POP PUSH2 0x14DD JUMP JUMPDEST DUP2 PUSH1 0x1 DUP2 EQ PUSH2 0x1445 JUMPI PUSH1 0x2 DUP2 EQ PUSH2 0x144F JUMPI PUSH2 0x147E JUMP JUMPDEST PUSH1 0x1 SWAP2 POP POP PUSH2 0x14DD JUMP JUMPDEST PUSH1 0xFF DUP5 GT ISZERO PUSH2 0x1461 JUMPI PUSH2 0x1460 PUSH2 0x1388 JUMP JUMPDEST JUMPDEST DUP4 PUSH1 0x2 EXP SWAP2 POP DUP5 DUP3 GT ISZERO PUSH2 0x1478 JUMPI PUSH2 0x1477 PUSH2 0x1388 JUMP JUMPDEST JUMPDEST POP PUSH2 0x14DD JUMP JUMPDEST POP PUSH1 0x20 DUP4 LT PUSH2 0x133 DUP4 LT AND PUSH1 0x4E DUP5 LT PUSH1 0xB DUP5 LT AND OR ISZERO PUSH2 0x14B3 JUMPI DUP3 DUP3 EXP SWAP1 POP DUP4 DUP2 GT ISZERO PUSH2 0x14AE JUMPI PUSH2 0x14AD PUSH2 0x1388 JUMP JUMPDEST JUMPDEST PUSH2 0x14DD JUMP JUMPDEST PUSH2 0x14C0 DUP5 DUP5 DUP5 PUSH1 0x1 PUSH2 0x13C1 JUMP JUMPDEST SWAP3 POP SWAP1 POP DUP2 DUP5 DIV DUP2 GT ISZERO PUSH2 0x14D7 JUMPI PUSH2 0x14D6 PUSH2 0x1388 JUMP JUMPDEST JUMPDEST DUP2 DUP2 MUL SWAP1 POP JUMPDEST SWAP4 SWAP3 POP POP POP JUMP JUMPDEST PUSH0 PUSH2 0x14EE DUP3 PUSH2 0x1080 JUMP JUMPDEST SWAP2 POP PUSH2 0x14F9 DUP4 PUSH2 0x11C7 JUMP JUMPDEST SWAP3 POP PUSH2 0x1526 PUSH32 0xFFFFFFFFFFFFFFFFFFFFFFFFFFFFFFFFFFFFFFFFFFFFFFFFFFFFFFFFFFFFFFFF DUP5 DUP5 PUSH2 0x1413 JUMP JUMPDEST SWAP1 POP SWAP3 SWAP2 POP POP JUMP JUMPDEST PUSH0 PUSH2 0x1538 DUP3 PUSH2 0x1080 JUMP JUMPDEST SWAP2 POP PUSH2 0x1543 DUP4 PUSH2 0x1080 JUMP JUMPDEST SWAP3 POP DUP3 DUP3 MUL PUSH2 0x1551 DUP2 PUSH2 0x1080 JUMP JUMPDEST SWAP2 POP DUP3 DUP3 DIV DUP5 EQ DUP4 ISZERO OR PUSH2 0x1568 JUMPI PUSH2 0x1567 PUSH2 0x1388 JUMP JUMPDEST JUMPDEST POP SWAP3 SWAP2 POP POP JUMP JUMPDEST PUSH2 0x1578 DUP2 PUSH2 0x1045 JUMP JUMPDEST DUP3 MSTORE POP POP JUMP JUMPDEST PUSH0 PUSH1 0x60 DUP3 ADD SWAP1 POP PUSH2 0x1591 PUSH0 DUP4 ADD DUP7 PUSH2 0x156F JUMP JUMPDEST PUSH2 0x159E PUSH1 0x20 DUP4 ADD DUP6 PUSH2 0x1124 JUMP JUMPDEST PUSH2 0x15AB PUSH1 0x40 DUP4 ADD DUP5 PUSH2 0x1124 JUMP JUMPDEST SWAP5 SWAP4 POP POP POP POP JUMP JUMPDEST PUSH0 PUSH1 0x20 DUP3 ADD SWAP1 POP PUSH2 0x15C6 PUSH0 DUP4 ADD DUP5 PUSH2 0x156F JUMP JUMPDEST SWAP3 SWAP2 POP POP JUMP JUMPDEST PUSH0 PUSH1 0x40 DUP3 ADD SWAP1 POP PUSH2 0x15DF PUSH0 DUP4 ADD DUP6 PUSH2 0x1124 JUMP JUMPDEST PUSH2 0x15EC PUSH1 0x20 DUP4 ADD DUP5 PUSH2 0x1124 JUMP JUMPDEST SWAP4 SWAP3 POP POP POP JUMP JUMPDEST PUSH0 PUSH2 0x15FD DUP3 PUSH2 0x1080 JUMP JUMPDEST SWAP2 POP PUSH2 0x1608 DUP4 PUSH2 0x1080 JUMP JUMPDEST SWAP3 POP DUP3 DUP3 ADD SWAP1 POP DUP1 DUP3 GT ISZERO PUSH2 0x1620 JUMPI PUSH2 0x161F PUSH2 0x1388 JUMP JUMPDEST JUMPDEST SWAP3 SWAP2 POP POP JUMP INVALID LOG2 PUSH5 0x6970667358 0x22 SLT KECCAK256 PUSH29 0xD6BB098B4F789F5D177FA5D57BFE7526E5CFFD08562EBDC3C55C9AF680 DELEGATECALL XOR PUSH5 0x736F6C6343 STOP ADDMOD EQ STOP CALLER "
				},
				"gasEstimates": {
					"creation": {
						"codeDepositCost": "1144800",
						"executionCost": "infinite",
						"totalCost": "infinite"
					},
					"external": {
						"allowance(address,address)": "infinite",
						"approve(address,uint256)": "infinite",
						"balanceOf(address)": "2874",
						"blockReward()": "2493",
						"burn(uint256)": "infinite",
						"burnFrom(address,uint256)": "infinite",
						"cap()": "infinite",
						"decimals()": "405",
						"destroy()": "infinite",
						"name()": "infinite",
						"owner()": "2530",
						"setBlockReward(uint256)": "infinite",
						"symbol()": "infinite",
						"totalSupply()": "2522",
						"transfer(address,uint256)": "infinite",
						"transferFrom(address,address,uint256)": "infinite"
					},
					"internal": {
						"_mintMinerReward()": "infinite",
						"_update(address,address,uint256)": "infinite"
					}
				},
				"methodIdentifiers": {
					"allowance(address,address)": "dd62ed3e",
					"approve(address,uint256)": "095ea7b3",
					"balanceOf(address)": "70a08231",
					"blockReward()": "0ac168a1",
					"burn(uint256)": "42966c68",
					"burnFrom(address,uint256)": "79cc6790",
					"cap()": "355274ea",
					"decimals()": "313ce567",
					"destroy()": "83197ef0",
					"name()": "06fdde03",
					"owner()": "8da5cb5b",
					"setBlockReward(uint256)": "1a18e707",
					"symbol()": "95d89b41",
					"totalSupply()": "18160ddd",
					"transfer(address,uint256)": "a9059cbb",
					"transferFrom(address,address,uint256)": "23b872dd"
				}
			},
			"storageLayout": {
				"storage": [
					{
						"astId": 159,
						"contract": "contracts/Token.sol:TestTokenF",
						"label": "_balances",
						"offset": 0,
						"slot": "0",
						"type": "t_mapping(t_address,t_uint256)"
					},
					{
						"astId": 165,
						"contract": "contracts/Token.sol:TestTokenF",
						"label": "_allowances",
						"offset": 0,
						"slot": "1",
						"type": "t_mapping(t_address,t_mapping(t_address,t_uint256))"
					},
					{
						"astId": 167,
						"contract": "contracts/Token.sol:TestTokenF",
						"label": "_totalSupply",
						"offset": 0,
						"slot": "2",
						"type": "t_uint256"
					},
					{
						"astId": 169,
						"contract": "contracts/Token.sol:TestTokenF",
						"label": "_name",
						"offset": 0,
						"slot": "3",
						"type": "t_string_storage"
					},
					{
						"astId": 171,
						"contract": "contracts/Token.sol:TestTokenF",
						"label": "_symbol",
						"offset": 0,
						"slot": "4",
						"type": "t_string_storage"
					},
					{
						"astId": 933,
						"contract": "contracts/Token.sol:TestTokenF",
						"label": "owner",
						"offset": 0,
						"slot": "5",
						"type": "t_address_payable"
					},
					{
						"astId": 935,
						"contract": "contracts/Token.sol:TestTokenF",
						"label": "blockReward",
						"offset": 0,
						"slot": "6",
						"type": "t_uint256"
					}
				],
				"types": {
					"t_address": {
						"encoding": "inplace",
						"label": "address",
						"numberOfBytes": "20"
					},
					"t_address_payable": {
						"encoding": "inplace",
						"label": "address payable",
						"numberOfBytes": "20"
					},
					"t_mapping(t_address,t_mapping(t_address,t_uint256))": {
						"encoding": "mapping",
						"key": "t_address",
						"label": "mapping(address => mapping(address => uint256))",
						"numberOfBytes": "32",
						"value": "t_mapping(t_address,t_uint256)"
					},
					"t_mapping(t_address,t_uint256)": {
						"encoding": "mapping",
						"key": "t_address",
						"label": "mapping(address => uint256)",
						"numberOfBytes": "32",
						"value": "t_uint256"
					},
					"t_string_storage": {
						"encoding": "bytes",
						"label": "string",
						"numberOfBytes": "32"
					},
					"t_uint256": {
						"encoding": "inplace",
						"label": "uint256",
						"numberOfBytes": "32"
					}
				}
			},
			"userdoc": {
				"kind": "user",
				"methods": {},
				"version": 1
			}
		}
	}
}