{
	"contracts/Twitter.sol": {
		"Twitter": {
			"abi": [
				{
					"inputs": [],
					"stateMutability": "nonpayable",
					"type": "constructor"
				},
				{
					"inputs": [],
					"name": "MAX_TWEET_LENGTH",
					"outputs": [
						{
							"internalType": "uint16",
							"name": "",
							"type": "uint16"
						}
					],
					"stateMutability": "view",
					"type": "function"
				},
				{
					"inputs": [
						{
							"internalType": "uint16",
							"name": "newTweetLength",
							"type": "uint16"
						}
					],
					"name": "changeTweetLength",
					"outputs": [],
					"stateMutability": "nonpayable",
					"type": "function"
				},
				{
					"inputs": [
						{
							"internalType": "string",
							"name": "_tweet",
							"type": "string"
						}
					],
					"name": "createTweet",
					"outputs": [],
					"stateMutability": "nonpayable",
					"type": "function"
				},
				{
					"inputs": [
						{
							"internalType": "address",
							"name": "_owner",
							"type": "address"
						}
					],
					"name": "getAllTweets",
					"outputs": [
						{
							"components": [
								{
									"internalType": "address",
									"name": "author",
									"type": "address"
								},
								{
									"internalType": "string",
									"name": "content",
									"type": "string"
								},
								{
									"internalType": "uint256",
									"name": "timestamp",
									"type": "uint256"
								},
								{
									"internalType": "uint256",
									"name": "likes",
									"type": "uint256"
								},
								{
									"internalType": "uint256",
									"name": "id",
									"type": "uint256"
								}
							],
							"internalType": "struct Twitter.Tweet[]",
							"name": "",
							"type": "tuple[]"
						}
					],
					"stateMutability": "view",
					"type": "function"
				},
				{
					"inputs": [
						{
							"internalType": "uint256",
							"name": "_i",
							"type": "uint256"
						}
					],
					"name": "getTweet",
					"outputs": [
						{
							"components": [
								{
									"internalType": "address",
									"name": "author",
									"type": "address"
								},
								{
									"internalType": "string",
									"name": "content",
									"type": "string"
								},
								{
									"internalType": "uint256",
									"name": "timestamp",
									"type": "uint256"
								},
								{
									"internalType": "uint256",
									"name": "likes",
									"type": "uint256"
								},
								{
									"internalType": "uint256",
									"name": "id",
									"type": "uint256"
								}
							],
							"internalType": "struct Twitter.Tweet",
							"name": "",
							"type": "tuple"
						}
					],
					"stateMutability": "view",
					"type": "function"
				},
				{
					"inputs": [
						{
							"internalType": "uint256",
							"name": "_id",
							"type": "uint256"
						},
						{
							"internalType": "address",
							"name": "_author",
							"type": "address"
						}
					],
					"name": "likeTweet",
					"outputs": [],
					"stateMutability": "nonpayable",
					"type": "function"
				},
				{
					"inputs": [],
					"name": "owner",
					"outputs": [
						{
							"internalType": "address",
							"name": "",
							"type": "address"
						}
					],
					"stateMutability": "view",
					"type": "function"
				},
				{
					"inputs": [
						{
							"internalType": "address",
							"name": "",
							"type": "address"
						},
						{
							"internalType": "uint256",
							"name": "",
							"type": "uint256"
						}
					],
					"name": "tweets",
					"outputs": [
						{
							"internalType": "address",
							"name": "author",
							"type": "address"
						},
						{
							"internalType": "string",
							"name": "content",
							"type": "string"
						},
						{
							"internalType": "uint256",
							"name": "timestamp",
							"type": "uint256"
						},
						{
							"internalType": "uint256",
							"name": "likes",
							"type": "uint256"
						},
						{
							"internalType": "uint256",
							"name": "id",
							"type": "uint256"
						}
					],
					"stateMutability": "view",
					"type": "function"
				},
				{
					"inputs": [
						{
							"internalType": "uint256",
							"name": "_id",
							"type": "uint256"
						},
						{
							"internalType": "address",
							"name": "_author",
							"type": "address"
						}
					],
					"name": "unlikeTweet",
					"outputs": [],
					"stateMutability": "nonpayable",
					"type": "function"
				}
			],
			"devdoc": {
				"kind": "dev",
				"methods": {},
				"version": 1
			},
			"evm": {
				"assembly": "    /* \"contracts/Twitter.sol\":60:1715  contract Twitter {... */\n  mstore(0x40, 0x80)\n    /* \"contracts/Twitter.sol\":119:122  280 */\n  0x0118\n    /* \"contracts/Twitter.sol\":86:122  uint16 public MAX_TWEET_LENGTH = 280 */\n  0x00\n  dup1\n  0x0100\n  exp\n  dup2\n  sload\n  dup2\n  0xffff\n  mul\n  not\n  and\n  swap1\n  dup4\n  0xffff\n  and\n  mul\n  or\n  swap1\n  sstore\n  pop\n    /* \"contracts/Twitter.sol\":359:410  constructor() {... */\n  callvalue\n  dup1\n  iszero\n  tag_1\n  jumpi\n  0x00\n  dup1\n  revert\ntag_1:\n  pop\n    /* \"contracts/Twitter.sol\":392:402  msg.sender */\n  caller\n    /* \"contracts/Twitter.sol\":384:389  owner */\n  0x02\n  0x00\n    /* \"contracts/Twitter.sol\":384:402  owner = msg.sender */\n  0x0100\n  exp\n  dup2\n  sload\n  dup2\n  0xffffffffffffffffffffffffffffffffffffffff\n  mul\n  not\n  and\n  swap1\n  dup4\n  0xffffffffffffffffffffffffffffffffffffffff\n  and\n  mul\n  or\n  swap1\n  sstore\n  pop\n    /* \"contracts/Twitter.sol\":60:1715  contract Twitter {... */\n  dataSize(sub_0)\n  dup1\n  dataOffset(sub_0)\n  0x00\n  codecopy\n  0x00\n  return\nstop\n\nsub_0: assembly {\n        /* \"contracts/Twitter.sol\":60:1715  contract Twitter {... */\n      mstore(0x40, 0x80)\n      callvalue\n      dup1\n      iszero\n      tag_1\n      jumpi\n      0x00\n      dup1\n      revert\n    tag_1:\n      pop\n      jumpi(tag_2, lt(calldatasize, 0x04))\n      shr(0xe0, calldataload(0x00))\n      dup1\n      0x7c9cd2bc\n      gt\n      tag_12\n      jumpi\n      dup1\n      0x7c9cd2bc\n      eq\n      tag_7\n      jumpi\n      dup1\n      0x8da5cb5b\n      eq\n      tag_8\n      jumpi\n      dup1\n      0xa1488f7c\n      eq\n      tag_9\n      jumpi\n      dup1\n      0xc3ad5ecb\n      eq\n      tag_10\n      jumpi\n      dup1\n      0xd04ddaa0\n      eq\n      tag_11\n      jumpi\n      jump(tag_2)\n    tag_12:\n      dup1\n      0x05a1b4a9\n      eq\n      tag_3\n      jumpi\n      dup1\n      0x12e7ee1c\n      eq\n      tag_4\n      jumpi\n      dup1\n      0x58bfa4ab\n      eq\n      tag_5\n      jumpi\n      dup1\n      0x6eb10797\n      eq\n      tag_6\n      jumpi\n    tag_2:\n      0x00\n      dup1\n      revert\n        /* \"contracts/Twitter.sol\":281:323  mapping(address => Tweet[] ) public tweets */\n    tag_3:\n      tag_13\n      0x04\n      dup1\n      calldatasize\n      sub\n      dup2\n      add\n      swap1\n      tag_14\n      swap2\n      swap1\n      tag_15\n      jump\t// in\n    tag_14:\n      tag_16\n      jump\t// in\n    tag_13:\n      mload(0x40)\n      tag_17\n      swap6\n      swap5\n      swap4\n      swap3\n      swap2\n      swap1\n      tag_18\n      jump\t// in\n    tag_17:\n      mload(0x40)\n      dup1\n      swap2\n      sub\n      swap1\n      return\n        /* \"contracts/Twitter.sol\":1595:1710  function getAllTweets(address _owner) public view returns (Tweet[] memory ){... */\n    tag_4:\n      tag_19\n      0x04\n      dup1\n      calldatasize\n      sub\n      dup2\n      add\n      swap1\n      tag_20\n      swap2\n      swap1\n      tag_21\n      jump\t// in\n    tag_20:\n      tag_22\n      jump\t// in\n    tag_19:\n      mload(0x40)\n      tag_23\n      swap2\n      swap1\n      tag_24\n      jump\t// in\n    tag_23:\n      mload(0x40)\n      dup1\n      swap2\n      sub\n      swap1\n      return\n        /* \"contracts/Twitter.sol\":532:651  function changeTweetLength(uint16 newTweetLength) public onlyOwner {... */\n    tag_5:\n      tag_25\n      0x04\n      dup1\n      calldatasize\n      sub\n      dup2\n      add\n      swap1\n      tag_26\n      swap2\n      swap1\n      tag_27\n      jump\t// in\n    tag_26:\n      tag_28\n      jump\t// in\n    tag_25:\n      stop\n        /* \"contracts/Twitter.sol\":86:122  uint16 public MAX_TWEET_LENGTH = 280 */\n    tag_6:\n      tag_29\n      tag_30\n      jump\t// in\n    tag_29:\n      mload(0x40)\n      tag_31\n      swap2\n      swap1\n      tag_32\n      jump\t// in\n    tag_31:\n      mload(0x40)\n      dup1\n      swap2\n      sub\n      swap1\n      return\n        /* \"contracts/Twitter.sol\":659:1075  function createTweet(string memory _tweet) public {... */\n    tag_7:\n      tag_33\n      0x04\n      dup1\n      calldatasize\n      sub\n      dup2\n      add\n      swap1\n      tag_34\n      swap2\n      swap1\n      tag_35\n      jump\t// in\n    tag_34:\n      tag_36\n      jump\t// in\n    tag_33:\n      stop\n        /* \"contracts/Twitter.sol\":330:350  address public owner */\n    tag_8:\n      tag_37\n      tag_38\n      jump\t// in\n    tag_37:\n      mload(0x40)\n      tag_39\n      swap2\n      swap1\n      tag_40\n      jump\t// in\n    tag_39:\n      mload(0x40)\n      dup1\n      swap2\n      sub\n      swap1\n      return\n        /* \"contracts/Twitter.sol\":1248:1470  function unlikeTweet(uint _id,address _author) external{... */\n    tag_9:\n      tag_41\n      0x04\n      dup1\n      calldatasize\n      sub\n      dup2\n      add\n      swap1\n      tag_42\n      swap2\n      swap1\n      tag_43\n      jump\t// in\n    tag_42:\n      tag_44\n      jump\t// in\n    tag_41:\n      stop\n        /* \"contracts/Twitter.sol\":1476:1587  function getTweet( uint _i) public view returns (Tweet memory) {... */\n    tag_10:\n      tag_45\n      0x04\n      dup1\n      calldatasize\n      sub\n      dup2\n      add\n      swap1\n      tag_46\n      swap2\n      swap1\n      tag_47\n      jump\t// in\n    tag_46:\n      tag_48\n      jump\t// in\n    tag_45:\n      mload(0x40)\n      tag_49\n      swap2\n      swap1\n      tag_50\n      jump\t// in\n    tag_49:\n      mload(0x40)\n      dup1\n      swap2\n      sub\n      swap1\n      return\n        /* \"contracts/Twitter.sol\":1081:1242  function likeTweet(uint _id,address _author) external{... */\n    tag_11:\n      tag_51\n      0x04\n      dup1\n      calldatasize\n      sub\n      dup2\n      add\n      swap1\n      tag_52\n      swap2\n      swap1\n      tag_43\n      jump\t// in\n    tag_52:\n      tag_53\n      jump\t// in\n    tag_51:\n      stop\n        /* \"contracts/Twitter.sol\":281:323  mapping(address => Tweet[] ) public tweets */\n    tag_16:\n      mstore(0x20, 0x01)\n      dup2\n      0x00\n      mstore\n      keccak256(0x00, 0x40)\n      dup2\n      dup2\n      sload\n      dup2\n      lt\n      tag_54\n      jumpi\n      0x00\n      dup1\n      revert\n    tag_54:\n      swap1\n      0x00\n      mstore\n      keccak256(0x00, 0x20)\n      swap1\n      0x05\n      mul\n      add\n      0x00\n      swap2\n      pop\n      swap2\n      pop\n      pop\n      dup1\n      0x00\n      add\n      0x00\n      swap1\n      sload\n      swap1\n      0x0100\n      exp\n      swap1\n      div\n      0xffffffffffffffffffffffffffffffffffffffff\n      and\n      swap1\n      dup1\n      0x01\n      add\n      dup1\n      sload\n      tag_56\n      swap1\n      tag_57\n      jump\t// in\n    tag_56:\n      dup1\n      0x1f\n      add\n      0x20\n      dup1\n      swap2\n      div\n      mul\n      0x20\n      add\n      mload(0x40)\n      swap1\n      dup2\n      add\n      0x40\n      mstore\n      dup1\n      swap3\n      swap2\n      swap1\n      dup2\n      dup2\n      mstore\n      0x20\n      add\n      dup3\n      dup1\n      sload\n      tag_58\n      swap1\n      tag_57\n      jump\t// in\n    tag_58:\n      dup1\n      iszero\n      tag_59\n      jumpi\n      dup1\n      0x1f\n      lt\n      tag_60\n      jumpi\n      0x0100\n      dup1\n      dup4\n      sload\n      div\n      mul\n      dup4\n      mstore\n      swap2\n      0x20\n      add\n      swap2\n      jump(tag_59)\n    tag_60:\n      dup3\n      add\n      swap2\n      swap1\n      0x00\n      mstore\n      keccak256(0x00, 0x20)\n      swap1\n    tag_61:\n      dup2\n      sload\n      dup2\n      mstore\n      swap1\n      0x01\n      add\n      swap1\n      0x20\n      add\n      dup1\n      dup4\n      gt\n      tag_61\n      jumpi\n      dup3\n      swap1\n      sub\n      0x1f\n      and\n      dup3\n      add\n      swap2\n    tag_59:\n      pop\n      pop\n      pop\n      pop\n      pop\n      swap1\n      dup1\n      0x02\n      add\n      sload\n      swap1\n      dup1\n      0x03\n      add\n      sload\n      swap1\n      dup1\n      0x04\n      add\n      sload\n      swap1\n      pop\n      dup6\n      jump\t// out\n        /* \"contracts/Twitter.sol\":1595:1710  function getAllTweets(address _owner) public view returns (Tweet[] memory ){... */\n    tag_22:\n        /* \"contracts/Twitter.sol\":1654:1668  Tweet[] memory */\n      0x60\n        /* \"contracts/Twitter.sol\":1688:1694  tweets */\n      0x01\n        /* \"contracts/Twitter.sol\":1688:1702  tweets[_owner] */\n      0x00\n        /* \"contracts/Twitter.sol\":1695:1701  _owner */\n      dup4\n        /* \"contracts/Twitter.sol\":1688:1702  tweets[_owner] */\n      0xffffffffffffffffffffffffffffffffffffffff\n      and\n      0xffffffffffffffffffffffffffffffffffffffff\n      and\n      dup2\n      mstore\n      0x20\n      add\n      swap1\n      dup2\n      mstore\n      0x20\n      add\n      0x00\n      keccak256\n        /* \"contracts/Twitter.sol\":1681:1702  return tweets[_owner] */\n      dup1\n      sload\n      dup1\n      0x20\n      mul\n      0x20\n      add\n      mload(0x40)\n      swap1\n      dup2\n      add\n      0x40\n      mstore\n      dup1\n      swap3\n      swap2\n      swap1\n      dup2\n      dup2\n      mstore\n      0x20\n      add\n      0x00\n      swap1\n    tag_63:\n      dup3\n      dup3\n      lt\n      iszero\n      tag_64\n      jumpi\n      dup4\n      dup3\n      swap1\n      0x00\n      mstore\n      keccak256(0x00, 0x20)\n      swap1\n      0x05\n      mul\n      add\n      mload(0x40)\n      dup1\n      0xa0\n      add\n      0x40\n      mstore\n      swap1\n      dup2\n      0x00\n      dup3\n      add\n      0x00\n      swap1\n      sload\n      swap1\n      0x0100\n      exp\n      swap1\n      div\n      0xffffffffffffffffffffffffffffffffffffffff\n      and\n      0xffffffffffffffffffffffffffffffffffffffff\n      and\n      0xffffffffffffffffffffffffffffffffffffffff\n      and\n      dup2\n      mstore\n      0x20\n      add\n      0x01\n      dup3\n      add\n      dup1\n      sload\n      tag_66\n      swap1\n      tag_57\n      jump\t// in\n    tag_66:\n      dup1\n      0x1f\n      add\n      0x20\n      dup1\n      swap2\n      div\n      mul\n      0x20\n      add\n      mload(0x40)\n      swap1\n      dup2\n      add\n      0x40\n      mstore\n      dup1\n      swap3\n      swap2\n      swap1\n      dup2\n      dup2\n      mstore\n      0x20\n      add\n      dup3\n      dup1\n      sload\n      tag_67\n      swap1\n      tag_57\n      jump\t// in\n    tag_67:\n      dup1\n      iszero\n      tag_68\n      jumpi\n      dup1\n      0x1f\n      lt\n      tag_69\n      jumpi\n      0x0100\n      dup1\n      dup4\n      sload\n      div\n      mul\n      dup4\n      mstore\n      swap2\n      0x20\n      add\n      swap2\n      jump(tag_68)\n    tag_69:\n      dup3\n      add\n      swap2\n      swap1\n      0x00\n      mstore\n      keccak256(0x00, 0x20)\n      swap1\n    tag_70:\n      dup2\n      sload\n      dup2\n      mstore\n      swap1\n      0x01\n      add\n      swap1\n      0x20\n      add\n      dup1\n      dup4\n      gt\n      tag_70\n      jumpi\n      dup3\n      swap1\n      sub\n      0x1f\n      and\n      dup3\n      add\n      swap2\n    tag_68:\n      pop\n      pop\n      pop\n      pop\n      pop\n      dup2\n      mstore\n      0x20\n      add\n      0x02\n      dup3\n      add\n      sload\n      dup2\n      mstore\n      0x20\n      add\n      0x03\n      dup3\n      add\n      sload\n      dup2\n      mstore\n      0x20\n      add\n      0x04\n      dup3\n      add\n      sload\n      dup2\n      mstore\n      pop\n      pop\n      dup2\n      mstore\n      0x20\n      add\n      swap1\n      0x01\n      add\n      swap1\n      jump(tag_63)\n    tag_64:\n      pop\n      pop\n      pop\n      pop\n      swap1\n      pop\n        /* \"contracts/Twitter.sol\":1595:1710  function getAllTweets(address _owner) public view returns (Tweet[] memory ){... */\n      swap2\n      swap1\n      pop\n      jump\t// out\n        /* \"contracts/Twitter.sol\":532:651  function changeTweetLength(uint16 newTweetLength) public onlyOwner {... */\n    tag_28:\n        /* \"contracts/Twitter.sol\":472:477  owner */\n      0x02\n      0x00\n      swap1\n      sload\n      swap1\n      0x0100\n      exp\n      swap1\n      div\n      0xffffffffffffffffffffffffffffffffffffffff\n      and\n        /* \"contracts/Twitter.sol\":458:477  msg.sender == owner */\n      0xffffffffffffffffffffffffffffffffffffffff\n      and\n        /* \"contracts/Twitter.sol\":458:468  msg.sender */\n      caller\n        /* \"contracts/Twitter.sol\":458:477  msg.sender == owner */\n      0xffffffffffffffffffffffffffffffffffffffff\n      and\n      eq\n        /* \"contracts/Twitter.sol\":450:504  require(msg.sender == owner, \"YOU ARE NOT THE OWNER!\") */\n      tag_72\n      jumpi\n      mload(0x40)\n      0x08c379a000000000000000000000000000000000000000000000000000000000\n      dup2\n      mstore\n      0x04\n      add\n      tag_73\n      swap1\n      tag_74\n      jump\t// in\n    tag_73:\n      mload(0x40)\n      dup1\n      swap2\n      sub\n      swap1\n      revert\n    tag_72:\n        /* \"contracts/Twitter.sol\":629:643  newTweetLength */\n      dup1\n        /* \"contracts/Twitter.sol\":610:626  MAX_TWEET_LENGTH */\n      0x00\n      dup1\n        /* \"contracts/Twitter.sol\":610:643  MAX_TWEET_LENGTH = newTweetLength */\n      0x0100\n      exp\n      dup2\n      sload\n      dup2\n      0xffff\n      mul\n      not\n      and\n      swap1\n      dup4\n      0xffff\n      and\n      mul\n      or\n      swap1\n      sstore\n      pop\n        /* \"contracts/Twitter.sol\":532:651  function changeTweetLength(uint16 newTweetLength) public onlyOwner {... */\n      pop\n      jump\t// out\n        /* \"contracts/Twitter.sol\":86:122  uint16 public MAX_TWEET_LENGTH = 280 */\n    tag_30:\n      0x00\n      dup1\n      sload\n      swap1\n      0x0100\n      exp\n      swap1\n      div\n      0xffff\n      and\n      dup2\n      jump\t// out\n        /* \"contracts/Twitter.sol\":659:1075  function createTweet(string memory _tweet) public {... */\n    tag_36:\n        /* \"contracts/Twitter.sol\":752:768  MAX_TWEET_LENGTH */\n      0x00\n      dup1\n      sload\n      swap1\n      0x0100\n      exp\n      swap1\n      div\n      0xffff\n      and\n        /* \"contracts/Twitter.sol\":728:768  bytes(_tweet).length <= MAX_TWEET_LENGTH */\n      0xffff\n      and\n        /* \"contracts/Twitter.sol\":734:740  _tweet */\n      dup2\n        /* \"contracts/Twitter.sol\":728:748  bytes(_tweet).length */\n      mload\n        /* \"contracts/Twitter.sol\":728:768  bytes(_tweet).length <= MAX_TWEET_LENGTH */\n      gt\n      iszero\n        /* \"contracts/Twitter.sol\":720:796  require(bytes(_tweet).length <= MAX_TWEET_LENGTH, \"Tweet is too long bro!\" ) */\n      tag_77\n      jumpi\n      mload(0x40)\n      0x08c379a000000000000000000000000000000000000000000000000000000000\n      dup2\n      mstore\n      0x04\n      add\n      tag_78\n      swap1\n      tag_79\n      jump\t// in\n    tag_78:\n      mload(0x40)\n      dup1\n      swap2\n      sub\n      swap1\n      revert\n    tag_77:\n        /* \"contracts/Twitter.sol\":809:830  Tweet memory newTweet */\n      0x00\n        /* \"contracts/Twitter.sol\":833:1021  Tweet({... */\n      mload(0x40)\n      dup1\n      0xa0\n      add\n      0x40\n      mstore\n      dup1\n        /* \"contracts/Twitter.sol\":905:915  msg.sender */\n      caller\n        /* \"contracts/Twitter.sol\":833:1021  Tweet({... */\n      0xffffffffffffffffffffffffffffffffffffffff\n      and\n      dup2\n      mstore\n      0x20\n      add\n        /* \"contracts/Twitter.sol\":939:945  _tweet */\n      dup4\n        /* \"contracts/Twitter.sol\":833:1021  Tweet({... */\n      dup2\n      mstore\n      0x20\n      add\n        /* \"contracts/Twitter.sol\":971:986  block.timestamp */\n      timestamp\n        /* \"contracts/Twitter.sol\":833:1021  Tweet({... */\n      dup2\n      mstore\n      0x20\n      add\n        /* \"contracts/Twitter.sol\":1008:1009  0 */\n      0x00\n        /* \"contracts/Twitter.sol\":833:1021  Tweet({... */\n      dup2\n      mstore\n      0x20\n      add\n        /* \"contracts/Twitter.sol\":857:863  tweets */\n      0x01\n        /* \"contracts/Twitter.sol\":857:875  tweets[msg.sender] */\n      0x00\n        /* \"contracts/Twitter.sol\":864:874  msg.sender */\n      caller\n        /* \"contracts/Twitter.sol\":857:875  tweets[msg.sender] */\n      0xffffffffffffffffffffffffffffffffffffffff\n      and\n      0xffffffffffffffffffffffffffffffffffffffff\n      and\n      dup2\n      mstore\n      0x20\n      add\n      swap1\n      dup2\n      mstore\n      0x20\n      add\n      0x00\n      keccak256\n        /* \"contracts/Twitter.sol\":857:882  tweets[msg.sender].length */\n      dup1\n      sload\n      swap1\n      pop\n        /* \"contracts/Twitter.sol\":833:1021  Tweet({... */\n      dup2\n      mstore\n      pop\n        /* \"contracts/Twitter.sol\":809:1021  Tweet memory newTweet = Tweet({... */\n      swap1\n      pop\n        /* \"contracts/Twitter.sol\":1034:1040  tweets */\n      0x01\n        /* \"contracts/Twitter.sol\":1034:1052  tweets[msg.sender] */\n      0x00\n        /* \"contracts/Twitter.sol\":1041:1051  msg.sender */\n      caller\n        /* \"contracts/Twitter.sol\":1034:1052  tweets[msg.sender] */\n      0xffffffffffffffffffffffffffffffffffffffff\n      and\n      0xffffffffffffffffffffffffffffffffffffffff\n      and\n      dup2\n      mstore\n      0x20\n      add\n      swap1\n      dup2\n      mstore\n      0x20\n      add\n      0x00\n      keccak256\n        /* \"contracts/Twitter.sol\":1058:1066  newTweet */\n      dup2\n        /* \"contracts/Twitter.sol\":1034:1067  tweets[msg.sender].push(newTweet) */\n      swap1\n      dup1\n      0x01\n      dup2\n      sload\n      add\n      dup1\n      dup3\n      sstore\n      dup1\n      swap2\n      pop\n      pop\n      0x01\n      swap1\n      sub\n      swap1\n      0x00\n      mstore\n      keccak256(0x00, 0x20)\n      swap1\n      0x05\n      mul\n      add\n      0x00\n      swap1\n      swap2\n      swap1\n      swap2\n      swap1\n      swap2\n      pop\n      0x00\n      dup3\n      add\n      mload\n      dup2\n      0x00\n      add\n      exp(0x0100, 0x00)\n      dup2\n      sload\n      dup2\n      0xffffffffffffffffffffffffffffffffffffffff\n      mul\n      not\n      and\n      swap1\n      dup4\n      0xffffffffffffffffffffffffffffffffffffffff\n      and\n      mul\n      or\n      swap1\n      sstore\n      pop\n      0x20\n      dup3\n      add\n      mload\n      dup2\n      0x01\n      add\n      swap1\n      dup2\n      tag_81\n      swap2\n      swap1\n      tag_82\n      jump\t// in\n    tag_81:\n      pop\n      0x40\n      dup3\n      add\n      mload\n      dup2\n      0x02\n      add\n      sstore\n      0x60\n      dup3\n      add\n      mload\n      dup2\n      0x03\n      add\n      sstore\n      0x80\n      dup3\n      add\n      mload\n      dup2\n      0x04\n      add\n      sstore\n      pop\n      pop\n        /* \"contracts/Twitter.sol\":709:1075  {... */\n      pop\n        /* \"contracts/Twitter.sol\":659:1075  function createTweet(string memory _tweet) public {... */\n      pop\n      jump\t// out\n        /* \"contracts/Twitter.sol\":330:350  address public owner */\n    tag_38:\n      0x02\n      0x00\n      swap1\n      sload\n      swap1\n      0x0100\n      exp\n      swap1\n      div\n      0xffffffffffffffffffffffffffffffffffffffff\n      and\n      dup2\n      jump\t// out\n        /* \"contracts/Twitter.sol\":1248:1470  function unlikeTweet(uint _id,address _author) external{... */\n    tag_44:\n        /* \"contracts/Twitter.sol\":1347:1350  _id */\n      dup2\n        /* \"contracts/Twitter.sol\":1322:1328  tweets */\n      0x01\n        /* \"contracts/Twitter.sol\":1322:1337  tweets[_author] */\n      0x00\n        /* \"contracts/Twitter.sol\":1329:1336  _author */\n      dup4\n        /* \"contracts/Twitter.sol\":1322:1337  tweets[_author] */\n      0xffffffffffffffffffffffffffffffffffffffff\n      and\n      0xffffffffffffffffffffffffffffffffffffffff\n      and\n      dup2\n      mstore\n      0x20\n      add\n      swap1\n      dup2\n      mstore\n      0x20\n      add\n      0x00\n      keccak256\n        /* \"contracts/Twitter.sol\":1338:1341  _id */\n      dup4\n        /* \"contracts/Twitter.sol\":1322:1342  tweets[_author][_id] */\n      dup2\n      sload\n      dup2\n      lt\n      tag_84\n      jumpi\n      tag_85\n      tag_86\n      jump\t// in\n    tag_85:\n    tag_84:\n      swap1\n      0x00\n      mstore\n      keccak256(0x00, 0x20)\n      swap1\n      0x05\n      mul\n      add\n        /* \"contracts/Twitter.sol\":1322:1345  tweets[_author][_id].id */\n      0x04\n      add\n      sload\n        /* \"contracts/Twitter.sol\":1322:1350  tweets[_author][_id].id==_id */\n      eq\n        /* \"contracts/Twitter.sol\":1314:1364  require(tweets[_author][_id].id==_id,\"Not Exisit\") */\n      tag_88\n      jumpi\n      mload(0x40)\n      0x08c379a000000000000000000000000000000000000000000000000000000000\n      dup2\n      mstore\n      0x04\n      add\n      tag_89\n      swap1\n      tag_90\n      jump\t// in\n    tag_89:\n      mload(0x40)\n      dup1\n      swap2\n      sub\n      swap1\n      revert\n    tag_88:\n        /* \"contracts/Twitter.sol\":1410:1411  0 */\n      0x00\n        /* \"contracts/Twitter.sol\":1383:1389  tweets */\n      0x01\n        /* \"contracts/Twitter.sol\":1383:1398  tweets[_author] */\n      0x00\n        /* \"contracts/Twitter.sol\":1390:1397  _author */\n      dup4\n        /* \"contracts/Twitter.sol\":1383:1398  tweets[_author] */\n      0xffffffffffffffffffffffffffffffffffffffff\n      and\n      0xffffffffffffffffffffffffffffffffffffffff\n      and\n      dup2\n      mstore\n      0x20\n      add\n      swap1\n      dup2\n      mstore\n      0x20\n      add\n      0x00\n      keccak256\n        /* \"contracts/Twitter.sol\":1399:1402  _id */\n      dup4\n        /* \"contracts/Twitter.sol\":1383:1403  tweets[_author][_id] */\n      dup2\n      sload\n      dup2\n      lt\n      tag_91\n      jumpi\n      tag_92\n      tag_86\n      jump\t// in\n    tag_92:\n    tag_91:\n      swap1\n      0x00\n      mstore\n      keccak256(0x00, 0x20)\n      swap1\n      0x05\n      mul\n      add\n        /* \"contracts/Twitter.sol\":1383:1409  tweets[_author][_id].likes */\n      0x03\n      add\n      sload\n        /* \"contracts/Twitter.sol\":1383:1411  tweets[_author][_id].likes>0 */\n      gt\n        /* \"contracts/Twitter.sol\":1375:1423  require(tweets[_author][_id].likes>0,\"No likes\") */\n      tag_94\n      jumpi\n      mload(0x40)\n      0x08c379a000000000000000000000000000000000000000000000000000000000\n      dup2\n      mstore\n      0x04\n      add\n      tag_95\n      swap1\n      tag_96\n      jump\t// in\n    tag_95:\n      mload(0x40)\n      dup1\n      swap2\n      sub\n      swap1\n      revert\n    tag_94:\n        /* \"contracts/Twitter.sol\":1434:1440  tweets */\n      0x01\n        /* \"contracts/Twitter.sol\":1434:1449  tweets[_author] */\n      0x00\n        /* \"contracts/Twitter.sol\":1441:1448  _author */\n      dup3\n        /* \"contracts/Twitter.sol\":1434:1449  tweets[_author] */\n      0xffffffffffffffffffffffffffffffffffffffff\n      and\n      0xffffffffffffffffffffffffffffffffffffffff\n      and\n      dup2\n      mstore\n      0x20\n      add\n      swap1\n      dup2\n      mstore\n      0x20\n      add\n      0x00\n      keccak256\n        /* \"contracts/Twitter.sol\":1450:1453  _id */\n      dup3\n        /* \"contracts/Twitter.sol\":1434:1454  tweets[_author][_id] */\n      dup2\n      sload\n      dup2\n      lt\n      tag_97\n      jumpi\n      tag_98\n      tag_86\n      jump\t// in\n    tag_98:\n    tag_97:\n      swap1\n      0x00\n      mstore\n      keccak256(0x00, 0x20)\n      swap1\n      0x05\n      mul\n      add\n        /* \"contracts/Twitter.sol\":1434:1460  tweets[_author][_id].likes */\n      0x03\n      add\n      0x00\n        /* \"contracts/Twitter.sol\":1434:1462  tweets[_author][_id].likes-- */\n      dup2\n      sload\n      dup1\n      swap3\n      swap2\n      swap1\n      tag_100\n      swap1\n      tag_101\n      jump\t// in\n    tag_100:\n      swap2\n      swap1\n      pop\n      sstore\n      pop\n        /* \"contracts/Twitter.sol\":1248:1470  function unlikeTweet(uint _id,address _author) external{... */\n      pop\n      pop\n      jump\t// out\n        /* \"contracts/Twitter.sol\":1476:1587  function getTweet( uint _i) public view returns (Tweet memory) {... */\n    tag_48:\n        /* \"contracts/Twitter.sol\":1525:1537  Tweet memory */\n      tag_102\n      tag_103\n      jump\t// in\n    tag_102:\n        /* \"contracts/Twitter.sol\":1557:1563  tweets */\n      0x01\n        /* \"contracts/Twitter.sol\":1557:1575  tweets[msg.sender] */\n      0x00\n        /* \"contracts/Twitter.sol\":1564:1574  msg.sender */\n      caller\n        /* \"contracts/Twitter.sol\":1557:1575  tweets[msg.sender] */\n      0xffffffffffffffffffffffffffffffffffffffff\n      and\n      0xffffffffffffffffffffffffffffffffffffffff\n      and\n      dup2\n      mstore\n      0x20\n      add\n      swap1\n      dup2\n      mstore\n      0x20\n      add\n      0x00\n      keccak256\n        /* \"contracts/Twitter.sol\":1576:1578  _i */\n      dup3\n        /* \"contracts/Twitter.sol\":1557:1579  tweets[msg.sender][_i] */\n      dup2\n      sload\n      dup2\n      lt\n      tag_105\n      jumpi\n      tag_106\n      tag_86\n      jump\t// in\n    tag_106:\n    tag_105:\n      swap1\n      0x00\n      mstore\n      keccak256(0x00, 0x20)\n      swap1\n      0x05\n      mul\n      add\n        /* \"contracts/Twitter.sol\":1550:1579  return tweets[msg.sender][_i] */\n      mload(0x40)\n      dup1\n      0xa0\n      add\n      0x40\n      mstore\n      swap1\n      dup2\n      0x00\n      dup3\n      add\n      0x00\n      swap1\n      sload\n      swap1\n      0x0100\n      exp\n      swap1\n      div\n      0xffffffffffffffffffffffffffffffffffffffff\n      and\n      0xffffffffffffffffffffffffffffffffffffffff\n      and\n      0xffffffffffffffffffffffffffffffffffffffff\n      and\n      dup2\n      mstore\n      0x20\n      add\n      0x01\n      dup3\n      add\n      dup1\n      sload\n      tag_108\n      swap1\n      tag_57\n      jump\t// in\n    tag_108:\n      dup1\n      0x1f\n      add\n      0x20\n      dup1\n      swap2\n      div\n      mul\n      0x20\n      add\n      mload(0x40)\n      swap1\n      dup2\n      add\n      0x40\n      mstore\n      dup1\n      swap3\n      swap2\n      swap1\n      dup2\n      dup2\n      mstore\n      0x20\n      add\n      dup3\n      dup1\n      sload\n      tag_109\n      swap1\n      tag_57\n      jump\t// in\n    tag_109:\n      dup1\n      iszero\n      tag_110\n      jumpi\n      dup1\n      0x1f\n      lt\n      tag_111\n      jumpi\n      0x0100\n      dup1\n      dup4\n      sload\n      div\n      mul\n      dup4\n      mstore\n      swap2\n      0x20\n      add\n      swap2\n      jump(tag_110)\n    tag_111:\n      dup3\n      add\n      swap2\n      swap1\n      0x00\n      mstore\n      keccak256(0x00, 0x20)\n      swap1\n    tag_112:\n      dup2\n      sload\n      dup2\n      mstore\n      swap1\n      0x01\n      add\n      swap1\n      0x20\n      add\n      dup1\n      dup4\n      gt\n      tag_112\n      jumpi\n      dup3\n      swap1\n      sub\n      0x1f\n      and\n      dup3\n      add\n      swap2\n    tag_110:\n      pop\n      pop\n      pop\n      pop\n      pop\n      dup2\n      mstore\n      0x20\n      add\n      0x02\n      dup3\n      add\n      sload\n      dup2\n      mstore\n      0x20\n      add\n      0x03\n      dup3\n      add\n      sload\n      dup2\n      mstore\n      0x20\n      add\n      0x04\n      dup3\n      add\n      sload\n      dup2\n      mstore\n      pop\n      pop\n      swap1\n      pop\n        /* \"contracts/Twitter.sol\":1476:1587  function getTweet( uint _i) public view returns (Tweet memory) {... */\n      swap2\n      swap1\n      pop\n      jump\t// out\n        /* \"contracts/Twitter.sol\":1081:1242  function likeTweet(uint _id,address _author) external{... */\n    tag_53:\n        /* \"contracts/Twitter.sol\":1178:1181  _id */\n      dup2\n        /* \"contracts/Twitter.sol\":1153:1159  tweets */\n      0x01\n        /* \"contracts/Twitter.sol\":1153:1168  tweets[_author] */\n      0x00\n        /* \"contracts/Twitter.sol\":1160:1167  _author */\n      dup4\n        /* \"contracts/Twitter.sol\":1153:1168  tweets[_author] */\n      0xffffffffffffffffffffffffffffffffffffffff\n      and\n      0xffffffffffffffffffffffffffffffffffffffff\n      and\n      dup2\n      mstore\n      0x20\n      add\n      swap1\n      dup2\n      mstore\n      0x20\n      add\n      0x00\n      keccak256\n        /* \"contracts/Twitter.sol\":1169:1172  _id */\n      dup4\n        /* \"contracts/Twitter.sol\":1153:1173  tweets[_author][_id] */\n      dup2\n      sload\n      dup2\n      lt\n      tag_114\n      jumpi\n      tag_115\n      tag_86\n      jump\t// in\n    tag_115:\n    tag_114:\n      swap1\n      0x00\n      mstore\n      keccak256(0x00, 0x20)\n      swap1\n      0x05\n      mul\n      add\n        /* \"contracts/Twitter.sol\":1153:1176  tweets[_author][_id].id */\n      0x04\n      add\n      sload\n        /* \"contracts/Twitter.sol\":1153:1181  tweets[_author][_id].id==_id */\n      eq\n        /* \"contracts/Twitter.sol\":1145:1195  require(tweets[_author][_id].id==_id,\"Not Exisit\") */\n      tag_117\n      jumpi\n      mload(0x40)\n      0x08c379a000000000000000000000000000000000000000000000000000000000\n      dup2\n      mstore\n      0x04\n      add\n      tag_118\n      swap1\n      tag_90\n      jump\t// in\n    tag_118:\n      mload(0x40)\n      dup1\n      swap2\n      sub\n      swap1\n      revert\n    tag_117:\n        /* \"contracts/Twitter.sol\":1206:1212  tweets */\n      0x01\n        /* \"contracts/Twitter.sol\":1206:1221  tweets[_author] */\n      0x00\n        /* \"contracts/Twitter.sol\":1213:1220  _author */\n      dup3\n        /* \"contracts/Twitter.sol\":1206:1221  tweets[_author] */\n      0xffffffffffffffffffffffffffffffffffffffff\n      and\n      0xffffffffffffffffffffffffffffffffffffffff\n      and\n      dup2\n      mstore\n      0x20\n      add\n      swap1\n      dup2\n      mstore\n      0x20\n      add\n      0x00\n      keccak256\n        /* \"contracts/Twitter.sol\":1222:1225  _id */\n      dup3\n        /* \"contracts/Twitter.sol\":1206:1226  tweets[_author][_id] */\n      dup2\n      sload\n      dup2\n      lt\n      tag_119\n      jumpi\n      tag_120\n      tag_86\n      jump\t// in\n    tag_120:\n    tag_119:\n      swap1\n      0x00\n      mstore\n      keccak256(0x00, 0x20)\n      swap1\n      0x05\n      mul\n      add\n        /* \"contracts/Twitter.sol\":1206:1232  tweets[_author][_id].likes */\n      0x03\n      add\n      0x00\n        /* \"contracts/Twitter.sol\":1206:1234  tweets[_author][_id].likes++ */\n      dup2\n      sload\n      dup1\n      swap3\n      swap2\n      swap1\n      tag_122\n      swap1\n      tag_123\n      jump\t// in\n    tag_122:\n      swap2\n      swap1\n      pop\n      sstore\n      pop\n        /* \"contracts/Twitter.sol\":1081:1242  function likeTweet(uint _id,address _author) external{... */\n      pop\n      pop\n      jump\t// out\n    tag_103:\n      mload(0x40)\n      dup1\n      0xa0\n      add\n      0x40\n      mstore\n      dup1\n      and(0xffffffffffffffffffffffffffffffffffffffff, 0x00)\n      dup2\n      mstore\n      0x20\n      add\n      0x60\n      dup2\n      mstore\n      0x20\n      add\n      0x00\n      dup2\n      mstore\n      0x20\n      add\n      0x00\n      dup2\n      mstore\n      0x20\n      add\n      0x00\n      dup2\n      mstore\n      pop\n      swap1\n      jump\t// out\n        /* \"#utility.yul\":7:82   */\n    tag_124:\n        /* \"#utility.yul\":40:46   */\n      0x00\n        /* \"#utility.yul\":73:75   */\n      0x40\n        /* \"#utility.yul\":67:76   */\n      mload\n        /* \"#utility.yul\":57:76   */\n      swap1\n      pop\n        /* \"#utility.yul\":7:82   */\n      swap1\n      jump\t// out\n        /* \"#utility.yul\":88:205   */\n    tag_125:\n        /* \"#utility.yul\":197:198   */\n      0x00\n        /* \"#utility.yul\":194:195   */\n      dup1\n        /* \"#utility.yul\":187:199   */\n      revert\n        /* \"#utility.yul\":211:328   */\n    tag_126:\n        /* \"#utility.yul\":320:321   */\n      0x00\n        /* \"#utility.yul\":317:318   */\n      dup1\n        /* \"#utility.yul\":310:322   */\n      revert\n        /* \"#utility.yul\":334:460   */\n    tag_127:\n        /* \"#utility.yul\":371:378   */\n      0x00\n        /* \"#utility.yul\":411:453   */\n      0xffffffffffffffffffffffffffffffffffffffff\n        /* \"#utility.yul\":404:409   */\n      dup3\n        /* \"#utility.yul\":400:454   */\n      and\n        /* \"#utility.yul\":389:454   */\n      swap1\n      pop\n        /* \"#utility.yul\":334:460   */\n      swap2\n      swap1\n      pop\n      jump\t// out\n        /* \"#utility.yul\":466:562   */\n    tag_128:\n        /* \"#utility.yul\":503:510   */\n      0x00\n        /* \"#utility.yul\":532:556   */\n      tag_197\n        /* \"#utility.yul\":550:555   */\n      dup3\n        /* \"#utility.yul\":532:556   */\n      tag_127\n      jump\t// in\n    tag_197:\n        /* \"#utility.yul\":521:556   */\n      swap1\n      pop\n        /* \"#utility.yul\":466:562   */\n      swap2\n      swap1\n      pop\n      jump\t// out\n        /* \"#utility.yul\":568:690   */\n    tag_129:\n        /* \"#utility.yul\":641:665   */\n      tag_199\n        /* \"#utility.yul\":659:664   */\n      dup2\n        /* \"#utility.yul\":641:665   */\n      tag_128\n      jump\t// in\n    tag_199:\n        /* \"#utility.yul\":634:639   */\n      dup2\n        /* \"#utility.yul\":631:666   */\n      eq\n        /* \"#utility.yul\":621:684   */\n      tag_200\n      jumpi\n        /* \"#utility.yul\":680:681   */\n      0x00\n        /* \"#utility.yul\":677:678   */\n      dup1\n        /* \"#utility.yul\":670:682   */\n      revert\n        /* \"#utility.yul\":621:684   */\n    tag_200:\n        /* \"#utility.yul\":568:690   */\n      pop\n      jump\t// out\n        /* \"#utility.yul\":696:835   */\n    tag_130:\n        /* \"#utility.yul\":742:747   */\n      0x00\n        /* \"#utility.yul\":780:786   */\n      dup2\n        /* \"#utility.yul\":767:787   */\n      calldataload\n        /* \"#utility.yul\":758:787   */\n      swap1\n      pop\n        /* \"#utility.yul\":796:829   */\n      tag_202\n        /* \"#utility.yul\":823:828   */\n      dup2\n        /* \"#utility.yul\":796:829   */\n      tag_129\n      jump\t// in\n    tag_202:\n        /* \"#utility.yul\":696:835   */\n      swap3\n      swap2\n      pop\n      pop\n      jump\t// out\n        /* \"#utility.yul\":841:918   */\n    tag_131:\n        /* \"#utility.yul\":878:885   */\n      0x00\n        /* \"#utility.yul\":907:912   */\n      dup2\n        /* \"#utility.yul\":896:912   */\n      swap1\n      pop\n        /* \"#utility.yul\":841:918   */\n      swap2\n      swap1\n      pop\n      jump\t// out\n        /* \"#utility.yul\":924:1046   */\n    tag_132:\n        /* \"#utility.yul\":997:1021   */\n      tag_205\n        /* \"#utility.yul\":1015:1020   */\n      dup2\n        /* \"#utility.yul\":997:1021   */\n      tag_131\n      jump\t// in\n    tag_205:\n        /* \"#utility.yul\":990:995   */\n      dup2\n        /* \"#utility.yul\":987:1022   */\n      eq\n        /* \"#utility.yul\":977:1040   */\n      tag_206\n      jumpi\n        /* \"#utility.yul\":1036:1037   */\n      0x00\n        /* \"#utility.yul\":1033:1034   */\n      dup1\n        /* \"#utility.yul\":1026:1038   */\n      revert\n        /* \"#utility.yul\":977:1040   */\n    tag_206:\n        /* \"#utility.yul\":924:1046   */\n      pop\n      jump\t// out\n        /* \"#utility.yul\":1052:1191   */\n    tag_133:\n        /* \"#utility.yul\":1098:1103   */\n      0x00\n        /* \"#utility.yul\":1136:1142   */\n      dup2\n        /* \"#utility.yul\":1123:1143   */\n      calldataload\n        /* \"#utility.yul\":1114:1143   */\n      swap1\n      pop\n        /* \"#utility.yul\":1152:1185   */\n      tag_208\n        /* \"#utility.yul\":1179:1184   */\n      dup2\n        /* \"#utility.yul\":1152:1185   */\n      tag_132\n      jump\t// in\n    tag_208:\n        /* \"#utility.yul\":1052:1191   */\n      swap3\n      swap2\n      pop\n      pop\n      jump\t// out\n        /* \"#utility.yul\":1197:1671   */\n    tag_15:\n        /* \"#utility.yul\":1265:1271   */\n      0x00\n        /* \"#utility.yul\":1273:1279   */\n      dup1\n        /* \"#utility.yul\":1322:1324   */\n      0x40\n        /* \"#utility.yul\":1310:1319   */\n      dup4\n        /* \"#utility.yul\":1301:1308   */\n      dup6\n        /* \"#utility.yul\":1297:1320   */\n      sub\n        /* \"#utility.yul\":1293:1325   */\n      slt\n        /* \"#utility.yul\":1290:1409   */\n      iszero\n      tag_210\n      jumpi\n        /* \"#utility.yul\":1328:1407   */\n      tag_211\n      tag_125\n      jump\t// in\n    tag_211:\n        /* \"#utility.yul\":1290:1409   */\n    tag_210:\n        /* \"#utility.yul\":1448:1449   */\n      0x00\n        /* \"#utility.yul\":1473:1526   */\n      tag_212\n        /* \"#utility.yul\":1518:1525   */\n      dup6\n        /* \"#utility.yul\":1509:1515   */\n      dup3\n        /* \"#utility.yul\":1498:1507   */\n      dup7\n        /* \"#utility.yul\":1494:1516   */\n      add\n        /* \"#utility.yul\":1473:1526   */\n      tag_130\n      jump\t// in\n    tag_212:\n        /* \"#utility.yul\":1463:1526   */\n      swap3\n      pop\n        /* \"#utility.yul\":1419:1536   */\n      pop\n        /* \"#utility.yul\":1575:1577   */\n      0x20\n        /* \"#utility.yul\":1601:1654   */\n      tag_213\n        /* \"#utility.yul\":1646:1653   */\n      dup6\n        /* \"#utility.yul\":1637:1643   */\n      dup3\n        /* \"#utility.yul\":1626:1635   */\n      dup7\n        /* \"#utility.yul\":1622:1644   */\n      add\n        /* \"#utility.yul\":1601:1654   */\n      tag_133\n      jump\t// in\n    tag_213:\n        /* \"#utility.yul\":1591:1654   */\n      swap2\n      pop\n        /* \"#utility.yul\":1546:1664   */\n      pop\n        /* \"#utility.yul\":1197:1671   */\n      swap3\n      pop\n      swap3\n      swap1\n      pop\n      jump\t// out\n        /* \"#utility.yul\":1677:1795   */\n    tag_134:\n        /* \"#utility.yul\":1764:1788   */\n      tag_215\n        /* \"#utility.yul\":1782:1787   */\n      dup2\n        /* \"#utility.yul\":1764:1788   */\n      tag_128\n      jump\t// in\n    tag_215:\n        /* \"#utility.yul\":1759:1762   */\n      dup3\n        /* \"#utility.yul\":1752:1789   */\n      mstore\n        /* \"#utility.yul\":1677:1795   */\n      pop\n      pop\n      jump\t// out\n        /* \"#utility.yul\":1801:1900   */\n    tag_135:\n        /* \"#utility.yul\":1853:1859   */\n      0x00\n        /* \"#utility.yul\":1887:1892   */\n      dup2\n        /* \"#utility.yul\":1881:1893   */\n      mload\n        /* \"#utility.yul\":1871:1893   */\n      swap1\n      pop\n        /* \"#utility.yul\":1801:1900   */\n      swap2\n      swap1\n      pop\n      jump\t// out\n        /* \"#utility.yul\":1906:2075   */\n    tag_136:\n        /* \"#utility.yul\":1990:2001   */\n      0x00\n        /* \"#utility.yul\":2024:2030   */\n      dup3\n        /* \"#utility.yul\":2019:2022   */\n      dup3\n        /* \"#utility.yul\":2012:2031   */\n      mstore\n        /* \"#utility.yul\":2064:2068   */\n      0x20\n        /* \"#utility.yul\":2059:2062   */\n      dup3\n        /* \"#utility.yul\":2055:2069   */\n      add\n        /* \"#utility.yul\":2040:2069   */\n      swap1\n      pop\n        /* \"#utility.yul\":1906:2075   */\n      swap3\n      swap2\n      pop\n      pop\n      jump\t// out\n        /* \"#utility.yul\":2081:2327   */\n    tag_137:\n        /* \"#utility.yul\":2162:2163   */\n      0x00\n        /* \"#utility.yul\":2172:2285   */\n    tag_219:\n        /* \"#utility.yul\":2186:2192   */\n      dup4\n        /* \"#utility.yul\":2183:2184   */\n      dup2\n        /* \"#utility.yul\":2180:2193   */\n      lt\n        /* \"#utility.yul\":2172:2285   */\n      iszero\n      tag_221\n      jumpi\n        /* \"#utility.yul\":2271:2272   */\n      dup1\n        /* \"#utility.yul\":2266:2269   */\n      dup3\n        /* \"#utility.yul\":2262:2273   */\n      add\n        /* \"#utility.yul\":2256:2274   */\n      mload\n        /* \"#utility.yul\":2252:2253   */\n      dup2\n        /* \"#utility.yul\":2247:2250   */\n      dup5\n        /* \"#utility.yul\":2243:2254   */\n      add\n        /* \"#utility.yul\":2236:2275   */\n      mstore\n        /* \"#utility.yul\":2208:2210   */\n      0x20\n        /* \"#utility.yul\":2205:2206   */\n      dup2\n        /* \"#utility.yul\":2201:2211   */\n      add\n        /* \"#utility.yul\":2196:2211   */\n      swap1\n      pop\n        /* \"#utility.yul\":2172:2285   */\n      jump(tag_219)\n    tag_221:\n        /* \"#utility.yul\":2319:2320   */\n      0x00\n        /* \"#utility.yul\":2310:2316   */\n      dup5\n        /* \"#utility.yul\":2305:2308   */\n      dup5\n        /* \"#utility.yul\":2301:2317   */\n      add\n        /* \"#utility.yul\":2294:2321   */\n      mstore\n        /* \"#utility.yul\":2143:2327   */\n      pop\n        /* \"#utility.yul\":2081:2327   */\n      pop\n      pop\n      pop\n      jump\t// out\n        /* \"#utility.yul\":2333:2435   */\n    tag_138:\n        /* \"#utility.yul\":2374:2380   */\n      0x00\n        /* \"#utility.yul\":2425:2427   */\n      0x1f\n        /* \"#utility.yul\":2421:2428   */\n      not\n        /* \"#utility.yul\":2416:2418   */\n      0x1f\n        /* \"#utility.yul\":2409:2414   */\n      dup4\n        /* \"#utility.yul\":2405:2419   */\n      add\n        /* \"#utility.yul\":2401:2429   */\n      and\n        /* \"#utility.yul\":2391:2429   */\n      swap1\n      pop\n        /* \"#utility.yul\":2333:2435   */\n      swap2\n      swap1\n      pop\n      jump\t// out\n        /* \"#utility.yul\":2441:2818   */\n    tag_139:\n        /* \"#utility.yul\":2529:2532   */\n      0x00\n        /* \"#utility.yul\":2557:2596   */\n      tag_224\n        /* \"#utility.yul\":2590:2595   */\n      dup3\n        /* \"#utility.yul\":2557:2596   */\n      tag_135\n      jump\t// in\n    tag_224:\n        /* \"#utility.yul\":2612:2683   */\n      tag_225\n        /* \"#utility.yul\":2676:2682   */\n      dup2\n        /* \"#utility.yul\":2671:2674   */\n      dup6\n        /* \"#utility.yul\":2612:2683   */\n      tag_136\n      jump\t// in\n    tag_225:\n        /* \"#utility.yul\":2605:2683   */\n      swap4\n      pop\n        /* \"#utility.yul\":2692:2757   */\n      tag_226\n        /* \"#utility.yul\":2750:2756   */\n      dup2\n        /* \"#utility.yul\":2745:2748   */\n      dup6\n        /* \"#utility.yul\":2738:2742   */\n      0x20\n        /* \"#utility.yul\":2731:2736   */\n      dup7\n        /* \"#utility.yul\":2727:2743   */\n      add\n        /* \"#utility.yul\":2692:2757   */\n      tag_137\n      jump\t// in\n    tag_226:\n        /* \"#utility.yul\":2782:2811   */\n      tag_227\n        /* \"#utility.yul\":2804:2810   */\n      dup2\n        /* \"#utility.yul\":2782:2811   */\n      tag_138\n      jump\t// in\n    tag_227:\n        /* \"#utility.yul\":2777:2780   */\n      dup5\n        /* \"#utility.yul\":2773:2812   */\n      add\n        /* \"#utility.yul\":2766:2812   */\n      swap2\n      pop\n        /* \"#utility.yul\":2533:2818   */\n      pop\n        /* \"#utility.yul\":2441:2818   */\n      swap3\n      swap2\n      pop\n      pop\n      jump\t// out\n        /* \"#utility.yul\":2824:2942   */\n    tag_140:\n        /* \"#utility.yul\":2911:2935   */\n      tag_229\n        /* \"#utility.yul\":2929:2934   */\n      dup2\n        /* \"#utility.yul\":2911:2935   */\n      tag_131\n      jump\t// in\n    tag_229:\n        /* \"#utility.yul\":2906:2909   */\n      dup3\n        /* \"#utility.yul\":2899:2936   */\n      mstore\n        /* \"#utility.yul\":2824:2942   */\n      pop\n      pop\n      jump\t// out\n        /* \"#utility.yul\":2948:3703   */\n    tag_18:\n        /* \"#utility.yul\":3173:3177   */\n      0x00\n        /* \"#utility.yul\":3211:3214   */\n      0xa0\n        /* \"#utility.yul\":3200:3209   */\n      dup3\n        /* \"#utility.yul\":3196:3215   */\n      add\n        /* \"#utility.yul\":3188:3215   */\n      swap1\n      pop\n        /* \"#utility.yul\":3225:3296   */\n      tag_231\n        /* \"#utility.yul\":3293:3294   */\n      0x00\n        /* \"#utility.yul\":3282:3291   */\n      dup4\n        /* \"#utility.yul\":3278:3295   */\n      add\n        /* \"#utility.yul\":3269:3275   */\n      dup9\n        /* \"#utility.yul\":3225:3296   */\n      tag_134\n      jump\t// in\n    tag_231:\n        /* \"#utility.yul\":3343:3352   */\n      dup2\n        /* \"#utility.yul\":3337:3341   */\n      dup2\n        /* \"#utility.yul\":3333:3353   */\n      sub\n        /* \"#utility.yul\":3328:3330   */\n      0x20\n        /* \"#utility.yul\":3317:3326   */\n      dup4\n        /* \"#utility.yul\":3313:3331   */\n      add\n        /* \"#utility.yul\":3306:3354   */\n      mstore\n        /* \"#utility.yul\":3371:3449   */\n      tag_232\n        /* \"#utility.yul\":3444:3448   */\n      dup2\n        /* \"#utility.yul\":3435:3441   */\n      dup8\n        /* \"#utility.yul\":3371:3449   */\n      tag_139\n      jump\t// in\n    tag_232:\n        /* \"#utility.yul\":3363:3449   */\n      swap1\n      pop\n        /* \"#utility.yul\":3459:3531   */\n      tag_233\n        /* \"#utility.yul\":3527:3529   */\n      0x40\n        /* \"#utility.yul\":3516:3525   */\n      dup4\n        /* \"#utility.yul\":3512:3530   */\n      add\n        /* \"#utility.yul\":3503:3509   */\n      dup7\n        /* \"#utility.yul\":3459:3531   */\n      tag_140\n      jump\t// in\n    tag_233:\n        /* \"#utility.yul\":3541:3613   */\n      tag_234\n        /* \"#utility.yul\":3609:3611   */\n      0x60\n        /* \"#utility.yul\":3598:3607   */\n      dup4\n        /* \"#utility.yul\":3594:3612   */\n      add\n        /* \"#utility.yul\":3585:3591   */\n      dup6\n        /* \"#utility.yul\":3541:3613   */\n      tag_140\n      jump\t// in\n    tag_234:\n        /* \"#utility.yul\":3623:3696   */\n      tag_235\n        /* \"#utility.yul\":3691:3694   */\n      0x80\n        /* \"#utility.yul\":3680:3689   */\n      dup4\n        /* \"#utility.yul\":3676:3695   */\n      add\n        /* \"#utility.yul\":3667:3673   */\n      dup5\n        /* \"#utility.yul\":3623:3696   */\n      tag_140\n      jump\t// in\n    tag_235:\n        /* \"#utility.yul\":2948:3703   */\n      swap7\n      swap6\n      pop\n      pop\n      pop\n      pop\n      pop\n      pop\n      jump\t// out\n        /* \"#utility.yul\":3709:4038   */\n    tag_21:\n        /* \"#utility.yul\":3768:3774   */\n      0x00\n        /* \"#utility.yul\":3817:3819   */\n      0x20\n        /* \"#utility.yul\":3805:3814   */\n      dup3\n        /* \"#utility.yul\":3796:3803   */\n      dup5\n        /* \"#utility.yul\":3792:3815   */\n      sub\n        /* \"#utility.yul\":3788:3820   */\n      slt\n        /* \"#utility.yul\":3785:3904   */\n      iszero\n      tag_237\n      jumpi\n        /* \"#utility.yul\":3823:3902   */\n      tag_238\n      tag_125\n      jump\t// in\n    tag_238:\n        /* \"#utility.yul\":3785:3904   */\n    tag_237:\n        /* \"#utility.yul\":3943:3944   */\n      0x00\n        /* \"#utility.yul\":3968:4021   */\n      tag_239\n        /* \"#utility.yul\":4013:4020   */\n      dup5\n        /* \"#utility.yul\":4004:4010   */\n      dup3\n        /* \"#utility.yul\":3993:4002   */\n      dup6\n        /* \"#utility.yul\":3989:4011   */\n      add\n        /* \"#utility.yul\":3968:4021   */\n      tag_130\n      jump\t// in\n    tag_239:\n        /* \"#utility.yul\":3958:4021   */\n      swap2\n      pop\n        /* \"#utility.yul\":3914:4031   */\n      pop\n        /* \"#utility.yul\":3709:4038   */\n      swap3\n      swap2\n      pop\n      pop\n      jump\t// out\n        /* \"#utility.yul\":4044:4179   */\n    tag_141:\n        /* \"#utility.yul\":4132:4138   */\n      0x00\n        /* \"#utility.yul\":4166:4171   */\n      dup2\n        /* \"#utility.yul\":4160:4172   */\n      mload\n        /* \"#utility.yul\":4150:4172   */\n      swap1\n      pop\n        /* \"#utility.yul\":4044:4179   */\n      swap2\n      swap1\n      pop\n      jump\t// out\n        /* \"#utility.yul\":4185:4390   */\n    tag_142:\n        /* \"#utility.yul\":4305:4316   */\n      0x00\n        /* \"#utility.yul\":4339:4345   */\n      dup3\n        /* \"#utility.yul\":4334:4337   */\n      dup3\n        /* \"#utility.yul\":4327:4346   */\n      mstore\n        /* \"#utility.yul\":4379:4383   */\n      0x20\n        /* \"#utility.yul\":4374:4377   */\n      dup3\n        /* \"#utility.yul\":4370:4384   */\n      add\n        /* \"#utility.yul\":4355:4384   */\n      swap1\n      pop\n        /* \"#utility.yul\":4185:4390   */\n      swap3\n      swap2\n      pop\n      pop\n      jump\t// out\n        /* \"#utility.yul\":4396:4549   */\n    tag_143:\n        /* \"#utility.yul\":4484:4488   */\n      0x00\n        /* \"#utility.yul\":4507:4510   */\n      dup2\n        /* \"#utility.yul\":4499:4510   */\n      swap1\n      pop\n        /* \"#utility.yul\":4537:4541   */\n      0x20\n        /* \"#utility.yul\":4532:4535   */\n      dup3\n        /* \"#utility.yul\":4528:4542   */\n      add\n        /* \"#utility.yul\":4520:4542   */\n      swap1\n      pop\n        /* \"#utility.yul\":4396:4549   */\n      swap2\n      swap1\n      pop\n      jump\t// out\n        /* \"#utility.yul\":4555:4663   */\n    tag_144:\n        /* \"#utility.yul\":4632:4656   */\n      tag_244\n        /* \"#utility.yul\":4650:4655   */\n      dup2\n        /* \"#utility.yul\":4632:4656   */\n      tag_128\n      jump\t// in\n    tag_244:\n        /* \"#utility.yul\":4627:4630   */\n      dup3\n        /* \"#utility.yul\":4620:4657   */\n      mstore\n        /* \"#utility.yul\":4555:4663   */\n      pop\n      pop\n      jump\t// out\n        /* \"#utility.yul\":4669:4828   */\n    tag_145:\n        /* \"#utility.yul\":4743:4754   */\n      0x00\n        /* \"#utility.yul\":4777:4783   */\n      dup3\n        /* \"#utility.yul\":4772:4775   */\n      dup3\n        /* \"#utility.yul\":4765:4784   */\n      mstore\n        /* \"#utility.yul\":4817:4821   */\n      0x20\n        /* \"#utility.yul\":4812:4815   */\n      dup3\n        /* \"#utility.yul\":4808:4822   */\n      add\n        /* \"#utility.yul\":4793:4822   */\n      swap1\n      pop\n        /* \"#utility.yul\":4669:4828   */\n      swap3\n      swap2\n      pop\n      pop\n      jump\t// out\n        /* \"#utility.yul\":4834:5191   */\n    tag_146:\n        /* \"#utility.yul\":4912:4915   */\n      0x00\n        /* \"#utility.yul\":4940:4979   */\n      tag_247\n        /* \"#utility.yul\":4973:4978   */\n      dup3\n        /* \"#utility.yul\":4940:4979   */\n      tag_135\n      jump\t// in\n    tag_247:\n        /* \"#utility.yul\":4995:5056   */\n      tag_248\n        /* \"#utility.yul\":5049:5055   */\n      dup2\n        /* \"#utility.yul\":5044:5047   */\n      dup6\n        /* \"#utility.yul\":4995:5056   */\n      tag_145\n      jump\t// in\n    tag_248:\n        /* \"#utility.yul\":4988:5056   */\n      swap4\n      pop\n        /* \"#utility.yul\":5065:5130   */\n      tag_249\n        /* \"#utility.yul\":5123:5129   */\n      dup2\n        /* \"#utility.yul\":5118:5121   */\n      dup6\n        /* \"#utility.yul\":5111:5115   */\n      0x20\n        /* \"#utility.yul\":5104:5109   */\n      dup7\n        /* \"#utility.yul\":5100:5116   */\n      add\n        /* \"#utility.yul\":5065:5130   */\n      tag_137\n      jump\t// in\n    tag_249:\n        /* \"#utility.yul\":5155:5184   */\n      tag_250\n        /* \"#utility.yul\":5177:5183   */\n      dup2\n        /* \"#utility.yul\":5155:5184   */\n      tag_138\n      jump\t// in\n    tag_250:\n        /* \"#utility.yul\":5150:5153   */\n      dup5\n        /* \"#utility.yul\":5146:5185   */\n      add\n        /* \"#utility.yul\":5139:5185   */\n      swap2\n      pop\n        /* \"#utility.yul\":4916:5191   */\n      pop\n        /* \"#utility.yul\":4834:5191   */\n      swap3\n      swap2\n      pop\n      pop\n      jump\t// out\n        /* \"#utility.yul\":5197:5305   */\n    tag_147:\n        /* \"#utility.yul\":5274:5298   */\n      tag_252\n        /* \"#utility.yul\":5292:5297   */\n      dup2\n        /* \"#utility.yul\":5274:5298   */\n      tag_131\n      jump\t// in\n    tag_252:\n        /* \"#utility.yul\":5269:5272   */\n      dup3\n        /* \"#utility.yul\":5262:5299   */\n      mstore\n        /* \"#utility.yul\":5197:5305   */\n      pop\n      pop\n      jump\t// out\n        /* \"#utility.yul\":5363:6482   */\n    tag_148:\n        /* \"#utility.yul\":5464:5467   */\n      0x00\n        /* \"#utility.yul\":5500:5504   */\n      0xa0\n        /* \"#utility.yul\":5495:5498   */\n      dup4\n        /* \"#utility.yul\":5491:5505   */\n      add\n        /* \"#utility.yul\":5589:5593   */\n      0x00\n        /* \"#utility.yul\":5582:5587   */\n      dup4\n        /* \"#utility.yul\":5578:5594   */\n      add\n        /* \"#utility.yul\":5572:5595   */\n      mload\n        /* \"#utility.yul\":5608:5671   */\n      tag_254\n        /* \"#utility.yul\":5665:5669   */\n      0x00\n        /* \"#utility.yul\":5660:5663   */\n      dup7\n        /* \"#utility.yul\":5656:5670   */\n      add\n        /* \"#utility.yul\":5642:5654   */\n      dup3\n        /* \"#utility.yul\":5608:5671   */\n      tag_144\n      jump\t// in\n    tag_254:\n        /* \"#utility.yul\":5515:5681   */\n      pop\n        /* \"#utility.yul\":5766:5770   */\n      0x20\n        /* \"#utility.yul\":5759:5764   */\n      dup4\n        /* \"#utility.yul\":5755:5771   */\n      add\n        /* \"#utility.yul\":5749:5772   */\n      mload\n        /* \"#utility.yul\":5819:5822   */\n      dup5\n        /* \"#utility.yul\":5813:5817   */\n      dup3\n        /* \"#utility.yul\":5809:5823   */\n      sub\n        /* \"#utility.yul\":5802:5806   */\n      0x20\n        /* \"#utility.yul\":5797:5800   */\n      dup7\n        /* \"#utility.yul\":5793:5807   */\n      add\n        /* \"#utility.yul\":5786:5824   */\n      mstore\n        /* \"#utility.yul\":5845:5918   */\n      tag_255\n        /* \"#utility.yul\":5913:5917   */\n      dup3\n        /* \"#utility.yul\":5899:5911   */\n      dup3\n        /* \"#utility.yul\":5845:5918   */\n      tag_146\n      jump\t// in\n    tag_255:\n        /* \"#utility.yul\":5837:5918   */\n      swap2\n      pop\n        /* \"#utility.yul\":5691:5929   */\n      pop\n        /* \"#utility.yul\":6016:6020   */\n      0x40\n        /* \"#utility.yul\":6009:6014   */\n      dup4\n        /* \"#utility.yul\":6005:6021   */\n      add\n        /* \"#utility.yul\":5999:6022   */\n      mload\n        /* \"#utility.yul\":6035:6098   */\n      tag_256\n        /* \"#utility.yul\":6092:6096   */\n      0x40\n        /* \"#utility.yul\":6087:6090   */\n      dup7\n        /* \"#utility.yul\":6083:6097   */\n      add\n        /* \"#utility.yul\":6069:6081   */\n      dup3\n        /* \"#utility.yul\":6035:6098   */\n      tag_147\n      jump\t// in\n    tag_256:\n        /* \"#utility.yul\":5939:6108   */\n      pop\n        /* \"#utility.yul\":6191:6195   */\n      0x60\n        /* \"#utility.yul\":6184:6189   */\n      dup4\n        /* \"#utility.yul\":6180:6196   */\n      add\n        /* \"#utility.yul\":6174:6197   */\n      mload\n        /* \"#utility.yul\":6210:6273   */\n      tag_257\n        /* \"#utility.yul\":6267:6271   */\n      0x60\n        /* \"#utility.yul\":6262:6265   */\n      dup7\n        /* \"#utility.yul\":6258:6272   */\n      add\n        /* \"#utility.yul\":6244:6256   */\n      dup3\n        /* \"#utility.yul\":6210:6273   */\n      tag_147\n      jump\t// in\n    tag_257:\n        /* \"#utility.yul\":6118:6283   */\n      pop\n        /* \"#utility.yul\":6363:6367   */\n      0x80\n        /* \"#utility.yul\":6356:6361   */\n      dup4\n        /* \"#utility.yul\":6352:6368   */\n      add\n        /* \"#utility.yul\":6346:6369   */\n      mload\n        /* \"#utility.yul\":6382:6445   */\n      tag_258\n        /* \"#utility.yul\":6439:6443   */\n      0x80\n        /* \"#utility.yul\":6434:6437   */\n      dup7\n        /* \"#utility.yul\":6430:6444   */\n      add\n        /* \"#utility.yul\":6416:6428   */\n      dup3\n        /* \"#utility.yul\":6382:6445   */\n      tag_147\n      jump\t// in\n    tag_258:\n        /* \"#utility.yul\":6293:6455   */\n      pop\n        /* \"#utility.yul\":6472:6476   */\n      dup1\n        /* \"#utility.yul\":6465:6476   */\n      swap2\n      pop\n        /* \"#utility.yul\":5469:6482   */\n      pop\n        /* \"#utility.yul\":5363:6482   */\n      swap3\n      swap2\n      pop\n      pop\n      jump\t// out\n        /* \"#utility.yul\":6488:6728   */\n    tag_149:\n        /* \"#utility.yul\":6599:6609   */\n      0x00\n        /* \"#utility.yul\":6634:6722   */\n      tag_260\n        /* \"#utility.yul\":6718:6721   */\n      dup4\n        /* \"#utility.yul\":6710:6716   */\n      dup4\n        /* \"#utility.yul\":6634:6722   */\n      tag_148\n      jump\t// in\n    tag_260:\n        /* \"#utility.yul\":6620:6722   */\n      swap1\n      pop\n        /* \"#utility.yul\":6488:6728   */\n      swap3\n      swap2\n      pop\n      pop\n      jump\t// out\n        /* \"#utility.yul\":6734:6868   */\n    tag_150:\n        /* \"#utility.yul\":6825:6829   */\n      0x00\n        /* \"#utility.yul\":6857:6861   */\n      0x20\n        /* \"#utility.yul\":6852:6855   */\n      dup3\n        /* \"#utility.yul\":6848:6862   */\n      add\n        /* \"#utility.yul\":6840:6862   */\n      swap1\n      pop\n        /* \"#utility.yul\":6734:6868   */\n      swap2\n      swap1\n      pop\n      jump\t// out\n        /* \"#utility.yul\":6930:8009   */\n    tag_151:\n        /* \"#utility.yul\":7091:7094   */\n      0x00\n        /* \"#utility.yul\":7120:7195   */\n      tag_263\n        /* \"#utility.yul\":7189:7194   */\n      dup3\n        /* \"#utility.yul\":7120:7195   */\n      tag_141\n      jump\t// in\n    tag_263:\n        /* \"#utility.yul\":7211:7318   */\n      tag_264\n        /* \"#utility.yul\":7311:7317   */\n      dup2\n        /* \"#utility.yul\":7306:7309   */\n      dup6\n        /* \"#utility.yul\":7211:7318   */\n      tag_142\n      jump\t// in\n    tag_264:\n        /* \"#utility.yul\":7204:7318   */\n      swap4\n      pop\n        /* \"#utility.yul\":7344:7347   */\n      dup4\n        /* \"#utility.yul\":7389:7393   */\n      0x20\n        /* \"#utility.yul\":7381:7387   */\n      dup3\n        /* \"#utility.yul\":7377:7394   */\n      mul\n        /* \"#utility.yul\":7372:7375   */\n      dup6\n        /* \"#utility.yul\":7368:7395   */\n      add\n        /* \"#utility.yul\":7419:7496   */\n      tag_265\n        /* \"#utility.yul\":7490:7495   */\n      dup6\n        /* \"#utility.yul\":7419:7496   */\n      tag_143\n      jump\t// in\n    tag_265:\n        /* \"#utility.yul\":7519:7526   */\n      dup1\n        /* \"#utility.yul\":7550:7551   */\n      0x00\n        /* \"#utility.yul\":7535:7964   */\n    tag_266:\n        /* \"#utility.yul\":7560:7566   */\n      dup6\n        /* \"#utility.yul\":7557:7558   */\n      dup2\n        /* \"#utility.yul\":7554:7567   */\n      lt\n        /* \"#utility.yul\":7535:7964   */\n      iszero\n      tag_268\n      jumpi\n        /* \"#utility.yul\":7631:7640   */\n      dup5\n        /* \"#utility.yul\":7625:7629   */\n      dup5\n        /* \"#utility.yul\":7621:7641   */\n      sub\n        /* \"#utility.yul\":7616:7619   */\n      dup10\n        /* \"#utility.yul\":7609:7642   */\n      mstore\n        /* \"#utility.yul\":7682:7688   */\n      dup2\n        /* \"#utility.yul\":7676:7689   */\n      mload\n        /* \"#utility.yul\":7710:7816   */\n      tag_269\n        /* \"#utility.yul\":7811:7815   */\n      dup6\n        /* \"#utility.yul\":7796:7809   */\n      dup3\n        /* \"#utility.yul\":7710:7816   */\n      tag_149\n      jump\t// in\n    tag_269:\n        /* \"#utility.yul\":7702:7816   */\n      swap5\n      pop\n        /* \"#utility.yul\":7839:7920   */\n      tag_270\n        /* \"#utility.yul\":7913:7919   */\n      dup4\n        /* \"#utility.yul\":7839:7920   */\n      tag_150\n      jump\t// in\n    tag_270:\n        /* \"#utility.yul\":7829:7920   */\n      swap3\n      pop\n        /* \"#utility.yul\":7949:7953   */\n      0x20\n        /* \"#utility.yul\":7944:7947   */\n      dup11\n        /* \"#utility.yul\":7940:7954   */\n      add\n        /* \"#utility.yul\":7933:7954   */\n      swap10\n      pop\n        /* \"#utility.yul\":7595:7964   */\n      pop\n        /* \"#utility.yul\":7582:7583   */\n      0x01\n        /* \"#utility.yul\":7579:7580   */\n      dup2\n        /* \"#utility.yul\":7575:7584   */\n      add\n        /* \"#utility.yul\":7570:7584   */\n      swap1\n      pop\n        /* \"#utility.yul\":7535:7964   */\n      jump(tag_266)\n    tag_268:\n        /* \"#utility.yul\":7539:7553   */\n      pop\n        /* \"#utility.yul\":7980:7984   */\n      dup3\n        /* \"#utility.yul\":7973:7984   */\n      swap8\n      pop\n        /* \"#utility.yul\":8000:8003   */\n      dup8\n        /* \"#utility.yul\":7993:8003   */\n      swap6\n      pop\n        /* \"#utility.yul\":7096:8009   */\n      pop\n      pop\n      pop\n      pop\n      pop\n        /* \"#utility.yul\":6930:8009   */\n      swap3\n      swap2\n      pop\n      pop\n      jump\t// out\n        /* \"#utility.yul\":8015:8472   */\n    tag_24:\n        /* \"#utility.yul\":8200:8204   */\n      0x00\n        /* \"#utility.yul\":8238:8240   */\n      0x20\n        /* \"#utility.yul\":8227:8236   */\n      dup3\n        /* \"#utility.yul\":8223:8241   */\n      add\n        /* \"#utility.yul\":8215:8241   */\n      swap1\n      pop\n        /* \"#utility.yul\":8287:8296   */\n      dup2\n        /* \"#utility.yul\":8281:8285   */\n      dup2\n        /* \"#utility.yul\":8277:8297   */\n      sub\n        /* \"#utility.yul\":8273:8274   */\n      0x00\n        /* \"#utility.yul\":8262:8271   */\n      dup4\n        /* \"#utility.yul\":8258:8275   */\n      add\n        /* \"#utility.yul\":8251:8298   */\n      mstore\n        /* \"#utility.yul\":8315:8465   */\n      tag_272\n        /* \"#utility.yul\":8460:8464   */\n      dup2\n        /* \"#utility.yul\":8451:8457   */\n      dup5\n        /* \"#utility.yul\":8315:8465   */\n      tag_151\n      jump\t// in\n    tag_272:\n        /* \"#utility.yul\":8307:8465   */\n      swap1\n      pop\n        /* \"#utility.yul\":8015:8472   */\n      swap3\n      swap2\n      pop\n      pop\n      jump\t// out\n        /* \"#utility.yul\":8478:8567   */\n    tag_152:\n        /* \"#utility.yul\":8514:8521   */\n      0x00\n        /* \"#utility.yul\":8554:8560   */\n      0xffff\n        /* \"#utility.yul\":8547:8552   */\n      dup3\n        /* \"#utility.yul\":8543:8561   */\n      and\n        /* \"#utility.yul\":8532:8561   */\n      swap1\n      pop\n        /* \"#utility.yul\":8478:8567   */\n      swap2\n      swap1\n      pop\n      jump\t// out\n        /* \"#utility.yul\":8573:8693   */\n    tag_153:\n        /* \"#utility.yul\":8645:8668   */\n      tag_275\n        /* \"#utility.yul\":8662:8667   */\n      dup2\n        /* \"#utility.yul\":8645:8668   */\n      tag_152\n      jump\t// in\n    tag_275:\n        /* \"#utility.yul\":8638:8643   */\n      dup2\n        /* \"#utility.yul\":8635:8669   */\n      eq\n        /* \"#utility.yul\":8625:8687   */\n      tag_276\n      jumpi\n        /* \"#utility.yul\":8683:8684   */\n      0x00\n        /* \"#utility.yul\":8680:8681   */\n      dup1\n        /* \"#utility.yul\":8673:8685   */\n      revert\n        /* \"#utility.yul\":8625:8687   */\n    tag_276:\n        /* \"#utility.yul\":8573:8693   */\n      pop\n      jump\t// out\n        /* \"#utility.yul\":8699:8836   */\n    tag_154:\n        /* \"#utility.yul\":8744:8749   */\n      0x00\n        /* \"#utility.yul\":8782:8788   */\n      dup2\n        /* \"#utility.yul\":8769:8789   */\n      calldataload\n        /* \"#utility.yul\":8760:8789   */\n      swap1\n      pop\n        /* \"#utility.yul\":8798:8830   */\n      tag_278\n        /* \"#utility.yul\":8824:8829   */\n      dup2\n        /* \"#utility.yul\":8798:8830   */\n      tag_153\n      jump\t// in\n    tag_278:\n        /* \"#utility.yul\":8699:8836   */\n      swap3\n      swap2\n      pop\n      pop\n      jump\t// out\n        /* \"#utility.yul\":8842:9169   */\n    tag_27:\n        /* \"#utility.yul\":8900:8906   */\n      0x00\n        /* \"#utility.yul\":8949:8951   */\n      0x20\n        /* \"#utility.yul\":8937:8946   */\n      dup3\n        /* \"#utility.yul\":8928:8935   */\n      dup5\n        /* \"#utility.yul\":8924:8947   */\n      sub\n        /* \"#utility.yul\":8920:8952   */\n      slt\n        /* \"#utility.yul\":8917:9036   */\n      iszero\n      tag_280\n      jumpi\n        /* \"#utility.yul\":8955:9034   */\n      tag_281\n      tag_125\n      jump\t// in\n    tag_281:\n        /* \"#utility.yul\":8917:9036   */\n    tag_280:\n        /* \"#utility.yul\":9075:9076   */\n      0x00\n        /* \"#utility.yul\":9100:9152   */\n      tag_282\n        /* \"#utility.yul\":9144:9151   */\n      dup5\n        /* \"#utility.yul\":9135:9141   */\n      dup3\n        /* \"#utility.yul\":9124:9133   */\n      dup6\n        /* \"#utility.yul\":9120:9142   */\n      add\n        /* \"#utility.yul\":9100:9152   */\n      tag_154\n      jump\t// in\n    tag_282:\n        /* \"#utility.yul\":9090:9152   */\n      swap2\n      pop\n        /* \"#utility.yul\":9046:9162   */\n      pop\n        /* \"#utility.yul\":8842:9169   */\n      swap3\n      swap2\n      pop\n      pop\n      jump\t// out\n        /* \"#utility.yul\":9175:9290   */\n    tag_155:\n        /* \"#utility.yul\":9260:9283   */\n      tag_284\n        /* \"#utility.yul\":9277:9282   */\n      dup2\n        /* \"#utility.yul\":9260:9283   */\n      tag_152\n      jump\t// in\n    tag_284:\n        /* \"#utility.yul\":9255:9258   */\n      dup3\n        /* \"#utility.yul\":9248:9284   */\n      mstore\n        /* \"#utility.yul\":9175:9290   */\n      pop\n      pop\n      jump\t// out\n        /* \"#utility.yul\":9296:9514   */\n    tag_32:\n        /* \"#utility.yul\":9387:9391   */\n      0x00\n        /* \"#utility.yul\":9425:9427   */\n      0x20\n        /* \"#utility.yul\":9414:9423   */\n      dup3\n        /* \"#utility.yul\":9410:9428   */\n      add\n        /* \"#utility.yul\":9402:9428   */\n      swap1\n      pop\n        /* \"#utility.yul\":9438:9507   */\n      tag_286\n        /* \"#utility.yul\":9504:9505   */\n      0x00\n        /* \"#utility.yul\":9493:9502   */\n      dup4\n        /* \"#utility.yul\":9489:9506   */\n      add\n        /* \"#utility.yul\":9480:9486   */\n      dup5\n        /* \"#utility.yul\":9438:9507   */\n      tag_155\n      jump\t// in\n    tag_286:\n        /* \"#utility.yul\":9296:9514   */\n      swap3\n      swap2\n      pop\n      pop\n      jump\t// out\n        /* \"#utility.yul\":9520:9637   */\n    tag_156:\n        /* \"#utility.yul\":9629:9630   */\n      0x00\n        /* \"#utility.yul\":9626:9627   */\n      dup1\n        /* \"#utility.yul\":9619:9631   */\n      revert\n        /* \"#utility.yul\":9643:9760   */\n    tag_157:\n        /* \"#utility.yul\":9752:9753   */\n      0x00\n        /* \"#utility.yul\":9749:9750   */\n      dup1\n        /* \"#utility.yul\":9742:9754   */\n      revert\n        /* \"#utility.yul\":9766:9946   */\n    tag_158:\n        /* \"#utility.yul\":9814:9891   */\n      0x4e487b7100000000000000000000000000000000000000000000000000000000\n        /* \"#utility.yul\":9811:9812   */\n      0x00\n        /* \"#utility.yul\":9804:9892   */\n      mstore\n        /* \"#utility.yul\":9911:9915   */\n      0x41\n        /* \"#utility.yul\":9908:9909   */\n      0x04\n        /* \"#utility.yul\":9901:9916   */\n      mstore\n        /* \"#utility.yul\":9935:9939   */\n      0x24\n        /* \"#utility.yul\":9932:9933   */\n      0x00\n        /* \"#utility.yul\":9925:9940   */\n      revert\n        /* \"#utility.yul\":9952:10233   */\n    tag_159:\n        /* \"#utility.yul\":10035:10062   */\n      tag_291\n        /* \"#utility.yul\":10057:10061   */\n      dup3\n        /* \"#utility.yul\":10035:10062   */\n      tag_138\n      jump\t// in\n    tag_291:\n        /* \"#utility.yul\":10027:10033   */\n      dup2\n        /* \"#utility.yul\":10023:10063   */\n      add\n        /* \"#utility.yul\":10165:10171   */\n      dup2\n        /* \"#utility.yul\":10153:10163   */\n      dup2\n        /* \"#utility.yul\":10150:10172   */\n      lt\n        /* \"#utility.yul\":10129:10147   */\n      0xffffffffffffffff\n        /* \"#utility.yul\":10117:10127   */\n      dup3\n        /* \"#utility.yul\":10114:10148   */\n      gt\n        /* \"#utility.yul\":10111:10173   */\n      or\n        /* \"#utility.yul\":10108:10196   */\n      iszero\n      tag_292\n      jumpi\n        /* \"#utility.yul\":10176:10194   */\n      tag_293\n      tag_158\n      jump\t// in\n    tag_293:\n        /* \"#utility.yul\":10108:10196   */\n    tag_292:\n        /* \"#utility.yul\":10216:10226   */\n      dup1\n        /* \"#utility.yul\":10212:10214   */\n      0x40\n        /* \"#utility.yul\":10205:10227   */\n      mstore\n        /* \"#utility.yul\":9995:10233   */\n      pop\n        /* \"#utility.yul\":9952:10233   */\n      pop\n      pop\n      jump\t// out\n        /* \"#utility.yul\":10239:10368   */\n    tag_160:\n        /* \"#utility.yul\":10273:10279   */\n      0x00\n        /* \"#utility.yul\":10300:10320   */\n      tag_295\n      tag_124\n      jump\t// in\n    tag_295:\n        /* \"#utility.yul\":10290:10320   */\n      swap1\n      pop\n        /* \"#utility.yul\":10329:10362   */\n      tag_296\n        /* \"#utility.yul\":10357:10361   */\n      dup3\n        /* \"#utility.yul\":10349:10355   */\n      dup3\n        /* \"#utility.yul\":10329:10362   */\n      tag_159\n      jump\t// in\n    tag_296:\n        /* \"#utility.yul\":10239:10368   */\n      swap2\n      swap1\n      pop\n      jump\t// out\n        /* \"#utility.yul\":10374:10682   */\n    tag_161:\n        /* \"#utility.yul\":10436:10440   */\n      0x00\n        /* \"#utility.yul\":10526:10544   */\n      0xffffffffffffffff\n        /* \"#utility.yul\":10518:10524   */\n      dup3\n        /* \"#utility.yul\":10515:10545   */\n      gt\n        /* \"#utility.yul\":10512:10568   */\n      iszero\n      tag_298\n      jumpi\n        /* \"#utility.yul\":10548:10566   */\n      tag_299\n      tag_158\n      jump\t// in\n    tag_299:\n        /* \"#utility.yul\":10512:10568   */\n    tag_298:\n        /* \"#utility.yul\":10586:10615   */\n      tag_300\n        /* \"#utility.yul\":10608:10614   */\n      dup3\n        /* \"#utility.yul\":10586:10615   */\n      tag_138\n      jump\t// in\n    tag_300:\n        /* \"#utility.yul\":10578:10615   */\n      swap1\n      pop\n        /* \"#utility.yul\":10670:10674   */\n      0x20\n        /* \"#utility.yul\":10664:10668   */\n      dup2\n        /* \"#utility.yul\":10660:10675   */\n      add\n        /* \"#utility.yul\":10652:10675   */\n      swap1\n      pop\n        /* \"#utility.yul\":10374:10682   */\n      swap2\n      swap1\n      pop\n      jump\t// out\n        /* \"#utility.yul\":10688:10834   */\n    tag_162:\n        /* \"#utility.yul\":10785:10791   */\n      dup3\n        /* \"#utility.yul\":10780:10783   */\n      dup2\n        /* \"#utility.yul\":10775:10778   */\n      dup4\n        /* \"#utility.yul\":10762:10792   */\n      calldatacopy\n        /* \"#utility.yul\":10826:10827   */\n      0x00\n        /* \"#utility.yul\":10817:10823   */\n      dup4\n        /* \"#utility.yul\":10812:10815   */\n      dup4\n        /* \"#utility.yul\":10808:10824   */\n      add\n        /* \"#utility.yul\":10801:10828   */\n      mstore\n        /* \"#utility.yul\":10688:10834   */\n      pop\n      pop\n      pop\n      jump\t// out\n        /* \"#utility.yul\":10840:11265   */\n    tag_163:\n        /* \"#utility.yul\":10918:10923   */\n      0x00\n        /* \"#utility.yul\":10943:11009   */\n      tag_303\n        /* \"#utility.yul\":10959:11008   */\n      tag_304\n        /* \"#utility.yul\":11001:11007   */\n      dup5\n        /* \"#utility.yul\":10959:11008   */\n      tag_161\n      jump\t// in\n    tag_304:\n        /* \"#utility.yul\":10943:11009   */\n      tag_160\n      jump\t// in\n    tag_303:\n        /* \"#utility.yul\":10934:11009   */\n      swap1\n      pop\n        /* \"#utility.yul\":11032:11038   */\n      dup3\n        /* \"#utility.yul\":11025:11030   */\n      dup2\n        /* \"#utility.yul\":11018:11039   */\n      mstore\n        /* \"#utility.yul\":11070:11074   */\n      0x20\n        /* \"#utility.yul\":11063:11068   */\n      dup2\n        /* \"#utility.yul\":11059:11075   */\n      add\n        /* \"#utility.yul\":11108:11111   */\n      dup5\n        /* \"#utility.yul\":11099:11105   */\n      dup5\n        /* \"#utility.yul\":11094:11097   */\n      dup5\n        /* \"#utility.yul\":11090:11106   */\n      add\n        /* \"#utility.yul\":11087:11112   */\n      gt\n        /* \"#utility.yul\":11084:11196   */\n      iszero\n      tag_305\n      jumpi\n        /* \"#utility.yul\":11115:11194   */\n      tag_306\n      tag_157\n      jump\t// in\n    tag_306:\n        /* \"#utility.yul\":11084:11196   */\n    tag_305:\n        /* \"#utility.yul\":11205:11259   */\n      tag_307\n        /* \"#utility.yul\":11252:11258   */\n      dup5\n        /* \"#utility.yul\":11247:11250   */\n      dup3\n        /* \"#utility.yul\":11242:11245   */\n      dup6\n        /* \"#utility.yul\":11205:11259   */\n      tag_162\n      jump\t// in\n    tag_307:\n        /* \"#utility.yul\":10924:11265   */\n      pop\n        /* \"#utility.yul\":10840:11265   */\n      swap4\n      swap3\n      pop\n      pop\n      pop\n      jump\t// out\n        /* \"#utility.yul\":11285:11625   */\n    tag_164:\n        /* \"#utility.yul\":11341:11346   */\n      0x00\n        /* \"#utility.yul\":11390:11393   */\n      dup3\n        /* \"#utility.yul\":11383:11387   */\n      0x1f\n        /* \"#utility.yul\":11375:11381   */\n      dup4\n        /* \"#utility.yul\":11371:11388   */\n      add\n        /* \"#utility.yul\":11367:11394   */\n      slt\n        /* \"#utility.yul\":11357:11479   */\n      tag_309\n      jumpi\n        /* \"#utility.yul\":11398:11477   */\n      tag_310\n      tag_156\n      jump\t// in\n    tag_310:\n        /* \"#utility.yul\":11357:11479   */\n    tag_309:\n        /* \"#utility.yul\":11515:11521   */\n      dup2\n        /* \"#utility.yul\":11502:11522   */\n      calldataload\n        /* \"#utility.yul\":11540:11619   */\n      tag_311\n        /* \"#utility.yul\":11615:11618   */\n      dup5\n        /* \"#utility.yul\":11607:11613   */\n      dup3\n        /* \"#utility.yul\":11600:11604   */\n      0x20\n        /* \"#utility.yul\":11592:11598   */\n      dup7\n        /* \"#utility.yul\":11588:11605   */\n      add\n        /* \"#utility.yul\":11540:11619   */\n      tag_163\n      jump\t// in\n    tag_311:\n        /* \"#utility.yul\":11531:11619   */\n      swap2\n      pop\n        /* \"#utility.yul\":11347:11625   */\n      pop\n        /* \"#utility.yul\":11285:11625   */\n      swap3\n      swap2\n      pop\n      pop\n      jump\t// out\n        /* \"#utility.yul\":11631:12140   */\n    tag_35:\n        /* \"#utility.yul\":11700:11706   */\n      0x00\n        /* \"#utility.yul\":11749:11751   */\n      0x20\n        /* \"#utility.yul\":11737:11746   */\n      dup3\n        /* \"#utility.yul\":11728:11735   */\n      dup5\n        /* \"#utility.yul\":11724:11747   */\n      sub\n        /* \"#utility.yul\":11720:11752   */\n      slt\n        /* \"#utility.yul\":11717:11836   */\n      iszero\n      tag_313\n      jumpi\n        /* \"#utility.yul\":11755:11834   */\n      tag_314\n      tag_125\n      jump\t// in\n    tag_314:\n        /* \"#utility.yul\":11717:11836   */\n    tag_313:\n        /* \"#utility.yul\":11903:11904   */\n      0x00\n        /* \"#utility.yul\":11892:11901   */\n      dup3\n        /* \"#utility.yul\":11888:11905   */\n      add\n        /* \"#utility.yul\":11875:11906   */\n      calldataload\n        /* \"#utility.yul\":11933:11951   */\n      0xffffffffffffffff\n        /* \"#utility.yul\":11925:11931   */\n      dup2\n        /* \"#utility.yul\":11922:11952   */\n      gt\n        /* \"#utility.yul\":11919:12036   */\n      iszero\n      tag_315\n      jumpi\n        /* \"#utility.yul\":11955:12034   */\n      tag_316\n      tag_126\n      jump\t// in\n    tag_316:\n        /* \"#utility.yul\":11919:12036   */\n    tag_315:\n        /* \"#utility.yul\":12060:12123   */\n      tag_317\n        /* \"#utility.yul\":12115:12122   */\n      dup5\n        /* \"#utility.yul\":12106:12112   */\n      dup3\n        /* \"#utility.yul\":12095:12104   */\n      dup6\n        /* \"#utility.yul\":12091:12113   */\n      add\n        /* \"#utility.yul\":12060:12123   */\n      tag_164\n      jump\t// in\n    tag_317:\n        /* \"#utility.yul\":12050:12123   */\n      swap2\n      pop\n        /* \"#utility.yul\":11846:12133   */\n      pop\n        /* \"#utility.yul\":11631:12140   */\n      swap3\n      swap2\n      pop\n      pop\n      jump\t// out\n        /* \"#utility.yul\":12146:12368   */\n    tag_40:\n        /* \"#utility.yul\":12239:12243   */\n      0x00\n        /* \"#utility.yul\":12277:12279   */\n      0x20\n        /* \"#utility.yul\":12266:12275   */\n      dup3\n        /* \"#utility.yul\":12262:12280   */\n      add\n        /* \"#utility.yul\":12254:12280   */\n      swap1\n      pop\n        /* \"#utility.yul\":12290:12361   */\n      tag_319\n        /* \"#utility.yul\":12358:12359   */\n      0x00\n        /* \"#utility.yul\":12347:12356   */\n      dup4\n        /* \"#utility.yul\":12343:12360   */\n      add\n        /* \"#utility.yul\":12334:12340   */\n      dup5\n        /* \"#utility.yul\":12290:12361   */\n      tag_134\n      jump\t// in\n    tag_319:\n        /* \"#utility.yul\":12146:12368   */\n      swap3\n      swap2\n      pop\n      pop\n      jump\t// out\n        /* \"#utility.yul\":12374:12848   */\n    tag_43:\n        /* \"#utility.yul\":12442:12448   */\n      0x00\n        /* \"#utility.yul\":12450:12456   */\n      dup1\n        /* \"#utility.yul\":12499:12501   */\n      0x40\n        /* \"#utility.yul\":12487:12496   */\n      dup4\n        /* \"#utility.yul\":12478:12485   */\n      dup6\n        /* \"#utility.yul\":12474:12497   */\n      sub\n        /* \"#utility.yul\":12470:12502   */\n      slt\n        /* \"#utility.yul\":12467:12586   */\n      iszero\n      tag_321\n      jumpi\n        /* \"#utility.yul\":12505:12584   */\n      tag_322\n      tag_125\n      jump\t// in\n    tag_322:\n        /* \"#utility.yul\":12467:12586   */\n    tag_321:\n        /* \"#utility.yul\":12625:12626   */\n      0x00\n        /* \"#utility.yul\":12650:12703   */\n      tag_323\n        /* \"#utility.yul\":12695:12702   */\n      dup6\n        /* \"#utility.yul\":12686:12692   */\n      dup3\n        /* \"#utility.yul\":12675:12684   */\n      dup7\n        /* \"#utility.yul\":12671:12693   */\n      add\n        /* \"#utility.yul\":12650:12703   */\n      tag_133\n      jump\t// in\n    tag_323:\n        /* \"#utility.yul\":12640:12703   */\n      swap3\n      pop\n        /* \"#utility.yul\":12596:12713   */\n      pop\n        /* \"#utility.yul\":12752:12754   */\n      0x20\n        /* \"#utility.yul\":12778:12831   */\n      tag_324\n        /* \"#utility.yul\":12823:12830   */\n      dup6\n        /* \"#utility.yul\":12814:12820   */\n      dup3\n        /* \"#utility.yul\":12803:12812   */\n      dup7\n        /* \"#utility.yul\":12799:12821   */\n      add\n        /* \"#utility.yul\":12778:12831   */\n      tag_130\n      jump\t// in\n    tag_324:\n        /* \"#utility.yul\":12768:12831   */\n      swap2\n      pop\n        /* \"#utility.yul\":12723:12841   */\n      pop\n        /* \"#utility.yul\":12374:12848   */\n      swap3\n      pop\n      swap3\n      swap1\n      pop\n      jump\t// out\n        /* \"#utility.yul\":12854:13183   */\n    tag_47:\n        /* \"#utility.yul\":12913:12919   */\n      0x00\n        /* \"#utility.yul\":12962:12964   */\n      0x20\n        /* \"#utility.yul\":12950:12959   */\n      dup3\n        /* \"#utility.yul\":12941:12948   */\n      dup5\n        /* \"#utility.yul\":12937:12960   */\n      sub\n        /* \"#utility.yul\":12933:12965   */\n      slt\n        /* \"#utility.yul\":12930:13049   */\n      iszero\n      tag_326\n      jumpi\n        /* \"#utility.yul\":12968:13047   */\n      tag_327\n      tag_125\n      jump\t// in\n    tag_327:\n        /* \"#utility.yul\":12930:13049   */\n    tag_326:\n        /* \"#utility.yul\":13088:13089   */\n      0x00\n        /* \"#utility.yul\":13113:13166   */\n      tag_328\n        /* \"#utility.yul\":13158:13165   */\n      dup5\n        /* \"#utility.yul\":13149:13155   */\n      dup3\n        /* \"#utility.yul\":13138:13147   */\n      dup6\n        /* \"#utility.yul\":13134:13156   */\n      add\n        /* \"#utility.yul\":13113:13166   */\n      tag_133\n      jump\t// in\n    tag_328:\n        /* \"#utility.yul\":13103:13166   */\n      swap2\n      pop\n        /* \"#utility.yul\":13059:13176   */\n      pop\n        /* \"#utility.yul\":12854:13183   */\n      swap3\n      swap2\n      pop\n      pop\n      jump\t// out\n        /* \"#utility.yul\":13241:14370   */\n    tag_165:\n        /* \"#utility.yul\":13352:13355   */\n      0x00\n        /* \"#utility.yul\":13388:13392   */\n      0xa0\n        /* \"#utility.yul\":13383:13386   */\n      dup4\n        /* \"#utility.yul\":13379:13393   */\n      add\n        /* \"#utility.yul\":13477:13481   */\n      0x00\n        /* \"#utility.yul\":13470:13475   */\n      dup4\n        /* \"#utility.yul\":13466:13482   */\n      add\n        /* \"#utility.yul\":13460:13483   */\n      mload\n        /* \"#utility.yul\":13496:13559   */\n      tag_330\n        /* \"#utility.yul\":13553:13557   */\n      0x00\n        /* \"#utility.yul\":13548:13551   */\n      dup7\n        /* \"#utility.yul\":13544:13558   */\n      add\n        /* \"#utility.yul\":13530:13542   */\n      dup3\n        /* \"#utility.yul\":13496:13559   */\n      tag_144\n      jump\t// in\n    tag_330:\n        /* \"#utility.yul\":13403:13569   */\n      pop\n        /* \"#utility.yul\":13654:13658   */\n      0x20\n        /* \"#utility.yul\":13647:13652   */\n      dup4\n        /* \"#utility.yul\":13643:13659   */\n      add\n        /* \"#utility.yul\":13637:13660   */\n      mload\n        /* \"#utility.yul\":13707:13710   */\n      dup5\n        /* \"#utility.yul\":13701:13705   */\n      dup3\n        /* \"#utility.yul\":13697:13711   */\n      sub\n        /* \"#utility.yul\":13690:13694   */\n      0x20\n        /* \"#utility.yul\":13685:13688   */\n      dup7\n        /* \"#utility.yul\":13681:13695   */\n      add\n        /* \"#utility.yul\":13674:13712   */\n      mstore\n        /* \"#utility.yul\":13733:13806   */\n      tag_331\n        /* \"#utility.yul\":13801:13805   */\n      dup3\n        /* \"#utility.yul\":13787:13799   */\n      dup3\n        /* \"#utility.yul\":13733:13806   */\n      tag_146\n      jump\t// in\n    tag_331:\n        /* \"#utility.yul\":13725:13806   */\n      swap2\n      pop\n        /* \"#utility.yul\":13579:13817   */\n      pop\n        /* \"#utility.yul\":13904:13908   */\n      0x40\n        /* \"#utility.yul\":13897:13902   */\n      dup4\n        /* \"#utility.yul\":13893:13909   */\n      add\n        /* \"#utility.yul\":13887:13910   */\n      mload\n        /* \"#utility.yul\":13923:13986   */\n      tag_332\n        /* \"#utility.yul\":13980:13984   */\n      0x40\n        /* \"#utility.yul\":13975:13978   */\n      dup7\n        /* \"#utility.yul\":13971:13985   */\n      add\n        /* \"#utility.yul\":13957:13969   */\n      dup3\n        /* \"#utility.yul\":13923:13986   */\n      tag_147\n      jump\t// in\n    tag_332:\n        /* \"#utility.yul\":13827:13996   */\n      pop\n        /* \"#utility.yul\":14079:14083   */\n      0x60\n        /* \"#utility.yul\":14072:14077   */\n      dup4\n        /* \"#utility.yul\":14068:14084   */\n      add\n        /* \"#utility.yul\":14062:14085   */\n      mload\n        /* \"#utility.yul\":14098:14161   */\n      tag_333\n        /* \"#utility.yul\":14155:14159   */\n      0x60\n        /* \"#utility.yul\":14150:14153   */\n      dup7\n        /* \"#utility.yul\":14146:14160   */\n      add\n        /* \"#utility.yul\":14132:14144   */\n      dup3\n        /* \"#utility.yul\":14098:14161   */\n      tag_147\n      jump\t// in\n    tag_333:\n        /* \"#utility.yul\":14006:14171   */\n      pop\n        /* \"#utility.yul\":14251:14255   */\n      0x80\n        /* \"#utility.yul\":14244:14249   */\n      dup4\n        /* \"#utility.yul\":14240:14256   */\n      add\n        /* \"#utility.yul\":14234:14257   */\n      mload\n        /* \"#utility.yul\":14270:14333   */\n      tag_334\n        /* \"#utility.yul\":14327:14331   */\n      0x80\n        /* \"#utility.yul\":14322:14325   */\n      dup7\n        /* \"#utility.yul\":14318:14332   */\n      add\n        /* \"#utility.yul\":14304:14316   */\n      dup3\n        /* \"#utility.yul\":14270:14333   */\n      tag_147\n      jump\t// in\n    tag_334:\n        /* \"#utility.yul\":14181:14343   */\n      pop\n        /* \"#utility.yul\":14360:14364   */\n      dup1\n        /* \"#utility.yul\":14353:14364   */\n      swap2\n      pop\n        /* \"#utility.yul\":13357:14370   */\n      pop\n        /* \"#utility.yul\":13241:14370   */\n      swap3\n      swap2\n      pop\n      pop\n      jump\t// out\n        /* \"#utility.yul\":14376:14733   */\n    tag_50:\n        /* \"#utility.yul\":14511:14515   */\n      0x00\n        /* \"#utility.yul\":14549:14551   */\n      0x20\n        /* \"#utility.yul\":14538:14547   */\n      dup3\n        /* \"#utility.yul\":14534:14552   */\n      add\n        /* \"#utility.yul\":14526:14552   */\n      swap1\n      pop\n        /* \"#utility.yul\":14598:14607   */\n      dup2\n        /* \"#utility.yul\":14592:14596   */\n      dup2\n        /* \"#utility.yul\":14588:14608   */\n      sub\n        /* \"#utility.yul\":14584:14585   */\n      0x00\n        /* \"#utility.yul\":14573:14582   */\n      dup4\n        /* \"#utility.yul\":14569:14586   */\n      add\n        /* \"#utility.yul\":14562:14609   */\n      mstore\n        /* \"#utility.yul\":14626:14726   */\n      tag_336\n        /* \"#utility.yul\":14721:14725   */\n      dup2\n        /* \"#utility.yul\":14712:14718   */\n      dup5\n        /* \"#utility.yul\":14626:14726   */\n      tag_165\n      jump\t// in\n    tag_336:\n        /* \"#utility.yul\":14618:14726   */\n      swap1\n      pop\n        /* \"#utility.yul\":14376:14733   */\n      swap3\n      swap2\n      pop\n      pop\n      jump\t// out\n        /* \"#utility.yul\":14739:14919   */\n    tag_166:\n        /* \"#utility.yul\":14787:14864   */\n      0x4e487b7100000000000000000000000000000000000000000000000000000000\n        /* \"#utility.yul\":14784:14785   */\n      0x00\n        /* \"#utility.yul\":14777:14865   */\n      mstore\n        /* \"#utility.yul\":14884:14888   */\n      0x22\n        /* \"#utility.yul\":14881:14882   */\n      0x04\n        /* \"#utility.yul\":14874:14889   */\n      mstore\n        /* \"#utility.yul\":14908:14912   */\n      0x24\n        /* \"#utility.yul\":14905:14906   */\n      0x00\n        /* \"#utility.yul\":14898:14913   */\n      revert\n        /* \"#utility.yul\":14925:15245   */\n    tag_57:\n        /* \"#utility.yul\":14969:14975   */\n      0x00\n        /* \"#utility.yul\":15006:15007   */\n      0x02\n        /* \"#utility.yul\":15000:15004   */\n      dup3\n        /* \"#utility.yul\":14996:15008   */\n      div\n        /* \"#utility.yul\":14986:15008   */\n      swap1\n      pop\n        /* \"#utility.yul\":15053:15054   */\n      0x01\n        /* \"#utility.yul\":15047:15051   */\n      dup3\n        /* \"#utility.yul\":15043:15055   */\n      and\n        /* \"#utility.yul\":15074:15092   */\n      dup1\n        /* \"#utility.yul\":15064:15145   */\n      tag_339\n      jumpi\n        /* \"#utility.yul\":15130:15134   */\n      0x7f\n        /* \"#utility.yul\":15122:15128   */\n      dup3\n        /* \"#utility.yul\":15118:15135   */\n      and\n        /* \"#utility.yul\":15108:15135   */\n      swap2\n      pop\n        /* \"#utility.yul\":15064:15145   */\n    tag_339:\n        /* \"#utility.yul\":15192:15194   */\n      0x20\n        /* \"#utility.yul\":15184:15190   */\n      dup3\n        /* \"#utility.yul\":15181:15195   */\n      lt\n        /* \"#utility.yul\":15161:15179   */\n      dup2\n        /* \"#utility.yul\":15158:15196   */\n      sub\n        /* \"#utility.yul\":15155:15239   */\n      tag_340\n      jumpi\n        /* \"#utility.yul\":15211:15229   */\n      tag_341\n      tag_166\n      jump\t// in\n    tag_341:\n        /* \"#utility.yul\":15155:15239   */\n    tag_340:\n        /* \"#utility.yul\":14976:15245   */\n      pop\n        /* \"#utility.yul\":14925:15245   */\n      swap2\n      swap1\n      pop\n      jump\t// out\n        /* \"#utility.yul\":15251:15423   */\n    tag_167:\n        /* \"#utility.yul\":15391:15415   */\n      0x594f5520415245204e4f5420544845204f574e45522100000000000000000000\n        /* \"#utility.yul\":15387:15388   */\n      0x00\n        /* \"#utility.yul\":15379:15385   */\n      dup3\n        /* \"#utility.yul\":15375:15389   */\n      add\n        /* \"#utility.yul\":15368:15416   */\n      mstore\n        /* \"#utility.yul\":15251:15423   */\n      pop\n      jump\t// out\n        /* \"#utility.yul\":15429:15795   */\n    tag_168:\n        /* \"#utility.yul\":15571:15574   */\n      0x00\n        /* \"#utility.yul\":15592:15659   */\n      tag_344\n        /* \"#utility.yul\":15656:15658   */\n      0x16\n        /* \"#utility.yul\":15651:15654   */\n      dup4\n        /* \"#utility.yul\":15592:15659   */\n      tag_136\n      jump\t// in\n    tag_344:\n        /* \"#utility.yul\":15585:15659   */\n      swap2\n      pop\n        /* \"#utility.yul\":15668:15761   */\n      tag_345\n        /* \"#utility.yul\":15757:15760   */\n      dup3\n        /* \"#utility.yul\":15668:15761   */\n      tag_167\n      jump\t// in\n    tag_345:\n        /* \"#utility.yul\":15786:15788   */\n      0x20\n        /* \"#utility.yul\":15781:15784   */\n      dup3\n        /* \"#utility.yul\":15777:15789   */\n      add\n        /* \"#utility.yul\":15770:15789   */\n      swap1\n      pop\n        /* \"#utility.yul\":15429:15795   */\n      swap2\n      swap1\n      pop\n      jump\t// out\n        /* \"#utility.yul\":15801:16220   */\n    tag_74:\n        /* \"#utility.yul\":15967:15971   */\n      0x00\n        /* \"#utility.yul\":16005:16007   */\n      0x20\n        /* \"#utility.yul\":15994:16003   */\n      dup3\n        /* \"#utility.yul\":15990:16008   */\n      add\n        /* \"#utility.yul\":15982:16008   */\n      swap1\n      pop\n        /* \"#utility.yul\":16054:16063   */\n      dup2\n        /* \"#utility.yul\":16048:16052   */\n      dup2\n        /* \"#utility.yul\":16044:16064   */\n      sub\n        /* \"#utility.yul\":16040:16041   */\n      0x00\n        /* \"#utility.yul\":16029:16038   */\n      dup4\n        /* \"#utility.yul\":16025:16042   */\n      add\n        /* \"#utility.yul\":16018:16065   */\n      mstore\n        /* \"#utility.yul\":16082:16213   */\n      tag_347\n        /* \"#utility.yul\":16208:16212   */\n      dup2\n        /* \"#utility.yul\":16082:16213   */\n      tag_168\n      jump\t// in\n    tag_347:\n        /* \"#utility.yul\":16074:16213   */\n      swap1\n      pop\n        /* \"#utility.yul\":15801:16220   */\n      swap2\n      swap1\n      pop\n      jump\t// out\n        /* \"#utility.yul\":16226:16398   */\n    tag_169:\n        /* \"#utility.yul\":16366:16390   */\n      0x547765657420697320746f6f206c6f6e672062726f2100000000000000000000\n        /* \"#utility.yul\":16362:16363   */\n      0x00\n        /* \"#utility.yul\":16354:16360   */\n      dup3\n        /* \"#utility.yul\":16350:16364   */\n      add\n        /* \"#utility.yul\":16343:16391   */\n      mstore\n        /* \"#utility.yul\":16226:16398   */\n      pop\n      jump\t// out\n        /* \"#utility.yul\":16404:16770   */\n    tag_170:\n        /* \"#utility.yul\":16546:16549   */\n      0x00\n        /* \"#utility.yul\":16567:16634   */\n      tag_350\n        /* \"#utility.yul\":16631:16633   */\n      0x16\n        /* \"#utility.yul\":16626:16629   */\n      dup4\n        /* \"#utility.yul\":16567:16634   */\n      tag_136\n      jump\t// in\n    tag_350:\n        /* \"#utility.yul\":16560:16634   */\n      swap2\n      pop\n        /* \"#utility.yul\":16643:16736   */\n      tag_351\n        /* \"#utility.yul\":16732:16735   */\n      dup3\n        /* \"#utility.yul\":16643:16736   */\n      tag_169\n      jump\t// in\n    tag_351:\n        /* \"#utility.yul\":16761:16763   */\n      0x20\n        /* \"#utility.yul\":16756:16759   */\n      dup3\n        /* \"#utility.yul\":16752:16764   */\n      add\n        /* \"#utility.yul\":16745:16764   */\n      swap1\n      pop\n        /* \"#utility.yul\":16404:16770   */\n      swap2\n      swap1\n      pop\n      jump\t// out\n        /* \"#utility.yul\":16776:17195   */\n    tag_79:\n        /* \"#utility.yul\":16942:16946   */\n      0x00\n        /* \"#utility.yul\":16980:16982   */\n      0x20\n        /* \"#utility.yul\":16969:16978   */\n      dup3\n        /* \"#utility.yul\":16965:16983   */\n      add\n        /* \"#utility.yul\":16957:16983   */\n      swap1\n      pop\n        /* \"#utility.yul\":17029:17038   */\n      dup2\n        /* \"#utility.yul\":17023:17027   */\n      dup2\n        /* \"#utility.yul\":17019:17039   */\n      sub\n        /* \"#utility.yul\":17015:17016   */\n      0x00\n        /* \"#utility.yul\":17004:17013   */\n      dup4\n        /* \"#utility.yul\":17000:17017   */\n      add\n        /* \"#utility.yul\":16993:17040   */\n      mstore\n        /* \"#utility.yul\":17057:17188   */\n      tag_353\n        /* \"#utility.yul\":17183:17187   */\n      dup2\n        /* \"#utility.yul\":17057:17188   */\n      tag_170\n      jump\t// in\n    tag_353:\n        /* \"#utility.yul\":17049:17188   */\n      swap1\n      pop\n        /* \"#utility.yul\":16776:17195   */\n      swap2\n      swap1\n      pop\n      jump\t// out\n        /* \"#utility.yul\":17201:17342   */\n    tag_171:\n        /* \"#utility.yul\":17250:17254   */\n      0x00\n        /* \"#utility.yul\":17273:17276   */\n      dup2\n        /* \"#utility.yul\":17265:17276   */\n      swap1\n      pop\n        /* \"#utility.yul\":17296:17299   */\n      dup2\n        /* \"#utility.yul\":17293:17294   */\n      0x00\n        /* \"#utility.yul\":17286:17300   */\n      mstore\n        /* \"#utility.yul\":17330:17334   */\n      0x20\n        /* \"#utility.yul\":17327:17328   */\n      0x00\n        /* \"#utility.yul\":17317:17335   */\n      keccak256\n        /* \"#utility.yul\":17309:17335   */\n      swap1\n      pop\n        /* \"#utility.yul\":17201:17342   */\n      swap2\n      swap1\n      pop\n      jump\t// out\n        /* \"#utility.yul\":17348:17441   */\n    tag_172:\n        /* \"#utility.yul\":17385:17391   */\n      0x00\n        /* \"#utility.yul\":17432:17434   */\n      0x20\n        /* \"#utility.yul\":17427:17429   */\n      0x1f\n        /* \"#utility.yul\":17420:17425   */\n      dup4\n        /* \"#utility.yul\":17416:17430   */\n      add\n        /* \"#utility.yul\":17412:17435   */\n      div\n        /* \"#utility.yul\":17402:17435   */\n      swap1\n      pop\n        /* \"#utility.yul\":17348:17441   */\n      swap2\n      swap1\n      pop\n      jump\t// out\n        /* \"#utility.yul\":17447:17554   */\n    tag_173:\n        /* \"#utility.yul\":17491:17499   */\n      0x00\n        /* \"#utility.yul\":17541:17546   */\n      dup3\n        /* \"#utility.yul\":17535:17539   */\n      dup3\n        /* \"#utility.yul\":17531:17547   */\n      shl\n        /* \"#utility.yul\":17510:17547   */\n      swap1\n      pop\n        /* \"#utility.yul\":17447:17554   */\n      swap3\n      swap2\n      pop\n      pop\n      jump\t// out\n        /* \"#utility.yul\":17560:17953   */\n    tag_174:\n        /* \"#utility.yul\":17629:17635   */\n      0x00\n        /* \"#utility.yul\":17679:17680   */\n      0x08\n        /* \"#utility.yul\":17667:17677   */\n      dup4\n        /* \"#utility.yul\":17663:17681   */\n      mul\n        /* \"#utility.yul\":17702:17799   */\n      tag_358\n        /* \"#utility.yul\":17732:17798   */\n      0xffffffffffffffffffffffffffffffffffffffffffffffffffffffffffffffff\n        /* \"#utility.yul\":17721:17730   */\n      dup3\n        /* \"#utility.yul\":17702:17799   */\n      tag_173\n      jump\t// in\n    tag_358:\n        /* \"#utility.yul\":17820:17859   */\n      tag_359\n        /* \"#utility.yul\":17850:17858   */\n      dup7\n        /* \"#utility.yul\":17839:17848   */\n      dup4\n        /* \"#utility.yul\":17820:17859   */\n      tag_173\n      jump\t// in\n    tag_359:\n        /* \"#utility.yul\":17808:17859   */\n      swap6\n      pop\n        /* \"#utility.yul\":17892:17896   */\n      dup1\n        /* \"#utility.yul\":17888:17897   */\n      not\n        /* \"#utility.yul\":17881:17886   */\n      dup5\n        /* \"#utility.yul\":17877:17898   */\n      and\n        /* \"#utility.yul\":17868:17898   */\n      swap4\n      pop\n        /* \"#utility.yul\":17941:17945   */\n      dup1\n        /* \"#utility.yul\":17931:17939   */\n      dup7\n        /* \"#utility.yul\":17927:17946   */\n      and\n        /* \"#utility.yul\":17920:17925   */\n      dup5\n        /* \"#utility.yul\":17917:17947   */\n      or\n        /* \"#utility.yul\":17907:17947   */\n      swap3\n      pop\n        /* \"#utility.yul\":17636:17953   */\n      pop\n      pop\n        /* \"#utility.yul\":17560:17953   */\n      swap4\n      swap3\n      pop\n      pop\n      pop\n      jump\t// out\n        /* \"#utility.yul\":17959:18019   */\n    tag_175:\n        /* \"#utility.yul\":17987:17990   */\n      0x00\n        /* \"#utility.yul\":18008:18013   */\n      dup2\n        /* \"#utility.yul\":18001:18013   */\n      swap1\n      pop\n        /* \"#utility.yul\":17959:18019   */\n      swap2\n      swap1\n      pop\n      jump\t// out\n        /* \"#utility.yul\":18025:18167   */\n    tag_176:\n        /* \"#utility.yul\":18075:18084   */\n      0x00\n        /* \"#utility.yul\":18108:18161   */\n      tag_362\n        /* \"#utility.yul\":18126:18160   */\n      tag_363\n        /* \"#utility.yul\":18135:18159   */\n      tag_364\n        /* \"#utility.yul\":18153:18158   */\n      dup5\n        /* \"#utility.yul\":18135:18159   */\n      tag_131\n      jump\t// in\n    tag_364:\n        /* \"#utility.yul\":18126:18160   */\n      tag_175\n      jump\t// in\n    tag_363:\n        /* \"#utility.yul\":18108:18161   */\n      tag_131\n      jump\t// in\n    tag_362:\n        /* \"#utility.yul\":18095:18161   */\n      swap1\n      pop\n        /* \"#utility.yul\":18025:18167   */\n      swap2\n      swap1\n      pop\n      jump\t// out\n        /* \"#utility.yul\":18173:18248   */\n    tag_177:\n        /* \"#utility.yul\":18216:18219   */\n      0x00\n        /* \"#utility.yul\":18237:18242   */\n      dup2\n        /* \"#utility.yul\":18230:18242   */\n      swap1\n      pop\n        /* \"#utility.yul\":18173:18248   */\n      swap2\n      swap1\n      pop\n      jump\t// out\n        /* \"#utility.yul\":18254:18523   */\n    tag_178:\n        /* \"#utility.yul\":18364:18403   */\n      tag_367\n        /* \"#utility.yul\":18395:18402   */\n      dup4\n        /* \"#utility.yul\":18364:18403   */\n      tag_176\n      jump\t// in\n    tag_367:\n        /* \"#utility.yul\":18425:18516   */\n      tag_368\n        /* \"#utility.yul\":18474:18515   */\n      tag_369\n        /* \"#utility.yul\":18498:18514   */\n      dup3\n        /* \"#utility.yul\":18474:18515   */\n      tag_177\n      jump\t// in\n    tag_369:\n        /* \"#utility.yul\":18466:18472   */\n      dup5\n        /* \"#utility.yul\":18459:18463   */\n      dup5\n        /* \"#utility.yul\":18453:18464   */\n      sload\n        /* \"#utility.yul\":18425:18516   */\n      tag_174\n      jump\t// in\n    tag_368:\n        /* \"#utility.yul\":18419:18423   */\n      dup3\n        /* \"#utility.yul\":18412:18517   */\n      sstore\n        /* \"#utility.yul\":18330:18523   */\n      pop\n        /* \"#utility.yul\":18254:18523   */\n      pop\n      pop\n      pop\n      jump\t// out\n        /* \"#utility.yul\":18529:18602   */\n    tag_179:\n        /* \"#utility.yul\":18574:18577   */\n      0x00\n        /* \"#utility.yul\":18529:18602   */\n      swap1\n      jump\t// out\n        /* \"#utility.yul\":18608:18797   */\n    tag_180:\n        /* \"#utility.yul\":18685:18717   */\n      tag_372\n      tag_179\n      jump\t// in\n    tag_372:\n        /* \"#utility.yul\":18726:18791   */\n      tag_373\n        /* \"#utility.yul\":18784:18790   */\n      dup2\n        /* \"#utility.yul\":18776:18782   */\n      dup5\n        /* \"#utility.yul\":18770:18774   */\n      dup5\n        /* \"#utility.yul\":18726:18791   */\n      tag_178\n      jump\t// in\n    tag_373:\n        /* \"#utility.yul\":18661:18797   */\n      pop\n        /* \"#utility.yul\":18608:18797   */\n      pop\n      pop\n      jump\t// out\n        /* \"#utility.yul\":18803:18989   */\n    tag_181:\n        /* \"#utility.yul\":18863:18983   */\n    tag_375:\n        /* \"#utility.yul\":18880:18883   */\n      dup2\n        /* \"#utility.yul\":18873:18878   */\n      dup2\n        /* \"#utility.yul\":18870:18884   */\n      lt\n        /* \"#utility.yul\":18863:18983   */\n      iszero\n      tag_377\n      jumpi\n        /* \"#utility.yul\":18934:18973   */\n      tag_378\n        /* \"#utility.yul\":18971:18972   */\n      0x00\n        /* \"#utility.yul\":18964:18969   */\n      dup3\n        /* \"#utility.yul\":18934:18973   */\n      tag_180\n      jump\t// in\n    tag_378:\n        /* \"#utility.yul\":18907:18908   */\n      0x01\n        /* \"#utility.yul\":18900:18905   */\n      dup2\n        /* \"#utility.yul\":18896:18909   */\n      add\n        /* \"#utility.yul\":18887:18909   */\n      swap1\n      pop\n        /* \"#utility.yul\":18863:18983   */\n      jump(tag_375)\n    tag_377:\n        /* \"#utility.yul\":18803:18989   */\n      pop\n      pop\n      jump\t// out\n        /* \"#utility.yul\":18995:19538   */\n    tag_182:\n        /* \"#utility.yul\":19096:19098   */\n      0x1f\n        /* \"#utility.yul\":19091:19094   */\n      dup3\n        /* \"#utility.yul\":19088:19099   */\n      gt\n        /* \"#utility.yul\":19085:19531   */\n      iszero\n      tag_380\n      jumpi\n        /* \"#utility.yul\":19130:19168   */\n      tag_381\n        /* \"#utility.yul\":19162:19167   */\n      dup2\n        /* \"#utility.yul\":19130:19168   */\n      tag_171\n      jump\t// in\n    tag_381:\n        /* \"#utility.yul\":19214:19243   */\n      tag_382\n        /* \"#utility.yul\":19232:19242   */\n      dup5\n        /* \"#utility.yul\":19214:19243   */\n      tag_172\n      jump\t// in\n    tag_382:\n        /* \"#utility.yul\":19204:19212   */\n      dup2\n        /* \"#utility.yul\":19200:19244   */\n      add\n        /* \"#utility.yul\":19397:19399   */\n      0x20\n        /* \"#utility.yul\":19385:19395   */\n      dup6\n        /* \"#utility.yul\":19382:19400   */\n      lt\n        /* \"#utility.yul\":19379:19428   */\n      iszero\n      tag_383\n      jumpi\n        /* \"#utility.yul\":19418:19426   */\n      dup2\n        /* \"#utility.yul\":19403:19426   */\n      swap1\n      pop\n        /* \"#utility.yul\":19379:19428   */\n    tag_383:\n        /* \"#utility.yul\":19441:19521   */\n      tag_384\n        /* \"#utility.yul\":19497:19519   */\n      tag_385\n        /* \"#utility.yul\":19515:19518   */\n      dup6\n        /* \"#utility.yul\":19497:19519   */\n      tag_172\n      jump\t// in\n    tag_385:\n        /* \"#utility.yul\":19487:19495   */\n      dup4\n        /* \"#utility.yul\":19483:19520   */\n      add\n        /* \"#utility.yul\":19470:19481   */\n      dup3\n        /* \"#utility.yul\":19441:19521   */\n      tag_181\n      jump\t// in\n    tag_384:\n        /* \"#utility.yul\":19100:19531   */\n      pop\n      pop\n        /* \"#utility.yul\":19085:19531   */\n    tag_380:\n        /* \"#utility.yul\":18995:19538   */\n      pop\n      pop\n      pop\n      jump\t// out\n        /* \"#utility.yul\":19544:19661   */\n    tag_183:\n        /* \"#utility.yul\":19598:19606   */\n      0x00\n        /* \"#utility.yul\":19648:19653   */\n      dup3\n        /* \"#utility.yul\":19642:19646   */\n      dup3\n        /* \"#utility.yul\":19638:19654   */\n      shr\n        /* \"#utility.yul\":19617:19654   */\n      swap1\n      pop\n        /* \"#utility.yul\":19544:19661   */\n      swap3\n      swap2\n      pop\n      pop\n      jump\t// out\n        /* \"#utility.yul\":19667:19836   */\n    tag_184:\n        /* \"#utility.yul\":19711:19717   */\n      0x00\n        /* \"#utility.yul\":19744:19795   */\n      tag_388\n        /* \"#utility.yul\":19792:19793   */\n      0x00\n        /* \"#utility.yul\":19788:19794   */\n      not\n        /* \"#utility.yul\":19780:19785   */\n      dup5\n        /* \"#utility.yul\":19777:19778   */\n      0x08\n        /* \"#utility.yul\":19773:19786   */\n      mul\n        /* \"#utility.yul\":19744:19795   */\n      tag_183\n      jump\t// in\n    tag_388:\n        /* \"#utility.yul\":19740:19796   */\n      not\n        /* \"#utility.yul\":19825:19829   */\n      dup1\n        /* \"#utility.yul\":19819:19823   */\n      dup4\n        /* \"#utility.yul\":19815:19830   */\n      and\n        /* \"#utility.yul\":19805:19830   */\n      swap2\n      pop\n        /* \"#utility.yul\":19718:19836   */\n      pop\n        /* \"#utility.yul\":19667:19836   */\n      swap3\n      swap2\n      pop\n      pop\n      jump\t// out\n        /* \"#utility.yul\":19841:20136   */\n    tag_185:\n        /* \"#utility.yul\":19917:19921   */\n      0x00\n        /* \"#utility.yul\":20063:20092   */\n      tag_390\n        /* \"#utility.yul\":20088:20091   */\n      dup4\n        /* \"#utility.yul\":20082:20086   */\n      dup4\n        /* \"#utility.yul\":20063:20092   */\n      tag_184\n      jump\t// in\n    tag_390:\n        /* \"#utility.yul\":20055:20092   */\n      swap2\n      pop\n        /* \"#utility.yul\":20125:20128   */\n      dup3\n        /* \"#utility.yul\":20122:20123   */\n      0x02\n        /* \"#utility.yul\":20118:20129   */\n      mul\n        /* \"#utility.yul\":20112:20116   */\n      dup3\n        /* \"#utility.yul\":20109:20130   */\n      or\n        /* \"#utility.yul\":20101:20130   */\n      swap1\n      pop\n        /* \"#utility.yul\":19841:20136   */\n      swap3\n      swap2\n      pop\n      pop\n      jump\t// out\n        /* \"#utility.yul\":20141:21536   */\n    tag_82:\n        /* \"#utility.yul\":20258:20295   */\n      tag_392\n        /* \"#utility.yul\":20291:20294   */\n      dup3\n        /* \"#utility.yul\":20258:20295   */\n      tag_135\n      jump\t// in\n    tag_392:\n        /* \"#utility.yul\":20360:20378   */\n      0xffffffffffffffff\n        /* \"#utility.yul\":20352:20358   */\n      dup2\n        /* \"#utility.yul\":20349:20379   */\n      gt\n        /* \"#utility.yul\":20346:20402   */\n      iszero\n      tag_393\n      jumpi\n        /* \"#utility.yul\":20382:20400   */\n      tag_394\n      tag_158\n      jump\t// in\n    tag_394:\n        /* \"#utility.yul\":20346:20402   */\n    tag_393:\n        /* \"#utility.yul\":20426:20464   */\n      tag_395\n        /* \"#utility.yul\":20458:20462   */\n      dup3\n        /* \"#utility.yul\":20452:20463   */\n      sload\n        /* \"#utility.yul\":20426:20464   */\n      tag_57\n      jump\t// in\n    tag_395:\n        /* \"#utility.yul\":20511:20578   */\n      tag_396\n        /* \"#utility.yul\":20571:20577   */\n      dup3\n        /* \"#utility.yul\":20563:20569   */\n      dup3\n        /* \"#utility.yul\":20557:20561   */\n      dup6\n        /* \"#utility.yul\":20511:20578   */\n      tag_182\n      jump\t// in\n    tag_396:\n        /* \"#utility.yul\":20605:20606   */\n      0x00\n        /* \"#utility.yul\":20629:20633   */\n      0x20\n        /* \"#utility.yul\":20616:20633   */\n      swap1\n      pop\n        /* \"#utility.yul\":20661:20663   */\n      0x1f\n        /* \"#utility.yul\":20653:20659   */\n      dup4\n        /* \"#utility.yul\":20650:20664   */\n      gt\n        /* \"#utility.yul\":20678:20679   */\n      0x01\n        /* \"#utility.yul\":20673:21291   */\n      dup2\n      eq\n      tag_398\n      jumpi\n        /* \"#utility.yul\":21335:21336   */\n      0x00\n        /* \"#utility.yul\":21352:21358   */\n      dup5\n        /* \"#utility.yul\":21349:21426   */\n      iszero\n      tag_399\n      jumpi\n        /* \"#utility.yul\":21401:21410   */\n      dup3\n        /* \"#utility.yul\":21396:21399   */\n      dup8\n        /* \"#utility.yul\":21392:21411   */\n      add\n        /* \"#utility.yul\":21386:21412   */\n      mload\n        /* \"#utility.yul\":21377:21412   */\n      swap1\n      pop\n        /* \"#utility.yul\":21349:21426   */\n    tag_399:\n        /* \"#utility.yul\":21452:21519   */\n      tag_400\n        /* \"#utility.yul\":21512:21518   */\n      dup6\n        /* \"#utility.yul\":21505:21510   */\n      dup3\n        /* \"#utility.yul\":21452:21519   */\n      tag_185\n      jump\t// in\n    tag_400:\n        /* \"#utility.yul\":21446:21450   */\n      dup7\n        /* \"#utility.yul\":21439:21520   */\n      sstore\n        /* \"#utility.yul\":21308:21530   */\n      pop\n        /* \"#utility.yul\":20643:21530   */\n      jump(tag_397)\n        /* \"#utility.yul\":20673:21291   */\n    tag_398:\n        /* \"#utility.yul\":20725:20729   */\n      0x1f\n        /* \"#utility.yul\":20721:20730   */\n      not\n        /* \"#utility.yul\":20713:20719   */\n      dup5\n        /* \"#utility.yul\":20709:20731   */\n      and\n        /* \"#utility.yul\":20759:20796   */\n      tag_401\n        /* \"#utility.yul\":20791:20795   */\n      dup7\n        /* \"#utility.yul\":20759:20796   */\n      tag_171\n      jump\t// in\n    tag_401:\n        /* \"#utility.yul\":20818:20819   */\n      0x00\n        /* \"#utility.yul\":20832:21040   */\n    tag_402:\n        /* \"#utility.yul\":20846:20853   */\n      dup3\n        /* \"#utility.yul\":20843:20844   */\n      dup2\n        /* \"#utility.yul\":20840:20854   */\n      lt\n        /* \"#utility.yul\":20832:21040   */\n      iszero\n      tag_404\n      jumpi\n        /* \"#utility.yul\":20925:20934   */\n      dup5\n        /* \"#utility.yul\":20920:20923   */\n      dup10\n        /* \"#utility.yul\":20916:20935   */\n      add\n        /* \"#utility.yul\":20910:20936   */\n      mload\n        /* \"#utility.yul\":20902:20908   */\n      dup3\n        /* \"#utility.yul\":20895:20937   */\n      sstore\n        /* \"#utility.yul\":20976:20977   */\n      0x01\n        /* \"#utility.yul\":20968:20974   */\n      dup3\n        /* \"#utility.yul\":20964:20978   */\n      add\n        /* \"#utility.yul\":20954:20978   */\n      swap2\n      pop\n        /* \"#utility.yul\":21023:21025   */\n      0x20\n        /* \"#utility.yul\":21012:21021   */\n      dup6\n        /* \"#utility.yul\":21008:21026   */\n      add\n        /* \"#utility.yul\":20995:21026   */\n      swap5\n      pop\n        /* \"#utility.yul\":20869:20873   */\n      0x20\n        /* \"#utility.yul\":20866:20867   */\n      dup2\n        /* \"#utility.yul\":20862:20874   */\n      add\n        /* \"#utility.yul\":20857:20874   */\n      swap1\n      pop\n        /* \"#utility.yul\":20832:21040   */\n      jump(tag_402)\n    tag_404:\n        /* \"#utility.yul\":21068:21074   */\n      dup7\n        /* \"#utility.yul\":21059:21066   */\n      dup4\n        /* \"#utility.yul\":21056:21075   */\n      lt\n        /* \"#utility.yul\":21053:21232   */\n      iszero\n      tag_405\n      jumpi\n        /* \"#utility.yul\":21126:21135   */\n      dup5\n        /* \"#utility.yul\":21121:21124   */\n      dup10\n        /* \"#utility.yul\":21117:21136   */\n      add\n        /* \"#utility.yul\":21111:21137   */\n      mload\n        /* \"#utility.yul\":21169:21217   */\n      tag_406\n        /* \"#utility.yul\":21211:21215   */\n      0x1f\n        /* \"#utility.yul\":21203:21209   */\n      dup10\n        /* \"#utility.yul\":21199:21216   */\n      and\n        /* \"#utility.yul\":21188:21197   */\n      dup3\n        /* \"#utility.yul\":21169:21217   */\n      tag_184\n      jump\t// in\n    tag_406:\n        /* \"#utility.yul\":21161:21167   */\n      dup4\n        /* \"#utility.yul\":21154:21218   */\n      sstore\n        /* \"#utility.yul\":21076:21232   */\n      pop\n        /* \"#utility.yul\":21053:21232   */\n    tag_405:\n        /* \"#utility.yul\":21278:21279   */\n      0x01\n        /* \"#utility.yul\":21274:21275   */\n      0x02\n        /* \"#utility.yul\":21266:21272   */\n      dup9\n        /* \"#utility.yul\":21262:21276   */\n      mul\n        /* \"#utility.yul\":21258:21280   */\n      add\n        /* \"#utility.yul\":21252:21256   */\n      dup9\n        /* \"#utility.yul\":21245:21281   */\n      sstore\n        /* \"#utility.yul\":20680:21291   */\n      pop\n      pop\n      pop\n        /* \"#utility.yul\":20643:21530   */\n    tag_397:\n      pop\n        /* \"#utility.yul\":20233:21536   */\n      pop\n      pop\n      pop\n        /* \"#utility.yul\":20141:21536   */\n      pop\n      pop\n      jump\t// out\n        /* \"#utility.yul\":21542:21722   */\n    tag_86:\n        /* \"#utility.yul\":21590:21667   */\n      0x4e487b7100000000000000000000000000000000000000000000000000000000\n        /* \"#utility.yul\":21587:21588   */\n      0x00\n        /* \"#utility.yul\":21580:21668   */\n      mstore\n        /* \"#utility.yul\":21687:21691   */\n      0x32\n        /* \"#utility.yul\":21684:21685   */\n      0x04\n        /* \"#utility.yul\":21677:21692   */\n      mstore\n        /* \"#utility.yul\":21711:21715   */\n      0x24\n        /* \"#utility.yul\":21708:21709   */\n      0x00\n        /* \"#utility.yul\":21701:21716   */\n      revert\n        /* \"#utility.yul\":21728:21888   */\n    tag_186:\n        /* \"#utility.yul\":21868:21880   */\n      0x4e6f742045786973697400000000000000000000000000000000000000000000\n        /* \"#utility.yul\":21864:21865   */\n      0x00\n        /* \"#utility.yul\":21856:21862   */\n      dup3\n        /* \"#utility.yul\":21852:21866   */\n      add\n        /* \"#utility.yul\":21845:21881   */\n      mstore\n        /* \"#utility.yul\":21728:21888   */\n      pop\n      jump\t// out\n        /* \"#utility.yul\":21894:22260   */\n    tag_187:\n        /* \"#utility.yul\":22036:22039   */\n      0x00\n        /* \"#utility.yul\":22057:22124   */\n      tag_410\n        /* \"#utility.yul\":22121:22123   */\n      0x0a\n        /* \"#utility.yul\":22116:22119   */\n      dup4\n        /* \"#utility.yul\":22057:22124   */\n      tag_136\n      jump\t// in\n    tag_410:\n        /* \"#utility.yul\":22050:22124   */\n      swap2\n      pop\n        /* \"#utility.yul\":22133:22226   */\n      tag_411\n        /* \"#utility.yul\":22222:22225   */\n      dup3\n        /* \"#utility.yul\":22133:22226   */\n      tag_186\n      jump\t// in\n    tag_411:\n        /* \"#utility.yul\":22251:22253   */\n      0x20\n        /* \"#utility.yul\":22246:22249   */\n      dup3\n        /* \"#utility.yul\":22242:22254   */\n      add\n        /* \"#utility.yul\":22235:22254   */\n      swap1\n      pop\n        /* \"#utility.yul\":21894:22260   */\n      swap2\n      swap1\n      pop\n      jump\t// out\n        /* \"#utility.yul\":22266:22685   */\n    tag_90:\n        /* \"#utility.yul\":22432:22436   */\n      0x00\n        /* \"#utility.yul\":22470:22472   */\n      0x20\n        /* \"#utility.yul\":22459:22468   */\n      dup3\n        /* \"#utility.yul\":22455:22473   */\n      add\n        /* \"#utility.yul\":22447:22473   */\n      swap1\n      pop\n        /* \"#utility.yul\":22519:22528   */\n      dup2\n        /* \"#utility.yul\":22513:22517   */\n      dup2\n        /* \"#utility.yul\":22509:22529   */\n      sub\n        /* \"#utility.yul\":22505:22506   */\n      0x00\n        /* \"#utility.yul\":22494:22503   */\n      dup4\n        /* \"#utility.yul\":22490:22507   */\n      add\n        /* \"#utility.yul\":22483:22530   */\n      mstore\n        /* \"#utility.yul\":22547:22678   */\n      tag_413\n        /* \"#utility.yul\":22673:22677   */\n      dup2\n        /* \"#utility.yul\":22547:22678   */\n      tag_187\n      jump\t// in\n    tag_413:\n        /* \"#utility.yul\":22539:22678   */\n      swap1\n      pop\n        /* \"#utility.yul\":22266:22685   */\n      swap2\n      swap1\n      pop\n      jump\t// out\n        /* \"#utility.yul\":22691:22849   */\n    tag_188:\n        /* \"#utility.yul\":22831:22841   */\n      0x4e6f206c696b6573000000000000000000000000000000000000000000000000\n        /* \"#utility.yul\":22827:22828   */\n      0x00\n        /* \"#utility.yul\":22819:22825   */\n      dup3\n        /* \"#utility.yul\":22815:22829   */\n      add\n        /* \"#utility.yul\":22808:22842   */\n      mstore\n        /* \"#utility.yul\":22691:22849   */\n      pop\n      jump\t// out\n        /* \"#utility.yul\":22855:23220   */\n    tag_189:\n        /* \"#utility.yul\":22997:23000   */\n      0x00\n        /* \"#utility.yul\":23018:23084   */\n      tag_416\n        /* \"#utility.yul\":23082:23083   */\n      0x08\n        /* \"#utility.yul\":23077:23080   */\n      dup4\n        /* \"#utility.yul\":23018:23084   */\n      tag_136\n      jump\t// in\n    tag_416:\n        /* \"#utility.yul\":23011:23084   */\n      swap2\n      pop\n        /* \"#utility.yul\":23093:23186   */\n      tag_417\n        /* \"#utility.yul\":23182:23185   */\n      dup3\n        /* \"#utility.yul\":23093:23186   */\n      tag_188\n      jump\t// in\n    tag_417:\n        /* \"#utility.yul\":23211:23213   */\n      0x20\n        /* \"#utility.yul\":23206:23209   */\n      dup3\n        /* \"#utility.yul\":23202:23214   */\n      add\n        /* \"#utility.yul\":23195:23214   */\n      swap1\n      pop\n        /* \"#utility.yul\":22855:23220   */\n      swap2\n      swap1\n      pop\n      jump\t// out\n        /* \"#utility.yul\":23226:23645   */\n    tag_96:\n        /* \"#utility.yul\":23392:23396   */\n      0x00\n        /* \"#utility.yul\":23430:23432   */\n      0x20\n        /* \"#utility.yul\":23419:23428   */\n      dup3\n        /* \"#utility.yul\":23415:23433   */\n      add\n        /* \"#utility.yul\":23407:23433   */\n      swap1\n      pop\n        /* \"#utility.yul\":23479:23488   */\n      dup2\n        /* \"#utility.yul\":23473:23477   */\n      dup2\n        /* \"#utility.yul\":23469:23489   */\n      sub\n        /* \"#utility.yul\":23465:23466   */\n      0x00\n        /* \"#utility.yul\":23454:23463   */\n      dup4\n        /* \"#utility.yul\":23450:23467   */\n      add\n        /* \"#utility.yul\":23443:23490   */\n      mstore\n        /* \"#utility.yul\":23507:23638   */\n      tag_419\n        /* \"#utility.yul\":23633:23637   */\n      dup2\n        /* \"#utility.yul\":23507:23638   */\n      tag_189\n      jump\t// in\n    tag_419:\n        /* \"#utility.yul\":23499:23638   */\n      swap1\n      pop\n        /* \"#utility.yul\":23226:23645   */\n      swap2\n      swap1\n      pop\n      jump\t// out\n        /* \"#utility.yul\":23651:23831   */\n    tag_190:\n        /* \"#utility.yul\":23699:23776   */\n      0x4e487b7100000000000000000000000000000000000000000000000000000000\n        /* \"#utility.yul\":23696:23697   */\n      0x00\n        /* \"#utility.yul\":23689:23777   */\n      mstore\n        /* \"#utility.yul\":23796:23800   */\n      0x11\n        /* \"#utility.yul\":23793:23794   */\n      0x04\n        /* \"#utility.yul\":23786:23801   */\n      mstore\n        /* \"#utility.yul\":23820:23824   */\n      0x24\n        /* \"#utility.yul\":23817:23818   */\n      0x00\n        /* \"#utility.yul\":23810:23825   */\n      revert\n        /* \"#utility.yul\":23837:24008   */\n    tag_101:\n        /* \"#utility.yul\":23876:23879   */\n      0x00\n        /* \"#utility.yul\":23899:23923   */\n      tag_422\n        /* \"#utility.yul\":23917:23922   */\n      dup3\n        /* \"#utility.yul\":23899:23923   */\n      tag_131\n      jump\t// in\n    tag_422:\n        /* \"#utility.yul\":23890:23923   */\n      swap2\n      pop\n        /* \"#utility.yul\":23945:23949   */\n      0x00\n        /* \"#utility.yul\":23938:23943   */\n      dup3\n        /* \"#utility.yul\":23935:23950   */\n      sub\n        /* \"#utility.yul\":23932:23973   */\n      tag_423\n      jumpi\n        /* \"#utility.yul\":23953:23971   */\n      tag_424\n      tag_190\n      jump\t// in\n    tag_424:\n        /* \"#utility.yul\":23932:23973   */\n    tag_423:\n        /* \"#utility.yul\":24000:24001   */\n      0x01\n        /* \"#utility.yul\":23993:23998   */\n      dup3\n        /* \"#utility.yul\":23989:24002   */\n      sub\n        /* \"#utility.yul\":23982:24002   */\n      swap1\n      pop\n        /* \"#utility.yul\":23837:24008   */\n      swap2\n      swap1\n      pop\n      jump\t// out\n        /* \"#utility.yul\":24014:24247   */\n    tag_123:\n        /* \"#utility.yul\":24053:24056   */\n      0x00\n        /* \"#utility.yul\":24076:24100   */\n      tag_426\n        /* \"#utility.yul\":24094:24099   */\n      dup3\n        /* \"#utility.yul\":24076:24100   */\n      tag_131\n      jump\t// in\n    tag_426:\n        /* \"#utility.yul\":24067:24100   */\n      swap2\n      pop\n        /* \"#utility.yul\":24122:24188   */\n      0xffffffffffffffffffffffffffffffffffffffffffffffffffffffffffffffff\n        /* \"#utility.yul\":24115:24120   */\n      dup3\n        /* \"#utility.yul\":24112:24189   */\n      sub\n        /* \"#utility.yul\":24109:24212   */\n      tag_427\n      jumpi\n        /* \"#utility.yul\":24192:24210   */\n      tag_428\n      tag_190\n      jump\t// in\n    tag_428:\n        /* \"#utility.yul\":24109:24212   */\n    tag_427:\n        /* \"#utility.yul\":24239:24240   */\n      0x01\n        /* \"#utility.yul\":24232:24237   */\n      dup3\n        /* \"#utility.yul\":24228:24241   */\n      add\n        /* \"#utility.yul\":24221:24241   */\n      swap1\n      pop\n        /* \"#utility.yul\":24014:24247   */\n      swap2\n      swap1\n      pop\n      jump\t// out\n\n    auxdata: 0xa26469706673582212206e86effb5474b57b69d2992ff84ce09538d9459e0458872314e5307bf97c933464736f6c63430008120033\n}\n",
				"bytecode": {
					"linkReferences": {},
					"object": "60806040526101186000806101000a81548161ffff021916908361ffff16021790555034801561002e57600080fd5b5033600260006101000a81548173ffffffffffffffffffffffffffffffffffffffff021916908373ffffffffffffffffffffffffffffffffffffffff16021790555061186c8061007f6000396000f3fe608060405234801561001057600080fd5b50600436106100935760003560e01c80637c9cd2bc116100665780637c9cd2bc146101365780638da5cb5b14610152578063a1488f7c14610170578063c3ad5ecb1461018c578063d04ddaa0146101bc57610093565b806305a1b4a91461009857806312e7ee1c146100cc57806358bfa4ab146100fc5780636eb1079714610118575b600080fd5b6100b260048036038101906100ad9190610c73565b6101d8565b6040516100c3959493929190610d61565b60405180910390f35b6100e660048036038101906100e19190610dbb565b6102d3565b6040516100f39190610f88565b60405180910390f35b61011660048036038101906101119190610fe4565b610477565b005b610120610526565b60405161012d9190611020565b60405180910390f35b610150600480360381019061014b9190611170565b610538565b005b61015a6106fc565b60405161016791906111b9565b60405180910390f35b61018a600480360381019061018591906111d4565b610722565b005b6101a660048036038101906101a19190611214565b6108e7565b6040516101b391906112b7565b60405180910390f35b6101d660048036038101906101d191906111d4565b610a66565b005b600160205281600052604060002081815481106101f457600080fd5b9060005260206000209060050201600091509150508060000160009054906101000a900473ffffffffffffffffffffffffffffffffffffffff169080600101805461023e90611308565b80601f016020809104026020016040519081016040528092919081815260200182805461026a90611308565b80156102b75780601f1061028c576101008083540402835291602001916102b7565b820191906000526020600020905b81548152906001019060200180831161029a57829003601f168201915b5050505050908060020154908060030154908060040154905085565b6060600160008373ffffffffffffffffffffffffffffffffffffffff1673ffffffffffffffffffffffffffffffffffffffff168152602001908152602001600020805480602002602001604051908101604052809291908181526020016000905b8282101561046c57838290600052602060002090600502016040518060a00160405290816000820160009054906101000a900473ffffffffffffffffffffffffffffffffffffffff1673ffffffffffffffffffffffffffffffffffffffff1673ffffffffffffffffffffffffffffffffffffffff1681526020016001820180546103bd90611308565b80601f01602080910402602001604051908101604052809291908181526020018280546103e990611308565b80156104365780601f1061040b57610100808354040283529160200191610436565b820191906000526020600020905b81548152906001019060200180831161041957829003601f168201915b50505050508152602001600282015481526020016003820154815260200160048201548152505081526020019060010190610334565b505050509050919050565b600260009054906101000a900473ffffffffffffffffffffffffffffffffffffffff1673ffffffffffffffffffffffffffffffffffffffff163373ffffffffffffffffffffffffffffffffffffffff1614610507576040517f08c379a00000000000000000000000000000000000000000000000000000000081526004016104fe90611385565b60405180910390fd5b806000806101000a81548161ffff021916908361ffff16021790555050565b60008054906101000a900461ffff1681565b60008054906101000a900461ffff1661ffff168151111561058e576040517f08c379a0000000000000000000000000000000000000000000000000000000008152600401610585906113f1565b60405180910390fd5b60006040518060a001604052803373ffffffffffffffffffffffffffffffffffffffff16815260200183815260200142815260200160008152602001600160003373ffffffffffffffffffffffffffffffffffffffff1673ffffffffffffffffffffffffffffffffffffffff168152602001908152602001600020805490508152509050600160003373ffffffffffffffffffffffffffffffffffffffff1673ffffffffffffffffffffffffffffffffffffffff16815260200190815260200160002081908060018154018082558091505060019003906000526020600020906005020160009091909190915060008201518160000160006101000a81548173ffffffffffffffffffffffffffffffffffffffff021916908373ffffffffffffffffffffffffffffffffffffffff16021790555060208201518160010190816106d791906115bd565b5060408201518160020155606082015181600301556080820151816004015550505050565b600260009054906101000a900473ffffffffffffffffffffffffffffffffffffffff1681565b81600160008373ffffffffffffffffffffffffffffffffffffffff1673ffffffffffffffffffffffffffffffffffffffff16815260200190815260200160002083815481106107745761077361168f565b5b906000526020600020906005020160040154146107c6576040517f08c379a00000000000000000000000000000000000000000000000000000000081526004016107bd9061170a565b60405180910390fd5b6000600160008373ffffffffffffffffffffffffffffffffffffffff1673ffffffffffffffffffffffffffffffffffffffff16815260200190815260200160002083815481106108195761081861168f565b5b9060005260206000209060050201600301541161086b576040517f08c379a000000000000000000000000000000000000000000000000000000000815260040161086290611776565b60405180910390fd5b600160008273ffffffffffffffffffffffffffffffffffffffff1673ffffffffffffffffffffffffffffffffffffffff16815260200190815260200160002082815481106108bc576108bb61168f565b5b906000526020600020906005020160030160008154809291906108de906117c5565b91905055505050565b6108ef610b86565b600160003373ffffffffffffffffffffffffffffffffffffffff1673ffffffffffffffffffffffffffffffffffffffff16815260200190815260200160002082815481106109405761093f61168f565b5b90600052602060002090600502016040518060a00160405290816000820160009054906101000a900473ffffffffffffffffffffffffffffffffffffffff1673ffffffffffffffffffffffffffffffffffffffff1673ffffffffffffffffffffffffffffffffffffffff1681526020016001820180546109bf90611308565b80601f01602080910402602001604051908101604052809291908181526020018280546109eb90611308565b8015610a385780601f10610a0d57610100808354040283529160200191610a38565b820191906000526020600020905b815481529060010190602001808311610a1b57829003601f168201915b5050505050815260200160028201548152602001600382015481526020016004820154815250509050919050565b81600160008373ffffffffffffffffffffffffffffffffffffffff1673ffffffffffffffffffffffffffffffffffffffff1681526020019081526020016000208381548110610ab857610ab761168f565b5b90600052602060002090600502016004015414610b0a576040517f08c379a0000000000000000000000000000000000000000000000000000000008152600401610b019061170a565b60405180910390fd5b600160008273ffffffffffffffffffffffffffffffffffffffff1673ffffffffffffffffffffffffffffffffffffffff1681526020019081526020016000208281548110610b5b57610b5a61168f565b5b90600052602060002090600502016003016000815480929190610b7d906117ee565b91905055505050565b6040518060a00160405280600073ffffffffffffffffffffffffffffffffffffffff168152602001606081526020016000815260200160008152602001600081525090565b6000604051905090565b600080fd5b600080fd5b600073ffffffffffffffffffffffffffffffffffffffff82169050919050565b6000610c0a82610bdf565b9050919050565b610c1a81610bff565b8114610c2557600080fd5b50565b600081359050610c3781610c11565b92915050565b6000819050919050565b610c5081610c3d565b8114610c5b57600080fd5b50565b600081359050610c6d81610c47565b92915050565b60008060408385031215610c8a57610c89610bd5565b5b6000610c9885828601610c28565b9250506020610ca985828601610c5e565b9150509250929050565b610cbc81610bff565b82525050565b600081519050919050565b600082825260208201905092915050565b60005b83811015610cfc578082015181840152602081019050610ce1565b60008484015250505050565b6000601f19601f8301169050919050565b6000610d2482610cc2565b610d2e8185610ccd565b9350610d3e818560208601610cde565b610d4781610d08565b840191505092915050565b610d5b81610c3d565b82525050565b600060a082019050610d766000830188610cb3565b8181036020830152610d888187610d19565b9050610d976040830186610d52565b610da46060830185610d52565b610db16080830184610d52565b9695505050505050565b600060208284031215610dd157610dd0610bd5565b5b6000610ddf84828501610c28565b91505092915050565b600081519050919050565b600082825260208201905092915050565b6000819050602082019050919050565b610e1d81610bff565b82525050565b600082825260208201905092915050565b6000610e3f82610cc2565b610e498185610e23565b9350610e59818560208601610cde565b610e6281610d08565b840191505092915050565b610e7681610c3d565b82525050565b600060a083016000830151610e946000860182610e14565b5060208301518482036020860152610eac8282610e34565b9150506040830151610ec16040860182610e6d565b506060830151610ed46060860182610e6d565b506080830151610ee76080860182610e6d565b508091505092915050565b6000610efe8383610e7c565b905092915050565b6000602082019050919050565b6000610f1e82610de8565b610f288185610df3565b935083602082028501610f3a85610e04565b8060005b85811015610f765784840389528151610f578582610ef2565b9450610f6283610f06565b925060208a01995050600181019050610f3e565b50829750879550505050505092915050565b60006020820190508181036000830152610fa28184610f13565b905092915050565b600061ffff82169050919050565b610fc181610faa565b8114610fcc57600080fd5b50565b600081359050610fde81610fb8565b92915050565b600060208284031215610ffa57610ff9610bd5565b5b600061100884828501610fcf565b91505092915050565b61101a81610faa565b82525050565b60006020820190506110356000830184611011565b92915050565b600080fd5b600080fd5b7f4e487b7100000000000000000000000000000000000000000000000000000000600052604160045260246000fd5b61107d82610d08565b810181811067ffffffffffffffff8211171561109c5761109b611045565b5b80604052505050565b60006110af610bcb565b90506110bb8282611074565b919050565b600067ffffffffffffffff8211156110db576110da611045565b5b6110e482610d08565b9050602081019050919050565b82818337600083830152505050565b600061111361110e846110c0565b6110a5565b90508281526020810184848401111561112f5761112e611040565b5b61113a8482856110f1565b509392505050565b600082601f8301126111575761115661103b565b5b8135611167848260208601611100565b91505092915050565b60006020828403121561118657611185610bd5565b5b600082013567ffffffffffffffff8111156111a4576111a3610bda565b5b6111b084828501611142565b91505092915050565b60006020820190506111ce6000830184610cb3565b92915050565b600080604083850312156111eb576111ea610bd5565b5b60006111f985828601610c5e565b925050602061120a85828601610c28565b9150509250929050565b60006020828403121561122a57611229610bd5565b5b600061123884828501610c5e565b91505092915050565b600060a0830160008301516112596000860182610e14565b50602083015184820360208601526112718282610e34565b91505060408301516112866040860182610e6d565b5060608301516112996060860182610e6d565b5060808301516112ac6080860182610e6d565b508091505092915050565b600060208201905081810360008301526112d18184611241565b905092915050565b7f4e487b7100000000000000000000000000000000000000000000000000000000600052602260045260246000fd5b6000600282049050600182168061132057607f821691505b602082108103611333576113326112d9565b5b50919050565b7f594f5520415245204e4f5420544845204f574e45522100000000000000000000600082015250565b600061136f601683610ccd565b915061137a82611339565b602082019050919050565b6000602082019050818103600083015261139e81611362565b9050919050565b7f547765657420697320746f6f206c6f6e672062726f2100000000000000000000600082015250565b60006113db601683610ccd565b91506113e6826113a5565b602082019050919050565b6000602082019050818103600083015261140a816113ce565b9050919050565b60008190508160005260206000209050919050565b60006020601f8301049050919050565b600082821b905092915050565b6000600883026114737fffffffffffffffffffffffffffffffffffffffffffffffffffffffffffffffff82611436565b61147d8683611436565b95508019841693508086168417925050509392505050565b6000819050919050565b60006114ba6114b56114b084610c3d565b611495565b610c3d565b9050919050565b6000819050919050565b6114d48361149f565b6114e86114e0826114c1565b848454611443565b825550505050565b600090565b6114fd6114f0565b6115088184846114cb565b505050565b5b8181101561152c576115216000826114f5565b60018101905061150e565b5050565b601f8211156115715761154281611411565b61154b84611426565b8101602085101561155a578190505b61156e61156685611426565b83018261150d565b50505b505050565b600082821c905092915050565b600061159460001984600802611576565b1980831691505092915050565b60006115ad8383611583565b9150826002028217905092915050565b6115c682610cc2565b67ffffffffffffffff8111156115df576115de611045565b5b6115e98254611308565b6115f4828285611530565b600060209050601f8311600181146116275760008415611615578287015190505b61161f85826115a1565b865550611687565b601f19841661163586611411565b60005b8281101561165d57848901518255600182019150602085019450602081019050611638565b8683101561167a5784890151611676601f891682611583565b8355505b6001600288020188555050505b505050505050565b7f4e487b7100000000000000000000000000000000000000000000000000000000600052603260045260246000fd5b7f4e6f742045786973697400000000000000000000000000000000000000000000600082015250565b60006116f4600a83610ccd565b91506116ff826116be565b602082019050919050565b60006020820190508181036000830152611723816116e7565b9050919050565b7f4e6f206c696b6573000000000000000000000000000000000000000000000000600082015250565b6000611760600883610ccd565b915061176b8261172a565b602082019050919050565b6000602082019050818103600083015261178f81611753565b9050919050565b7f4e487b7100000000000000000000000000000000000000000000000000000000600052601160045260246000fd5b60006117d082610c3d565b9150600082036117e3576117e2611796565b5b600182039050919050565b60006117f982610c3d565b91507fffffffffffffffffffffffffffffffffffffffffffffffffffffffffffffffff820361182b5761182a611796565b5b60018201905091905056fea26469706673582212206e86effb5474b57b69d2992ff84ce09538d9459e0458872314e5307bf97c933464736f6c63430008120033",
					"opcodes": "PUSH1 0x80 PUSH1 0x40 MSTORE PUSH2 0x118 PUSH1 0x0 DUP1 PUSH2 0x100 EXP DUP2 SLOAD DUP2 PUSH2 0xFFFF MUL NOT AND SWAP1 DUP4 PUSH2 0xFFFF AND MUL OR SWAP1 SSTORE POP CALLVALUE DUP1 ISZERO PUSH2 0x2E JUMPI PUSH1 0x0 DUP1 REVERT JUMPDEST POP CALLER PUSH1 0x2 PUSH1 0x0 PUSH2 0x100 EXP DUP2 SLOAD DUP2 PUSH20 0xFFFFFFFFFFFFFFFFFFFFFFFFFFFFFFFFFFFFFFFF MUL NOT AND SWAP1 DUP4 PUSH20 0xFFFFFFFFFFFFFFFFFFFFFFFFFFFFFFFFFFFFFFFF AND MUL OR SWAP1 SSTORE POP PUSH2 0x186C DUP1 PUSH2 0x7F PUSH1 0x0 CODECOPY PUSH1 0x0 RETURN INVALID PUSH1 0x80 PUSH1 0x40 MSTORE CALLVALUE DUP1 ISZERO PUSH2 0x10 JUMPI PUSH1 0x0 DUP1 REVERT JUMPDEST POP PUSH1 0x4 CALLDATASIZE LT PUSH2 0x93 JUMPI PUSH1 0x0 CALLDATALOAD PUSH1 0xE0 SHR DUP1 PUSH4 0x7C9CD2BC GT PUSH2 0x66 JUMPI DUP1 PUSH4 0x7C9CD2BC EQ PUSH2 0x136 JUMPI DUP1 PUSH4 0x8DA5CB5B EQ PUSH2 0x152 JUMPI DUP1 PUSH4 0xA1488F7C EQ PUSH2 0x170 JUMPI DUP1 PUSH4 0xC3AD5ECB EQ PUSH2 0x18C JUMPI DUP1 PUSH4 0xD04DDAA0 EQ PUSH2 0x1BC JUMPI PUSH2 0x93 JUMP JUMPDEST DUP1 PUSH4 0x5A1B4A9 EQ PUSH2 0x98 JUMPI DUP1 PUSH4 0x12E7EE1C EQ PUSH2 0xCC JUMPI DUP1 PUSH4 0x58BFA4AB EQ PUSH2 0xFC JUMPI DUP1 PUSH4 0x6EB10797 EQ PUSH2 0x118 JUMPI JUMPDEST PUSH1 0x0 DUP1 REVERT JUMPDEST PUSH2 0xB2 PUSH1 0x4 DUP1 CALLDATASIZE SUB DUP2 ADD SWAP1 PUSH2 0xAD SWAP2 SWAP1 PUSH2 0xC73 JUMP JUMPDEST PUSH2 0x1D8 JUMP JUMPDEST PUSH1 0x40 MLOAD PUSH2 0xC3 SWAP6 SWAP5 SWAP4 SWAP3 SWAP2 SWAP1 PUSH2 0xD61 JUMP JUMPDEST PUSH1 0x40 MLOAD DUP1 SWAP2 SUB SWAP1 RETURN JUMPDEST PUSH2 0xE6 PUSH1 0x4 DUP1 CALLDATASIZE SUB DUP2 ADD SWAP1 PUSH2 0xE1 SWAP2 SWAP1 PUSH2 0xDBB JUMP JUMPDEST PUSH2 0x2D3 JUMP JUMPDEST PUSH1 0x40 MLOAD PUSH2 0xF3 SWAP2 SWAP1 PUSH2 0xF88 JUMP JUMPDEST PUSH1 0x40 MLOAD DUP1 SWAP2 SUB SWAP1 RETURN JUMPDEST PUSH2 0x116 PUSH1 0x4 DUP1 CALLDATASIZE SUB DUP2 ADD SWAP1 PUSH2 0x111 SWAP2 SWAP1 PUSH2 0xFE4 JUMP JUMPDEST PUSH2 0x477 JUMP JUMPDEST STOP JUMPDEST PUSH2 0x120 PUSH2 0x526 JUMP JUMPDEST PUSH1 0x40 MLOAD PUSH2 0x12D SWAP2 SWAP1 PUSH2 0x1020 JUMP JUMPDEST PUSH1 0x40 MLOAD DUP1 SWAP2 SUB SWAP1 RETURN JUMPDEST PUSH2 0x150 PUSH1 0x4 DUP1 CALLDATASIZE SUB DUP2 ADD SWAP1 PUSH2 0x14B SWAP2 SWAP1 PUSH2 0x1170 JUMP JUMPDEST PUSH2 0x538 JUMP JUMPDEST STOP JUMPDEST PUSH2 0x15A PUSH2 0x6FC JUMP JUMPDEST PUSH1 0x40 MLOAD PUSH2 0x167 SWAP2 SWAP1 PUSH2 0x11B9 JUMP JUMPDEST PUSH1 0x40 MLOAD DUP1 SWAP2 SUB SWAP1 RETURN JUMPDEST PUSH2 0x18A PUSH1 0x4 DUP1 CALLDATASIZE SUB DUP2 ADD SWAP1 PUSH2 0x185 SWAP2 SWAP1 PUSH2 0x11D4 JUMP JUMPDEST PUSH2 0x722 JUMP JUMPDEST STOP JUMPDEST PUSH2 0x1A6 PUSH1 0x4 DUP1 CALLDATASIZE SUB DUP2 ADD SWAP1 PUSH2 0x1A1 SWAP2 SWAP1 PUSH2 0x1214 JUMP JUMPDEST PUSH2 0x8E7 JUMP JUMPDEST PUSH1 0x40 MLOAD PUSH2 0x1B3 SWAP2 SWAP1 PUSH2 0x12B7 JUMP JUMPDEST PUSH1 0x40 MLOAD DUP1 SWAP2 SUB SWAP1 RETURN JUMPDEST PUSH2 0x1D6 PUSH1 0x4 DUP1 CALLDATASIZE SUB DUP2 ADD SWAP1 PUSH2 0x1D1 SWAP2 SWAP1 PUSH2 0x11D4 JUMP JUMPDEST PUSH2 0xA66 JUMP JUMPDEST STOP JUMPDEST PUSH1 0x1 PUSH1 0x20 MSTORE DUP2 PUSH1 0x0 MSTORE PUSH1 0x40 PUSH1 0x0 KECCAK256 DUP2 DUP2 SLOAD DUP2 LT PUSH2 0x1F4 JUMPI PUSH1 0x0 DUP1 REVERT JUMPDEST SWAP1 PUSH1 0x0 MSTORE PUSH1 0x20 PUSH1 0x0 KECCAK256 SWAP1 PUSH1 0x5 MUL ADD PUSH1 0x0 SWAP2 POP SWAP2 POP POP DUP1 PUSH1 0x0 ADD PUSH1 0x0 SWAP1 SLOAD SWAP1 PUSH2 0x100 EXP SWAP1 DIV PUSH20 0xFFFFFFFFFFFFFFFFFFFFFFFFFFFFFFFFFFFFFFFF AND SWAP1 DUP1 PUSH1 0x1 ADD DUP1 SLOAD PUSH2 0x23E SWAP1 PUSH2 0x1308 JUMP JUMPDEST DUP1 PUSH1 0x1F ADD PUSH1 0x20 DUP1 SWAP2 DIV MUL PUSH1 0x20 ADD PUSH1 0x40 MLOAD SWAP1 DUP2 ADD PUSH1 0x40 MSTORE DUP1 SWAP3 SWAP2 SWAP1 DUP2 DUP2 MSTORE PUSH1 0x20 ADD DUP3 DUP1 SLOAD PUSH2 0x26A SWAP1 PUSH2 0x1308 JUMP JUMPDEST DUP1 ISZERO PUSH2 0x2B7 JUMPI DUP1 PUSH1 0x1F LT PUSH2 0x28C JUMPI PUSH2 0x100 DUP1 DUP4 SLOAD DIV MUL DUP4 MSTORE SWAP2 PUSH1 0x20 ADD SWAP2 PUSH2 0x2B7 JUMP JUMPDEST DUP3 ADD SWAP2 SWAP1 PUSH1 0x0 MSTORE PUSH1 0x20 PUSH1 0x0 KECCAK256 SWAP1 JUMPDEST DUP2 SLOAD DUP2 MSTORE SWAP1 PUSH1 0x1 ADD SWAP1 PUSH1 0x20 ADD DUP1 DUP4 GT PUSH2 0x29A JUMPI DUP3 SWAP1 SUB PUSH1 0x1F AND DUP3 ADD SWAP2 JUMPDEST POP POP POP POP POP SWAP1 DUP1 PUSH1 0x2 ADD SLOAD SWAP1 DUP1 PUSH1 0x3 ADD SLOAD SWAP1 DUP1 PUSH1 0x4 ADD SLOAD SWAP1 POP DUP6 JUMP JUMPDEST PUSH1 0x60 PUSH1 0x1 PUSH1 0x0 DUP4 PUSH20 0xFFFFFFFFFFFFFFFFFFFFFFFFFFFFFFFFFFFFFFFF AND PUSH20 0xFFFFFFFFFFFFFFFFFFFFFFFFFFFFFFFFFFFFFFFF AND DUP2 MSTORE PUSH1 0x20 ADD SWAP1 DUP2 MSTORE PUSH1 0x20 ADD PUSH1 0x0 KECCAK256 DUP1 SLOAD DUP1 PUSH1 0x20 MUL PUSH1 0x20 ADD PUSH1 0x40 MLOAD SWAP1 DUP2 ADD PUSH1 0x40 MSTORE DUP1 SWAP3 SWAP2 SWAP1 DUP2 DUP2 MSTORE PUSH1 0x20 ADD PUSH1 0x0 SWAP1 JUMPDEST DUP3 DUP3 LT ISZERO PUSH2 0x46C JUMPI DUP4 DUP3 SWAP1 PUSH1 0x0 MSTORE PUSH1 0x20 PUSH1 0x0 KECCAK256 SWAP1 PUSH1 0x5 MUL ADD PUSH1 0x40 MLOAD DUP1 PUSH1 0xA0 ADD PUSH1 0x40 MSTORE SWAP1 DUP2 PUSH1 0x0 DUP3 ADD PUSH1 0x0 SWAP1 SLOAD SWAP1 PUSH2 0x100 EXP SWAP1 DIV PUSH20 0xFFFFFFFFFFFFFFFFFFFFFFFFFFFFFFFFFFFFFFFF AND PUSH20 0xFFFFFFFFFFFFFFFFFFFFFFFFFFFFFFFFFFFFFFFF AND PUSH20 0xFFFFFFFFFFFFFFFFFFFFFFFFFFFFFFFFFFFFFFFF AND DUP2 MSTORE PUSH1 0x20 ADD PUSH1 0x1 DUP3 ADD DUP1 SLOAD PUSH2 0x3BD SWAP1 PUSH2 0x1308 JUMP JUMPDEST DUP1 PUSH1 0x1F ADD PUSH1 0x20 DUP1 SWAP2 DIV MUL PUSH1 0x20 ADD PUSH1 0x40 MLOAD SWAP1 DUP2 ADD PUSH1 0x40 MSTORE DUP1 SWAP3 SWAP2 SWAP1 DUP2 DUP2 MSTORE PUSH1 0x20 ADD DUP3 DUP1 SLOAD PUSH2 0x3E9 SWAP1 PUSH2 0x1308 JUMP JUMPDEST DUP1 ISZERO PUSH2 0x436 JUMPI DUP1 PUSH1 0x1F LT PUSH2 0x40B JUMPI PUSH2 0x100 DUP1 DUP4 SLOAD DIV MUL DUP4 MSTORE SWAP2 PUSH1 0x20 ADD SWAP2 PUSH2 0x436 JUMP JUMPDEST DUP3 ADD SWAP2 SWAP1 PUSH1 0x0 MSTORE PUSH1 0x20 PUSH1 0x0 KECCAK256 SWAP1 JUMPDEST DUP2 SLOAD DUP2 MSTORE SWAP1 PUSH1 0x1 ADD SWAP1 PUSH1 0x20 ADD DUP1 DUP4 GT PUSH2 0x419 JUMPI DUP3 SWAP1 SUB PUSH1 0x1F AND DUP3 ADD SWAP2 JUMPDEST POP POP POP POP POP DUP2 MSTORE PUSH1 0x20 ADD PUSH1 0x2 DUP3 ADD SLOAD DUP2 MSTORE PUSH1 0x20 ADD PUSH1 0x3 DUP3 ADD SLOAD DUP2 MSTORE PUSH1 0x20 ADD PUSH1 0x4 DUP3 ADD SLOAD DUP2 MSTORE POP POP DUP2 MSTORE PUSH1 0x20 ADD SWAP1 PUSH1 0x1 ADD SWAP1 PUSH2 0x334 JUMP JUMPDEST POP POP POP POP SWAP1 POP SWAP2 SWAP1 POP JUMP JUMPDEST PUSH1 0x2 PUSH1 0x0 SWAP1 SLOAD SWAP1 PUSH2 0x100 EXP SWAP1 DIV PUSH20 0xFFFFFFFFFFFFFFFFFFFFFFFFFFFFFFFFFFFFFFFF AND PUSH20 0xFFFFFFFFFFFFFFFFFFFFFFFFFFFFFFFFFFFFFFFF AND CALLER PUSH20 0xFFFFFFFFFFFFFFFFFFFFFFFFFFFFFFFFFFFFFFFF AND EQ PUSH2 0x507 JUMPI PUSH1 0x40 MLOAD PUSH32 0x8C379A000000000000000000000000000000000000000000000000000000000 DUP2 MSTORE PUSH1 0x4 ADD PUSH2 0x4FE SWAP1 PUSH2 0x1385 JUMP JUMPDEST PUSH1 0x40 MLOAD DUP1 SWAP2 SUB SWAP1 REVERT JUMPDEST DUP1 PUSH1 0x0 DUP1 PUSH2 0x100 EXP DUP2 SLOAD DUP2 PUSH2 0xFFFF MUL NOT AND SWAP1 DUP4 PUSH2 0xFFFF AND MUL OR SWAP1 SSTORE POP POP JUMP JUMPDEST PUSH1 0x0 DUP1 SLOAD SWAP1 PUSH2 0x100 EXP SWAP1 DIV PUSH2 0xFFFF AND DUP2 JUMP JUMPDEST PUSH1 0x0 DUP1 SLOAD SWAP1 PUSH2 0x100 EXP SWAP1 DIV PUSH2 0xFFFF AND PUSH2 0xFFFF AND DUP2 MLOAD GT ISZERO PUSH2 0x58E JUMPI PUSH1 0x40 MLOAD PUSH32 0x8C379A000000000000000000000000000000000000000000000000000000000 DUP2 MSTORE PUSH1 0x4 ADD PUSH2 0x585 SWAP1 PUSH2 0x13F1 JUMP JUMPDEST PUSH1 0x40 MLOAD DUP1 SWAP2 SUB SWAP1 REVERT JUMPDEST PUSH1 0x0 PUSH1 0x40 MLOAD DUP1 PUSH1 0xA0 ADD PUSH1 0x40 MSTORE DUP1 CALLER PUSH20 0xFFFFFFFFFFFFFFFFFFFFFFFFFFFFFFFFFFFFFFFF AND DUP2 MSTORE PUSH1 0x20 ADD DUP4 DUP2 MSTORE PUSH1 0x20 ADD TIMESTAMP DUP2 MSTORE PUSH1 0x20 ADD PUSH1 0x0 DUP2 MSTORE PUSH1 0x20 ADD PUSH1 0x1 PUSH1 0x0 CALLER PUSH20 0xFFFFFFFFFFFFFFFFFFFFFFFFFFFFFFFFFFFFFFFF AND PUSH20 0xFFFFFFFFFFFFFFFFFFFFFFFFFFFFFFFFFFFFFFFF AND DUP2 MSTORE PUSH1 0x20 ADD SWAP1 DUP2 MSTORE PUSH1 0x20 ADD PUSH1 0x0 KECCAK256 DUP1 SLOAD SWAP1 POP DUP2 MSTORE POP SWAP1 POP PUSH1 0x1 PUSH1 0x0 CALLER PUSH20 0xFFFFFFFFFFFFFFFFFFFFFFFFFFFFFFFFFFFFFFFF AND PUSH20 0xFFFFFFFFFFFFFFFFFFFFFFFFFFFFFFFFFFFFFFFF AND DUP2 MSTORE PUSH1 0x20 ADD SWAP1 DUP2 MSTORE PUSH1 0x20 ADD PUSH1 0x0 KECCAK256 DUP2 SWAP1 DUP1 PUSH1 0x1 DUP2 SLOAD ADD DUP1 DUP3 SSTORE DUP1 SWAP2 POP POP PUSH1 0x1 SWAP1 SUB SWAP1 PUSH1 0x0 MSTORE PUSH1 0x20 PUSH1 0x0 KECCAK256 SWAP1 PUSH1 0x5 MUL ADD PUSH1 0x0 SWAP1 SWAP2 SWAP1 SWAP2 SWAP1 SWAP2 POP PUSH1 0x0 DUP3 ADD MLOAD DUP2 PUSH1 0x0 ADD PUSH1 0x0 PUSH2 0x100 EXP DUP2 SLOAD DUP2 PUSH20 0xFFFFFFFFFFFFFFFFFFFFFFFFFFFFFFFFFFFFFFFF MUL NOT AND SWAP1 DUP4 PUSH20 0xFFFFFFFFFFFFFFFFFFFFFFFFFFFFFFFFFFFFFFFF AND MUL OR SWAP1 SSTORE POP PUSH1 0x20 DUP3 ADD MLOAD DUP2 PUSH1 0x1 ADD SWAP1 DUP2 PUSH2 0x6D7 SWAP2 SWAP1 PUSH2 0x15BD JUMP JUMPDEST POP PUSH1 0x40 DUP3 ADD MLOAD DUP2 PUSH1 0x2 ADD SSTORE PUSH1 0x60 DUP3 ADD MLOAD DUP2 PUSH1 0x3 ADD SSTORE PUSH1 0x80 DUP3 ADD MLOAD DUP2 PUSH1 0x4 ADD SSTORE POP POP POP POP JUMP JUMPDEST PUSH1 0x2 PUSH1 0x0 SWAP1 SLOAD SWAP1 PUSH2 0x100 EXP SWAP1 DIV PUSH20 0xFFFFFFFFFFFFFFFFFFFFFFFFFFFFFFFFFFFFFFFF AND DUP2 JUMP JUMPDEST DUP2 PUSH1 0x1 PUSH1 0x0 DUP4 PUSH20 0xFFFFFFFFFFFFFFFFFFFFFFFFFFFFFFFFFFFFFFFF AND PUSH20 0xFFFFFFFFFFFFFFFFFFFFFFFFFFFFFFFFFFFFFFFF AND DUP2 MSTORE PUSH1 0x20 ADD SWAP1 DUP2 MSTORE PUSH1 0x20 ADD PUSH1 0x0 KECCAK256 DUP4 DUP2 SLOAD DUP2 LT PUSH2 0x774 JUMPI PUSH2 0x773 PUSH2 0x168F JUMP JUMPDEST JUMPDEST SWAP1 PUSH1 0x0 MSTORE PUSH1 0x20 PUSH1 0x0 KECCAK256 SWAP1 PUSH1 0x5 MUL ADD PUSH1 0x4 ADD SLOAD EQ PUSH2 0x7C6 JUMPI PUSH1 0x40 MLOAD PUSH32 0x8C379A000000000000000000000000000000000000000000000000000000000 DUP2 MSTORE PUSH1 0x4 ADD PUSH2 0x7BD SWAP1 PUSH2 0x170A JUMP JUMPDEST PUSH1 0x40 MLOAD DUP1 SWAP2 SUB SWAP1 REVERT JUMPDEST PUSH1 0x0 PUSH1 0x1 PUSH1 0x0 DUP4 PUSH20 0xFFFFFFFFFFFFFFFFFFFFFFFFFFFFFFFFFFFFFFFF AND PUSH20 0xFFFFFFFFFFFFFFFFFFFFFFFFFFFFFFFFFFFFFFFF AND DUP2 MSTORE PUSH1 0x20 ADD SWAP1 DUP2 MSTORE PUSH1 0x20 ADD PUSH1 0x0 KECCAK256 DUP4 DUP2 SLOAD DUP2 LT PUSH2 0x819 JUMPI PUSH2 0x818 PUSH2 0x168F JUMP JUMPDEST JUMPDEST SWAP1 PUSH1 0x0 MSTORE PUSH1 0x20 PUSH1 0x0 KECCAK256 SWAP1 PUSH1 0x5 MUL ADD PUSH1 0x3 ADD SLOAD GT PUSH2 0x86B JUMPI PUSH1 0x40 MLOAD PUSH32 0x8C379A000000000000000000000000000000000000000000000000000000000 DUP2 MSTORE PUSH1 0x4 ADD PUSH2 0x862 SWAP1 PUSH2 0x1776 JUMP JUMPDEST PUSH1 0x40 MLOAD DUP1 SWAP2 SUB SWAP1 REVERT JUMPDEST PUSH1 0x1 PUSH1 0x0 DUP3 PUSH20 0xFFFFFFFFFFFFFFFFFFFFFFFFFFFFFFFFFFFFFFFF AND PUSH20 0xFFFFFFFFFFFFFFFFFFFFFFFFFFFFFFFFFFFFFFFF AND DUP2 MSTORE PUSH1 0x20 ADD SWAP1 DUP2 MSTORE PUSH1 0x20 ADD PUSH1 0x0 KECCAK256 DUP3 DUP2 SLOAD DUP2 LT PUSH2 0x8BC JUMPI PUSH2 0x8BB PUSH2 0x168F JUMP JUMPDEST JUMPDEST SWAP1 PUSH1 0x0 MSTORE PUSH1 0x20 PUSH1 0x0 KECCAK256 SWAP1 PUSH1 0x5 MUL ADD PUSH1 0x3 ADD PUSH1 0x0 DUP2 SLOAD DUP1 SWAP3 SWAP2 SWAP1 PUSH2 0x8DE SWAP1 PUSH2 0x17C5 JUMP JUMPDEST SWAP2 SWAP1 POP SSTORE POP POP POP JUMP JUMPDEST PUSH2 0x8EF PUSH2 0xB86 JUMP JUMPDEST PUSH1 0x1 PUSH1 0x0 CALLER PUSH20 0xFFFFFFFFFFFFFFFFFFFFFFFFFFFFFFFFFFFFFFFF AND PUSH20 0xFFFFFFFFFFFFFFFFFFFFFFFFFFFFFFFFFFFFFFFF AND DUP2 MSTORE PUSH1 0x20 ADD SWAP1 DUP2 MSTORE PUSH1 0x20 ADD PUSH1 0x0 KECCAK256 DUP3 DUP2 SLOAD DUP2 LT PUSH2 0x940 JUMPI PUSH2 0x93F PUSH2 0x168F JUMP JUMPDEST JUMPDEST SWAP1 PUSH1 0x0 MSTORE PUSH1 0x20 PUSH1 0x0 KECCAK256 SWAP1 PUSH1 0x5 MUL ADD PUSH1 0x40 MLOAD DUP1 PUSH1 0xA0 ADD PUSH1 0x40 MSTORE SWAP1 DUP2 PUSH1 0x0 DUP3 ADD PUSH1 0x0 SWAP1 SLOAD SWAP1 PUSH2 0x100 EXP SWAP1 DIV PUSH20 0xFFFFFFFFFFFFFFFFFFFFFFFFFFFFFFFFFFFFFFFF AND PUSH20 0xFFFFFFFFFFFFFFFFFFFFFFFFFFFFFFFFFFFFFFFF AND PUSH20 0xFFFFFFFFFFFFFFFFFFFFFFFFFFFFFFFFFFFFFFFF AND DUP2 MSTORE PUSH1 0x20 ADD PUSH1 0x1 DUP3 ADD DUP1 SLOAD PUSH2 0x9BF SWAP1 PUSH2 0x1308 JUMP JUMPDEST DUP1 PUSH1 0x1F ADD PUSH1 0x20 DUP1 SWAP2 DIV MUL PUSH1 0x20 ADD PUSH1 0x40 MLOAD SWAP1 DUP2 ADD PUSH1 0x40 MSTORE DUP1 SWAP3 SWAP2 SWAP1 DUP2 DUP2 MSTORE PUSH1 0x20 ADD DUP3 DUP1 SLOAD PUSH2 0x9EB SWAP1 PUSH2 0x1308 JUMP JUMPDEST DUP1 ISZERO PUSH2 0xA38 JUMPI DUP1 PUSH1 0x1F LT PUSH2 0xA0D JUMPI PUSH2 0x100 DUP1 DUP4 SLOAD DIV MUL DUP4 MSTORE SWAP2 PUSH1 0x20 ADD SWAP2 PUSH2 0xA38 JUMP JUMPDEST DUP3 ADD SWAP2 SWAP1 PUSH1 0x0 MSTORE PUSH1 0x20 PUSH1 0x0 KECCAK256 SWAP1 JUMPDEST DUP2 SLOAD DUP2 MSTORE SWAP1 PUSH1 0x1 ADD SWAP1 PUSH1 0x20 ADD DUP1 DUP4 GT PUSH2 0xA1B JUMPI DUP3 SWAP1 SUB PUSH1 0x1F AND DUP3 ADD SWAP2 JUMPDEST POP POP POP POP POP DUP2 MSTORE PUSH1 0x20 ADD PUSH1 0x2 DUP3 ADD SLOAD DUP2 MSTORE PUSH1 0x20 ADD PUSH1 0x3 DUP3 ADD SLOAD DUP2 MSTORE PUSH1 0x20 ADD PUSH1 0x4 DUP3 ADD SLOAD DUP2 MSTORE POP POP SWAP1 POP SWAP2 SWAP1 POP JUMP JUMPDEST DUP2 PUSH1 0x1 PUSH1 0x0 DUP4 PUSH20 0xFFFFFFFFFFFFFFFFFFFFFFFFFFFFFFFFFFFFFFFF AND PUSH20 0xFFFFFFFFFFFFFFFFFFFFFFFFFFFFFFFFFFFFFFFF AND DUP2 MSTORE PUSH1 0x20 ADD SWAP1 DUP2 MSTORE PUSH1 0x20 ADD PUSH1 0x0 KECCAK256 DUP4 DUP2 SLOAD DUP2 LT PUSH2 0xAB8 JUMPI PUSH2 0xAB7 PUSH2 0x168F JUMP JUMPDEST JUMPDEST SWAP1 PUSH1 0x0 MSTORE PUSH1 0x20 PUSH1 0x0 KECCAK256 SWAP1 PUSH1 0x5 MUL ADD PUSH1 0x4 ADD SLOAD EQ PUSH2 0xB0A JUMPI PUSH1 0x40 MLOAD PUSH32 0x8C379A000000000000000000000000000000000000000000000000000000000 DUP2 MSTORE PUSH1 0x4 ADD PUSH2 0xB01 SWAP1 PUSH2 0x170A JUMP JUMPDEST PUSH1 0x40 MLOAD DUP1 SWAP2 SUB SWAP1 REVERT JUMPDEST PUSH1 0x1 PUSH1 0x0 DUP3 PUSH20 0xFFFFFFFFFFFFFFFFFFFFFFFFFFFFFFFFFFFFFFFF AND PUSH20 0xFFFFFFFFFFFFFFFFFFFFFFFFFFFFFFFFFFFFFFFF AND DUP2 MSTORE PUSH1 0x20 ADD SWAP1 DUP2 MSTORE PUSH1 0x20 ADD PUSH1 0x0 KECCAK256 DUP3 DUP2 SLOAD DUP2 LT PUSH2 0xB5B JUMPI PUSH2 0xB5A PUSH2 0x168F JUMP JUMPDEST JUMPDEST SWAP1 PUSH1 0x0 MSTORE PUSH1 0x20 PUSH1 0x0 KECCAK256 SWAP1 PUSH1 0x5 MUL ADD PUSH1 0x3 ADD PUSH1 0x0 DUP2 SLOAD DUP1 SWAP3 SWAP2 SWAP1 PUSH2 0xB7D SWAP1 PUSH2 0x17EE JUMP JUMPDEST SWAP2 SWAP1 POP SSTORE POP POP POP JUMP JUMPDEST PUSH1 0x40 MLOAD DUP1 PUSH1 0xA0 ADD PUSH1 0x40 MSTORE DUP1 PUSH1 0x0 PUSH20 0xFFFFFFFFFFFFFFFFFFFFFFFFFFFFFFFFFFFFFFFF AND DUP2 MSTORE PUSH1 0x20 ADD PUSH1 0x60 DUP2 MSTORE PUSH1 0x20 ADD PUSH1 0x0 DUP2 MSTORE PUSH1 0x20 ADD PUSH1 0x0 DUP2 MSTORE PUSH1 0x20 ADD PUSH1 0x0 DUP2 MSTORE POP SWAP1 JUMP JUMPDEST PUSH1 0x0 PUSH1 0x40 MLOAD SWAP1 POP SWAP1 JUMP JUMPDEST PUSH1 0x0 DUP1 REVERT JUMPDEST PUSH1 0x0 DUP1 REVERT JUMPDEST PUSH1 0x0 PUSH20 0xFFFFFFFFFFFFFFFFFFFFFFFFFFFFFFFFFFFFFFFF DUP3 AND SWAP1 POP SWAP2 SWAP1 POP JUMP JUMPDEST PUSH1 0x0 PUSH2 0xC0A DUP3 PUSH2 0xBDF JUMP JUMPDEST SWAP1 POP SWAP2 SWAP1 POP JUMP JUMPDEST PUSH2 0xC1A DUP2 PUSH2 0xBFF JUMP JUMPDEST DUP2 EQ PUSH2 0xC25 JUMPI PUSH1 0x0 DUP1 REVERT JUMPDEST POP JUMP JUMPDEST PUSH1 0x0 DUP2 CALLDATALOAD SWAP1 POP PUSH2 0xC37 DUP2 PUSH2 0xC11 JUMP JUMPDEST SWAP3 SWAP2 POP POP JUMP JUMPDEST PUSH1 0x0 DUP2 SWAP1 POP SWAP2 SWAP1 POP JUMP JUMPDEST PUSH2 0xC50 DUP2 PUSH2 0xC3D JUMP JUMPDEST DUP2 EQ PUSH2 0xC5B JUMPI PUSH1 0x0 DUP1 REVERT JUMPDEST POP JUMP JUMPDEST PUSH1 0x0 DUP2 CALLDATALOAD SWAP1 POP PUSH2 0xC6D DUP2 PUSH2 0xC47 JUMP JUMPDEST SWAP3 SWAP2 POP POP JUMP JUMPDEST PUSH1 0x0 DUP1 PUSH1 0x40 DUP4 DUP6 SUB SLT ISZERO PUSH2 0xC8A JUMPI PUSH2 0xC89 PUSH2 0xBD5 JUMP JUMPDEST JUMPDEST PUSH1 0x0 PUSH2 0xC98 DUP6 DUP3 DUP7 ADD PUSH2 0xC28 JUMP JUMPDEST SWAP3 POP POP PUSH1 0x20 PUSH2 0xCA9 DUP6 DUP3 DUP7 ADD PUSH2 0xC5E JUMP JUMPDEST SWAP2 POP POP SWAP3 POP SWAP3 SWAP1 POP JUMP JUMPDEST PUSH2 0xCBC DUP2 PUSH2 0xBFF JUMP JUMPDEST DUP3 MSTORE POP POP JUMP JUMPDEST PUSH1 0x0 DUP2 MLOAD SWAP1 POP SWAP2 SWAP1 POP JUMP JUMPDEST PUSH1 0x0 DUP3 DUP3 MSTORE PUSH1 0x20 DUP3 ADD SWAP1 POP SWAP3 SWAP2 POP POP JUMP JUMPDEST PUSH1 0x0 JUMPDEST DUP4 DUP2 LT ISZERO PUSH2 0xCFC JUMPI DUP1 DUP3 ADD MLOAD DUP2 DUP5 ADD MSTORE PUSH1 0x20 DUP2 ADD SWAP1 POP PUSH2 0xCE1 JUMP JUMPDEST PUSH1 0x0 DUP5 DUP5 ADD MSTORE POP POP POP POP JUMP JUMPDEST PUSH1 0x0 PUSH1 0x1F NOT PUSH1 0x1F DUP4 ADD AND SWAP1 POP SWAP2 SWAP1 POP JUMP JUMPDEST PUSH1 0x0 PUSH2 0xD24 DUP3 PUSH2 0xCC2 JUMP JUMPDEST PUSH2 0xD2E DUP2 DUP6 PUSH2 0xCCD JUMP JUMPDEST SWAP4 POP PUSH2 0xD3E DUP2 DUP6 PUSH1 0x20 DUP7 ADD PUSH2 0xCDE JUMP JUMPDEST PUSH2 0xD47 DUP2 PUSH2 0xD08 JUMP JUMPDEST DUP5 ADD SWAP2 POP POP SWAP3 SWAP2 POP POP JUMP JUMPDEST PUSH2 0xD5B DUP2 PUSH2 0xC3D JUMP JUMPDEST DUP3 MSTORE POP POP JUMP JUMPDEST PUSH1 0x0 PUSH1 0xA0 DUP3 ADD SWAP1 POP PUSH2 0xD76 PUSH1 0x0 DUP4 ADD DUP9 PUSH2 0xCB3 JUMP JUMPDEST DUP2 DUP2 SUB PUSH1 0x20 DUP4 ADD MSTORE PUSH2 0xD88 DUP2 DUP8 PUSH2 0xD19 JUMP JUMPDEST SWAP1 POP PUSH2 0xD97 PUSH1 0x40 DUP4 ADD DUP7 PUSH2 0xD52 JUMP JUMPDEST PUSH2 0xDA4 PUSH1 0x60 DUP4 ADD DUP6 PUSH2 0xD52 JUMP JUMPDEST PUSH2 0xDB1 PUSH1 0x80 DUP4 ADD DUP5 PUSH2 0xD52 JUMP JUMPDEST SWAP7 SWAP6 POP POP POP POP POP POP JUMP JUMPDEST PUSH1 0x0 PUSH1 0x20 DUP3 DUP5 SUB SLT ISZERO PUSH2 0xDD1 JUMPI PUSH2 0xDD0 PUSH2 0xBD5 JUMP JUMPDEST JUMPDEST PUSH1 0x0 PUSH2 0xDDF DUP5 DUP3 DUP6 ADD PUSH2 0xC28 JUMP JUMPDEST SWAP2 POP POP SWAP3 SWAP2 POP POP JUMP JUMPDEST PUSH1 0x0 DUP2 MLOAD SWAP1 POP SWAP2 SWAP1 POP JUMP JUMPDEST PUSH1 0x0 DUP3 DUP3 MSTORE PUSH1 0x20 DUP3 ADD SWAP1 POP SWAP3 SWAP2 POP POP JUMP JUMPDEST PUSH1 0x0 DUP2 SWAP1 POP PUSH1 0x20 DUP3 ADD SWAP1 POP SWAP2 SWAP1 POP JUMP JUMPDEST PUSH2 0xE1D DUP2 PUSH2 0xBFF JUMP JUMPDEST DUP3 MSTORE POP POP JUMP JUMPDEST PUSH1 0x0 DUP3 DUP3 MSTORE PUSH1 0x20 DUP3 ADD SWAP1 POP SWAP3 SWAP2 POP POP JUMP JUMPDEST PUSH1 0x0 PUSH2 0xE3F DUP3 PUSH2 0xCC2 JUMP JUMPDEST PUSH2 0xE49 DUP2 DUP6 PUSH2 0xE23 JUMP JUMPDEST SWAP4 POP PUSH2 0xE59 DUP2 DUP6 PUSH1 0x20 DUP7 ADD PUSH2 0xCDE JUMP JUMPDEST PUSH2 0xE62 DUP2 PUSH2 0xD08 JUMP JUMPDEST DUP5 ADD SWAP2 POP POP SWAP3 SWAP2 POP POP JUMP JUMPDEST PUSH2 0xE76 DUP2 PUSH2 0xC3D JUMP JUMPDEST DUP3 MSTORE POP POP JUMP JUMPDEST PUSH1 0x0 PUSH1 0xA0 DUP4 ADD PUSH1 0x0 DUP4 ADD MLOAD PUSH2 0xE94 PUSH1 0x0 DUP7 ADD DUP3 PUSH2 0xE14 JUMP JUMPDEST POP PUSH1 0x20 DUP4 ADD MLOAD DUP5 DUP3 SUB PUSH1 0x20 DUP7 ADD MSTORE PUSH2 0xEAC DUP3 DUP3 PUSH2 0xE34 JUMP JUMPDEST SWAP2 POP POP PUSH1 0x40 DUP4 ADD MLOAD PUSH2 0xEC1 PUSH1 0x40 DUP7 ADD DUP3 PUSH2 0xE6D JUMP JUMPDEST POP PUSH1 0x60 DUP4 ADD MLOAD PUSH2 0xED4 PUSH1 0x60 DUP7 ADD DUP3 PUSH2 0xE6D JUMP JUMPDEST POP PUSH1 0x80 DUP4 ADD MLOAD PUSH2 0xEE7 PUSH1 0x80 DUP7 ADD DUP3 PUSH2 0xE6D JUMP JUMPDEST POP DUP1 SWAP2 POP POP SWAP3 SWAP2 POP POP JUMP JUMPDEST PUSH1 0x0 PUSH2 0xEFE DUP4 DUP4 PUSH2 0xE7C JUMP JUMPDEST SWAP1 POP SWAP3 SWAP2 POP POP JUMP JUMPDEST PUSH1 0x0 PUSH1 0x20 DUP3 ADD SWAP1 POP SWAP2 SWAP1 POP JUMP JUMPDEST PUSH1 0x0 PUSH2 0xF1E DUP3 PUSH2 0xDE8 JUMP JUMPDEST PUSH2 0xF28 DUP2 DUP6 PUSH2 0xDF3 JUMP JUMPDEST SWAP4 POP DUP4 PUSH1 0x20 DUP3 MUL DUP6 ADD PUSH2 0xF3A DUP6 PUSH2 0xE04 JUMP JUMPDEST DUP1 PUSH1 0x0 JUMPDEST DUP6 DUP2 LT ISZERO PUSH2 0xF76 JUMPI DUP5 DUP5 SUB DUP10 MSTORE DUP2 MLOAD PUSH2 0xF57 DUP6 DUP3 PUSH2 0xEF2 JUMP JUMPDEST SWAP5 POP PUSH2 0xF62 DUP4 PUSH2 0xF06 JUMP JUMPDEST SWAP3 POP PUSH1 0x20 DUP11 ADD SWAP10 POP POP PUSH1 0x1 DUP2 ADD SWAP1 POP PUSH2 0xF3E JUMP JUMPDEST POP DUP3 SWAP8 POP DUP8 SWAP6 POP POP POP POP POP POP SWAP3 SWAP2 POP POP JUMP JUMPDEST PUSH1 0x0 PUSH1 0x20 DUP3 ADD SWAP1 POP DUP2 DUP2 SUB PUSH1 0x0 DUP4 ADD MSTORE PUSH2 0xFA2 DUP2 DUP5 PUSH2 0xF13 JUMP JUMPDEST SWAP1 POP SWAP3 SWAP2 POP POP JUMP JUMPDEST PUSH1 0x0 PUSH2 0xFFFF DUP3 AND SWAP1 POP SWAP2 SWAP1 POP JUMP JUMPDEST PUSH2 0xFC1 DUP2 PUSH2 0xFAA JUMP JUMPDEST DUP2 EQ PUSH2 0xFCC JUMPI PUSH1 0x0 DUP1 REVERT JUMPDEST POP JUMP JUMPDEST PUSH1 0x0 DUP2 CALLDATALOAD SWAP1 POP PUSH2 0xFDE DUP2 PUSH2 0xFB8 JUMP JUMPDEST SWAP3 SWAP2 POP POP JUMP JUMPDEST PUSH1 0x0 PUSH1 0x20 DUP3 DUP5 SUB SLT ISZERO PUSH2 0xFFA JUMPI PUSH2 0xFF9 PUSH2 0xBD5 JUMP JUMPDEST JUMPDEST PUSH1 0x0 PUSH2 0x1008 DUP5 DUP3 DUP6 ADD PUSH2 0xFCF JUMP JUMPDEST SWAP2 POP POP SWAP3 SWAP2 POP POP JUMP JUMPDEST PUSH2 0x101A DUP2 PUSH2 0xFAA JUMP JUMPDEST DUP3 MSTORE POP POP JUMP JUMPDEST PUSH1 0x0 PUSH1 0x20 DUP3 ADD SWAP1 POP PUSH2 0x1035 PUSH1 0x0 DUP4 ADD DUP5 PUSH2 0x1011 JUMP JUMPDEST SWAP3 SWAP2 POP POP JUMP JUMPDEST PUSH1 0x0 DUP1 REVERT JUMPDEST PUSH1 0x0 DUP1 REVERT JUMPDEST PUSH32 0x4E487B7100000000000000000000000000000000000000000000000000000000 PUSH1 0x0 MSTORE PUSH1 0x41 PUSH1 0x4 MSTORE PUSH1 0x24 PUSH1 0x0 REVERT JUMPDEST PUSH2 0x107D DUP3 PUSH2 0xD08 JUMP JUMPDEST DUP2 ADD DUP2 DUP2 LT PUSH8 0xFFFFFFFFFFFFFFFF DUP3 GT OR ISZERO PUSH2 0x109C JUMPI PUSH2 0x109B PUSH2 0x1045 JUMP JUMPDEST JUMPDEST DUP1 PUSH1 0x40 MSTORE POP POP POP JUMP JUMPDEST PUSH1 0x0 PUSH2 0x10AF PUSH2 0xBCB JUMP JUMPDEST SWAP1 POP PUSH2 0x10BB DUP3 DUP3 PUSH2 0x1074 JUMP JUMPDEST SWAP2 SWAP1 POP JUMP JUMPDEST PUSH1 0x0 PUSH8 0xFFFFFFFFFFFFFFFF DUP3 GT ISZERO PUSH2 0x10DB JUMPI PUSH2 0x10DA PUSH2 0x1045 JUMP JUMPDEST JUMPDEST PUSH2 0x10E4 DUP3 PUSH2 0xD08 JUMP JUMPDEST SWAP1 POP PUSH1 0x20 DUP2 ADD SWAP1 POP SWAP2 SWAP1 POP JUMP JUMPDEST DUP3 DUP2 DUP4 CALLDATACOPY PUSH1 0x0 DUP4 DUP4 ADD MSTORE POP POP POP JUMP JUMPDEST PUSH1 0x0 PUSH2 0x1113 PUSH2 0x110E DUP5 PUSH2 0x10C0 JUMP JUMPDEST PUSH2 0x10A5 JUMP JUMPDEST SWAP1 POP DUP3 DUP2 MSTORE PUSH1 0x20 DUP2 ADD DUP5 DUP5 DUP5 ADD GT ISZERO PUSH2 0x112F JUMPI PUSH2 0x112E PUSH2 0x1040 JUMP JUMPDEST JUMPDEST PUSH2 0x113A DUP5 DUP3 DUP6 PUSH2 0x10F1 JUMP JUMPDEST POP SWAP4 SWAP3 POP POP POP JUMP JUMPDEST PUSH1 0x0 DUP3 PUSH1 0x1F DUP4 ADD SLT PUSH2 0x1157 JUMPI PUSH2 0x1156 PUSH2 0x103B JUMP JUMPDEST JUMPDEST DUP2 CALLDATALOAD PUSH2 0x1167 DUP5 DUP3 PUSH1 0x20 DUP7 ADD PUSH2 0x1100 JUMP JUMPDEST SWAP2 POP POP SWAP3 SWAP2 POP POP JUMP JUMPDEST PUSH1 0x0 PUSH1 0x20 DUP3 DUP5 SUB SLT ISZERO PUSH2 0x1186 JUMPI PUSH2 0x1185 PUSH2 0xBD5 JUMP JUMPDEST JUMPDEST PUSH1 0x0 DUP3 ADD CALLDATALOAD PUSH8 0xFFFFFFFFFFFFFFFF DUP2 GT ISZERO PUSH2 0x11A4 JUMPI PUSH2 0x11A3 PUSH2 0xBDA JUMP JUMPDEST JUMPDEST PUSH2 0x11B0 DUP5 DUP3 DUP6 ADD PUSH2 0x1142 JUMP JUMPDEST SWAP2 POP POP SWAP3 SWAP2 POP POP JUMP JUMPDEST PUSH1 0x0 PUSH1 0x20 DUP3 ADD SWAP1 POP PUSH2 0x11CE PUSH1 0x0 DUP4 ADD DUP5 PUSH2 0xCB3 JUMP JUMPDEST SWAP3 SWAP2 POP POP JUMP JUMPDEST PUSH1 0x0 DUP1 PUSH1 0x40 DUP4 DUP6 SUB SLT ISZERO PUSH2 0x11EB JUMPI PUSH2 0x11EA PUSH2 0xBD5 JUMP JUMPDEST JUMPDEST PUSH1 0x0 PUSH2 0x11F9 DUP6 DUP3 DUP7 ADD PUSH2 0xC5E JUMP JUMPDEST SWAP3 POP POP PUSH1 0x20 PUSH2 0x120A DUP6 DUP3 DUP7 ADD PUSH2 0xC28 JUMP JUMPDEST SWAP2 POP POP SWAP3 POP SWAP3 SWAP1 POP JUMP JUMPDEST PUSH1 0x0 PUSH1 0x20 DUP3 DUP5 SUB SLT ISZERO PUSH2 0x122A JUMPI PUSH2 0x1229 PUSH2 0xBD5 JUMP JUMPDEST JUMPDEST PUSH1 0x0 PUSH2 0x1238 DUP5 DUP3 DUP6 ADD PUSH2 0xC5E JUMP JUMPDEST SWAP2 POP POP SWAP3 SWAP2 POP POP JUMP JUMPDEST PUSH1 0x0 PUSH1 0xA0 DUP4 ADD PUSH1 0x0 DUP4 ADD MLOAD PUSH2 0x1259 PUSH1 0x0 DUP7 ADD DUP3 PUSH2 0xE14 JUMP JUMPDEST POP PUSH1 0x20 DUP4 ADD MLOAD DUP5 DUP3 SUB PUSH1 0x20 DUP7 ADD MSTORE PUSH2 0x1271 DUP3 DUP3 PUSH2 0xE34 JUMP JUMPDEST SWAP2 POP POP PUSH1 0x40 DUP4 ADD MLOAD PUSH2 0x1286 PUSH1 0x40 DUP7 ADD DUP3 PUSH2 0xE6D JUMP JUMPDEST POP PUSH1 0x60 DUP4 ADD MLOAD PUSH2 0x1299 PUSH1 0x60 DUP7 ADD DUP3 PUSH2 0xE6D JUMP JUMPDEST POP PUSH1 0x80 DUP4 ADD MLOAD PUSH2 0x12AC PUSH1 0x80 DUP7 ADD DUP3 PUSH2 0xE6D JUMP JUMPDEST POP DUP1 SWAP2 POP POP SWAP3 SWAP2 POP POP JUMP JUMPDEST PUSH1 0x0 PUSH1 0x20 DUP3 ADD SWAP1 POP DUP2 DUP2 SUB PUSH1 0x0 DUP4 ADD MSTORE PUSH2 0x12D1 DUP2 DUP5 PUSH2 0x1241 JUMP JUMPDEST SWAP1 POP SWAP3 SWAP2 POP POP JUMP JUMPDEST PUSH32 0x4E487B7100000000000000000000000000000000000000000000000000000000 PUSH1 0x0 MSTORE PUSH1 0x22 PUSH1 0x4 MSTORE PUSH1 0x24 PUSH1 0x0 REVERT JUMPDEST PUSH1 0x0 PUSH1 0x2 DUP3 DIV SWAP1 POP PUSH1 0x1 DUP3 AND DUP1 PUSH2 0x1320 JUMPI PUSH1 0x7F DUP3 AND SWAP2 POP JUMPDEST PUSH1 0x20 DUP3 LT DUP2 SUB PUSH2 0x1333 JUMPI PUSH2 0x1332 PUSH2 0x12D9 JUMP JUMPDEST JUMPDEST POP SWAP2 SWAP1 POP JUMP JUMPDEST PUSH32 0x594F5520415245204E4F5420544845204F574E45522100000000000000000000 PUSH1 0x0 DUP3 ADD MSTORE POP JUMP JUMPDEST PUSH1 0x0 PUSH2 0x136F PUSH1 0x16 DUP4 PUSH2 0xCCD JUMP JUMPDEST SWAP2 POP PUSH2 0x137A DUP3 PUSH2 0x1339 JUMP JUMPDEST PUSH1 0x20 DUP3 ADD SWAP1 POP SWAP2 SWAP1 POP JUMP JUMPDEST PUSH1 0x0 PUSH1 0x20 DUP3 ADD SWAP1 POP DUP2 DUP2 SUB PUSH1 0x0 DUP4 ADD MSTORE PUSH2 0x139E DUP2 PUSH2 0x1362 JUMP JUMPDEST SWAP1 POP SWAP2 SWAP1 POP JUMP JUMPDEST PUSH32 0x547765657420697320746F6F206C6F6E672062726F2100000000000000000000 PUSH1 0x0 DUP3 ADD MSTORE POP JUMP JUMPDEST PUSH1 0x0 PUSH2 0x13DB PUSH1 0x16 DUP4 PUSH2 0xCCD JUMP JUMPDEST SWAP2 POP PUSH2 0x13E6 DUP3 PUSH2 0x13A5 JUMP JUMPDEST PUSH1 0x20 DUP3 ADD SWAP1 POP SWAP2 SWAP1 POP JUMP JUMPDEST PUSH1 0x0 PUSH1 0x20 DUP3 ADD SWAP1 POP DUP2 DUP2 SUB PUSH1 0x0 DUP4 ADD MSTORE PUSH2 0x140A DUP2 PUSH2 0x13CE JUMP JUMPDEST SWAP1 POP SWAP2 SWAP1 POP JUMP JUMPDEST PUSH1 0x0 DUP2 SWAP1 POP DUP2 PUSH1 0x0 MSTORE PUSH1 0x20 PUSH1 0x0 KECCAK256 SWAP1 POP SWAP2 SWAP1 POP JUMP JUMPDEST PUSH1 0x0 PUSH1 0x20 PUSH1 0x1F DUP4 ADD DIV SWAP1 POP SWAP2 SWAP1 POP JUMP JUMPDEST PUSH1 0x0 DUP3 DUP3 SHL SWAP1 POP SWAP3 SWAP2 POP POP JUMP JUMPDEST PUSH1 0x0 PUSH1 0x8 DUP4 MUL PUSH2 0x1473 PUSH32 0xFFFFFFFFFFFFFFFFFFFFFFFFFFFFFFFFFFFFFFFFFFFFFFFFFFFFFFFFFFFFFFFF DUP3 PUSH2 0x1436 JUMP JUMPDEST PUSH2 0x147D DUP7 DUP4 PUSH2 0x1436 JUMP JUMPDEST SWAP6 POP DUP1 NOT DUP5 AND SWAP4 POP DUP1 DUP7 AND DUP5 OR SWAP3 POP POP POP SWAP4 SWAP3 POP POP POP JUMP JUMPDEST PUSH1 0x0 DUP2 SWAP1 POP SWAP2 SWAP1 POP JUMP JUMPDEST PUSH1 0x0 PUSH2 0x14BA PUSH2 0x14B5 PUSH2 0x14B0 DUP5 PUSH2 0xC3D JUMP JUMPDEST PUSH2 0x1495 JUMP JUMPDEST PUSH2 0xC3D JUMP JUMPDEST SWAP1 POP SWAP2 SWAP1 POP JUMP JUMPDEST PUSH1 0x0 DUP2 SWAP1 POP SWAP2 SWAP1 POP JUMP JUMPDEST PUSH2 0x14D4 DUP4 PUSH2 0x149F JUMP JUMPDEST PUSH2 0x14E8 PUSH2 0x14E0 DUP3 PUSH2 0x14C1 JUMP JUMPDEST DUP5 DUP5 SLOAD PUSH2 0x1443 JUMP JUMPDEST DUP3 SSTORE POP POP POP POP JUMP JUMPDEST PUSH1 0x0 SWAP1 JUMP JUMPDEST PUSH2 0x14FD PUSH2 0x14F0 JUMP JUMPDEST PUSH2 0x1508 DUP2 DUP5 DUP5 PUSH2 0x14CB JUMP JUMPDEST POP POP POP JUMP JUMPDEST JUMPDEST DUP2 DUP2 LT ISZERO PUSH2 0x152C JUMPI PUSH2 0x1521 PUSH1 0x0 DUP3 PUSH2 0x14F5 JUMP JUMPDEST PUSH1 0x1 DUP2 ADD SWAP1 POP PUSH2 0x150E JUMP JUMPDEST POP POP JUMP JUMPDEST PUSH1 0x1F DUP3 GT ISZERO PUSH2 0x1571 JUMPI PUSH2 0x1542 DUP2 PUSH2 0x1411 JUMP JUMPDEST PUSH2 0x154B DUP5 PUSH2 0x1426 JUMP JUMPDEST DUP2 ADD PUSH1 0x20 DUP6 LT ISZERO PUSH2 0x155A JUMPI DUP2 SWAP1 POP JUMPDEST PUSH2 0x156E PUSH2 0x1566 DUP6 PUSH2 0x1426 JUMP JUMPDEST DUP4 ADD DUP3 PUSH2 0x150D JUMP JUMPDEST POP POP JUMPDEST POP POP POP JUMP JUMPDEST PUSH1 0x0 DUP3 DUP3 SHR SWAP1 POP SWAP3 SWAP2 POP POP JUMP JUMPDEST PUSH1 0x0 PUSH2 0x1594 PUSH1 0x0 NOT DUP5 PUSH1 0x8 MUL PUSH2 0x1576 JUMP JUMPDEST NOT DUP1 DUP4 AND SWAP2 POP POP SWAP3 SWAP2 POP POP JUMP JUMPDEST PUSH1 0x0 PUSH2 0x15AD DUP4 DUP4 PUSH2 0x1583 JUMP JUMPDEST SWAP2 POP DUP3 PUSH1 0x2 MUL DUP3 OR SWAP1 POP SWAP3 SWAP2 POP POP JUMP JUMPDEST PUSH2 0x15C6 DUP3 PUSH2 0xCC2 JUMP JUMPDEST PUSH8 0xFFFFFFFFFFFFFFFF DUP2 GT ISZERO PUSH2 0x15DF JUMPI PUSH2 0x15DE PUSH2 0x1045 JUMP JUMPDEST JUMPDEST PUSH2 0x15E9 DUP3 SLOAD PUSH2 0x1308 JUMP JUMPDEST PUSH2 0x15F4 DUP3 DUP3 DUP6 PUSH2 0x1530 JUMP JUMPDEST PUSH1 0x0 PUSH1 0x20 SWAP1 POP PUSH1 0x1F DUP4 GT PUSH1 0x1 DUP2 EQ PUSH2 0x1627 JUMPI PUSH1 0x0 DUP5 ISZERO PUSH2 0x1615 JUMPI DUP3 DUP8 ADD MLOAD SWAP1 POP JUMPDEST PUSH2 0x161F DUP6 DUP3 PUSH2 0x15A1 JUMP JUMPDEST DUP7 SSTORE POP PUSH2 0x1687 JUMP JUMPDEST PUSH1 0x1F NOT DUP5 AND PUSH2 0x1635 DUP7 PUSH2 0x1411 JUMP JUMPDEST PUSH1 0x0 JUMPDEST DUP3 DUP2 LT ISZERO PUSH2 0x165D JUMPI DUP5 DUP10 ADD MLOAD DUP3 SSTORE PUSH1 0x1 DUP3 ADD SWAP2 POP PUSH1 0x20 DUP6 ADD SWAP5 POP PUSH1 0x20 DUP2 ADD SWAP1 POP PUSH2 0x1638 JUMP JUMPDEST DUP7 DUP4 LT ISZERO PUSH2 0x167A JUMPI DUP5 DUP10 ADD MLOAD PUSH2 0x1676 PUSH1 0x1F DUP10 AND DUP3 PUSH2 0x1583 JUMP JUMPDEST DUP4 SSTORE POP JUMPDEST PUSH1 0x1 PUSH1 0x2 DUP9 MUL ADD DUP9 SSTORE POP POP POP JUMPDEST POP POP POP POP POP POP JUMP JUMPDEST PUSH32 0x4E487B7100000000000000000000000000000000000000000000000000000000 PUSH1 0x0 MSTORE PUSH1 0x32 PUSH1 0x4 MSTORE PUSH1 0x24 PUSH1 0x0 REVERT JUMPDEST PUSH32 0x4E6F742045786973697400000000000000000000000000000000000000000000 PUSH1 0x0 DUP3 ADD MSTORE POP JUMP JUMPDEST PUSH1 0x0 PUSH2 0x16F4 PUSH1 0xA DUP4 PUSH2 0xCCD JUMP JUMPDEST SWAP2 POP PUSH2 0x16FF DUP3 PUSH2 0x16BE JUMP JUMPDEST PUSH1 0x20 DUP3 ADD SWAP1 POP SWAP2 SWAP1 POP JUMP JUMPDEST PUSH1 0x0 PUSH1 0x20 DUP3 ADD SWAP1 POP DUP2 DUP2 SUB PUSH1 0x0 DUP4 ADD MSTORE PUSH2 0x1723 DUP2 PUSH2 0x16E7 JUMP JUMPDEST SWAP1 POP SWAP2 SWAP1 POP JUMP JUMPDEST PUSH32 0x4E6F206C696B6573000000000000000000000000000000000000000000000000 PUSH1 0x0 DUP3 ADD MSTORE POP JUMP JUMPDEST PUSH1 0x0 PUSH2 0x1760 PUSH1 0x8 DUP4 PUSH2 0xCCD JUMP JUMPDEST SWAP2 POP PUSH2 0x176B DUP3 PUSH2 0x172A JUMP JUMPDEST PUSH1 0x20 DUP3 ADD SWAP1 POP SWAP2 SWAP1 POP JUMP JUMPDEST PUSH1 0x0 PUSH1 0x20 DUP3 ADD SWAP1 POP DUP2 DUP2 SUB PUSH1 0x0 DUP4 ADD MSTORE PUSH2 0x178F DUP2 PUSH2 0x1753 JUMP JUMPDEST SWAP1 POP SWAP2 SWAP1 POP JUMP JUMPDEST PUSH32 0x4E487B7100000000000000000000000000000000000000000000000000000000 PUSH1 0x0 MSTORE PUSH1 0x11 PUSH1 0x4 MSTORE PUSH1 0x24 PUSH1 0x0 REVERT JUMPDEST PUSH1 0x0 PUSH2 0x17D0 DUP3 PUSH2 0xC3D JUMP JUMPDEST SWAP2 POP PUSH1 0x0 DUP3 SUB PUSH2 0x17E3 JUMPI PUSH2 0x17E2 PUSH2 0x1796 JUMP JUMPDEST JUMPDEST PUSH1 0x1 DUP3 SUB SWAP1 POP SWAP2 SWAP1 POP JUMP JUMPDEST PUSH1 0x0 PUSH2 0x17F9 DUP3 PUSH2 0xC3D JUMP JUMPDEST SWAP2 POP PUSH32 0xFFFFFFFFFFFFFFFFFFFFFFFFFFFFFFFFFFFFFFFFFFFFFFFFFFFFFFFFFFFFFFFF DUP3 SUB PUSH2 0x182B JUMPI PUSH2 0x182A PUSH2 0x1796 JUMP JUMPDEST JUMPDEST PUSH1 0x1 DUP3 ADD SWAP1 POP SWAP2 SWAP1 POP JUMP INVALID LOG2 PUSH5 0x6970667358 0x22 SLT KECCAK256 PUSH15 0x86EFFB5474B57B69D2992FF84CE095 CODESIZE 0xD9 GASLIMIT SWAP15 DIV PC DUP8 0x23 EQ 0xE5 ADDRESS PUSH28 0xF97C933464736F6C6343000812003300000000000000000000000000 "
				},
				"gasEstimates": {
					"creation": {
						"codeDepositCost": "1250400",
						"executionCost": "49835",
						"totalCost": "1300235"
					},
					"external": {
						"MAX_TWEET_LENGTH()": "2535",
						"changeTweetLength(uint16)": "26894",
						"createTweet(string)": "infinite",
						"getAllTweets(address)": "infinite",
						"getTweet(uint256)": "infinite",
						"likeTweet(uint256,address)": "infinite",
						"owner()": "2536",
						"tweets(address,uint256)": "infinite",
						"unlikeTweet(uint256,address)": "infinite"
					}
				},
				"methodIdentifiers": {
					"MAX_TWEET_LENGTH()": "6eb10797",
					"changeTweetLength(uint16)": "58bfa4ab",
					"createTweet(string)": "7c9cd2bc",
					"getAllTweets(address)": "12e7ee1c",
					"getTweet(uint256)": "c3ad5ecb",
					"likeTweet(uint256,address)": "d04ddaa0",
					"owner()": "8da5cb5b",
					"tweets(address,uint256)": "05a1b4a9",
					"unlikeTweet(uint256,address)": "a1488f7c"
				}
			},
			"storageLayout": {
				"storage": [
					{
						"astId": 4,
						"contract": "contracts/Twitter.sol:Twitter",
						"label": "MAX_TWEET_LENGTH",
						"offset": 0,
						"slot": "0",
						"type": "t_uint16"
					},
					{
						"astId": 21,
						"contract": "contracts/Twitter.sol:Twitter",
						"label": "tweets",
						"offset": 0,
						"slot": "1",
						"type": "t_mapping(t_address,t_array(t_struct(Tweet)15_storage)dyn_storage)"
					},
					{
						"astId": 23,
						"contract": "contracts/Twitter.sol:Twitter",
						"label": "owner",
						"offset": 0,
						"slot": "2",
						"type": "t_address"
					}
				],
				"types": {
					"t_address": {
						"encoding": "inplace",
						"label": "address",
						"numberOfBytes": "20"
					},
					"t_array(t_struct(Tweet)15_storage)dyn_storage": {
						"base": "t_struct(Tweet)15_storage",
						"encoding": "dynamic_array",
						"label": "struct Twitter.Tweet[]",
						"numberOfBytes": "32"
					},
					"t_mapping(t_address,t_array(t_struct(Tweet)15_storage)dyn_storage)": {
						"encoding": "mapping",
						"key": "t_address",
						"label": "mapping(address => struct Twitter.Tweet[])",
						"numberOfBytes": "32",
						"value": "t_array(t_struct(Tweet)15_storage)dyn_storage"
					},
					"t_string_storage": {
						"encoding": "bytes",
						"label": "string",
						"numberOfBytes": "32"
					},
					"t_struct(Tweet)15_storage": {
						"encoding": "inplace",
						"label": "struct Twitter.Tweet",
						"members": [
							{
								"astId": 6,
								"contract": "contracts/Twitter.sol:Twitter",
								"label": "author",
								"offset": 0,
								"slot": "0",
								"type": "t_address"
							},
							{
								"astId": 8,
								"contract": "contracts/Twitter.sol:Twitter",
								"label": "content",
								"offset": 0,
								"slot": "1",
								"type": "t_string_storage"
							},
							{
								"astId": 10,
								"contract": "contracts/Twitter.sol:Twitter",
								"label": "timestamp",
								"offset": 0,
								"slot": "2",
								"type": "t_uint256"
							},
							{
								"astId": 12,
								"contract": "contracts/Twitter.sol:Twitter",
								"label": "likes",
								"offset": 0,
								"slot": "3",
								"type": "t_uint256"
							},
							{
								"astId": 14,
								"contract": "contracts/Twitter.sol:Twitter",
								"label": "id",
								"offset": 0,
								"slot": "4",
								"type": "t_uint256"
							}
						],
						"numberOfBytes": "160"
					},
					"t_uint16": {
						"encoding": "inplace",
						"label": "uint16",
						"numberOfBytes": "2"
					},
					"t_uint256": {
						"encoding": "inplace",
						"label": "uint256",
						"numberOfBytes": "32"
					}
				}
			},
			"userdoc": {
				"kind": "user",
				"methods": {},
				"version": 1
			}
		}
	}
}